{"abi":[{"inputs":[],"stateMutability":"nonpayable","type":"constructor"},{"inputs":[{"internalType":"address","name":"doctorAddress","type":"address"},{"internalType":"string","name":"doctorName","type":"string"},{"internalType":"string","name":"phoneNumber","type":"string"}],"name":"addDoctor","outputs":[],"stateMutability":"nonpayable","type":"function"},{"inputs":[{"internalType":"address","name":"patientAddress","type":"address"},{"internalType":"string","name":"patientName","type":"string"},{"internalType":"string","name":"phoneNumber","type":"string"}],"name":"addPatient","outputs":[],"stateMutability":"nonpayable","type":"function"},{"inputs":[],"name":"admin","outputs":[{"internalType":"address","name":"","type":"address"}],"stateMutability":"view","type":"function"},{"inputs":[{"internalType":"address","name":"patientAddress","type":"address"},{"internalType":"address","name":"doctorAddress","type":"address"}],"name":"assign","outputs":[],"stateMutability":"nonpayable","type":"function"},{"inputs":[{"internalType":"address","name":"patientAddress","type":"address"},{"internalType":"string","name":"diagnosis","type":"string"},{"internalType":"string","name":"treatmentPrescribed","type":"string"},{"internalType":"uint256","name":"recordNumber","type":"uint256"}],"name":"createAppointment","outputs":[],"stateMutability":"nonpayable","type":"function"},{"inputs":[{"internalType":"address","name":"patientAddress","type":"address"},{"internalType":"string","name":"patientHistoryDescription","type":"string"}],"name":"createRecord","outputs":[],"stateMutability":"nonpayable","type":"function"},{"inputs":[{"internalType":"uint256","name":"","type":"uint256"}],"name":"doctorList","outputs":[{"internalType":"address","name":"","type":"address"}],"stateMutability":"view","type":"function"},{"inputs":[{"internalType":"address","name":"doctorAddress","type":"address"}],"name":"getDoctor","outputs":[{"internalType":"string","name":"","type":"string"},{"internalType":"string","name":"","type":"string"},{"internalType":"uint256","name":"","type":"uint256"},{"internalType":"uint256[]","name":"","type":"uint256[]"}],"stateMutability":"view","type":"function"},{"inputs":[],"name":"getDoctorList","outputs":[{"internalType":"address[]","name":"","type":"address[]"}],"stateMutability":"view","type":"function"},{"inputs":[{"internalType":"uint256","name":"recordNumber","type":"uint256"}],"name":"getMedicalRecord","outputs":[{"components":[{"internalType":"uint256","name":"recordNumber","type":"uint256"},{"internalType":"address","name":"doctorAddress","type":"address"},{"internalType":"address","name":"patientAddress","type":"address"},{"internalType":"string","name":"patientHistoryDescription","type":"string"},{"internalType":"uint256[]","name":"appointmentNumberList","type":"uint256[]"}],"internalType":"struct Contract.Record","name":"","type":"tuple"}],"stateMutability":"view","type":"function"},{"inputs":[{"internalType":"address","name":"patientAddress","type":"address"}],"name":"getPatient","outputs":[{"internalType":"string","name":"","type":"string"},{"internalType":"string","name":"","type":"string"},{"internalType":"uint256","name":"","type":"uint256"},{"internalType":"uint256[]","name":"","type":"uint256[]"}],"stateMutability":"view","type":"function"},{"inputs":[{"internalType":"address","name":"senderAddress","type":"address"}],"name":"getRecordCount","outputs":[{"internalType":"uint256","name":"","type":"uint256"}],"stateMutability":"view","type":"function"},{"inputs":[{"internalType":"address","name":"senderAddress","type":"address"}],"name":"getRecordNumbers","outputs":[{"internalType":"uint256[]","name":"","type":"uint256[]"}],"stateMutability":"view","type":"function"},{"inputs":[{"internalType":"address","name":"patientAddress","type":"address"}],"name":"isAssignedToDoctor","outputs":[{"internalType":"bool","name":"","type":"bool"}],"stateMutability":"view","type":"function"},{"inputs":[{"internalType":"address","name":"givenAddress","type":"address"}],"name":"isDoctor","outputs":[{"internalType":"bool","name":"","type":"bool"}],"stateMutability":"view","type":"function"},{"inputs":[{"internalType":"address","name":"givenAddress","type":"address"}],"name":"isPatient","outputs":[{"internalType":"bool","name":"","type":"bool"}],"stateMutability":"view","type":"function"},{"inputs":[{"internalType":"uint256","name":"","type":"uint256"}],"name":"patientList","outputs":[{"internalType":"address","name":"","type":"address"}],"stateMutability":"view","type":"function"},{"inputs":[{"internalType":"uint256","name":"","type":"uint256"}],"name":"recordList","outputs":[{"internalType":"uint256","name":"recordNumber","type":"uint256"},{"internalType":"address","name":"doctorAddress","type":"address"},{"internalType":"address","name":"patientAddress","type":"address"},{"internalType":"string","name":"patientHistoryDescription","type":"string"}],"stateMutability":"view","type":"function"}],"devdoc":{"kind":"dev","methods":{},"version":1},"evm":{"assembly":"    /* \"Contract.sol\":961:8576  contract Contract... */\n  mstore(0x40, 0x80)\n    /* \"Contract.sol\":2118:2202  constructor() ... */\n  callvalue\n  dup1\n  iszero\n  tag_1\n  jumpi\n  0x00\n  dup1\n  revert\ntag_1:\n  pop\n    /* \"Contract.sol\":2155:2165  msg.sender */\n  caller\n    /* \"Contract.sol\":2147:2152  admin */\n  0x0a\n  0x00\n    /* \"Contract.sol\":2147:2165  admin = msg.sender */\n  0x0100\n  exp\n  dup2\n  sload\n  dup2\n  0xffffffffffffffffffffffffffffffffffffffff\n  mul\n  not\n  and\n  swap1\n  dup4\n  0xffffffffffffffffffffffffffffffffffffffff\n  and\n  mul\n  or\n  swap1\n  sstore\n  pop\n    /* \"Contract.sol\":2175:2195  adminRole.add(admin) */\n  tag_4\n    /* \"Contract.sol\":2189:2194  admin */\n  0x0a\n  0x00\n  swap1\n  sload\n  swap1\n  0x0100\n  exp\n  swap1\n  div\n  0xffffffffffffffffffffffffffffffffffffffff\n  and\n    /* \"Contract.sol\":2175:2184  adminRole */\n  0x00\n    /* \"Contract.sol\":2175:2188  adminRole.add */\n  or(tag_0_103, shl(0x20, tag_5))\n  swap1\n    /* \"Contract.sol\":2175:2195  adminRole.add(admin) */\n  swap2\n  swap1\n  0x20\n  shr\n  jump\t// in\ntag_4:\n    /* \"Contract.sol\":961:8576  contract Contract... */\n  jump(tag_6)\n    /* \"Contract.sol\":301:481  function add(Role storage role, address account) internal ... */\ntag_5:\n    /* \"Contract.sol\":383:401  has(role, account) */\n  tag_8\n    /* \"Contract.sol\":387:391  role */\n  dup3\n    /* \"Contract.sol\":393:400  account */\n  dup3\n    /* \"Contract.sol\":383:386  has */\n  shl(0x20, tag_9)\n    /* \"Contract.sol\":383:401  has(role, account) */\n  0x20\n  shr\n  jump\t// in\ntag_8:\n    /* \"Contract.sol\":382:401  !has(role, account) */\n  iszero\n    /* \"Contract.sol\":374:437  require(!has(role, account), \"Roles: account already has role\") */\n  tag_10\n  jumpi\n  mload(0x40)\n  0x08c379a000000000000000000000000000000000000000000000000000000000\n  dup2\n  mstore\n  0x04\n  add\n  tag_11\n  swap1\n  tag_12\n  jump\t// in\ntag_11:\n  mload(0x40)\n  dup1\n  swap2\n  sub\n  swap1\n  revert\ntag_10:\n    /* \"Contract.sol\":470:474  true */\n  0x01\n    /* \"Contract.sol\":447:451  role */\n  dup3\n    /* \"Contract.sol\":447:458  role.bearer */\n  0x00\n  add\n    /* \"Contract.sol\":447:467  role.bearer[account] */\n  0x00\n    /* \"Contract.sol\":459:466  account */\n  dup4\n    /* \"Contract.sol\":447:467  role.bearer[account] */\n  0xffffffffffffffffffffffffffffffffffffffff\n  and\n  0xffffffffffffffffffffffffffffffffffffffff\n  and\n  dup2\n  mstore\n  0x20\n  add\n  swap1\n  dup2\n  mstore\n  0x20\n  add\n  0x00\n  keccak256\n  0x00\n    /* \"Contract.sol\":447:474  role.bearer[account] = true */\n  0x0100\n  exp\n  dup2\n  sload\n  dup2\n  0xff\n  mul\n  not\n  and\n  swap1\n  dup4\n  iszero\n  iszero\n  mul\n  or\n  swap1\n  sstore\n  pop\n    /* \"Contract.sol\":301:481  function add(Role storage role, address account) internal ... */\n  pop\n  pop\n  jump\t// out\n    /* \"Contract.sol\":830:957  function has(Role storage role, address account) internal view returns (bool) ... */\ntag_9:\n    /* \"Contract.sol\":902:906  bool */\n  0x00\n    /* \"Contract.sol\":930:934  role */\n  dup3\n    /* \"Contract.sol\":930:941  role.bearer */\n  0x00\n  add\n    /* \"Contract.sol\":930:950  role.bearer[account] */\n  0x00\n    /* \"Contract.sol\":942:949  account */\n  dup4\n    /* \"Contract.sol\":930:950  role.bearer[account] */\n  0xffffffffffffffffffffffffffffffffffffffff\n  and\n  0xffffffffffffffffffffffffffffffffffffffff\n  and\n  dup2\n  mstore\n  0x20\n  add\n  swap1\n  dup2\n  mstore\n  0x20\n  add\n  0x00\n  keccak256\n  0x00\n  swap1\n  sload\n  swap1\n  0x0100\n  exp\n  swap1\n  div\n  0xff\n  and\n    /* \"Contract.sol\":923:950  return role.bearer[account] */\n  swap1\n  pop\n    /* \"Contract.sol\":830:957  function has(Role storage role, address account) internal view returns (bool) ... */\n  swap3\n  swap2\n  pop\n  pop\n  jump\t// out\n    /* \"#utility.yul\":7:176   */\ntag_14:\n    /* \"#utility.yul\":91:102   */\n  0x00\n    /* \"#utility.yul\":125:131   */\n  dup3\n    /* \"#utility.yul\":120:123   */\n  dup3\n    /* \"#utility.yul\":113:132   */\n  mstore\n    /* \"#utility.yul\":165:169   */\n  0x20\n    /* \"#utility.yul\":160:163   */\n  dup3\n    /* \"#utility.yul\":156:170   */\n  add\n    /* \"#utility.yul\":141:170   */\n  swap1\n  pop\n    /* \"#utility.yul\":7:176   */\n  swap3\n  swap2\n  pop\n  pop\n  jump\t// out\n    /* \"#utility.yul\":182:363   */\ntag_15:\n    /* \"#utility.yul\":322:355   */\n  0x526f6c65733a206163636f756e7420616c72656164792068617320726f6c6500\n    /* \"#utility.yul\":318:319   */\n  0x00\n    /* \"#utility.yul\":310:316   */\n  dup3\n    /* \"#utility.yul\":306:320   */\n  add\n    /* \"#utility.yul\":299:356   */\n  mstore\n    /* \"#utility.yul\":182:363   */\n  pop\n  jump\t// out\n    /* \"#utility.yul\":369:735   */\ntag_16:\n    /* \"#utility.yul\":511:514   */\n  0x00\n    /* \"#utility.yul\":532:599   */\n  tag_21\n    /* \"#utility.yul\":596:598   */\n  0x1f\n    /* \"#utility.yul\":591:594   */\n  dup4\n    /* \"#utility.yul\":532:599   */\n  tag_14\n  jump\t// in\ntag_21:\n    /* \"#utility.yul\":525:599   */\n  swap2\n  pop\n    /* \"#utility.yul\":608:701   */\n  tag_22\n    /* \"#utility.yul\":697:700   */\n  dup3\n    /* \"#utility.yul\":608:701   */\n  tag_15\n  jump\t// in\ntag_22:\n    /* \"#utility.yul\":726:728   */\n  0x20\n    /* \"#utility.yul\":721:724   */\n  dup3\n    /* \"#utility.yul\":717:729   */\n  add\n    /* \"#utility.yul\":710:729   */\n  swap1\n  pop\n    /* \"#utility.yul\":369:735   */\n  swap2\n  swap1\n  pop\n  jump\t// out\n    /* \"#utility.yul\":741:1160   */\ntag_12:\n    /* \"#utility.yul\":907:911   */\n  0x00\n    /* \"#utility.yul\":945:947   */\n  0x20\n    /* \"#utility.yul\":934:943   */\n  dup3\n    /* \"#utility.yul\":930:948   */\n  add\n    /* \"#utility.yul\":922:948   */\n  swap1\n  pop\n    /* \"#utility.yul\":994:1003   */\n  dup2\n    /* \"#utility.yul\":988:992   */\n  dup2\n    /* \"#utility.yul\":984:1004   */\n  sub\n    /* \"#utility.yul\":980:981   */\n  0x00\n    /* \"#utility.yul\":969:978   */\n  dup4\n    /* \"#utility.yul\":965:982   */\n  add\n    /* \"#utility.yul\":958:1005   */\n  mstore\n    /* \"#utility.yul\":1022:1153   */\n  tag_24\n    /* \"#utility.yul\":1148:1152   */\n  dup2\n    /* \"#utility.yul\":1022:1153   */\n  tag_16\n  jump\t// in\ntag_24:\n    /* \"#utility.yul\":1014:1153   */\n  swap1\n  pop\n    /* \"#utility.yul\":741:1160   */\n  swap2\n  swap1\n  pop\n  jump\t// out\n    /* \"Contract.sol\":961:8576  contract Contract... */\ntag_6:\n  dataSize(sub_0)\n  dup1\n  dataOffset(sub_0)\n  0x00\n  codecopy\n  0x00\n  return\nstop\n\nsub_0: assembly {\n        /* \"Contract.sol\":961:8576  contract Contract... */\n      mstore(0x40, 0x80)\n      callvalue\n      dup1\n      iszero\n      tag_1\n      jumpi\n      0x00\n      dup1\n      revert\n    tag_1:\n      pop\n      jumpi(tag_2, lt(calldatasize, 0x04))\n      shr(0xe0, calldataload(0x00))\n      dup1\n      0x58214308\n      gt\n      tag_21\n      jumpi\n      dup1\n      0xa71aefc9\n      gt\n      tag_22\n      jumpi\n      dup1\n      0xa71aefc9\n      eq\n      tag_16\n      jumpi\n      dup1\n      0xb105e22e\n      eq\n      tag_17\n      jumpi\n      dup1\n      0xb5368e20\n      eq\n      tag_18\n      jumpi\n      dup1\n      0xbabb1d41\n      eq\n      tag_19\n      jumpi\n      dup1\n      0xf851a440\n      eq\n      tag_20\n      jumpi\n      jump(tag_2)\n    tag_22:\n      dup1\n      0x58214308\n      eq\n      tag_12\n      jumpi\n      dup1\n      0x8f9c79ed\n      eq\n      tag_13\n      jumpi\n      dup1\n      0x9429e171\n      eq\n      tag_14\n      jumpi\n      dup1\n      0x996440c6\n      eq\n      tag_15\n      jumpi\n      jump(tag_2)\n    tag_21:\n      dup1\n      0x2f04e064\n      gt\n      tag_23\n      jumpi\n      dup1\n      0x2f04e064\n      eq\n      tag_7\n      jumpi\n      dup1\n      0x34b3e4f1\n      eq\n      tag_8\n      jumpi\n      dup1\n      0x34b78998\n      eq\n      tag_9\n      jumpi\n      dup1\n      0x37b16b50\n      eq\n      tag_10\n      jumpi\n      dup1\n      0x400d288f\n      eq\n      tag_11\n      jumpi\n      jump(tag_2)\n    tag_23:\n      dup1\n      0x0c388722\n      eq\n      tag_3\n      jumpi\n      dup1\n      0x127ca4b4\n      eq\n      tag_4\n      jumpi\n      dup1\n      0x19da83a8\n      eq\n      tag_5\n      jumpi\n      dup1\n      0x1f21a79d\n      eq\n      tag_6\n      jumpi\n    tag_2:\n      0x00\n      dup1\n      revert\n        /* \"Contract.sol\":6549:6816  function getMedicalRecord(uint recordNumber) public view returns(Record memory)... */\n    tag_3:\n      tag_24\n      0x04\n      dup1\n      calldatasize\n      sub\n      dup2\n      add\n      swap1\n      tag_25\n      swap2\n      swap1\n      tag_26\n      jump\t// in\n    tag_25:\n      tag_27\n      jump\t// in\n    tag_24:\n      mload(0x40)\n      tag_28\n      swap2\n      swap1\n      tag_29\n      jump\t// in\n    tag_28:\n      mload(0x40)\n      dup1\n      swap2\n      sub\n      swap1\n      return\n        /* \"Contract.sol\":2023:2050  address[] public doctorList */\n    tag_4:\n      tag_30\n      0x04\n      dup1\n      calldatasize\n      sub\n      dup2\n      add\n      swap1\n      tag_31\n      swap2\n      swap1\n      tag_26\n      jump\t// in\n    tag_31:\n      tag_32\n      jump\t// in\n    tag_30:\n      mload(0x40)\n      tag_33\n      swap2\n      swap1\n      tag_34\n      jump\t// in\n    tag_33:\n      mload(0x40)\n      dup1\n      swap2\n      sub\n      swap1\n      return\n        /* \"Contract.sol\":1990:2016  Record[] public recordList */\n    tag_5:\n      tag_35\n      0x04\n      dup1\n      calldatasize\n      sub\n      dup2\n      add\n      swap1\n      tag_36\n      swap2\n      swap1\n      tag_26\n      jump\t// in\n    tag_36:\n      tag_37\n      jump\t// in\n    tag_35:\n      mload(0x40)\n      tag_38\n      swap5\n      swap4\n      swap3\n      swap2\n      swap1\n      tag_39\n      jump\t// in\n    tag_38:\n      mload(0x40)\n      dup1\n      swap2\n      sub\n      swap1\n      return\n        /* \"Contract.sol\":4915:5741  function createRecord(address patientAddress, string memory patientHistoryDescription) public doctorOnly assignedDoctorOnly(patientAddress) notForAdmin... */\n    tag_6:\n      tag_40\n      0x04\n      dup1\n      calldatasize\n      sub\n      dup2\n      add\n      swap1\n      tag_41\n      swap2\n      swap1\n      tag_42\n      jump\t// in\n    tag_41:\n      tag_43\n      jump\t// in\n    tag_40:\n      stop\n        /* \"Contract.sol\":2887:3235  function getDoctor(address doctorAddress) public view returns(string memory, string memory, uint, uint[] memory)... */\n    tag_7:\n      tag_44\n      0x04\n      dup1\n      calldatasize\n      sub\n      dup2\n      add\n      swap1\n      tag_45\n      swap2\n      swap1\n      tag_46\n      jump\t// in\n    tag_45:\n      tag_47\n      jump\t// in\n    tag_44:\n      mload(0x40)\n      tag_48\n      swap5\n      swap4\n      swap3\n      swap2\n      swap1\n      tag_49\n      jump\t// in\n    tag_48:\n      mload(0x40)\n      dup1\n      swap2\n      sub\n      swap1\n      return\n        /* \"Contract.sol\":6849:7485  function createAppointment... */\n    tag_8:\n      tag_50\n      0x04\n      dup1\n      calldatasize\n      sub\n      dup2\n      add\n      swap1\n      tag_51\n      swap2\n      swap1\n      tag_52\n      jump\t// in\n    tag_51:\n      tag_53\n      jump\t// in\n    tag_50:\n      stop\n        /* \"Contract.sol\":2230:2723  function addDoctor(address doctorAddress, string memory doctorName, string memory phoneNumber) public adminOnly... */\n    tag_9:\n      tag_54\n      0x04\n      dup1\n      calldatasize\n      sub\n      dup2\n      add\n      swap1\n      tag_55\n      swap2\n      swap1\n      tag_56\n      jump\t// in\n    tag_55:\n      tag_57\n      jump\t// in\n    tag_54:\n      stop\n        /* \"Contract.sol\":3261:3771  function addPatient(address patientAddress, string memory patientName, string memory phoneNumber) public adminOnly... */\n    tag_10:\n      tag_58\n      0x04\n      dup1\n      calldatasize\n      sub\n      dup2\n      add\n      swap1\n      tag_59\n      swap2\n      swap1\n      tag_56\n      jump\t// in\n    tag_59:\n      tag_60\n      jump\t// in\n    tag_58:\n      stop\n        /* \"Contract.sol\":4721:4879  function isAssignedToDoctor(address patientAddress) public view returns(bool)... */\n    tag_11:\n      tag_61\n      0x04\n      dup1\n      calldatasize\n      sub\n      dup2\n      add\n      swap1\n      tag_62\n      swap2\n      swap1\n      tag_46\n      jump\t// in\n    tag_62:\n      tag_63\n      jump\t// in\n    tag_61:\n      mload(0x40)\n      tag_64\n      swap2\n      swap1\n      tag_65\n      jump\t// in\n    tag_64:\n      mload(0x40)\n      dup1\n      swap2\n      sub\n      swap1\n      return\n        /* \"Contract.sol\":5772:6114  function getRecordCount(address senderAddress) public view assignablesOnly(senderAddress) returns(uint)... */\n    tag_12:\n      tag_66\n      0x04\n      dup1\n      calldatasize\n      sub\n      dup2\n      add\n      swap1\n      tag_67\n      swap2\n      swap1\n      tag_46\n      jump\t// in\n    tag_67:\n      tag_68\n      jump\t// in\n    tag_66:\n      mload(0x40)\n      tag_69\n      swap2\n      swap1\n      tag_70\n      jump\t// in\n    tag_69:\n      mload(0x40)\n      dup1\n      swap2\n      sub\n      swap1\n      return\n        /* \"Contract.sol\":4552:4676  function isPatient(address givenAddress) public view returns(bool)... */\n    tag_13:\n      tag_71\n      0x04\n      dup1\n      calldatasize\n      sub\n      dup2\n      add\n      swap1\n      tag_72\n      swap2\n      swap1\n      tag_46\n      jump\t// in\n    tag_72:\n      tag_73\n      jump\t// in\n    tag_71:\n      mload(0x40)\n      tag_74\n      swap2\n      swap1\n      tag_65\n      jump\t// in\n    tag_74:\n      mload(0x40)\n      dup1\n      swap2\n      sub\n      swap1\n      return\n        /* \"Contract.sol\":4209:4364  function assign(address patientAddress, address doctorAddress) public adminOnly... */\n    tag_14:\n      tag_75\n      0x04\n      dup1\n      calldatasize\n      sub\n      dup2\n      add\n      swap1\n      tag_76\n      swap2\n      swap1\n      tag_77\n      jump\t// in\n    tag_76:\n      tag_78\n      jump\t// in\n    tag_75:\n      stop\n        /* \"Contract.sol\":4396:4518  function isDoctor(address givenAddress) public view returns(bool)... */\n    tag_15:\n      tag_79\n      0x04\n      dup1\n      calldatasize\n      sub\n      dup2\n      add\n      swap1\n      tag_80\n      swap2\n      swap1\n      tag_46\n      jump\t// in\n    tag_80:\n      tag_81\n      jump\t// in\n    tag_79:\n      mload(0x40)\n      tag_82\n      swap2\n      swap1\n      tag_65\n      jump\t// in\n    tag_82:\n      mload(0x40)\n      dup1\n      swap2\n      sub\n      swap1\n      return\n        /* \"Contract.sol\":2761:2862  function getDoctorList() public view returns(address[] memory)... */\n    tag_16:\n      tag_83\n      tag_84\n      jump\t// in\n    tag_83:\n      mload(0x40)\n      tag_85\n      swap2\n      swap1\n      tag_86\n      jump\t// in\n    tag_85:\n      mload(0x40)\n      dup1\n      swap2\n      sub\n      swap1\n      return\n        /* \"Contract.sol\":6147:6510  function getRecordNumbers(address senderAddress) public view assignablesOnly(senderAddress) returns(uint[] memory)... */\n    tag_17:\n      tag_87\n      0x04\n      dup1\n      calldatasize\n      sub\n      dup2\n      add\n      swap1\n      tag_88\n      swap2\n      swap1\n      tag_46\n      jump\t// in\n    tag_88:\n      tag_89\n      jump\t// in\n    tag_87:\n      mload(0x40)\n      tag_90\n      swap2\n      swap1\n      tag_91\n      jump\t// in\n    tag_90:\n      mload(0x40)\n      dup1\n      swap2\n      sub\n      swap1\n      return\n        /* \"Contract.sol\":3797:4155  function getPatient(address patientAddress) public view returns(string memory, string memory, uint, uint[] memory)... */\n    tag_18:\n      tag_92\n      0x04\n      dup1\n      calldatasize\n      sub\n      dup2\n      add\n      swap1\n      tag_93\n      swap2\n      swap1\n      tag_46\n      jump\t// in\n    tag_93:\n      tag_94\n      jump\t// in\n    tag_92:\n      mload(0x40)\n      tag_95\n      swap5\n      swap4\n      swap3\n      swap2\n      swap1\n      tag_49\n      jump\t// in\n    tag_95:\n      mload(0x40)\n      dup1\n      swap2\n      sub\n      swap1\n      return\n        /* \"Contract.sol\":2056:2084  address[] public patientList */\n    tag_19:\n      tag_96\n      0x04\n      dup1\n      calldatasize\n      sub\n      dup2\n      add\n      swap1\n      tag_97\n      swap2\n      swap1\n      tag_26\n      jump\t// in\n    tag_97:\n      tag_98\n      jump\t// in\n    tag_96:\n      mload(0x40)\n      tag_99\n      swap2\n      swap1\n      tag_34\n      jump\t// in\n    tag_99:\n      mload(0x40)\n      dup1\n      swap2\n      sub\n      swap1\n      return\n        /* \"Contract.sol\":2091:2111  address public admin */\n    tag_20:\n      tag_100\n      tag_101\n      jump\t// in\n    tag_100:\n      mload(0x40)\n      tag_102\n      swap2\n      swap1\n      tag_34\n      jump\t// in\n    tag_102:\n      mload(0x40)\n      dup1\n      swap2\n      sub\n      swap1\n      return\n        /* \"Contract.sol\":6549:6816  function getMedicalRecord(uint recordNumber) public view returns(Record memory)... */\n    tag_27:\n        /* \"Contract.sol\":6614:6627  Record memory */\n      tag_104\n      tag_105\n      jump\t// in\n    tag_104:\n        /* \"Contract.sol\":6643:6663  Record memory record */\n      0x00\n        /* \"Contract.sol\":6666:6676  recordList */\n      0x07\n        /* \"Contract.sol\":6677:6689  recordNumber */\n      dup4\n        /* \"Contract.sol\":6666:6690  recordList[recordNumber] */\n      dup2\n      sload\n      dup2\n      lt\n      tag_107\n      jumpi\n      tag_108\n      tag_109\n      jump\t// in\n    tag_108:\n    tag_107:\n      swap1\n      0x00\n      mstore\n      keccak256(0x00, 0x20)\n      swap1\n      0x05\n      mul\n      add\n        /* \"Contract.sol\":6643:6690  Record memory record = recordList[recordNumber] */\n      mload(0x40)\n      dup1\n      0xa0\n      add\n      0x40\n      mstore\n      swap1\n      dup2\n      0x00\n      dup3\n      add\n      sload\n      dup2\n      mstore\n      0x20\n      add\n      0x01\n      dup3\n      add\n      0x00\n      swap1\n      sload\n      swap1\n      0x0100\n      exp\n      swap1\n      div\n      0xffffffffffffffffffffffffffffffffffffffff\n      and\n      0xffffffffffffffffffffffffffffffffffffffff\n      and\n      0xffffffffffffffffffffffffffffffffffffffff\n      and\n      dup2\n      mstore\n      0x20\n      add\n      0x02\n      dup3\n      add\n      0x00\n      swap1\n      sload\n      swap1\n      0x0100\n      exp\n      swap1\n      div\n      0xffffffffffffffffffffffffffffffffffffffff\n      and\n      0xffffffffffffffffffffffffffffffffffffffff\n      and\n      0xffffffffffffffffffffffffffffffffffffffff\n      and\n      dup2\n      mstore\n      0x20\n      add\n      0x03\n      dup3\n      add\n      dup1\n      sload\n      tag_111\n      swap1\n      tag_112\n      jump\t// in\n    tag_111:\n      dup1\n      0x1f\n      add\n      0x20\n      dup1\n      swap2\n      div\n      mul\n      0x20\n      add\n      mload(0x40)\n      swap1\n      dup2\n      add\n      0x40\n      mstore\n      dup1\n      swap3\n      swap2\n      swap1\n      dup2\n      dup2\n      mstore\n      0x20\n      add\n      dup3\n      dup1\n      sload\n      tag_113\n      swap1\n      tag_112\n      jump\t// in\n    tag_113:\n      dup1\n      iszero\n      tag_114\n      jumpi\n      dup1\n      0x1f\n      lt\n      tag_115\n      jumpi\n      0x0100\n      dup1\n      dup4\n      sload\n      div\n      mul\n      dup4\n      mstore\n      swap2\n      0x20\n      add\n      swap2\n      jump(tag_114)\n    tag_115:\n      dup3\n      add\n      swap2\n      swap1\n      0x00\n      mstore\n      keccak256(0x00, 0x20)\n      swap1\n    tag_116:\n      dup2\n      sload\n      dup2\n      mstore\n      swap1\n      0x01\n      add\n      swap1\n      0x20\n      add\n      dup1\n      dup4\n      gt\n      tag_116\n      jumpi\n      dup3\n      swap1\n      sub\n      0x1f\n      and\n      dup3\n      add\n      swap2\n    tag_114:\n      pop\n      pop\n      pop\n      pop\n      pop\n      dup2\n      mstore\n      0x20\n      add\n      0x04\n      dup3\n      add\n      dup1\n      sload\n      dup1\n      0x20\n      mul\n      0x20\n      add\n      mload(0x40)\n      swap1\n      dup2\n      add\n      0x40\n      mstore\n      dup1\n      swap3\n      swap2\n      swap1\n      dup2\n      dup2\n      mstore\n      0x20\n      add\n      dup3\n      dup1\n      sload\n      dup1\n      iszero\n      tag_117\n      jumpi\n      0x20\n      mul\n      dup3\n      add\n      swap2\n      swap1\n      0x00\n      mstore\n      keccak256(0x00, 0x20)\n      swap1\n    tag_118:\n      dup2\n      sload\n      dup2\n      mstore\n      0x20\n      add\n      swap1\n      0x01\n      add\n      swap1\n      dup1\n      dup4\n      gt\n      tag_118\n      jumpi\n    tag_117:\n      pop\n      pop\n      pop\n      pop\n      pop\n      dup2\n      mstore\n      pop\n      pop\n      swap1\n      pop\n        /* \"Contract.sol\":6735:6745  msg.sender */\n      caller\n        /* \"Contract.sol\":6710:6745  record.patientAddress == msg.sender */\n      0xffffffffffffffffffffffffffffffffffffffff\n      and\n        /* \"Contract.sol\":6710:6716  record */\n      dup2\n        /* \"Contract.sol\":6710:6731  record.patientAddress */\n      0x40\n      add\n      mload\n        /* \"Contract.sol\":6710:6745  record.patientAddress == msg.sender */\n      0xffffffffffffffffffffffffffffffffffffffff\n      and\n      eq\n        /* \"Contract.sol\":6710:6783  record.patientAddress == msg.sender || record.doctorAddress == msg.sender */\n      dup1\n      tag_119\n      jumpi\n      pop\n        /* \"Contract.sol\":6773:6783  msg.sender */\n      caller\n        /* \"Contract.sol\":6749:6783  record.doctorAddress == msg.sender */\n      0xffffffffffffffffffffffffffffffffffffffff\n      and\n        /* \"Contract.sol\":6749:6755  record */\n      dup2\n        /* \"Contract.sol\":6749:6769  record.doctorAddress */\n      0x20\n      add\n      mload\n        /* \"Contract.sol\":6749:6783  record.doctorAddress == msg.sender */\n      0xffffffffffffffffffffffffffffffffffffffff\n      and\n      eq\n        /* \"Contract.sol\":6710:6783  record.patientAddress == msg.sender || record.doctorAddress == msg.sender */\n    tag_119:\n        /* \"Contract.sol\":6701:6785  require((record.patientAddress == msg.sender || record.doctorAddress == msg.sender)) */\n      tag_120\n      jumpi\n      0x00\n      dup1\n      revert\n    tag_120:\n        /* \"Contract.sol\":6803:6809  record */\n      dup1\n        /* \"Contract.sol\":6796:6809  return record */\n      swap2\n      pop\n      pop\n        /* \"Contract.sol\":6549:6816  function getMedicalRecord(uint recordNumber) public view returns(Record memory)... */\n      swap2\n      swap1\n      pop\n      jump\t// out\n        /* \"Contract.sol\":2023:2050  address[] public doctorList */\n    tag_32:\n      0x08\n      dup2\n      dup2\n      sload\n      dup2\n      lt\n      tag_121\n      jumpi\n      0x00\n      dup1\n      revert\n    tag_121:\n      swap1\n      0x00\n      mstore\n      keccak256(0x00, 0x20)\n      add\n      0x00\n      swap2\n      pop\n      sload\n      swap1\n      0x0100\n      exp\n      swap1\n      div\n      0xffffffffffffffffffffffffffffffffffffffff\n      and\n      dup2\n      jump\t// out\n        /* \"Contract.sol\":1990:2016  Record[] public recordList */\n    tag_37:\n      0x07\n      dup2\n      dup2\n      sload\n      dup2\n      lt\n      tag_123\n      jumpi\n      0x00\n      dup1\n      revert\n    tag_123:\n      swap1\n      0x00\n      mstore\n      keccak256(0x00, 0x20)\n      swap1\n      0x05\n      mul\n      add\n      0x00\n      swap2\n      pop\n      swap1\n      pop\n      dup1\n      0x00\n      add\n      sload\n      swap1\n      dup1\n      0x01\n      add\n      0x00\n      swap1\n      sload\n      swap1\n      0x0100\n      exp\n      swap1\n      div\n      0xffffffffffffffffffffffffffffffffffffffff\n      and\n      swap1\n      dup1\n      0x02\n      add\n      0x00\n      swap1\n      sload\n      swap1\n      0x0100\n      exp\n      swap1\n      div\n      0xffffffffffffffffffffffffffffffffffffffff\n      and\n      swap1\n      dup1\n      0x03\n      add\n      dup1\n      sload\n      tag_125\n      swap1\n      tag_112\n      jump\t// in\n    tag_125:\n      dup1\n      0x1f\n      add\n      0x20\n      dup1\n      swap2\n      div\n      mul\n      0x20\n      add\n      mload(0x40)\n      swap1\n      dup2\n      add\n      0x40\n      mstore\n      dup1\n      swap3\n      swap2\n      swap1\n      dup2\n      dup2\n      mstore\n      0x20\n      add\n      dup3\n      dup1\n      sload\n      tag_126\n      swap1\n      tag_112\n      jump\t// in\n    tag_126:\n      dup1\n      iszero\n      tag_127\n      jumpi\n      dup1\n      0x1f\n      lt\n      tag_128\n      jumpi\n      0x0100\n      dup1\n      dup4\n      sload\n      div\n      mul\n      dup4\n      mstore\n      swap2\n      0x20\n      add\n      swap2\n      jump(tag_127)\n    tag_128:\n      dup3\n      add\n      swap2\n      swap1\n      0x00\n      mstore\n      keccak256(0x00, 0x20)\n      swap1\n    tag_129:\n      dup2\n      sload\n      dup2\n      mstore\n      swap1\n      0x01\n      add\n      swap1\n      0x20\n      add\n      dup1\n      dup4\n      gt\n      tag_129\n      jumpi\n      dup3\n      swap1\n      sub\n      0x1f\n      and\n      dup3\n      add\n      swap2\n    tag_127:\n      pop\n      pop\n      pop\n      pop\n      pop\n      swap1\n      pop\n      dup5\n      jump\t// out\n        /* \"Contract.sol\":4915:5741  function createRecord(address patientAddress, string memory patientHistoryDescription) public doctorOnly assignedDoctorOnly(patientAddress) notForAdmin... */\n    tag_43:\n        /* \"Contract.sol\":7940:7966  doctorRole.has(msg.sender) */\n      tag_131\n        /* \"Contract.sol\":7955:7965  msg.sender */\n      caller\n        /* \"Contract.sol\":7940:7950  doctorRole */\n      0x01\n        /* \"Contract.sol\":7940:7954  doctorRole.has */\n      tag_132\n      swap1\n        /* \"Contract.sol\":7940:7966  doctorRole.has(msg.sender) */\n      swap2\n      swap1\n      0xffffffff\n      and\n      jump\t// in\n    tag_131:\n        /* \"Contract.sol\":7932:7982  require(doctorRole.has(msg.sender), 'Doctor only') */\n      tag_133\n      jumpi\n      mload(0x40)\n      0x08c379a000000000000000000000000000000000000000000000000000000000\n      dup2\n      mstore\n      0x04\n      add\n      tag_134\n      swap1\n      tag_135\n      jump\t// in\n    tag_134:\n      mload(0x40)\n      dup1\n      swap2\n      sub\n      swap1\n      revert\n    tag_133:\n        /* \"Contract.sol\":5039:5053  patientAddress */\n      dup2\n        /* \"Contract.sol\":8235:8245  msg.sender */\n      caller\n        /* \"Contract.sol\":8193:8245  patientToDoctorMapping[patientAddress] == msg.sender */\n      0xffffffffffffffffffffffffffffffffffffffff\n      and\n        /* \"Contract.sol\":8193:8215  patientToDoctorMapping */\n      0x05\n        /* \"Contract.sol\":8193:8231  patientToDoctorMapping[patientAddress] */\n      0x00\n        /* \"Contract.sol\":8216:8230  patientAddress */\n      dup4\n        /* \"Contract.sol\":8193:8231  patientToDoctorMapping[patientAddress] */\n      0xffffffffffffffffffffffffffffffffffffffff\n      and\n      0xffffffffffffffffffffffffffffffffffffffff\n      and\n      dup2\n      mstore\n      0x20\n      add\n      swap1\n      dup2\n      mstore\n      0x20\n      add\n      0x00\n      keccak256\n      0x00\n      swap1\n      sload\n      swap1\n      0x0100\n      exp\n      swap1\n      div\n      0xffffffffffffffffffffffffffffffffffffffff\n      and\n        /* \"Contract.sol\":8193:8245  patientToDoctorMapping[patientAddress] == msg.sender */\n      0xffffffffffffffffffffffffffffffffffffffff\n      and\n      eq\n        /* \"Contract.sol\":8185:8288  require(patientToDoctorMapping[patientAddress] == msg.sender, \"You haven't been assigned this patient\") */\n      tag_137\n      jumpi\n      mload(0x40)\n      0x08c379a000000000000000000000000000000000000000000000000000000000\n      dup2\n      mstore\n      0x04\n      add\n      tag_138\n      swap1\n      tag_139\n      jump\t// in\n    tag_138:\n      mload(0x40)\n      dup1\n      swap2\n      sub\n      swap1\n      revert\n    tag_137:\n        /* \"Contract.sol\":8513:8538  adminRole.has(msg.sender) */\n      tag_141\n        /* \"Contract.sol\":8527:8537  msg.sender */\n      caller\n        /* \"Contract.sol\":8513:8522  adminRole */\n      0x00\n        /* \"Contract.sol\":8513:8526  adminRole.has */\n      tag_132\n      swap1\n        /* \"Contract.sol\":8513:8538  adminRole.has(msg.sender) */\n      swap2\n      swap1\n      0xffffffff\n      and\n      jump\t// in\n    tag_141:\n        /* \"Contract.sol\":8512:8538  !adminRole.has(msg.sender) */\n      iszero\n        /* \"Contract.sol\":8504:8556  require(!adminRole.has(msg.sender), 'Not for admin') */\n      tag_142\n      jumpi\n      mload(0x40)\n      0x08c379a000000000000000000000000000000000000000000000000000000000\n      dup2\n      mstore\n      0x04\n      add\n      tag_143\n      swap1\n      tag_144\n      jump\t// in\n    tag_143:\n      mload(0x40)\n      dup1\n      swap2\n      sub\n      swap1\n      revert\n    tag_142:\n        /* \"Contract.sol\":5081:5101  Record memory record */\n      tag_146\n      tag_105\n      jump\t// in\n    tag_146:\n        /* \"Contract.sol\":5134:5144  recordList */\n      0x07\n        /* \"Contract.sol\":5134:5151  recordList.length */\n      dup1\n      sload\n      swap1\n      pop\n        /* \"Contract.sol\":5112:5118  record */\n      dup2\n        /* \"Contract.sol\":5112:5131  record.recordNumber */\n      0x00\n      add\n        /* \"Contract.sol\":5112:5151  record.recordNumber = recordList.length */\n      dup2\n      dup2\n      mstore\n      pop\n      pop\n        /* \"Contract.sol\":5184:5194  msg.sender */\n      caller\n        /* \"Contract.sol\":5161:5167  record */\n      dup2\n        /* \"Contract.sol\":5161:5181  record.doctorAddress */\n      0x20\n      add\n        /* \"Contract.sol\":5161:5194  record.doctorAddress = msg.sender */\n      swap1\n      0xffffffffffffffffffffffffffffffffffffffff\n      and\n      swap1\n      dup2\n      0xffffffffffffffffffffffffffffffffffffffff\n      and\n      dup2\n      mstore\n      pop\n      pop\n        /* \"Contract.sol\":5228:5242  patientAddress */\n      dup4\n        /* \"Contract.sol\":5204:5210  record */\n      dup2\n        /* \"Contract.sol\":5204:5225  record.patientAddress */\n      0x40\n      add\n        /* \"Contract.sol\":5204:5242  record.patientAddress = patientAddress */\n      swap1\n      0xffffffffffffffffffffffffffffffffffffffff\n      and\n      swap1\n      dup2\n      0xffffffffffffffffffffffffffffffffffffffff\n      and\n      dup2\n      mstore\n      pop\n      pop\n        /* \"Contract.sol\":5287:5312  patientHistoryDescription */\n      dup3\n        /* \"Contract.sol\":5252:5258  record */\n      dup2\n        /* \"Contract.sol\":5252:5284  record.patientHistoryDescription */\n      0x60\n      add\n        /* \"Contract.sol\":5252:5312  record.patientHistoryDescription = patientHistoryDescription */\n      dup2\n      swap1\n      mstore\n      pop\n        /* \"Contract.sol\":5323:5344  Doctor storage doctor */\n      0x00\n        /* \"Contract.sol\":5347:5369  addressToDoctorMapping */\n      0x03\n        /* \"Contract.sol\":5347:5381  addressToDoctorMapping[msg.sender] */\n      0x00\n        /* \"Contract.sol\":5370:5380  msg.sender */\n      caller\n        /* \"Contract.sol\":5347:5381  addressToDoctorMapping[msg.sender] */\n      0xffffffffffffffffffffffffffffffffffffffff\n      and\n      0xffffffffffffffffffffffffffffffffffffffff\n      and\n      dup2\n      mstore\n      0x20\n      add\n      swap1\n      dup2\n      mstore\n      0x20\n      add\n      0x00\n      keccak256\n        /* \"Contract.sol\":5323:5381  Doctor storage doctor = addressToDoctorMapping[msg.sender] */\n      swap1\n      pop\n        /* \"Contract.sol\":5391:5414  Patient storage patient */\n      0x00\n        /* \"Contract.sol\":5417:5440  addressToPatientMapping */\n      0x04\n        /* \"Contract.sol\":5417:5456  addressToPatientMapping[patientAddress] */\n      0x00\n        /* \"Contract.sol\":5441:5455  patientAddress */\n      dup8\n        /* \"Contract.sol\":5417:5456  addressToPatientMapping[patientAddress] */\n      0xffffffffffffffffffffffffffffffffffffffff\n      and\n      0xffffffffffffffffffffffffffffffffffffffff\n      and\n      dup2\n      mstore\n      0x20\n      add\n      swap1\n      dup2\n      mstore\n      0x20\n      add\n      0x00\n      keccak256\n        /* \"Contract.sol\":5391:5456  Patient storage patient = addressToPatientMapping[patientAddress] */\n      swap1\n      pop\n        /* \"Contract.sol\":5467:5473  doctor */\n      dup2\n        /* \"Contract.sol\":5467:5490  doctor.recordNumberList */\n      0x02\n      add\n        /* \"Contract.sol\":5496:5502  record */\n      dup4\n        /* \"Contract.sol\":5496:5515  record.recordNumber */\n      0x00\n      add\n      mload\n        /* \"Contract.sol\":5467:5516  doctor.recordNumberList.push(record.recordNumber) */\n      swap1\n      dup1\n      0x01\n      dup2\n      sload\n      add\n      dup1\n      dup3\n      sstore\n      dup1\n      swap2\n      pop\n      pop\n      0x01\n      swap1\n      sub\n      swap1\n      0x00\n      mstore\n      keccak256(0x00, 0x20)\n      add\n      0x00\n      swap1\n      swap2\n      swap1\n      swap2\n      swap1\n      swap2\n      pop\n      sstore\n        /* \"Contract.sol\":5547:5553  doctor */\n      dup2\n        /* \"Contract.sol\":5547:5570  doctor.recordNumberList */\n      0x02\n      add\n        /* \"Contract.sol\":5547:5577  doctor.recordNumberList.length */\n      dup1\n      sload\n      swap1\n      pop\n        /* \"Contract.sol\":5526:5532  doctor */\n      dup3\n        /* \"Contract.sol\":5526:5544  doctor.recordCount */\n      0x03\n      add\n        /* \"Contract.sol\":5526:5577  doctor.recordCount = doctor.recordNumberList.length */\n      dup2\n      swap1\n      sstore\n      pop\n        /* \"Contract.sol\":5587:5594  patient */\n      dup1\n        /* \"Contract.sol\":5587:5611  patient.recordNumberList */\n      0x02\n      add\n        /* \"Contract.sol\":5617:5623  record */\n      dup4\n        /* \"Contract.sol\":5617:5636  record.recordNumber */\n      0x00\n      add\n      mload\n        /* \"Contract.sol\":5587:5637  patient.recordNumberList.push(record.recordNumber) */\n      swap1\n      dup1\n      0x01\n      dup2\n      sload\n      add\n      dup1\n      dup3\n      sstore\n      dup1\n      swap2\n      pop\n      pop\n      0x01\n      swap1\n      sub\n      swap1\n      0x00\n      mstore\n      keccak256(0x00, 0x20)\n      add\n      0x00\n      swap1\n      swap2\n      swap1\n      swap2\n      swap1\n      swap2\n      pop\n      sstore\n        /* \"Contract.sol\":5669:5676  patient */\n      dup1\n        /* \"Contract.sol\":5669:5693  patient.recordNumberList */\n      0x02\n      add\n        /* \"Contract.sol\":5669:5700  patient.recordNumberList.length */\n      dup1\n      sload\n      swap1\n      pop\n        /* \"Contract.sol\":5647:5654  patient */\n      dup2\n        /* \"Contract.sol\":5647:5666  patient.recordCount */\n      0x03\n      add\n        /* \"Contract.sol\":5647:5700  patient.recordCount = patient.recordNumberList.length */\n      dup2\n      swap1\n      sstore\n      pop\n        /* \"Contract.sol\":5711:5721  recordList */\n      0x07\n        /* \"Contract.sol\":5727:5733  record */\n      dup4\n        /* \"Contract.sol\":5711:5734  recordList.push(record) */\n      swap1\n      dup1\n      0x01\n      dup2\n      sload\n      add\n      dup1\n      dup3\n      sstore\n      dup1\n      swap2\n      pop\n      pop\n      0x01\n      swap1\n      sub\n      swap1\n      0x00\n      mstore\n      keccak256(0x00, 0x20)\n      swap1\n      0x05\n      mul\n      add\n      0x00\n      swap1\n      swap2\n      swap1\n      swap2\n      swap1\n      swap2\n      pop\n      0x00\n      dup3\n      add\n      mload\n      dup2\n      0x00\n      add\n      sstore\n      0x20\n      dup3\n      add\n      mload\n      dup2\n      0x01\n      add\n      exp(0x0100, 0x00)\n      dup2\n      sload\n      dup2\n      0xffffffffffffffffffffffffffffffffffffffff\n      mul\n      not\n      and\n      swap1\n      dup4\n      0xffffffffffffffffffffffffffffffffffffffff\n      and\n      mul\n      or\n      swap1\n      sstore\n      pop\n      0x40\n      dup3\n      add\n      mload\n      dup2\n      0x02\n      add\n      exp(0x0100, 0x00)\n      dup2\n      sload\n      dup2\n      0xffffffffffffffffffffffffffffffffffffffff\n      mul\n      not\n      and\n      swap1\n      dup4\n      0xffffffffffffffffffffffffffffffffffffffff\n      and\n      mul\n      or\n      swap1\n      sstore\n      pop\n      0x60\n      dup3\n      add\n      mload\n      dup2\n      0x03\n      add\n      swap1\n      dup2\n      tag_150\n      swap2\n      swap1\n      tag_151\n      jump\t// in\n    tag_150:\n      pop\n      0x80\n      dup3\n      add\n      mload\n      dup2\n      0x04\n      add\n      swap1\n      dup1\n      mload\n      swap1\n      0x20\n      add\n      swap1\n      tag_152\n      swap3\n      swap2\n      swap1\n      tag_153\n      jump\t// in\n    tag_152:\n      pop\n      pop\n      pop\n        /* \"Contract.sol\":5071:5741  {... */\n      pop\n      pop\n      pop\n        /* \"Contract.sol\":7992:7993  _ */\n      pop\n        /* \"Contract.sol\":4915:5741  function createRecord(address patientAddress, string memory patientHistoryDescription) public doctorOnly assignedDoctorOnly(patientAddress) notForAdmin... */\n      pop\n      pop\n      jump\t// out\n        /* \"Contract.sol\":2887:3235  function getDoctor(address doctorAddress) public view returns(string memory, string memory, uint, uint[] memory)... */\n    tag_47:\n        /* \"Contract.sol\":2949:2962  string memory */\n      0x60\n        /* \"Contract.sol\":2964:2977  string memory */\n      dup1\n        /* \"Contract.sol\":2979:2983  uint */\n      0x00\n        /* \"Contract.sol\":2985:2998  uint[] memory */\n      0x60\n        /* \"Contract.sol\":3014:3034  Doctor memory doctor */\n      0x00\n        /* \"Contract.sol\":3037:3059  addressToDoctorMapping */\n      0x03\n        /* \"Contract.sol\":3037:3074  addressToDoctorMapping[doctorAddress] */\n      0x00\n        /* \"Contract.sol\":3060:3073  doctorAddress */\n      dup8\n        /* \"Contract.sol\":3037:3074  addressToDoctorMapping[doctorAddress] */\n      0xffffffffffffffffffffffffffffffffffffffff\n      and\n      0xffffffffffffffffffffffffffffffffffffffff\n      and\n      dup2\n      mstore\n      0x20\n      add\n      swap1\n      dup2\n      mstore\n      0x20\n      add\n      0x00\n      keccak256\n        /* \"Contract.sol\":3014:3074  Doctor memory doctor = addressToDoctorMapping[doctorAddress] */\n      mload(0x40)\n      dup1\n      0x80\n      add\n      0x40\n      mstore\n      swap1\n      dup2\n      0x00\n      dup3\n      add\n      dup1\n      sload\n      tag_155\n      swap1\n      tag_112\n      jump\t// in\n    tag_155:\n      dup1\n      0x1f\n      add\n      0x20\n      dup1\n      swap2\n      div\n      mul\n      0x20\n      add\n      mload(0x40)\n      swap1\n      dup2\n      add\n      0x40\n      mstore\n      dup1\n      swap3\n      swap2\n      swap1\n      dup2\n      dup2\n      mstore\n      0x20\n      add\n      dup3\n      dup1\n      sload\n      tag_156\n      swap1\n      tag_112\n      jump\t// in\n    tag_156:\n      dup1\n      iszero\n      tag_157\n      jumpi\n      dup1\n      0x1f\n      lt\n      tag_158\n      jumpi\n      0x0100\n      dup1\n      dup4\n      sload\n      div\n      mul\n      dup4\n      mstore\n      swap2\n      0x20\n      add\n      swap2\n      jump(tag_157)\n    tag_158:\n      dup3\n      add\n      swap2\n      swap1\n      0x00\n      mstore\n      keccak256(0x00, 0x20)\n      swap1\n    tag_159:\n      dup2\n      sload\n      dup2\n      mstore\n      swap1\n      0x01\n      add\n      swap1\n      0x20\n      add\n      dup1\n      dup4\n      gt\n      tag_159\n      jumpi\n      dup3\n      swap1\n      sub\n      0x1f\n      and\n      dup3\n      add\n      swap2\n    tag_157:\n      pop\n      pop\n      pop\n      pop\n      pop\n      dup2\n      mstore\n      0x20\n      add\n      0x01\n      dup3\n      add\n      dup1\n      sload\n      tag_160\n      swap1\n      tag_112\n      jump\t// in\n    tag_160:\n      dup1\n      0x1f\n      add\n      0x20\n      dup1\n      swap2\n      div\n      mul\n      0x20\n      add\n      mload(0x40)\n      swap1\n      dup2\n      add\n      0x40\n      mstore\n      dup1\n      swap3\n      swap2\n      swap1\n      dup2\n      dup2\n      mstore\n      0x20\n      add\n      dup3\n      dup1\n      sload\n      tag_161\n      swap1\n      tag_112\n      jump\t// in\n    tag_161:\n      dup1\n      iszero\n      tag_162\n      jumpi\n      dup1\n      0x1f\n      lt\n      tag_163\n      jumpi\n      0x0100\n      dup1\n      dup4\n      sload\n      div\n      mul\n      dup4\n      mstore\n      swap2\n      0x20\n      add\n      swap2\n      jump(tag_162)\n    tag_163:\n      dup3\n      add\n      swap2\n      swap1\n      0x00\n      mstore\n      keccak256(0x00, 0x20)\n      swap1\n    tag_164:\n      dup2\n      sload\n      dup2\n      mstore\n      swap1\n      0x01\n      add\n      swap1\n      0x20\n      add\n      dup1\n      dup4\n      gt\n      tag_164\n      jumpi\n      dup3\n      swap1\n      sub\n      0x1f\n      and\n      dup3\n      add\n      swap2\n    tag_162:\n      pop\n      pop\n      pop\n      pop\n      pop\n      dup2\n      mstore\n      0x20\n      add\n      0x02\n      dup3\n      add\n      dup1\n      sload\n      dup1\n      0x20\n      mul\n      0x20\n      add\n      mload(0x40)\n      swap1\n      dup2\n      add\n      0x40\n      mstore\n      dup1\n      swap3\n      swap2\n      swap1\n      dup2\n      dup2\n      mstore\n      0x20\n      add\n      dup3\n      dup1\n      sload\n      dup1\n      iszero\n      tag_165\n      jumpi\n      0x20\n      mul\n      dup3\n      add\n      swap2\n      swap1\n      0x00\n      mstore\n      keccak256(0x00, 0x20)\n      swap1\n    tag_166:\n      dup2\n      sload\n      dup2\n      mstore\n      0x20\n      add\n      swap1\n      0x01\n      add\n      swap1\n      dup1\n      dup4\n      gt\n      tag_166\n      jumpi\n    tag_165:\n      pop\n      pop\n      pop\n      pop\n      pop\n      dup2\n      mstore\n      0x20\n      add\n      0x03\n      dup3\n      add\n      sload\n      dup2\n      mstore\n      pop\n      pop\n      swap1\n      pop\n        /* \"Contract.sol\":3106:3112  doctor */\n      dup1\n        /* \"Contract.sol\":3106:3117  doctor.name */\n      0x00\n      add\n      mload\n        /* \"Contract.sol\":3131:3137  doctor */\n      dup2\n        /* \"Contract.sol\":3131:3149  doctor.phoneNumber */\n      0x20\n      add\n      mload\n        /* \"Contract.sol\":3163:3169  doctor */\n      dup3\n        /* \"Contract.sol\":3163:3181  doctor.recordCount */\n      0x60\n      add\n      mload\n        /* \"Contract.sol\":3195:3201  doctor */\n      dup4\n        /* \"Contract.sol\":3195:3218  doctor.recordNumberList */\n      0x40\n      add\n      mload\n        /* \"Contract.sol\":3085:3228  return (... */\n      swap5\n      pop\n      swap5\n      pop\n      swap5\n      pop\n      swap5\n      pop\n      pop\n        /* \"Contract.sol\":2887:3235  function getDoctor(address doctorAddress) public view returns(string memory, string memory, uint, uint[] memory)... */\n      swap2\n      swap4\n      pop\n      swap2\n      swap4\n      jump\t// out\n        /* \"Contract.sol\":6849:7485  function createAppointment... */\n    tag_53:\n        /* \"Contract.sol\":7940:7966  doctorRole.has(msg.sender) */\n      tag_168\n        /* \"Contract.sol\":7955:7965  msg.sender */\n      caller\n        /* \"Contract.sol\":7940:7950  doctorRole */\n      0x01\n        /* \"Contract.sol\":7940:7954  doctorRole.has */\n      tag_132\n      swap1\n        /* \"Contract.sol\":7940:7966  doctorRole.has(msg.sender) */\n      swap2\n      swap1\n      0xffffffff\n      and\n      jump\t// in\n    tag_168:\n        /* \"Contract.sol\":7932:7982  require(doctorRole.has(msg.sender), 'Doctor only') */\n      tag_169\n      jumpi\n      mload(0x40)\n      0x08c379a000000000000000000000000000000000000000000000000000000000\n      dup2\n      mstore\n      0x04\n      add\n      tag_170\n      swap1\n      tag_135\n      jump\t// in\n    tag_170:\n      mload(0x40)\n      dup1\n      swap2\n      sub\n      swap1\n      revert\n    tag_169:\n        /* \"Contract.sol\":7034:7048  patientAddress */\n      dup4\n        /* \"Contract.sol\":8235:8245  msg.sender */\n      caller\n        /* \"Contract.sol\":8193:8245  patientToDoctorMapping[patientAddress] == msg.sender */\n      0xffffffffffffffffffffffffffffffffffffffff\n      and\n        /* \"Contract.sol\":8193:8215  patientToDoctorMapping */\n      0x05\n        /* \"Contract.sol\":8193:8231  patientToDoctorMapping[patientAddress] */\n      0x00\n        /* \"Contract.sol\":8216:8230  patientAddress */\n      dup4\n        /* \"Contract.sol\":8193:8231  patientToDoctorMapping[patientAddress] */\n      0xffffffffffffffffffffffffffffffffffffffff\n      and\n      0xffffffffffffffffffffffffffffffffffffffff\n      and\n      dup2\n      mstore\n      0x20\n      add\n      swap1\n      dup2\n      mstore\n      0x20\n      add\n      0x00\n      keccak256\n      0x00\n      swap1\n      sload\n      swap1\n      0x0100\n      exp\n      swap1\n      div\n      0xffffffffffffffffffffffffffffffffffffffff\n      and\n        /* \"Contract.sol\":8193:8245  patientToDoctorMapping[patientAddress] == msg.sender */\n      0xffffffffffffffffffffffffffffffffffffffff\n      and\n      eq\n        /* \"Contract.sol\":8185:8288  require(patientToDoctorMapping[patientAddress] == msg.sender, \"You haven't been assigned this patient\") */\n      tag_172\n      jumpi\n      mload(0x40)\n      0x08c379a000000000000000000000000000000000000000000000000000000000\n      dup2\n      mstore\n      0x04\n      add\n      tag_173\n      swap1\n      tag_139\n      jump\t// in\n    tag_173:\n      mload(0x40)\n      dup1\n      swap2\n      sub\n      swap1\n      revert\n    tag_172:\n        /* \"Contract.sol\":8513:8538  adminRole.has(msg.sender) */\n      tag_175\n        /* \"Contract.sol\":8527:8537  msg.sender */\n      caller\n        /* \"Contract.sol\":8513:8522  adminRole */\n      0x00\n        /* \"Contract.sol\":8513:8526  adminRole.has */\n      tag_132\n      swap1\n        /* \"Contract.sol\":8513:8538  adminRole.has(msg.sender) */\n      swap2\n      swap1\n      0xffffffff\n      and\n      jump\t// in\n    tag_175:\n        /* \"Contract.sol\":8512:8538  !adminRole.has(msg.sender) */\n      iszero\n        /* \"Contract.sol\":8504:8556  require(!adminRole.has(msg.sender), 'Not for admin') */\n      tag_176\n      jumpi\n      mload(0x40)\n      0x08c379a000000000000000000000000000000000000000000000000000000000\n      dup2\n      mstore\n      0x04\n      add\n      tag_177\n      swap1\n      tag_144\n      jump\t// in\n    tag_177:\n      mload(0x40)\n      dup1\n      swap2\n      sub\n      swap1\n      revert\n    tag_176:\n        /* \"Contract.sol\":7076:7106  Appointment memory appointment */\n      tag_179\n      tag_180\n      jump\t// in\n    tag_179:\n        /* \"Contract.sol\":7138:7153  appointmentList */\n      0x06\n        /* \"Contract.sol\":7138:7160  appointmentList.length */\n      dup1\n      sload\n      swap1\n      pop\n        /* \"Contract.sol\":7117:7128  appointment */\n      dup2\n        /* \"Contract.sol\":7117:7135  appointment.number */\n      0x00\n      add\n        /* \"Contract.sol\":7117:7160  appointment.number = appointmentList.length */\n      dup2\n      dup2\n      mstore\n      pop\n      pop\n        /* \"Contract.sol\":7199:7213  patientAddress */\n      dup6\n        /* \"Contract.sol\":7170:7181  appointment */\n      dup2\n        /* \"Contract.sol\":7170:7196  appointment.patientAddress */\n      0x20\n      add\n        /* \"Contract.sol\":7170:7213  appointment.patientAddress = patientAddress */\n      swap1\n      0xffffffffffffffffffffffffffffffffffffffff\n      and\n      swap1\n      dup2\n      0xffffffffffffffffffffffffffffffffffffffff\n      and\n      dup2\n      mstore\n      pop\n      pop\n        /* \"Contract.sol\":7251:7261  msg.sender */\n      caller\n        /* \"Contract.sol\":7223:7234  appointment */\n      dup2\n        /* \"Contract.sol\":7223:7248  appointment.doctorAddress */\n      0x40\n      add\n        /* \"Contract.sol\":7223:7261  appointment.doctorAddress = msg.sender */\n      swap1\n      0xffffffffffffffffffffffffffffffffffffffff\n      and\n      swap1\n      dup2\n      0xffffffffffffffffffffffffffffffffffffffff\n      and\n      dup2\n      mstore\n      pop\n      pop\n        /* \"Contract.sol\":7295:7304  diagnosis */\n      dup5\n        /* \"Contract.sol\":7271:7282  appointment */\n      dup2\n        /* \"Contract.sol\":7271:7292  appointment.diagnosis */\n      0x60\n      add\n        /* \"Contract.sol\":7271:7304  appointment.diagnosis = diagnosis */\n      dup2\n      swap1\n      mstore\n      pop\n        /* \"Contract.sol\":7348:7367  treatmentPrescribed */\n      dup4\n        /* \"Contract.sol\":7314:7325  appointment */\n      dup2\n        /* \"Contract.sol\":7314:7345  appointment.treatmentPrescribed */\n      0x80\n      add\n        /* \"Contract.sol\":7314:7367  appointment.treatmentPrescribed = treatmentPrescribed */\n      dup2\n      swap1\n      mstore\n      pop\n        /* \"Contract.sol\":7378:7393  appointmentList */\n      0x06\n        /* \"Contract.sol\":7399:7410  appointment */\n      dup2\n        /* \"Contract.sol\":7378:7411  appointmentList.push(appointment) */\n      swap1\n      dup1\n      0x01\n      dup2\n      sload\n      add\n      dup1\n      dup3\n      sstore\n      dup1\n      swap2\n      pop\n      pop\n      0x01\n      swap1\n      sub\n      swap1\n      0x00\n      mstore\n      keccak256(0x00, 0x20)\n      swap1\n      0x05\n      mul\n      add\n      0x00\n      swap1\n      swap2\n      swap1\n      swap2\n      swap1\n      swap2\n      pop\n      0x00\n      dup3\n      add\n      mload\n      dup2\n      0x00\n      add\n      sstore\n      0x20\n      dup3\n      add\n      mload\n      dup2\n      0x01\n      add\n      exp(0x0100, 0x00)\n      dup2\n      sload\n      dup2\n      0xffffffffffffffffffffffffffffffffffffffff\n      mul\n      not\n      and\n      swap1\n      dup4\n      0xffffffffffffffffffffffffffffffffffffffff\n      and\n      mul\n      or\n      swap1\n      sstore\n      pop\n      0x40\n      dup3\n      add\n      mload\n      dup2\n      0x02\n      add\n      exp(0x0100, 0x00)\n      dup2\n      sload\n      dup2\n      0xffffffffffffffffffffffffffffffffffffffff\n      mul\n      not\n      and\n      swap1\n      dup4\n      0xffffffffffffffffffffffffffffffffffffffff\n      and\n      mul\n      or\n      swap1\n      sstore\n      pop\n      0x60\n      dup3\n      add\n      mload\n      dup2\n      0x03\n      add\n      swap1\n      dup2\n      tag_182\n      swap2\n      swap1\n      tag_151\n      jump\t// in\n    tag_182:\n      pop\n      0x80\n      dup3\n      add\n      mload\n      dup2\n      0x04\n      add\n      swap1\n      dup2\n      tag_183\n      swap2\n      swap1\n      tag_151\n      jump\t// in\n    tag_183:\n      pop\n      pop\n      pop\n        /* \"Contract.sol\":7422:7478  addAppointmentToRecord(recordNumber, appointment.number) */\n      tag_184\n        /* \"Contract.sol\":7445:7457  recordNumber */\n      dup4\n        /* \"Contract.sol\":7459:7470  appointment */\n      dup3\n        /* \"Contract.sol\":7459:7477  appointment.number */\n      0x00\n      add\n      mload\n        /* \"Contract.sol\":7422:7444  addAppointmentToRecord */\n      tag_185\n        /* \"Contract.sol\":7422:7478  addAppointmentToRecord(recordNumber, appointment.number) */\n      jump\t// in\n    tag_184:\n        /* \"Contract.sol\":7066:7485  {... */\n      pop\n        /* \"Contract.sol\":7992:7993  _ */\n      pop\n        /* \"Contract.sol\":6849:7485  function createAppointment... */\n      pop\n      pop\n      pop\n      pop\n      jump\t// out\n        /* \"Contract.sol\":2230:2723  function addDoctor(address doctorAddress, string memory doctorName, string memory phoneNumber) public adminOnly... */\n    tag_57:\n        /* \"Contract.sol\":7832:7857  adminRole.has(msg.sender) */\n      tag_187\n        /* \"Contract.sol\":7846:7856  msg.sender */\n      caller\n        /* \"Contract.sol\":7832:7841  adminRole */\n      0x00\n        /* \"Contract.sol\":7832:7845  adminRole.has */\n      tag_132\n      swap1\n        /* \"Contract.sol\":7832:7857  adminRole.has(msg.sender) */\n      swap2\n      swap1\n      0xffffffff\n      and\n      jump\t// in\n    tag_187:\n        /* \"Contract.sol\":7824:7872  require(adminRole.has(msg.sender), 'Admin only') */\n      tag_188\n      jumpi\n      mload(0x40)\n      0x08c379a000000000000000000000000000000000000000000000000000000000\n      dup2\n      mstore\n      0x04\n      add\n      tag_189\n      swap1\n      tag_190\n      jump\t// in\n    tag_189:\n      mload(0x40)\n      dup1\n      swap2\n      sub\n      swap1\n      revert\n    tag_188:\n        /* \"Contract.sol\":2381:2391  msg.sender */\n      caller\n        /* \"Contract.sol\":2364:2391  doctorAddress != msg.sender */\n      0xffffffffffffffffffffffffffffffffffffffff\n      and\n        /* \"Contract.sol\":2364:2377  doctorAddress */\n      dup4\n        /* \"Contract.sol\":2364:2391  doctorAddress != msg.sender */\n      0xffffffffffffffffffffffffffffffffffffffff\n      and\n      sub\n        /* \"Contract.sol\":2356:2430  require(doctorAddress != msg.sender, \"You are not eligible for this role\") */\n      tag_192\n      jumpi\n      mload(0x40)\n      0x08c379a000000000000000000000000000000000000000000000000000000000\n      dup2\n      mstore\n      0x04\n      add\n      tag_193\n      swap1\n      tag_194\n      jump\t// in\n    tag_193:\n      mload(0x40)\n      dup1\n      swap2\n      sub\n      swap1\n      revert\n    tag_192:\n        /* \"Contract.sol\":2441:2470  doctorRole.add(doctorAddress) */\n      tag_195\n        /* \"Contract.sol\":2456:2469  doctorAddress */\n      dup4\n        /* \"Contract.sol\":2441:2451  doctorRole */\n      0x01\n        /* \"Contract.sol\":2441:2455  doctorRole.add */\n      tag_103\n      swap1\n        /* \"Contract.sol\":2441:2470  doctorRole.add(doctorAddress) */\n      swap2\n      swap1\n      0xffffffff\n      and\n      jump\t// in\n    tag_195:\n        /* \"Contract.sol\":2481:2501  Doctor memory doctor */\n      tag_196\n      tag_197\n      jump\t// in\n    tag_196:\n        /* \"Contract.sol\":2534:2544  doctorName */\n      dup3\n        /* \"Contract.sol\":2520:2526  doctor */\n      dup2\n        /* \"Contract.sol\":2520:2531  doctor.name */\n      0x00\n      add\n        /* \"Contract.sol\":2520:2544  doctor.name = doctorName */\n      dup2\n      swap1\n      mstore\n      pop\n        /* \"Contract.sol\":2575:2586  phoneNumber */\n      dup2\n        /* \"Contract.sol\":2554:2560  doctor */\n      dup2\n        /* \"Contract.sol\":2554:2572  doctor.phoneNumber */\n      0x20\n      add\n        /* \"Contract.sol\":2554:2586  doctor.phoneNumber = phoneNumber */\n      dup2\n      swap1\n      mstore\n      pop\n        /* \"Contract.sol\":2617:2618  0 */\n      0x00\n        /* \"Contract.sol\":2596:2602  doctor */\n      dup2\n        /* \"Contract.sol\":2596:2614  doctor.recordCount */\n      0x60\n      add\n        /* \"Contract.sol\":2596:2618  doctor.recordCount = 0 */\n      dup2\n      dup2\n      mstore\n      pop\n      pop\n        /* \"Contract.sol\":2629:2639  doctorList */\n      0x08\n        /* \"Contract.sol\":2645:2658  doctorAddress */\n      dup5\n        /* \"Contract.sol\":2629:2659  doctorList.push(doctorAddress) */\n      swap1\n      dup1\n      0x01\n      dup2\n      sload\n      add\n      dup1\n      dup3\n      sstore\n      dup1\n      swap2\n      pop\n      pop\n      0x01\n      swap1\n      sub\n      swap1\n      0x00\n      mstore\n      keccak256(0x00, 0x20)\n      add\n      0x00\n      swap1\n      swap2\n      swap1\n      swap2\n      swap1\n      swap2\n      0x0100\n      exp\n      dup2\n      sload\n      dup2\n      0xffffffffffffffffffffffffffffffffffffffff\n      mul\n      not\n      and\n      swap1\n      dup4\n      0xffffffffffffffffffffffffffffffffffffffff\n      and\n      mul\n      or\n      swap1\n      sstore\n      pop\n        /* \"Contract.sol\":2710:2716  doctor */\n      dup1\n        /* \"Contract.sol\":2670:2692  addressToDoctorMapping */\n      0x03\n        /* \"Contract.sol\":2670:2707  addressToDoctorMapping[doctorAddress] */\n      0x00\n        /* \"Contract.sol\":2693:2706  doctorAddress */\n      dup7\n        /* \"Contract.sol\":2670:2707  addressToDoctorMapping[doctorAddress] */\n      0xffffffffffffffffffffffffffffffffffffffff\n      and\n      0xffffffffffffffffffffffffffffffffffffffff\n      and\n      dup2\n      mstore\n      0x20\n      add\n      swap1\n      dup2\n      mstore\n      0x20\n      add\n      0x00\n      keccak256\n        /* \"Contract.sol\":2670:2716  addressToDoctorMapping[doctorAddress] = doctor */\n      0x00\n      dup3\n      add\n      mload\n      dup2\n      0x00\n      add\n      swap1\n      dup2\n      tag_199\n      swap2\n      swap1\n      tag_151\n      jump\t// in\n    tag_199:\n      pop\n      0x20\n      dup3\n      add\n      mload\n      dup2\n      0x01\n      add\n      swap1\n      dup2\n      tag_200\n      swap2\n      swap1\n      tag_151\n      jump\t// in\n    tag_200:\n      pop\n      0x40\n      dup3\n      add\n      mload\n      dup2\n      0x02\n      add\n      swap1\n      dup1\n      mload\n      swap1\n      0x20\n      add\n      swap1\n      tag_201\n      swap3\n      swap2\n      swap1\n      tag_153\n      jump\t// in\n    tag_201:\n      pop\n      0x60\n      dup3\n      add\n      mload\n      dup2\n      0x03\n      add\n      sstore\n      swap1\n      pop\n      pop\n        /* \"Contract.sol\":2346:2723  {... */\n      pop\n        /* \"Contract.sol\":2230:2723  function addDoctor(address doctorAddress, string memory doctorName, string memory phoneNumber) public adminOnly... */\n      pop\n      pop\n      pop\n      jump\t// out\n        /* \"Contract.sol\":3261:3771  function addPatient(address patientAddress, string memory patientName, string memory phoneNumber) public adminOnly... */\n    tag_60:\n        /* \"Contract.sol\":7832:7857  adminRole.has(msg.sender) */\n      tag_203\n        /* \"Contract.sol\":7846:7856  msg.sender */\n      caller\n        /* \"Contract.sol\":7832:7841  adminRole */\n      0x00\n        /* \"Contract.sol\":7832:7845  adminRole.has */\n      tag_132\n      swap1\n        /* \"Contract.sol\":7832:7857  adminRole.has(msg.sender) */\n      swap2\n      swap1\n      0xffffffff\n      and\n      jump\t// in\n    tag_203:\n        /* \"Contract.sol\":7824:7872  require(adminRole.has(msg.sender), 'Admin only') */\n      tag_204\n      jumpi\n      mload(0x40)\n      0x08c379a000000000000000000000000000000000000000000000000000000000\n      dup2\n      mstore\n      0x04\n      add\n      tag_205\n      swap1\n      tag_190\n      jump\t// in\n    tag_205:\n      mload(0x40)\n      dup1\n      swap2\n      sub\n      swap1\n      revert\n    tag_204:\n        /* \"Contract.sol\":3416:3426  msg.sender */\n      caller\n        /* \"Contract.sol\":3398:3426  patientAddress != msg.sender */\n      0xffffffffffffffffffffffffffffffffffffffff\n      and\n        /* \"Contract.sol\":3398:3412  patientAddress */\n      dup4\n        /* \"Contract.sol\":3398:3426  patientAddress != msg.sender */\n      0xffffffffffffffffffffffffffffffffffffffff\n      and\n      sub\n        /* \"Contract.sol\":3390:3465  require(patientAddress != msg.sender, \"You are not eligible for this role\") */\n      tag_207\n      jumpi\n      mload(0x40)\n      0x08c379a000000000000000000000000000000000000000000000000000000000\n      dup2\n      mstore\n      0x04\n      add\n      tag_208\n      swap1\n      tag_194\n      jump\t// in\n    tag_208:\n      mload(0x40)\n      dup1\n      swap2\n      sub\n      swap1\n      revert\n    tag_207:\n        /* \"Contract.sol\":3476:3507  patientRole.add(patientAddress) */\n      tag_209\n        /* \"Contract.sol\":3492:3506  patientAddress */\n      dup4\n        /* \"Contract.sol\":3476:3487  patientRole */\n      0x02\n        /* \"Contract.sol\":3476:3491  patientRole.add */\n      tag_103\n      swap1\n        /* \"Contract.sol\":3476:3507  patientRole.add(patientAddress) */\n      swap2\n      swap1\n      0xffffffff\n      and\n      jump\t// in\n    tag_209:\n        /* \"Contract.sol\":3518:3540  Patient memory patient */\n      tag_210\n      tag_211\n      jump\t// in\n    tag_210:\n        /* \"Contract.sol\":3574:3585  patientName */\n      dup3\n        /* \"Contract.sol\":3559:3566  patient */\n      dup2\n        /* \"Contract.sol\":3559:3571  patient.name */\n      0x00\n      add\n        /* \"Contract.sol\":3559:3585  patient.name = patientName */\n      dup2\n      swap1\n      mstore\n      pop\n        /* \"Contract.sol\":3617:3628  phoneNumber */\n      dup2\n        /* \"Contract.sol\":3595:3602  patient */\n      dup2\n        /* \"Contract.sol\":3595:3614  patient.phoneNumber */\n      0x20\n      add\n        /* \"Contract.sol\":3595:3628  patient.phoneNumber = phoneNumber */\n      dup2\n      swap1\n      mstore\n      pop\n        /* \"Contract.sol\":3660:3661  0 */\n      0x00\n        /* \"Contract.sol\":3638:3645  patient */\n      dup2\n        /* \"Contract.sol\":3638:3657  patient.recordCount */\n      0x60\n      add\n        /* \"Contract.sol\":3638:3661  patient.recordCount = 0 */\n      dup2\n      dup2\n      mstore\n      pop\n      pop\n        /* \"Contract.sol\":3714:3721  patient */\n      dup1\n        /* \"Contract.sol\":3672:3695  addressToPatientMapping */\n      0x04\n        /* \"Contract.sol\":3672:3711  addressToPatientMapping[patientAddress] */\n      0x00\n        /* \"Contract.sol\":3696:3710  patientAddress */\n      dup7\n        /* \"Contract.sol\":3672:3711  addressToPatientMapping[patientAddress] */\n      0xffffffffffffffffffffffffffffffffffffffff\n      and\n      0xffffffffffffffffffffffffffffffffffffffff\n      and\n      dup2\n      mstore\n      0x20\n      add\n      swap1\n      dup2\n      mstore\n      0x20\n      add\n      0x00\n      keccak256\n        /* \"Contract.sol\":3672:3721  addressToPatientMapping[patientAddress] = patient */\n      0x00\n      dup3\n      add\n      mload\n      dup2\n      0x00\n      add\n      swap1\n      dup2\n      tag_212\n      swap2\n      swap1\n      tag_151\n      jump\t// in\n    tag_212:\n      pop\n      0x20\n      dup3\n      add\n      mload\n      dup2\n      0x01\n      add\n      swap1\n      dup2\n      tag_213\n      swap2\n      swap1\n      tag_151\n      jump\t// in\n    tag_213:\n      pop\n      0x40\n      dup3\n      add\n      mload\n      dup2\n      0x02\n      add\n      swap1\n      dup1\n      mload\n      swap1\n      0x20\n      add\n      swap1\n      tag_214\n      swap3\n      swap2\n      swap1\n      tag_153\n      jump\t// in\n    tag_214:\n      pop\n      0x60\n      dup3\n      add\n      mload\n      dup2\n      0x03\n      add\n      sstore\n      swap1\n      pop\n      pop\n        /* \"Contract.sol\":3732:3743  patientList */\n      0x09\n        /* \"Contract.sol\":3749:3763  patientAddress */\n      dup5\n        /* \"Contract.sol\":3732:3764  patientList.push(patientAddress) */\n      swap1\n      dup1\n      0x01\n      dup2\n      sload\n      add\n      dup1\n      dup3\n      sstore\n      dup1\n      swap2\n      pop\n      pop\n      0x01\n      swap1\n      sub\n      swap1\n      0x00\n      mstore\n      keccak256(0x00, 0x20)\n      add\n      0x00\n      swap1\n      swap2\n      swap1\n      swap2\n      swap1\n      swap2\n      0x0100\n      exp\n      dup2\n      sload\n      dup2\n      0xffffffffffffffffffffffffffffffffffffffff\n      mul\n      not\n      and\n      swap1\n      dup4\n      0xffffffffffffffffffffffffffffffffffffffff\n      and\n      mul\n      or\n      swap1\n      sstore\n      pop\n        /* \"Contract.sol\":3380:3771  {... */\n      pop\n        /* \"Contract.sol\":3261:3771  function addPatient(address patientAddress, string memory patientName, string memory phoneNumber) public adminOnly... */\n      pop\n      pop\n      pop\n      jump\t// out\n        /* \"Contract.sol\":4721:4879  function isAssignedToDoctor(address patientAddress) public view returns(bool)... */\n    tag_63:\n        /* \"Contract.sol\":4793:4797  bool */\n      0x00\n        /* \"Contract.sol\":4862:4872  msg.sender */\n      caller\n        /* \"Contract.sol\":4820:4872  patientToDoctorMapping[patientAddress] == msg.sender */\n      0xffffffffffffffffffffffffffffffffffffffff\n      and\n        /* \"Contract.sol\":4820:4842  patientToDoctorMapping */\n      0x05\n        /* \"Contract.sol\":4820:4858  patientToDoctorMapping[patientAddress] */\n      0x00\n        /* \"Contract.sol\":4843:4857  patientAddress */\n      dup5\n        /* \"Contract.sol\":4820:4858  patientToDoctorMapping[patientAddress] */\n      0xffffffffffffffffffffffffffffffffffffffff\n      and\n      0xffffffffffffffffffffffffffffffffffffffff\n      and\n      dup2\n      mstore\n      0x20\n      add\n      swap1\n      dup2\n      mstore\n      0x20\n      add\n      0x00\n      keccak256\n      0x00\n      swap1\n      sload\n      swap1\n      0x0100\n      exp\n      swap1\n      div\n      0xffffffffffffffffffffffffffffffffffffffff\n      and\n        /* \"Contract.sol\":4820:4872  patientToDoctorMapping[patientAddress] == msg.sender */\n      0xffffffffffffffffffffffffffffffffffffffff\n      and\n      eq\n        /* \"Contract.sol\":4813:4872  return patientToDoctorMapping[patientAddress] == msg.sender */\n      swap1\n      pop\n        /* \"Contract.sol\":4721:4879  function isAssignedToDoctor(address patientAddress) public view returns(bool)... */\n      swap2\n      swap1\n      pop\n      jump\t// out\n        /* \"Contract.sol\":5772:6114  function getRecordCount(address senderAddress) public view assignablesOnly(senderAddress) returns(uint)... */\n    tag_68:\n        /* \"Contract.sol\":5870:5874  uint */\n      0x00\n        /* \"Contract.sol\":5847:5860  senderAddress */\n      dup2\n        /* \"Contract.sol\":8381:8409  doctorRole.has(givenAddress) */\n      tag_218\n        /* \"Contract.sol\":8396:8408  givenAddress */\n      dup2\n        /* \"Contract.sol\":8381:8391  doctorRole */\n      0x01\n        /* \"Contract.sol\":8381:8395  doctorRole.has */\n      tag_132\n      swap1\n        /* \"Contract.sol\":8381:8409  doctorRole.has(givenAddress) */\n      swap2\n      swap1\n      0xffffffff\n      and\n      jump\t// in\n    tag_218:\n        /* \"Contract.sol\":8381:8442  doctorRole.has(givenAddress) || patientRole.has(givenAddress) */\n      dup1\n      tag_219\n      jumpi\n      pop\n        /* \"Contract.sol\":8413:8442  patientRole.has(givenAddress) */\n      tag_220\n        /* \"Contract.sol\":8429:8441  givenAddress */\n      dup2\n        /* \"Contract.sol\":8413:8424  patientRole */\n      0x02\n        /* \"Contract.sol\":8413:8428  patientRole.has */\n      tag_132\n      swap1\n        /* \"Contract.sol\":8413:8442  patientRole.has(givenAddress) */\n      swap2\n      swap1\n      0xffffffff\n      and\n      jump\t// in\n    tag_220:\n        /* \"Contract.sol\":8381:8442  doctorRole.has(givenAddress) || patientRole.has(givenAddress) */\n    tag_219:\n        /* \"Contract.sol\":8373:8443  require(doctorRole.has(givenAddress) || patientRole.has(givenAddress)) */\n      tag_221\n      jumpi\n      0x00\n      dup1\n      revert\n    tag_221:\n        /* \"Contract.sol\":5893:5919  doctorRole.has(msg.sender) */\n      tag_223\n        /* \"Contract.sol\":5908:5918  msg.sender */\n      caller\n        /* \"Contract.sol\":5893:5903  doctorRole */\n      0x01\n        /* \"Contract.sol\":5893:5907  doctorRole.has */\n      tag_132\n      swap1\n        /* \"Contract.sol\":5893:5919  doctorRole.has(msg.sender) */\n      swap2\n      swap1\n      0xffffffff\n      and\n      jump\t// in\n    tag_223:\n        /* \"Contract.sol\":5890:6108  if(doctorRole.has(msg.sender))... */\n      iszero\n      tag_224\n      jumpi\n        /* \"Contract.sol\":5950:5972  addressToDoctorMapping */\n      0x03\n        /* \"Contract.sol\":5950:5984  addressToDoctorMapping[msg.sender] */\n      0x00\n        /* \"Contract.sol\":5973:5983  msg.sender */\n      caller\n        /* \"Contract.sol\":5950:5984  addressToDoctorMapping[msg.sender] */\n      0xffffffffffffffffffffffffffffffffffffffff\n      and\n      0xffffffffffffffffffffffffffffffffffffffff\n      and\n      dup2\n      mstore\n      0x20\n      add\n      swap1\n      dup2\n      mstore\n      0x20\n      add\n      0x00\n      keccak256\n        /* \"Contract.sol\":5950:5996  addressToDoctorMapping[msg.sender].recordCount */\n      0x03\n      add\n      sload\n        /* \"Contract.sol\":5943:5996  return addressToDoctorMapping[msg.sender].recordCount */\n      swap2\n      pop\n      jump(tag_222)\n        /* \"Contract.sol\":5890:6108  if(doctorRole.has(msg.sender))... */\n    tag_224:\n        /* \"Contract.sol\":6050:6073  addressToPatientMapping */\n      0x04\n        /* \"Contract.sol\":6050:6085  addressToPatientMapping[msg.sender] */\n      0x00\n        /* \"Contract.sol\":6074:6084  msg.sender */\n      caller\n        /* \"Contract.sol\":6050:6085  addressToPatientMapping[msg.sender] */\n      0xffffffffffffffffffffffffffffffffffffffff\n      and\n      0xffffffffffffffffffffffffffffffffffffffff\n      and\n      dup2\n      mstore\n      0x20\n      add\n      swap1\n      dup2\n      mstore\n      0x20\n      add\n      0x00\n      keccak256\n        /* \"Contract.sol\":6050:6097  addressToPatientMapping[msg.sender].recordCount */\n      0x03\n      add\n      sload\n        /* \"Contract.sol\":6043:6097  return addressToPatientMapping[msg.sender].recordCount */\n      swap2\n      pop\n        /* \"Contract.sol\":8453:8454  _ */\n    tag_222:\n        /* \"Contract.sol\":5772:6114  function getRecordCount(address senderAddress) public view assignablesOnly(senderAddress) returns(uint)... */\n      pop\n      swap2\n      swap1\n      pop\n      jump\t// out\n        /* \"Contract.sol\":4552:4676  function isPatient(address givenAddress) public view returns(bool)... */\n    tag_73:\n        /* \"Contract.sol\":4613:4617  bool */\n      0x00\n        /* \"Contract.sol\":4640:4669  patientRole.has(givenAddress) */\n      tag_227\n        /* \"Contract.sol\":4656:4668  givenAddress */\n      dup3\n        /* \"Contract.sol\":4640:4651  patientRole */\n      0x02\n        /* \"Contract.sol\":4640:4655  patientRole.has */\n      tag_132\n      swap1\n        /* \"Contract.sol\":4640:4669  patientRole.has(givenAddress) */\n      swap2\n      swap1\n      0xffffffff\n      and\n      jump\t// in\n    tag_227:\n        /* \"Contract.sol\":4633:4669  return patientRole.has(givenAddress) */\n      swap1\n      pop\n        /* \"Contract.sol\":4552:4676  function isPatient(address givenAddress) public view returns(bool)... */\n      swap2\n      swap1\n      pop\n      jump\t// out\n        /* \"Contract.sol\":4209:4364  function assign(address patientAddress, address doctorAddress) public adminOnly... */\n    tag_78:\n        /* \"Contract.sol\":7832:7857  adminRole.has(msg.sender) */\n      tag_229\n        /* \"Contract.sol\":7846:7856  msg.sender */\n      caller\n        /* \"Contract.sol\":7832:7841  adminRole */\n      0x00\n        /* \"Contract.sol\":7832:7845  adminRole.has */\n      tag_132\n      swap1\n        /* \"Contract.sol\":7832:7857  adminRole.has(msg.sender) */\n      swap2\n      swap1\n      0xffffffff\n      and\n      jump\t// in\n    tag_229:\n        /* \"Contract.sol\":7824:7872  require(adminRole.has(msg.sender), 'Admin only') */\n      tag_230\n      jumpi\n      mload(0x40)\n      0x08c379a000000000000000000000000000000000000000000000000000000000\n      dup2\n      mstore\n      0x04\n      add\n      tag_231\n      swap1\n      tag_190\n      jump\t// in\n    tag_231:\n      mload(0x40)\n      dup1\n      swap2\n      sub\n      swap1\n      revert\n    tag_230:\n        /* \"Contract.sol\":4344:4357  doctorAddress */\n      dup1\n        /* \"Contract.sol\":4303:4325  patientToDoctorMapping */\n      0x05\n        /* \"Contract.sol\":4303:4341  patientToDoctorMapping[patientAddress] */\n      0x00\n        /* \"Contract.sol\":4326:4340  patientAddress */\n      dup5\n        /* \"Contract.sol\":4303:4341  patientToDoctorMapping[patientAddress] */\n      0xffffffffffffffffffffffffffffffffffffffff\n      and\n      0xffffffffffffffffffffffffffffffffffffffff\n      and\n      dup2\n      mstore\n      0x20\n      add\n      swap1\n      dup2\n      mstore\n      0x20\n      add\n      0x00\n      keccak256\n      0x00\n        /* \"Contract.sol\":4303:4357  patientToDoctorMapping[patientAddress] = doctorAddress */\n      0x0100\n      exp\n      dup2\n      sload\n      dup2\n      0xffffffffffffffffffffffffffffffffffffffff\n      mul\n      not\n      and\n      swap1\n      dup4\n      0xffffffffffffffffffffffffffffffffffffffff\n      and\n      mul\n      or\n      swap1\n      sstore\n      pop\n        /* \"Contract.sol\":4209:4364  function assign(address patientAddress, address doctorAddress) public adminOnly... */\n      pop\n      pop\n      jump\t// out\n        /* \"Contract.sol\":4396:4518  function isDoctor(address givenAddress) public view returns(bool)... */\n    tag_81:\n        /* \"Contract.sol\":4456:4460  bool */\n      0x00\n        /* \"Contract.sol\":4483:4511  doctorRole.has(givenAddress) */\n      tag_234\n        /* \"Contract.sol\":4498:4510  givenAddress */\n      dup3\n        /* \"Contract.sol\":4483:4493  doctorRole */\n      0x01\n        /* \"Contract.sol\":4483:4497  doctorRole.has */\n      tag_132\n      swap1\n        /* \"Contract.sol\":4483:4511  doctorRole.has(givenAddress) */\n      swap2\n      swap1\n      0xffffffff\n      and\n      jump\t// in\n    tag_234:\n        /* \"Contract.sol\":4476:4511  return doctorRole.has(givenAddress) */\n      swap1\n      pop\n        /* \"Contract.sol\":4396:4518  function isDoctor(address givenAddress) public view returns(bool)... */\n      swap2\n      swap1\n      pop\n      jump\t// out\n        /* \"Contract.sol\":2761:2862  function getDoctorList() public view returns(address[] memory)... */\n    tag_84:\n        /* \"Contract.sol\":2806:2822  address[] memory */\n      0x60\n        /* \"Contract.sol\":2845:2855  doctorList */\n      0x08\n        /* \"Contract.sol\":2838:2855  return doctorList */\n      dup1\n      sload\n      dup1\n      0x20\n      mul\n      0x20\n      add\n      mload(0x40)\n      swap1\n      dup2\n      add\n      0x40\n      mstore\n      dup1\n      swap3\n      swap2\n      swap1\n      dup2\n      dup2\n      mstore\n      0x20\n      add\n      dup3\n      dup1\n      sload\n      dup1\n      iszero\n      tag_236\n      jumpi\n      0x20\n      mul\n      dup3\n      add\n      swap2\n      swap1\n      0x00\n      mstore\n      keccak256(0x00, 0x20)\n      swap1\n    tag_237:\n      dup2\n      0x00\n      swap1\n      sload\n      swap1\n      0x0100\n      exp\n      swap1\n      div\n      0xffffffffffffffffffffffffffffffffffffffff\n      and\n      0xffffffffffffffffffffffffffffffffffffffff\n      and\n      dup2\n      mstore\n      0x20\n      add\n      swap1\n      0x01\n      add\n      swap1\n      dup1\n      dup4\n      gt\n      tag_237\n      jumpi\n    tag_236:\n      pop\n      pop\n      pop\n      pop\n      pop\n      swap1\n      pop\n        /* \"Contract.sol\":2761:2862  function getDoctorList() public view returns(address[] memory)... */\n      swap1\n      jump\t// out\n        /* \"Contract.sol\":6147:6510  function getRecordNumbers(address senderAddress) public view assignablesOnly(senderAddress) returns(uint[] memory)... */\n    tag_89:\n        /* \"Contract.sol\":6247:6260  uint[] memory */\n      0x60\n        /* \"Contract.sol\":6224:6237  senderAddress */\n      dup2\n        /* \"Contract.sol\":8381:8409  doctorRole.has(givenAddress) */\n      tag_239\n        /* \"Contract.sol\":8396:8408  givenAddress */\n      dup2\n        /* \"Contract.sol\":8381:8391  doctorRole */\n      0x01\n        /* \"Contract.sol\":8381:8395  doctorRole.has */\n      tag_132\n      swap1\n        /* \"Contract.sol\":8381:8409  doctorRole.has(givenAddress) */\n      swap2\n      swap1\n      0xffffffff\n      and\n      jump\t// in\n    tag_239:\n        /* \"Contract.sol\":8381:8442  doctorRole.has(givenAddress) || patientRole.has(givenAddress) */\n      dup1\n      tag_240\n      jumpi\n      pop\n        /* \"Contract.sol\":8413:8442  patientRole.has(givenAddress) */\n      tag_241\n        /* \"Contract.sol\":8429:8441  givenAddress */\n      dup2\n        /* \"Contract.sol\":8413:8424  patientRole */\n      0x02\n        /* \"Contract.sol\":8413:8428  patientRole.has */\n      tag_132\n      swap1\n        /* \"Contract.sol\":8413:8442  patientRole.has(givenAddress) */\n      swap2\n      swap1\n      0xffffffff\n      and\n      jump\t// in\n    tag_241:\n        /* \"Contract.sol\":8381:8442  doctorRole.has(givenAddress) || patientRole.has(givenAddress) */\n    tag_240:\n        /* \"Contract.sol\":8373:8443  require(doctorRole.has(givenAddress) || patientRole.has(givenAddress)) */\n      tag_242\n      jumpi\n      0x00\n      dup1\n      revert\n    tag_242:\n        /* \"Contract.sol\":6279:6305  doctorRole.has(msg.sender) */\n      tag_244\n        /* \"Contract.sol\":6294:6304  msg.sender */\n      caller\n        /* \"Contract.sol\":6279:6289  doctorRole */\n      0x01\n        /* \"Contract.sol\":6279:6293  doctorRole.has */\n      tag_132\n      swap1\n        /* \"Contract.sol\":6279:6305  doctorRole.has(msg.sender) */\n      swap2\n      swap1\n      0xffffffff\n      and\n      jump\t// in\n    tag_244:\n        /* \"Contract.sol\":6276:6504  if(doctorRole.has(msg.sender))... */\n      iszero\n      tag_245\n      jumpi\n        /* \"Contract.sol\":6336:6358  addressToDoctorMapping */\n      0x03\n        /* \"Contract.sol\":6336:6370  addressToDoctorMapping[msg.sender] */\n      0x00\n        /* \"Contract.sol\":6359:6369  msg.sender */\n      caller\n        /* \"Contract.sol\":6336:6370  addressToDoctorMapping[msg.sender] */\n      0xffffffffffffffffffffffffffffffffffffffff\n      and\n      0xffffffffffffffffffffffffffffffffffffffff\n      and\n      dup2\n      mstore\n      0x20\n      add\n      swap1\n      dup2\n      mstore\n      0x20\n      add\n      0x00\n      keccak256\n        /* \"Contract.sol\":6336:6387  addressToDoctorMapping[msg.sender].recordNumberList */\n      0x02\n      add\n        /* \"Contract.sol\":6329:6387  return addressToDoctorMapping[msg.sender].recordNumberList */\n      dup1\n      sload\n      dup1\n      0x20\n      mul\n      0x20\n      add\n      mload(0x40)\n      swap1\n      dup2\n      add\n      0x40\n      mstore\n      dup1\n      swap3\n      swap2\n      swap1\n      dup2\n      dup2\n      mstore\n      0x20\n      add\n      dup3\n      dup1\n      sload\n      dup1\n      iszero\n      tag_246\n      jumpi\n      0x20\n      mul\n      dup3\n      add\n      swap2\n      swap1\n      0x00\n      mstore\n      keccak256(0x00, 0x20)\n      swap1\n    tag_247:\n      dup2\n      sload\n      dup2\n      mstore\n      0x20\n      add\n      swap1\n      0x01\n      add\n      swap1\n      dup1\n      dup4\n      gt\n      tag_247\n      jumpi\n    tag_246:\n      pop\n      pop\n      pop\n      pop\n      pop\n      swap2\n      pop\n      jump(tag_243)\n        /* \"Contract.sol\":6276:6504  if(doctorRole.has(msg.sender))... */\n    tag_245:\n        /* \"Contract.sol\":6441:6464  addressToPatientMapping */\n      0x04\n        /* \"Contract.sol\":6441:6476  addressToPatientMapping[msg.sender] */\n      0x00\n        /* \"Contract.sol\":6465:6475  msg.sender */\n      caller\n        /* \"Contract.sol\":6441:6476  addressToPatientMapping[msg.sender] */\n      0xffffffffffffffffffffffffffffffffffffffff\n      and\n      0xffffffffffffffffffffffffffffffffffffffff\n      and\n      dup2\n      mstore\n      0x20\n      add\n      swap1\n      dup2\n      mstore\n      0x20\n      add\n      0x00\n      keccak256\n        /* \"Contract.sol\":6441:6493  addressToPatientMapping[msg.sender].recordNumberList */\n      0x02\n      add\n        /* \"Contract.sol\":6434:6493  return addressToPatientMapping[msg.sender].recordNumberList */\n      dup1\n      sload\n      dup1\n      0x20\n      mul\n      0x20\n      add\n      mload(0x40)\n      swap1\n      dup2\n      add\n      0x40\n      mstore\n      dup1\n      swap3\n      swap2\n      swap1\n      dup2\n      dup2\n      mstore\n      0x20\n      add\n      dup3\n      dup1\n      sload\n      dup1\n      iszero\n      tag_249\n      jumpi\n      0x20\n      mul\n      dup3\n      add\n      swap2\n      swap1\n      0x00\n      mstore\n      keccak256(0x00, 0x20)\n      swap1\n    tag_250:\n      dup2\n      sload\n      dup2\n      mstore\n      0x20\n      add\n      swap1\n      0x01\n      add\n      swap1\n      dup1\n      dup4\n      gt\n      tag_250\n      jumpi\n    tag_249:\n      pop\n      pop\n      pop\n      pop\n      pop\n      swap2\n      pop\n        /* \"Contract.sol\":8453:8454  _ */\n    tag_243:\n        /* \"Contract.sol\":6147:6510  function getRecordNumbers(address senderAddress) public view assignablesOnly(senderAddress) returns(uint[] memory)... */\n      pop\n      swap2\n      swap1\n      pop\n      jump\t// out\n        /* \"Contract.sol\":3797:4155  function getPatient(address patientAddress) public view returns(string memory, string memory, uint, uint[] memory)... */\n    tag_94:\n        /* \"Contract.sol\":3861:3874  string memory */\n      0x60\n        /* \"Contract.sol\":3876:3889  string memory */\n      dup1\n        /* \"Contract.sol\":3891:3895  uint */\n      0x00\n        /* \"Contract.sol\":3897:3910  uint[] memory */\n      0x60\n        /* \"Contract.sol\":3926:3948  Patient memory patient */\n      0x00\n        /* \"Contract.sol\":3951:3974  addressToPatientMapping */\n      0x04\n        /* \"Contract.sol\":3951:3990  addressToPatientMapping[patientAddress] */\n      0x00\n        /* \"Contract.sol\":3975:3989  patientAddress */\n      dup8\n        /* \"Contract.sol\":3951:3990  addressToPatientMapping[patientAddress] */\n      0xffffffffffffffffffffffffffffffffffffffff\n      and\n      0xffffffffffffffffffffffffffffffffffffffff\n      and\n      dup2\n      mstore\n      0x20\n      add\n      swap1\n      dup2\n      mstore\n      0x20\n      add\n      0x00\n      keccak256\n        /* \"Contract.sol\":3926:3990  Patient memory patient = addressToPatientMapping[patientAddress] */\n      mload(0x40)\n      dup1\n      0x80\n      add\n      0x40\n      mstore\n      swap1\n      dup2\n      0x00\n      dup3\n      add\n      dup1\n      sload\n      tag_252\n      swap1\n      tag_112\n      jump\t// in\n    tag_252:\n      dup1\n      0x1f\n      add\n      0x20\n      dup1\n      swap2\n      div\n      mul\n      0x20\n      add\n      mload(0x40)\n      swap1\n      dup2\n      add\n      0x40\n      mstore\n      dup1\n      swap3\n      swap2\n      swap1\n      dup2\n      dup2\n      mstore\n      0x20\n      add\n      dup3\n      dup1\n      sload\n      tag_253\n      swap1\n      tag_112\n      jump\t// in\n    tag_253:\n      dup1\n      iszero\n      tag_254\n      jumpi\n      dup1\n      0x1f\n      lt\n      tag_255\n      jumpi\n      0x0100\n      dup1\n      dup4\n      sload\n      div\n      mul\n      dup4\n      mstore\n      swap2\n      0x20\n      add\n      swap2\n      jump(tag_254)\n    tag_255:\n      dup3\n      add\n      swap2\n      swap1\n      0x00\n      mstore\n      keccak256(0x00, 0x20)\n      swap1\n    tag_256:\n      dup2\n      sload\n      dup2\n      mstore\n      swap1\n      0x01\n      add\n      swap1\n      0x20\n      add\n      dup1\n      dup4\n      gt\n      tag_256\n      jumpi\n      dup3\n      swap1\n      sub\n      0x1f\n      and\n      dup3\n      add\n      swap2\n    tag_254:\n      pop\n      pop\n      pop\n      pop\n      pop\n      dup2\n      mstore\n      0x20\n      add\n      0x01\n      dup3\n      add\n      dup1\n      sload\n      tag_257\n      swap1\n      tag_112\n      jump\t// in\n    tag_257:\n      dup1\n      0x1f\n      add\n      0x20\n      dup1\n      swap2\n      div\n      mul\n      0x20\n      add\n      mload(0x40)\n      swap1\n      dup2\n      add\n      0x40\n      mstore\n      dup1\n      swap3\n      swap2\n      swap1\n      dup2\n      dup2\n      mstore\n      0x20\n      add\n      dup3\n      dup1\n      sload\n      tag_258\n      swap1\n      tag_112\n      jump\t// in\n    tag_258:\n      dup1\n      iszero\n      tag_259\n      jumpi\n      dup1\n      0x1f\n      lt\n      tag_260\n      jumpi\n      0x0100\n      dup1\n      dup4\n      sload\n      div\n      mul\n      dup4\n      mstore\n      swap2\n      0x20\n      add\n      swap2\n      jump(tag_259)\n    tag_260:\n      dup3\n      add\n      swap2\n      swap1\n      0x00\n      mstore\n      keccak256(0x00, 0x20)\n      swap1\n    tag_261:\n      dup2\n      sload\n      dup2\n      mstore\n      swap1\n      0x01\n      add\n      swap1\n      0x20\n      add\n      dup1\n      dup4\n      gt\n      tag_261\n      jumpi\n      dup3\n      swap1\n      sub\n      0x1f\n      and\n      dup3\n      add\n      swap2\n    tag_259:\n      pop\n      pop\n      pop\n      pop\n      pop\n      dup2\n      mstore\n      0x20\n      add\n      0x02\n      dup3\n      add\n      dup1\n      sload\n      dup1\n      0x20\n      mul\n      0x20\n      add\n      mload(0x40)\n      swap1\n      dup2\n      add\n      0x40\n      mstore\n      dup1\n      swap3\n      swap2\n      swap1\n      dup2\n      dup2\n      mstore\n      0x20\n      add\n      dup3\n      dup1\n      sload\n      dup1\n      iszero\n      tag_262\n      jumpi\n      0x20\n      mul\n      dup3\n      add\n      swap2\n      swap1\n      0x00\n      mstore\n      keccak256(0x00, 0x20)\n      swap1\n    tag_263:\n      dup2\n      sload\n      dup2\n      mstore\n      0x20\n      add\n      swap1\n      0x01\n      add\n      swap1\n      dup1\n      dup4\n      gt\n      tag_263\n      jumpi\n    tag_262:\n      pop\n      pop\n      pop\n      pop\n      pop\n      dup2\n      mstore\n      0x20\n      add\n      0x03\n      dup3\n      add\n      sload\n      dup2\n      mstore\n      pop\n      pop\n      swap1\n      pop\n        /* \"Contract.sol\":4022:4029  patient */\n      dup1\n        /* \"Contract.sol\":4022:4034  patient.name */\n      0x00\n      add\n      mload\n        /* \"Contract.sol\":4048:4055  patient */\n      dup2\n        /* \"Contract.sol\":4048:4067  patient.phoneNumber */\n      0x20\n      add\n      mload\n        /* \"Contract.sol\":4081:4088  patient */\n      dup3\n        /* \"Contract.sol\":4081:4100  patient.recordCount */\n      0x60\n      add\n      mload\n        /* \"Contract.sol\":4114:4121  patient */\n      dup4\n        /* \"Contract.sol\":4114:4138  patient.recordNumberList */\n      0x40\n      add\n      mload\n        /* \"Contract.sol\":4001:4148  return (... */\n      swap5\n      pop\n      swap5\n      pop\n      swap5\n      pop\n      swap5\n      pop\n      pop\n        /* \"Contract.sol\":3797:4155  function getPatient(address patientAddress) public view returns(string memory, string memory, uint, uint[] memory)... */\n      swap2\n      swap4\n      pop\n      swap2\n      swap4\n      jump\t// out\n        /* \"Contract.sol\":2056:2084  address[] public patientList */\n    tag_98:\n      0x09\n      dup2\n      dup2\n      sload\n      dup2\n      lt\n      tag_264\n      jumpi\n      0x00\n      dup1\n      revert\n    tag_264:\n      swap1\n      0x00\n      mstore\n      keccak256(0x00, 0x20)\n      add\n      0x00\n      swap2\n      pop\n      sload\n      swap1\n      0x0100\n      exp\n      swap1\n      div\n      0xffffffffffffffffffffffffffffffffffffffff\n      and\n      dup2\n      jump\t// out\n        /* \"Contract.sol\":2091:2111  address public admin */\n    tag_101:\n      0x0a\n      0x00\n      swap1\n      sload\n      swap1\n      0x0100\n      exp\n      swap1\n      div\n      0xffffffffffffffffffffffffffffffffffffffff\n      and\n      dup2\n      jump\t// out\n        /* \"Contract.sol\":301:481  function add(Role storage role, address account) internal ... */\n    tag_103:\n        /* \"Contract.sol\":383:401  has(role, account) */\n      tag_267\n        /* \"Contract.sol\":387:391  role */\n      dup3\n        /* \"Contract.sol\":393:400  account */\n      dup3\n        /* \"Contract.sol\":383:386  has */\n      tag_132\n        /* \"Contract.sol\":383:401  has(role, account) */\n      jump\t// in\n    tag_267:\n        /* \"Contract.sol\":382:401  !has(role, account) */\n      iszero\n        /* \"Contract.sol\":374:437  require(!has(role, account), \"Roles: account already has role\") */\n      tag_268\n      jumpi\n      mload(0x40)\n      0x08c379a000000000000000000000000000000000000000000000000000000000\n      dup2\n      mstore\n      0x04\n      add\n      tag_269\n      swap1\n      tag_270\n      jump\t// in\n    tag_269:\n      mload(0x40)\n      dup1\n      swap2\n      sub\n      swap1\n      revert\n    tag_268:\n        /* \"Contract.sol\":470:474  true */\n      0x01\n        /* \"Contract.sol\":447:451  role */\n      dup3\n        /* \"Contract.sol\":447:458  role.bearer */\n      0x00\n      add\n        /* \"Contract.sol\":447:467  role.bearer[account] */\n      0x00\n        /* \"Contract.sol\":459:466  account */\n      dup4\n        /* \"Contract.sol\":447:467  role.bearer[account] */\n      0xffffffffffffffffffffffffffffffffffffffff\n      and\n      0xffffffffffffffffffffffffffffffffffffffff\n      and\n      dup2\n      mstore\n      0x20\n      add\n      swap1\n      dup2\n      mstore\n      0x20\n      add\n      0x00\n      keccak256\n      0x00\n        /* \"Contract.sol\":447:474  role.bearer[account] = true */\n      0x0100\n      exp\n      dup2\n      sload\n      dup2\n      0xff\n      mul\n      not\n      and\n      swap1\n      dup4\n      iszero\n      iszero\n      mul\n      or\n      swap1\n      sstore\n      pop\n        /* \"Contract.sol\":301:481  function add(Role storage role, address account) internal ... */\n      pop\n      pop\n      jump\t// out\n        /* \"Contract.sol\":830:957  function has(Role storage role, address account) internal view returns (bool) ... */\n    tag_132:\n        /* \"Contract.sol\":902:906  bool */\n      0x00\n        /* \"Contract.sol\":930:934  role */\n      dup3\n        /* \"Contract.sol\":930:941  role.bearer */\n      0x00\n      add\n        /* \"Contract.sol\":930:950  role.bearer[account] */\n      0x00\n        /* \"Contract.sol\":942:949  account */\n      dup4\n        /* \"Contract.sol\":930:950  role.bearer[account] */\n      0xffffffffffffffffffffffffffffffffffffffff\n      and\n      0xffffffffffffffffffffffffffffffffffffffff\n      and\n      dup2\n      mstore\n      0x20\n      add\n      swap1\n      dup2\n      mstore\n      0x20\n      add\n      0x00\n      keccak256\n      0x00\n      swap1\n      sload\n      swap1\n      0x0100\n      exp\n      swap1\n      div\n      0xff\n      and\n        /* \"Contract.sol\":923:950  return role.bearer[account] */\n      swap1\n      pop\n        /* \"Contract.sol\":830:957  function has(Role storage role, address account) internal view returns (bool) ... */\n      swap3\n      swap2\n      pop\n      pop\n      jump\t// out\n        /* \"Contract.sol\":7533:7749  function addAppointmentToRecord(uint recordNumber, uint appointmentNumber) internal... */\n    tag_185:\n        /* \"Contract.sol\":7631:7652  Record storage record */\n      0x00\n        /* \"Contract.sol\":7655:7665  recordList */\n      0x07\n        /* \"Contract.sol\":7666:7678  recordNumber */\n      dup4\n        /* \"Contract.sol\":7655:7679  recordList[recordNumber] */\n      dup2\n      sload\n      dup2\n      lt\n      tag_273\n      jumpi\n      tag_274\n      tag_109\n      jump\t// in\n    tag_274:\n    tag_273:\n      swap1\n      0x00\n      mstore\n      keccak256(0x00, 0x20)\n      swap1\n      0x05\n      mul\n      add\n        /* \"Contract.sol\":7631:7679  Record storage record = recordList[recordNumber] */\n      swap1\n      pop\n        /* \"Contract.sol\":7690:7696  record */\n      dup1\n        /* \"Contract.sol\":7690:7718  record.appointmentNumberList */\n      0x04\n      add\n        /* \"Contract.sol\":7724:7741  appointmentNumber */\n      dup3\n        /* \"Contract.sol\":7690:7742  record.appointmentNumberList.push(appointmentNumber) */\n      swap1\n      dup1\n      0x01\n      dup2\n      sload\n      add\n      dup1\n      dup3\n      sstore\n      dup1\n      swap2\n      pop\n      pop\n      0x01\n      swap1\n      sub\n      swap1\n      0x00\n      mstore\n      keccak256(0x00, 0x20)\n      add\n      0x00\n      swap1\n      swap2\n      swap1\n      swap2\n      swap1\n      swap2\n      pop\n      sstore\n        /* \"Contract.sol\":7621:7749  {... */\n      pop\n        /* \"Contract.sol\":7533:7749  function addAppointmentToRecord(uint recordNumber, uint appointmentNumber) internal... */\n      pop\n      pop\n      jump\t// out\n    tag_105:\n      mload(0x40)\n      dup1\n      0xa0\n      add\n      0x40\n      mstore\n      dup1\n      0x00\n      dup2\n      mstore\n      0x20\n      add\n      and(0xffffffffffffffffffffffffffffffffffffffff, 0x00)\n      dup2\n      mstore\n      0x20\n      add\n      and(0xffffffffffffffffffffffffffffffffffffffff, 0x00)\n      dup2\n      mstore\n      0x20\n      add\n      0x60\n      dup2\n      mstore\n      0x20\n      add\n      0x60\n      dup2\n      mstore\n      pop\n      swap1\n      jump\t// out\n    tag_153:\n      dup3\n      dup1\n      sload\n      dup3\n      dup3\n      sstore\n      swap1\n      0x00\n      mstore\n      keccak256(0x00, 0x20)\n      swap1\n      dup2\n      add\n      swap3\n      dup3\n      iszero\n      tag_277\n      jumpi\n      swap2\n      0x20\n      mul\n      dup3\n      add\n    tag_278:\n      dup3\n      dup2\n      gt\n      iszero\n      tag_279\n      jumpi\n      dup3\n      mload\n      dup3\n      sstore\n      swap2\n      0x20\n      add\n      swap2\n      swap1\n      0x01\n      add\n      swap1\n      jump(tag_278)\n    tag_279:\n    tag_277:\n      pop\n      swap1\n      pop\n      tag_280\n      swap2\n      swap1\n      tag_281\n      jump\t// in\n    tag_280:\n      pop\n      swap1\n      jump\t// out\n    tag_180:\n      mload(0x40)\n      dup1\n      0xa0\n      add\n      0x40\n      mstore\n      dup1\n      0x00\n      dup2\n      mstore\n      0x20\n      add\n      and(0xffffffffffffffffffffffffffffffffffffffff, 0x00)\n      dup2\n      mstore\n      0x20\n      add\n      and(0xffffffffffffffffffffffffffffffffffffffff, 0x00)\n      dup2\n      mstore\n      0x20\n      add\n      0x60\n      dup2\n      mstore\n      0x20\n      add\n      0x60\n      dup2\n      mstore\n      pop\n      swap1\n      jump\t// out\n    tag_197:\n      mload(0x40)\n      dup1\n      0x80\n      add\n      0x40\n      mstore\n      dup1\n      0x60\n      dup2\n      mstore\n      0x20\n      add\n      0x60\n      dup2\n      mstore\n      0x20\n      add\n      0x60\n      dup2\n      mstore\n      0x20\n      add\n      0x00\n      dup2\n      mstore\n      pop\n      swap1\n      jump\t// out\n    tag_211:\n      mload(0x40)\n      dup1\n      0x80\n      add\n      0x40\n      mstore\n      dup1\n      0x60\n      dup2\n      mstore\n      0x20\n      add\n      0x60\n      dup2\n      mstore\n      0x20\n      add\n      0x60\n      dup2\n      mstore\n      0x20\n      add\n      0x00\n      dup2\n      mstore\n      pop\n      swap1\n      jump\t// out\n    tag_281:\n    tag_282:\n      dup1\n      dup3\n      gt\n      iszero\n      tag_283\n      jumpi\n      0x00\n      dup2\n      0x00\n      swap1\n      sstore\n      pop\n      0x01\n      add\n      jump(tag_282)\n    tag_283:\n      pop\n      swap1\n      jump\t// out\n        /* \"#utility.yul\":7:82   */\n    tag_284:\n        /* \"#utility.yul\":40:46   */\n      0x00\n        /* \"#utility.yul\":73:75   */\n      0x40\n        /* \"#utility.yul\":67:76   */\n      mload\n        /* \"#utility.yul\":57:76   */\n      swap1\n      pop\n        /* \"#utility.yul\":7:82   */\n      swap1\n      jump\t// out\n        /* \"#utility.yul\":88:205   */\n    tag_285:\n        /* \"#utility.yul\":197:198   */\n      0x00\n        /* \"#utility.yul\":194:195   */\n      dup1\n        /* \"#utility.yul\":187:199   */\n      revert\n        /* \"#utility.yul\":211:328   */\n    tag_286:\n        /* \"#utility.yul\":320:321   */\n      0x00\n        /* \"#utility.yul\":317:318   */\n      dup1\n        /* \"#utility.yul\":310:322   */\n      revert\n        /* \"#utility.yul\":334:411   */\n    tag_287:\n        /* \"#utility.yul\":371:378   */\n      0x00\n        /* \"#utility.yul\":400:405   */\n      dup2\n        /* \"#utility.yul\":389:405   */\n      swap1\n      pop\n        /* \"#utility.yul\":334:411   */\n      swap2\n      swap1\n      pop\n      jump\t// out\n        /* \"#utility.yul\":417:539   */\n    tag_288:\n        /* \"#utility.yul\":490:514   */\n      tag_365\n        /* \"#utility.yul\":508:513   */\n      dup2\n        /* \"#utility.yul\":490:514   */\n      tag_287\n      jump\t// in\n    tag_365:\n        /* \"#utility.yul\":483:488   */\n      dup2\n        /* \"#utility.yul\":480:515   */\n      eq\n        /* \"#utility.yul\":470:533   */\n      tag_366\n      jumpi\n        /* \"#utility.yul\":529:530   */\n      0x00\n        /* \"#utility.yul\":526:527   */\n      dup1\n        /* \"#utility.yul\":519:531   */\n      revert\n        /* \"#utility.yul\":470:533   */\n    tag_366:\n        /* \"#utility.yul\":417:539   */\n      pop\n      jump\t// out\n        /* \"#utility.yul\":545:684   */\n    tag_289:\n        /* \"#utility.yul\":591:596   */\n      0x00\n        /* \"#utility.yul\":629:635   */\n      dup2\n        /* \"#utility.yul\":616:636   */\n      calldataload\n        /* \"#utility.yul\":607:636   */\n      swap1\n      pop\n        /* \"#utility.yul\":645:678   */\n      tag_368\n        /* \"#utility.yul\":672:677   */\n      dup2\n        /* \"#utility.yul\":645:678   */\n      tag_288\n      jump\t// in\n    tag_368:\n        /* \"#utility.yul\":545:684   */\n      swap3\n      swap2\n      pop\n      pop\n      jump\t// out\n        /* \"#utility.yul\":690:1019   */\n    tag_26:\n        /* \"#utility.yul\":749:755   */\n      0x00\n        /* \"#utility.yul\":798:800   */\n      0x20\n        /* \"#utility.yul\":786:795   */\n      dup3\n        /* \"#utility.yul\":777:784   */\n      dup5\n        /* \"#utility.yul\":773:796   */\n      sub\n        /* \"#utility.yul\":769:801   */\n      slt\n        /* \"#utility.yul\":766:885   */\n      iszero\n      tag_370\n      jumpi\n        /* \"#utility.yul\":804:883   */\n      tag_371\n      tag_285\n      jump\t// in\n    tag_371:\n        /* \"#utility.yul\":766:885   */\n    tag_370:\n        /* \"#utility.yul\":924:925   */\n      0x00\n        /* \"#utility.yul\":949:1002   */\n      tag_372\n        /* \"#utility.yul\":994:1001   */\n      dup5\n        /* \"#utility.yul\":985:991   */\n      dup3\n        /* \"#utility.yul\":974:983   */\n      dup6\n        /* \"#utility.yul\":970:992   */\n      add\n        /* \"#utility.yul\":949:1002   */\n      tag_289\n      jump\t// in\n    tag_372:\n        /* \"#utility.yul\":939:1002   */\n      swap2\n      pop\n        /* \"#utility.yul\":895:1012   */\n      pop\n        /* \"#utility.yul\":690:1019   */\n      swap3\n      swap2\n      pop\n      pop\n      jump\t// out\n        /* \"#utility.yul\":1025:1133   */\n    tag_290:\n        /* \"#utility.yul\":1102:1126   */\n      tag_374\n        /* \"#utility.yul\":1120:1125   */\n      dup2\n        /* \"#utility.yul\":1102:1126   */\n      tag_287\n      jump\t// in\n    tag_374:\n        /* \"#utility.yul\":1097:1100   */\n      dup3\n        /* \"#utility.yul\":1090:1127   */\n      mstore\n        /* \"#utility.yul\":1025:1133   */\n      pop\n      pop\n      jump\t// out\n        /* \"#utility.yul\":1139:1265   */\n    tag_291:\n        /* \"#utility.yul\":1176:1183   */\n      0x00\n        /* \"#utility.yul\":1216:1258   */\n      0xffffffffffffffffffffffffffffffffffffffff\n        /* \"#utility.yul\":1209:1214   */\n      dup3\n        /* \"#utility.yul\":1205:1259   */\n      and\n        /* \"#utility.yul\":1194:1259   */\n      swap1\n      pop\n        /* \"#utility.yul\":1139:1265   */\n      swap2\n      swap1\n      pop\n      jump\t// out\n        /* \"#utility.yul\":1271:1367   */\n    tag_292:\n        /* \"#utility.yul\":1308:1315   */\n      0x00\n        /* \"#utility.yul\":1337:1361   */\n      tag_377\n        /* \"#utility.yul\":1355:1360   */\n      dup3\n        /* \"#utility.yul\":1337:1361   */\n      tag_291\n      jump\t// in\n    tag_377:\n        /* \"#utility.yul\":1326:1361   */\n      swap1\n      pop\n        /* \"#utility.yul\":1271:1367   */\n      swap2\n      swap1\n      pop\n      jump\t// out\n        /* \"#utility.yul\":1373:1481   */\n    tag_293:\n        /* \"#utility.yul\":1450:1474   */\n      tag_379\n        /* \"#utility.yul\":1468:1473   */\n      dup2\n        /* \"#utility.yul\":1450:1474   */\n      tag_292\n      jump\t// in\n    tag_379:\n        /* \"#utility.yul\":1445:1448   */\n      dup3\n        /* \"#utility.yul\":1438:1475   */\n      mstore\n        /* \"#utility.yul\":1373:1481   */\n      pop\n      pop\n      jump\t// out\n        /* \"#utility.yul\":1487:1586   */\n    tag_294:\n        /* \"#utility.yul\":1539:1545   */\n      0x00\n        /* \"#utility.yul\":1573:1578   */\n      dup2\n        /* \"#utility.yul\":1567:1579   */\n      mload\n        /* \"#utility.yul\":1557:1579   */\n      swap1\n      pop\n        /* \"#utility.yul\":1487:1586   */\n      swap2\n      swap1\n      pop\n      jump\t// out\n        /* \"#utility.yul\":1592:1751   */\n    tag_295:\n        /* \"#utility.yul\":1666:1677   */\n      0x00\n        /* \"#utility.yul\":1700:1706   */\n      dup3\n        /* \"#utility.yul\":1695:1698   */\n      dup3\n        /* \"#utility.yul\":1688:1707   */\n      mstore\n        /* \"#utility.yul\":1740:1744   */\n      0x20\n        /* \"#utility.yul\":1735:1738   */\n      dup3\n        /* \"#utility.yul\":1731:1745   */\n      add\n        /* \"#utility.yul\":1716:1745   */\n      swap1\n      pop\n        /* \"#utility.yul\":1592:1751   */\n      swap3\n      swap2\n      pop\n      pop\n      jump\t// out\n        /* \"#utility.yul\":1757:2064   */\n    tag_296:\n        /* \"#utility.yul\":1825:1826   */\n      0x00\n        /* \"#utility.yul\":1835:1948   */\n    tag_383:\n        /* \"#utility.yul\":1849:1855   */\n      dup4\n        /* \"#utility.yul\":1846:1847   */\n      dup2\n        /* \"#utility.yul\":1843:1856   */\n      lt\n        /* \"#utility.yul\":1835:1948   */\n      iszero\n      tag_385\n      jumpi\n        /* \"#utility.yul\":1934:1935   */\n      dup1\n        /* \"#utility.yul\":1929:1932   */\n      dup3\n        /* \"#utility.yul\":1925:1936   */\n      add\n        /* \"#utility.yul\":1919:1937   */\n      mload\n        /* \"#utility.yul\":1915:1916   */\n      dup2\n        /* \"#utility.yul\":1910:1913   */\n      dup5\n        /* \"#utility.yul\":1906:1917   */\n      add\n        /* \"#utility.yul\":1899:1938   */\n      mstore\n        /* \"#utility.yul\":1871:1873   */\n      0x20\n        /* \"#utility.yul\":1868:1869   */\n      dup2\n        /* \"#utility.yul\":1864:1874   */\n      add\n        /* \"#utility.yul\":1859:1874   */\n      swap1\n      pop\n        /* \"#utility.yul\":1835:1948   */\n      jump(tag_383)\n    tag_385:\n        /* \"#utility.yul\":1966:1972   */\n      dup4\n        /* \"#utility.yul\":1963:1964   */\n      dup2\n        /* \"#utility.yul\":1960:1973   */\n      gt\n        /* \"#utility.yul\":1957:2058   */\n      iszero\n      tag_386\n      jumpi\n        /* \"#utility.yul\":2046:2047   */\n      0x00\n        /* \"#utility.yul\":2037:2043   */\n      dup5\n        /* \"#utility.yul\":2032:2035   */\n      dup5\n        /* \"#utility.yul\":2028:2044   */\n      add\n        /* \"#utility.yul\":2021:2048   */\n      mstore\n        /* \"#utility.yul\":1957:2058   */\n    tag_386:\n        /* \"#utility.yul\":1806:2064   */\n      pop\n        /* \"#utility.yul\":1757:2064   */\n      pop\n      pop\n      pop\n      jump\t// out\n        /* \"#utility.yul\":2070:2172   */\n    tag_297:\n        /* \"#utility.yul\":2111:2117   */\n      0x00\n        /* \"#utility.yul\":2162:2164   */\n      0x1f\n        /* \"#utility.yul\":2158:2165   */\n      not\n        /* \"#utility.yul\":2153:2155   */\n      0x1f\n        /* \"#utility.yul\":2146:2151   */\n      dup4\n        /* \"#utility.yul\":2142:2156   */\n      add\n        /* \"#utility.yul\":2138:2166   */\n      and\n        /* \"#utility.yul\":2128:2166   */\n      swap1\n      pop\n        /* \"#utility.yul\":2070:2172   */\n      swap2\n      swap1\n      pop\n      jump\t// out\n        /* \"#utility.yul\":2178:2522   */\n    tag_298:\n        /* \"#utility.yul\":2256:2259   */\n      0x00\n        /* \"#utility.yul\":2284:2323   */\n      tag_389\n        /* \"#utility.yul\":2317:2322   */\n      dup3\n        /* \"#utility.yul\":2284:2323   */\n      tag_294\n      jump\t// in\n    tag_389:\n        /* \"#utility.yul\":2339:2400   */\n      tag_390\n        /* \"#utility.yul\":2393:2399   */\n      dup2\n        /* \"#utility.yul\":2388:2391   */\n      dup6\n        /* \"#utility.yul\":2339:2400   */\n      tag_295\n      jump\t// in\n    tag_390:\n        /* \"#utility.yul\":2332:2400   */\n      swap4\n      pop\n        /* \"#utility.yul\":2409:2461   */\n      tag_391\n        /* \"#utility.yul\":2454:2460   */\n      dup2\n        /* \"#utility.yul\":2449:2452   */\n      dup6\n        /* \"#utility.yul\":2442:2446   */\n      0x20\n        /* \"#utility.yul\":2435:2440   */\n      dup7\n        /* \"#utility.yul\":2431:2447   */\n      add\n        /* \"#utility.yul\":2409:2461   */\n      tag_296\n      jump\t// in\n    tag_391:\n        /* \"#utility.yul\":2486:2515   */\n      tag_392\n        /* \"#utility.yul\":2508:2514   */\n      dup2\n        /* \"#utility.yul\":2486:2515   */\n      tag_297\n      jump\t// in\n    tag_392:\n        /* \"#utility.yul\":2481:2484   */\n      dup5\n        /* \"#utility.yul\":2477:2516   */\n      add\n        /* \"#utility.yul\":2470:2516   */\n      swap2\n      pop\n        /* \"#utility.yul\":2260:2522   */\n      pop\n        /* \"#utility.yul\":2178:2522   */\n      swap3\n      swap2\n      pop\n      pop\n      jump\t// out\n        /* \"#utility.yul\":2528:2642   */\n    tag_299:\n        /* \"#utility.yul\":2595:2601   */\n      0x00\n        /* \"#utility.yul\":2629:2634   */\n      dup2\n        /* \"#utility.yul\":2623:2635   */\n      mload\n        /* \"#utility.yul\":2613:2635   */\n      swap1\n      pop\n        /* \"#utility.yul\":2528:2642   */\n      swap2\n      swap1\n      pop\n      jump\t// out\n        /* \"#utility.yul\":2648:2822   */\n    tag_300:\n        /* \"#utility.yul\":2737:2748   */\n      0x00\n        /* \"#utility.yul\":2771:2777   */\n      dup3\n        /* \"#utility.yul\":2766:2769   */\n      dup3\n        /* \"#utility.yul\":2759:2778   */\n      mstore\n        /* \"#utility.yul\":2811:2815   */\n      0x20\n        /* \"#utility.yul\":2806:2809   */\n      dup3\n        /* \"#utility.yul\":2802:2816   */\n      add\n        /* \"#utility.yul\":2787:2816   */\n      swap1\n      pop\n        /* \"#utility.yul\":2648:2822   */\n      swap3\n      swap2\n      pop\n      pop\n      jump\t// out\n        /* \"#utility.yul\":2828:2960   */\n    tag_301:\n        /* \"#utility.yul\":2895:2899   */\n      0x00\n        /* \"#utility.yul\":2918:2921   */\n      dup2\n        /* \"#utility.yul\":2910:2921   */\n      swap1\n      pop\n        /* \"#utility.yul\":2948:2952   */\n      0x20\n        /* \"#utility.yul\":2943:2946   */\n      dup3\n        /* \"#utility.yul\":2939:2953   */\n      add\n        /* \"#utility.yul\":2931:2953   */\n      swap1\n      pop\n        /* \"#utility.yul\":2828:2960   */\n      swap2\n      swap1\n      pop\n      jump\t// out\n        /* \"#utility.yul\":2966:3145   */\n    tag_302:\n        /* \"#utility.yul\":3035:3045   */\n      0x00\n        /* \"#utility.yul\":3056:3102   */\n      tag_397\n        /* \"#utility.yul\":3098:3101   */\n      dup4\n        /* \"#utility.yul\":3090:3096   */\n      dup4\n        /* \"#utility.yul\":3056:3102   */\n      tag_290\n      jump\t// in\n    tag_397:\n        /* \"#utility.yul\":3134:3138   */\n      0x20\n        /* \"#utility.yul\":3129:3132   */\n      dup4\n        /* \"#utility.yul\":3125:3139   */\n      add\n        /* \"#utility.yul\":3111:3139   */\n      swap1\n      pop\n        /* \"#utility.yul\":2966:3145   */\n      swap3\n      swap2\n      pop\n      pop\n      jump\t// out\n        /* \"#utility.yul\":3151:3264   */\n    tag_303:\n        /* \"#utility.yul\":3221:3225   */\n      0x00\n        /* \"#utility.yul\":3253:3257   */\n      0x20\n        /* \"#utility.yul\":3248:3251   */\n      dup3\n        /* \"#utility.yul\":3244:3258   */\n      add\n        /* \"#utility.yul\":3236:3258   */\n      swap1\n      pop\n        /* \"#utility.yul\":3151:3264   */\n      swap2\n      swap1\n      pop\n      jump\t// out\n        /* \"#utility.yul\":3300:4012   */\n    tag_304:\n        /* \"#utility.yul\":3409:3412   */\n      0x00\n        /* \"#utility.yul\":3438:3492   */\n      tag_400\n        /* \"#utility.yul\":3486:3491   */\n      dup3\n        /* \"#utility.yul\":3438:3492   */\n      tag_299\n      jump\t// in\n    tag_400:\n        /* \"#utility.yul\":3508:3584   */\n      tag_401\n        /* \"#utility.yul\":3577:3583   */\n      dup2\n        /* \"#utility.yul\":3572:3575   */\n      dup6\n        /* \"#utility.yul\":3508:3584   */\n      tag_300\n      jump\t// in\n    tag_401:\n        /* \"#utility.yul\":3501:3584   */\n      swap4\n      pop\n        /* \"#utility.yul\":3608:3664   */\n      tag_402\n        /* \"#utility.yul\":3658:3663   */\n      dup4\n        /* \"#utility.yul\":3608:3664   */\n      tag_301\n      jump\t// in\n    tag_402:\n        /* \"#utility.yul\":3687:3694   */\n      dup1\n        /* \"#utility.yul\":3718:3719   */\n      0x00\n        /* \"#utility.yul\":3703:3987   */\n    tag_403:\n        /* \"#utility.yul\":3728:3734   */\n      dup4\n        /* \"#utility.yul\":3725:3726   */\n      dup2\n        /* \"#utility.yul\":3722:3735   */\n      lt\n        /* \"#utility.yul\":3703:3987   */\n      iszero\n      tag_405\n      jumpi\n        /* \"#utility.yul\":3804:3810   */\n      dup2\n        /* \"#utility.yul\":3798:3811   */\n      mload\n        /* \"#utility.yul\":3831:3894   */\n      tag_406\n        /* \"#utility.yul\":3890:3893   */\n      dup9\n        /* \"#utility.yul\":3875:3888   */\n      dup3\n        /* \"#utility.yul\":3831:3894   */\n      tag_302\n      jump\t// in\n    tag_406:\n        /* \"#utility.yul\":3824:3894   */\n      swap8\n      pop\n        /* \"#utility.yul\":3917:3977   */\n      tag_407\n        /* \"#utility.yul\":3970:3976   */\n      dup4\n        /* \"#utility.yul\":3917:3977   */\n      tag_303\n      jump\t// in\n    tag_407:\n        /* \"#utility.yul\":3907:3977   */\n      swap3\n      pop\n        /* \"#utility.yul\":3763:3987   */\n      pop\n        /* \"#utility.yul\":3750:3751   */\n      0x01\n        /* \"#utility.yul\":3747:3748   */\n      dup2\n        /* \"#utility.yul\":3743:3752   */\n      add\n        /* \"#utility.yul\":3738:3752   */\n      swap1\n      pop\n        /* \"#utility.yul\":3703:3987   */\n      jump(tag_403)\n    tag_405:\n        /* \"#utility.yul\":3707:3721   */\n      pop\n        /* \"#utility.yul\":4003:4006   */\n      dup6\n        /* \"#utility.yul\":3996:4006   */\n      swap4\n      pop\n        /* \"#utility.yul\":3414:4012   */\n      pop\n      pop\n      pop\n        /* \"#utility.yul\":3300:4012   */\n      swap3\n      swap2\n      pop\n      pop\n      jump\t// out\n        /* \"#utility.yul\":4074:5364   */\n    tag_305:\n        /* \"#utility.yul\":4189:4192   */\n      0x00\n        /* \"#utility.yul\":4225:4229   */\n      0xa0\n        /* \"#utility.yul\":4220:4223   */\n      dup4\n        /* \"#utility.yul\":4216:4230   */\n      add\n        /* \"#utility.yul\":4320:4324   */\n      0x00\n        /* \"#utility.yul\":4313:4318   */\n      dup4\n        /* \"#utility.yul\":4309:4325   */\n      add\n        /* \"#utility.yul\":4303:4326   */\n      mload\n        /* \"#utility.yul\":4339:4402   */\n      tag_409\n        /* \"#utility.yul\":4396:4400   */\n      0x00\n        /* \"#utility.yul\":4391:4394   */\n      dup7\n        /* \"#utility.yul\":4387:4401   */\n      add\n        /* \"#utility.yul\":4373:4385   */\n      dup3\n        /* \"#utility.yul\":4339:4402   */\n      tag_290\n      jump\t// in\n    tag_409:\n        /* \"#utility.yul\":4240:4412   */\n      pop\n        /* \"#utility.yul\":4503:4507   */\n      0x20\n        /* \"#utility.yul\":4496:4501   */\n      dup4\n        /* \"#utility.yul\":4492:4508   */\n      add\n        /* \"#utility.yul\":4486:4509   */\n      mload\n        /* \"#utility.yul\":4522:4585   */\n      tag_410\n        /* \"#utility.yul\":4579:4583   */\n      0x20\n        /* \"#utility.yul\":4574:4577   */\n      dup7\n        /* \"#utility.yul\":4570:4584   */\n      add\n        /* \"#utility.yul\":4556:4568   */\n      dup3\n        /* \"#utility.yul\":4522:4585   */\n      tag_293\n      jump\t// in\n    tag_410:\n        /* \"#utility.yul\":4422:4595   */\n      pop\n        /* \"#utility.yul\":4687:4691   */\n      0x40\n        /* \"#utility.yul\":4680:4685   */\n      dup4\n        /* \"#utility.yul\":4676:4692   */\n      add\n        /* \"#utility.yul\":4670:4693   */\n      mload\n        /* \"#utility.yul\":4706:4769   */\n      tag_411\n        /* \"#utility.yul\":4763:4767   */\n      0x40\n        /* \"#utility.yul\":4758:4761   */\n      dup7\n        /* \"#utility.yul\":4754:4768   */\n      add\n        /* \"#utility.yul\":4740:4752   */\n      dup3\n        /* \"#utility.yul\":4706:4769   */\n      tag_293\n      jump\t// in\n    tag_411:\n        /* \"#utility.yul\":4605:4779   */\n      pop\n        /* \"#utility.yul\":4882:4886   */\n      0x60\n        /* \"#utility.yul\":4875:4880   */\n      dup4\n        /* \"#utility.yul\":4871:4887   */\n      add\n        /* \"#utility.yul\":4865:4888   */\n      mload\n        /* \"#utility.yul\":4935:4938   */\n      dup5\n        /* \"#utility.yul\":4929:4933   */\n      dup3\n        /* \"#utility.yul\":4925:4939   */\n      sub\n        /* \"#utility.yul\":4918:4922   */\n      0x60\n        /* \"#utility.yul\":4913:4916   */\n      dup7\n        /* \"#utility.yul\":4909:4923   */\n      add\n        /* \"#utility.yul\":4902:4940   */\n      mstore\n        /* \"#utility.yul\":4961:5034   */\n      tag_412\n        /* \"#utility.yul\":5029:5033   */\n      dup3\n        /* \"#utility.yul\":5015:5027   */\n      dup3\n        /* \"#utility.yul\":4961:5034   */\n      tag_298\n      jump\t// in\n    tag_412:\n        /* \"#utility.yul\":4953:5034   */\n      swap2\n      pop\n        /* \"#utility.yul\":4789:5045   */\n      pop\n        /* \"#utility.yul\":5144:5148   */\n      0x80\n        /* \"#utility.yul\":5137:5142   */\n      dup4\n        /* \"#utility.yul\":5133:5149   */\n      add\n        /* \"#utility.yul\":5127:5150   */\n      mload\n        /* \"#utility.yul\":5197:5200   */\n      dup5\n        /* \"#utility.yul\":5191:5195   */\n      dup3\n        /* \"#utility.yul\":5187:5201   */\n      sub\n        /* \"#utility.yul\":5180:5184   */\n      0x80\n        /* \"#utility.yul\":5175:5178   */\n      dup7\n        /* \"#utility.yul\":5171:5185   */\n      add\n        /* \"#utility.yul\":5164:5202   */\n      mstore\n        /* \"#utility.yul\":5223:5326   */\n      tag_413\n        /* \"#utility.yul\":5321:5325   */\n      dup3\n        /* \"#utility.yul\":5307:5319   */\n      dup3\n        /* \"#utility.yul\":5223:5326   */\n      tag_304\n      jump\t// in\n    tag_413:\n        /* \"#utility.yul\":5215:5326   */\n      swap2\n      pop\n        /* \"#utility.yul\":5055:5337   */\n      pop\n        /* \"#utility.yul\":5354:5358   */\n      dup1\n        /* \"#utility.yul\":5347:5358   */\n      swap2\n      pop\n        /* \"#utility.yul\":4194:5364   */\n      pop\n        /* \"#utility.yul\":4074:5364   */\n      swap3\n      swap2\n      pop\n      pop\n      jump\t// out\n        /* \"#utility.yul\":5370:5735   */\n    tag_29:\n        /* \"#utility.yul\":5509:5513   */\n      0x00\n        /* \"#utility.yul\":5547:5549   */\n      0x20\n        /* \"#utility.yul\":5536:5545   */\n      dup3\n        /* \"#utility.yul\":5532:5550   */\n      add\n        /* \"#utility.yul\":5524:5550   */\n      swap1\n      pop\n        /* \"#utility.yul\":5596:5605   */\n      dup2\n        /* \"#utility.yul\":5590:5594   */\n      dup2\n        /* \"#utility.yul\":5586:5606   */\n      sub\n        /* \"#utility.yul\":5582:5583   */\n      0x00\n        /* \"#utility.yul\":5571:5580   */\n      dup4\n        /* \"#utility.yul\":5567:5584   */\n      add\n        /* \"#utility.yul\":5560:5607   */\n      mstore\n        /* \"#utility.yul\":5624:5728   */\n      tag_415\n        /* \"#utility.yul\":5723:5727   */\n      dup2\n        /* \"#utility.yul\":5714:5720   */\n      dup5\n        /* \"#utility.yul\":5624:5728   */\n      tag_305\n      jump\t// in\n    tag_415:\n        /* \"#utility.yul\":5616:5728   */\n      swap1\n      pop\n        /* \"#utility.yul\":5370:5735   */\n      swap3\n      swap2\n      pop\n      pop\n      jump\t// out\n        /* \"#utility.yul\":5741:5859   */\n    tag_306:\n        /* \"#utility.yul\":5828:5852   */\n      tag_417\n        /* \"#utility.yul\":5846:5851   */\n      dup2\n        /* \"#utility.yul\":5828:5852   */\n      tag_292\n      jump\t// in\n    tag_417:\n        /* \"#utility.yul\":5823:5826   */\n      dup3\n        /* \"#utility.yul\":5816:5853   */\n      mstore\n        /* \"#utility.yul\":5741:5859   */\n      pop\n      pop\n      jump\t// out\n        /* \"#utility.yul\":5865:6087   */\n    tag_34:\n        /* \"#utility.yul\":5958:5962   */\n      0x00\n        /* \"#utility.yul\":5996:5998   */\n      0x20\n        /* \"#utility.yul\":5985:5994   */\n      dup3\n        /* \"#utility.yul\":5981:5999   */\n      add\n        /* \"#utility.yul\":5973:5999   */\n      swap1\n      pop\n        /* \"#utility.yul\":6009:6080   */\n      tag_419\n        /* \"#utility.yul\":6077:6078   */\n      0x00\n        /* \"#utility.yul\":6066:6075   */\n      dup4\n        /* \"#utility.yul\":6062:6079   */\n      add\n        /* \"#utility.yul\":6053:6059   */\n      dup5\n        /* \"#utility.yul\":6009:6080   */\n      tag_306\n      jump\t// in\n    tag_419:\n        /* \"#utility.yul\":5865:6087   */\n      swap3\n      swap2\n      pop\n      pop\n      jump\t// out\n        /* \"#utility.yul\":6093:6211   */\n    tag_307:\n        /* \"#utility.yul\":6180:6204   */\n      tag_421\n        /* \"#utility.yul\":6198:6203   */\n      dup2\n        /* \"#utility.yul\":6180:6204   */\n      tag_287\n      jump\t// in\n    tag_421:\n        /* \"#utility.yul\":6175:6178   */\n      dup3\n        /* \"#utility.yul\":6168:6205   */\n      mstore\n        /* \"#utility.yul\":6093:6211   */\n      pop\n      pop\n      jump\t// out\n        /* \"#utility.yul\":6217:6386   */\n    tag_308:\n        /* \"#utility.yul\":6301:6312   */\n      0x00\n        /* \"#utility.yul\":6335:6341   */\n      dup3\n        /* \"#utility.yul\":6330:6333   */\n      dup3\n        /* \"#utility.yul\":6323:6342   */\n      mstore\n        /* \"#utility.yul\":6375:6379   */\n      0x20\n        /* \"#utility.yul\":6370:6373   */\n      dup3\n        /* \"#utility.yul\":6366:6380   */\n      add\n        /* \"#utility.yul\":6351:6380   */\n      swap1\n      pop\n        /* \"#utility.yul\":6217:6386   */\n      swap3\n      swap2\n      pop\n      pop\n      jump\t// out\n        /* \"#utility.yul\":6392:6756   */\n    tag_309:\n        /* \"#utility.yul\":6480:6483   */\n      0x00\n        /* \"#utility.yul\":6508:6547   */\n      tag_424\n        /* \"#utility.yul\":6541:6546   */\n      dup3\n        /* \"#utility.yul\":6508:6547   */\n      tag_294\n      jump\t// in\n    tag_424:\n        /* \"#utility.yul\":6563:6634   */\n      tag_425\n        /* \"#utility.yul\":6627:6633   */\n      dup2\n        /* \"#utility.yul\":6622:6625   */\n      dup6\n        /* \"#utility.yul\":6563:6634   */\n      tag_308\n      jump\t// in\n    tag_425:\n        /* \"#utility.yul\":6556:6634   */\n      swap4\n      pop\n        /* \"#utility.yul\":6643:6695   */\n      tag_426\n        /* \"#utility.yul\":6688:6694   */\n      dup2\n        /* \"#utility.yul\":6683:6686   */\n      dup6\n        /* \"#utility.yul\":6676:6680   */\n      0x20\n        /* \"#utility.yul\":6669:6674   */\n      dup7\n        /* \"#utility.yul\":6665:6681   */\n      add\n        /* \"#utility.yul\":6643:6695   */\n      tag_296\n      jump\t// in\n    tag_426:\n        /* \"#utility.yul\":6720:6749   */\n      tag_427\n        /* \"#utility.yul\":6742:6748   */\n      dup2\n        /* \"#utility.yul\":6720:6749   */\n      tag_297\n      jump\t// in\n    tag_427:\n        /* \"#utility.yul\":6715:6718   */\n      dup5\n        /* \"#utility.yul\":6711:6750   */\n      add\n        /* \"#utility.yul\":6704:6750   */\n      swap2\n      pop\n        /* \"#utility.yul\":6484:6756   */\n      pop\n        /* \"#utility.yul\":6392:6756   */\n      swap3\n      swap2\n      pop\n      pop\n      jump\t// out\n        /* \"#utility.yul\":6762:7406   */\n    tag_39:\n        /* \"#utility.yul\":6959:6963   */\n      0x00\n        /* \"#utility.yul\":6997:7000   */\n      0x80\n        /* \"#utility.yul\":6986:6995   */\n      dup3\n        /* \"#utility.yul\":6982:7001   */\n      add\n        /* \"#utility.yul\":6974:7001   */\n      swap1\n      pop\n        /* \"#utility.yul\":7011:7082   */\n      tag_429\n        /* \"#utility.yul\":7079:7080   */\n      0x00\n        /* \"#utility.yul\":7068:7077   */\n      dup4\n        /* \"#utility.yul\":7064:7081   */\n      add\n        /* \"#utility.yul\":7055:7061   */\n      dup8\n        /* \"#utility.yul\":7011:7082   */\n      tag_307\n      jump\t// in\n    tag_429:\n        /* \"#utility.yul\":7092:7164   */\n      tag_430\n        /* \"#utility.yul\":7160:7162   */\n      0x20\n        /* \"#utility.yul\":7149:7158   */\n      dup4\n        /* \"#utility.yul\":7145:7163   */\n      add\n        /* \"#utility.yul\":7136:7142   */\n      dup7\n        /* \"#utility.yul\":7092:7164   */\n      tag_306\n      jump\t// in\n    tag_430:\n        /* \"#utility.yul\":7174:7246   */\n      tag_431\n        /* \"#utility.yul\":7242:7244   */\n      0x40\n        /* \"#utility.yul\":7231:7240   */\n      dup4\n        /* \"#utility.yul\":7227:7245   */\n      add\n        /* \"#utility.yul\":7218:7224   */\n      dup6\n        /* \"#utility.yul\":7174:7246   */\n      tag_306\n      jump\t// in\n    tag_431:\n        /* \"#utility.yul\":7293:7302   */\n      dup2\n        /* \"#utility.yul\":7287:7291   */\n      dup2\n        /* \"#utility.yul\":7283:7303   */\n      sub\n        /* \"#utility.yul\":7278:7280   */\n      0x60\n        /* \"#utility.yul\":7267:7276   */\n      dup4\n        /* \"#utility.yul\":7263:7281   */\n      add\n        /* \"#utility.yul\":7256:7304   */\n      mstore\n        /* \"#utility.yul\":7321:7399   */\n      tag_432\n        /* \"#utility.yul\":7394:7398   */\n      dup2\n        /* \"#utility.yul\":7385:7391   */\n      dup5\n        /* \"#utility.yul\":7321:7399   */\n      tag_309\n      jump\t// in\n    tag_432:\n        /* \"#utility.yul\":7313:7399   */\n      swap1\n      pop\n        /* \"#utility.yul\":6762:7406   */\n      swap6\n      swap5\n      pop\n      pop\n      pop\n      pop\n      pop\n      jump\t// out\n        /* \"#utility.yul\":7412:7534   */\n    tag_310:\n        /* \"#utility.yul\":7485:7509   */\n      tag_434\n        /* \"#utility.yul\":7503:7508   */\n      dup2\n        /* \"#utility.yul\":7485:7509   */\n      tag_292\n      jump\t// in\n    tag_434:\n        /* \"#utility.yul\":7478:7483   */\n      dup2\n        /* \"#utility.yul\":7475:7510   */\n      eq\n        /* \"#utility.yul\":7465:7528   */\n      tag_435\n      jumpi\n        /* \"#utility.yul\":7524:7525   */\n      0x00\n        /* \"#utility.yul\":7521:7522   */\n      dup1\n        /* \"#utility.yul\":7514:7526   */\n      revert\n        /* \"#utility.yul\":7465:7528   */\n    tag_435:\n        /* \"#utility.yul\":7412:7534   */\n      pop\n      jump\t// out\n        /* \"#utility.yul\":7540:7679   */\n    tag_311:\n        /* \"#utility.yul\":7586:7591   */\n      0x00\n        /* \"#utility.yul\":7624:7630   */\n      dup2\n        /* \"#utility.yul\":7611:7631   */\n      calldataload\n        /* \"#utility.yul\":7602:7631   */\n      swap1\n      pop\n        /* \"#utility.yul\":7640:7673   */\n      tag_437\n        /* \"#utility.yul\":7667:7672   */\n      dup2\n        /* \"#utility.yul\":7640:7673   */\n      tag_310\n      jump\t// in\n    tag_437:\n        /* \"#utility.yul\":7540:7679   */\n      swap3\n      swap2\n      pop\n      pop\n      jump\t// out\n        /* \"#utility.yul\":7685:7802   */\n    tag_312:\n        /* \"#utility.yul\":7794:7795   */\n      0x00\n        /* \"#utility.yul\":7791:7792   */\n      dup1\n        /* \"#utility.yul\":7784:7796   */\n      revert\n        /* \"#utility.yul\":7808:7925   */\n    tag_313:\n        /* \"#utility.yul\":7917:7918   */\n      0x00\n        /* \"#utility.yul\":7914:7915   */\n      dup1\n        /* \"#utility.yul\":7907:7919   */\n      revert\n        /* \"#utility.yul\":7931:8111   */\n    tag_314:\n        /* \"#utility.yul\":7979:8056   */\n      0x4e487b7100000000000000000000000000000000000000000000000000000000\n        /* \"#utility.yul\":7976:7977   */\n      0x00\n        /* \"#utility.yul\":7969:8057   */\n      mstore\n        /* \"#utility.yul\":8076:8080   */\n      0x41\n        /* \"#utility.yul\":8073:8074   */\n      0x04\n        /* \"#utility.yul\":8066:8081   */\n      mstore\n        /* \"#utility.yul\":8100:8104   */\n      0x24\n        /* \"#utility.yul\":8097:8098   */\n      0x00\n        /* \"#utility.yul\":8090:8105   */\n      revert\n        /* \"#utility.yul\":8117:8398   */\n    tag_315:\n        /* \"#utility.yul\":8200:8227   */\n      tag_442\n        /* \"#utility.yul\":8222:8226   */\n      dup3\n        /* \"#utility.yul\":8200:8227   */\n      tag_297\n      jump\t// in\n    tag_442:\n        /* \"#utility.yul\":8192:8198   */\n      dup2\n        /* \"#utility.yul\":8188:8228   */\n      add\n        /* \"#utility.yul\":8330:8336   */\n      dup2\n        /* \"#utility.yul\":8318:8328   */\n      dup2\n        /* \"#utility.yul\":8315:8337   */\n      lt\n        /* \"#utility.yul\":8294:8312   */\n      0xffffffffffffffff\n        /* \"#utility.yul\":8282:8292   */\n      dup3\n        /* \"#utility.yul\":8279:8313   */\n      gt\n        /* \"#utility.yul\":8276:8338   */\n      or\n        /* \"#utility.yul\":8273:8361   */\n      iszero\n      tag_443\n      jumpi\n        /* \"#utility.yul\":8341:8359   */\n      tag_444\n      tag_314\n      jump\t// in\n    tag_444:\n        /* \"#utility.yul\":8273:8361   */\n    tag_443:\n        /* \"#utility.yul\":8381:8391   */\n      dup1\n        /* \"#utility.yul\":8377:8379   */\n      0x40\n        /* \"#utility.yul\":8370:8392   */\n      mstore\n        /* \"#utility.yul\":8160:8398   */\n      pop\n        /* \"#utility.yul\":8117:8398   */\n      pop\n      pop\n      jump\t// out\n        /* \"#utility.yul\":8404:8533   */\n    tag_316:\n        /* \"#utility.yul\":8438:8444   */\n      0x00\n        /* \"#utility.yul\":8465:8485   */\n      tag_446\n      tag_284\n      jump\t// in\n    tag_446:\n        /* \"#utility.yul\":8455:8485   */\n      swap1\n      pop\n        /* \"#utility.yul\":8494:8527   */\n      tag_447\n        /* \"#utility.yul\":8522:8526   */\n      dup3\n        /* \"#utility.yul\":8514:8520   */\n      dup3\n        /* \"#utility.yul\":8494:8527   */\n      tag_315\n      jump\t// in\n    tag_447:\n        /* \"#utility.yul\":8404:8533   */\n      swap2\n      swap1\n      pop\n      jump\t// out\n        /* \"#utility.yul\":8539:8847   */\n    tag_317:\n        /* \"#utility.yul\":8601:8605   */\n      0x00\n        /* \"#utility.yul\":8691:8709   */\n      0xffffffffffffffff\n        /* \"#utility.yul\":8683:8689   */\n      dup3\n        /* \"#utility.yul\":8680:8710   */\n      gt\n        /* \"#utility.yul\":8677:8733   */\n      iszero\n      tag_449\n      jumpi\n        /* \"#utility.yul\":8713:8731   */\n      tag_450\n      tag_314\n      jump\t// in\n    tag_450:\n        /* \"#utility.yul\":8677:8733   */\n    tag_449:\n        /* \"#utility.yul\":8751:8780   */\n      tag_451\n        /* \"#utility.yul\":8773:8779   */\n      dup3\n        /* \"#utility.yul\":8751:8780   */\n      tag_297\n      jump\t// in\n    tag_451:\n        /* \"#utility.yul\":8743:8780   */\n      swap1\n      pop\n        /* \"#utility.yul\":8835:8839   */\n      0x20\n        /* \"#utility.yul\":8829:8833   */\n      dup2\n        /* \"#utility.yul\":8825:8840   */\n      add\n        /* \"#utility.yul\":8817:8840   */\n      swap1\n      pop\n        /* \"#utility.yul\":8539:8847   */\n      swap2\n      swap1\n      pop\n      jump\t// out\n        /* \"#utility.yul\":8853:9007   */\n    tag_318:\n        /* \"#utility.yul\":8937:8943   */\n      dup3\n        /* \"#utility.yul\":8932:8935   */\n      dup2\n        /* \"#utility.yul\":8927:8930   */\n      dup4\n        /* \"#utility.yul\":8914:8944   */\n      calldatacopy\n        /* \"#utility.yul\":8999:9000   */\n      0x00\n        /* \"#utility.yul\":8990:8996   */\n      dup4\n        /* \"#utility.yul\":8985:8988   */\n      dup4\n        /* \"#utility.yul\":8981:8997   */\n      add\n        /* \"#utility.yul\":8974:9001   */\n      mstore\n        /* \"#utility.yul\":8853:9007   */\n      pop\n      pop\n      pop\n      jump\t// out\n        /* \"#utility.yul\":9013:9425   */\n    tag_319:\n        /* \"#utility.yul\":9091:9096   */\n      0x00\n        /* \"#utility.yul\":9116:9182   */\n      tag_454\n        /* \"#utility.yul\":9132:9181   */\n      tag_455\n        /* \"#utility.yul\":9174:9180   */\n      dup5\n        /* \"#utility.yul\":9132:9181   */\n      tag_317\n      jump\t// in\n    tag_455:\n        /* \"#utility.yul\":9116:9182   */\n      tag_316\n      jump\t// in\n    tag_454:\n        /* \"#utility.yul\":9107:9182   */\n      swap1\n      pop\n        /* \"#utility.yul\":9205:9211   */\n      dup3\n        /* \"#utility.yul\":9198:9203   */\n      dup2\n        /* \"#utility.yul\":9191:9212   */\n      mstore\n        /* \"#utility.yul\":9243:9247   */\n      0x20\n        /* \"#utility.yul\":9236:9241   */\n      dup2\n        /* \"#utility.yul\":9232:9248   */\n      add\n        /* \"#utility.yul\":9281:9284   */\n      dup5\n        /* \"#utility.yul\":9272:9278   */\n      dup5\n        /* \"#utility.yul\":9267:9270   */\n      dup5\n        /* \"#utility.yul\":9263:9279   */\n      add\n        /* \"#utility.yul\":9260:9285   */\n      gt\n        /* \"#utility.yul\":9257:9369   */\n      iszero\n      tag_456\n      jumpi\n        /* \"#utility.yul\":9288:9367   */\n      tag_457\n      tag_313\n      jump\t// in\n    tag_457:\n        /* \"#utility.yul\":9257:9369   */\n    tag_456:\n        /* \"#utility.yul\":9378:9419   */\n      tag_458\n        /* \"#utility.yul\":9412:9418   */\n      dup5\n        /* \"#utility.yul\":9407:9410   */\n      dup3\n        /* \"#utility.yul\":9402:9405   */\n      dup6\n        /* \"#utility.yul\":9378:9419   */\n      tag_318\n      jump\t// in\n    tag_458:\n        /* \"#utility.yul\":9097:9425   */\n      pop\n        /* \"#utility.yul\":9013:9425   */\n      swap4\n      swap3\n      pop\n      pop\n      pop\n      jump\t// out\n        /* \"#utility.yul\":9445:9785   */\n    tag_320:\n        /* \"#utility.yul\":9501:9506   */\n      0x00\n        /* \"#utility.yul\":9550:9553   */\n      dup3\n        /* \"#utility.yul\":9543:9547   */\n      0x1f\n        /* \"#utility.yul\":9535:9541   */\n      dup4\n        /* \"#utility.yul\":9531:9548   */\n      add\n        /* \"#utility.yul\":9527:9554   */\n      slt\n        /* \"#utility.yul\":9517:9639   */\n      tag_460\n      jumpi\n        /* \"#utility.yul\":9558:9637   */\n      tag_461\n      tag_312\n      jump\t// in\n    tag_461:\n        /* \"#utility.yul\":9517:9639   */\n    tag_460:\n        /* \"#utility.yul\":9675:9681   */\n      dup2\n        /* \"#utility.yul\":9662:9682   */\n      calldataload\n        /* \"#utility.yul\":9700:9779   */\n      tag_462\n        /* \"#utility.yul\":9775:9778   */\n      dup5\n        /* \"#utility.yul\":9767:9773   */\n      dup3\n        /* \"#utility.yul\":9760:9764   */\n      0x20\n        /* \"#utility.yul\":9752:9758   */\n      dup7\n        /* \"#utility.yul\":9748:9765   */\n      add\n        /* \"#utility.yul\":9700:9779   */\n      tag_319\n      jump\t// in\n    tag_462:\n        /* \"#utility.yul\":9691:9779   */\n      swap2\n      pop\n        /* \"#utility.yul\":9507:9785   */\n      pop\n        /* \"#utility.yul\":9445:9785   */\n      swap3\n      swap2\n      pop\n      pop\n      jump\t// out\n        /* \"#utility.yul\":9791:10445   */\n    tag_42:\n        /* \"#utility.yul\":9869:9875   */\n      0x00\n        /* \"#utility.yul\":9877:9883   */\n      dup1\n        /* \"#utility.yul\":9926:9928   */\n      0x40\n        /* \"#utility.yul\":9914:9923   */\n      dup4\n        /* \"#utility.yul\":9905:9912   */\n      dup6\n        /* \"#utility.yul\":9901:9924   */\n      sub\n        /* \"#utility.yul\":9897:9929   */\n      slt\n        /* \"#utility.yul\":9894:10013   */\n      iszero\n      tag_464\n      jumpi\n        /* \"#utility.yul\":9932:10011   */\n      tag_465\n      tag_285\n      jump\t// in\n    tag_465:\n        /* \"#utility.yul\":9894:10013   */\n    tag_464:\n        /* \"#utility.yul\":10052:10053   */\n      0x00\n        /* \"#utility.yul\":10077:10130   */\n      tag_466\n        /* \"#utility.yul\":10122:10129   */\n      dup6\n        /* \"#utility.yul\":10113:10119   */\n      dup3\n        /* \"#utility.yul\":10102:10111   */\n      dup7\n        /* \"#utility.yul\":10098:10120   */\n      add\n        /* \"#utility.yul\":10077:10130   */\n      tag_311\n      jump\t// in\n    tag_466:\n        /* \"#utility.yul\":10067:10130   */\n      swap3\n      pop\n        /* \"#utility.yul\":10023:10140   */\n      pop\n        /* \"#utility.yul\":10207:10209   */\n      0x20\n        /* \"#utility.yul\":10196:10205   */\n      dup4\n        /* \"#utility.yul\":10192:10210   */\n      add\n        /* \"#utility.yul\":10179:10211   */\n      calldataload\n        /* \"#utility.yul\":10238:10256   */\n      0xffffffffffffffff\n        /* \"#utility.yul\":10230:10236   */\n      dup2\n        /* \"#utility.yul\":10227:10257   */\n      gt\n        /* \"#utility.yul\":10224:10341   */\n      iszero\n      tag_467\n      jumpi\n        /* \"#utility.yul\":10260:10339   */\n      tag_468\n      tag_286\n      jump\t// in\n    tag_468:\n        /* \"#utility.yul\":10224:10341   */\n    tag_467:\n        /* \"#utility.yul\":10365:10428   */\n      tag_469\n        /* \"#utility.yul\":10420:10427   */\n      dup6\n        /* \"#utility.yul\":10411:10417   */\n      dup3\n        /* \"#utility.yul\":10400:10409   */\n      dup7\n        /* \"#utility.yul\":10396:10418   */\n      add\n        /* \"#utility.yul\":10365:10428   */\n      tag_320\n      jump\t// in\n    tag_469:\n        /* \"#utility.yul\":10355:10428   */\n      swap2\n      pop\n        /* \"#utility.yul\":10150:10438   */\n      pop\n        /* \"#utility.yul\":9791:10445   */\n      swap3\n      pop\n      swap3\n      swap1\n      pop\n      jump\t// out\n        /* \"#utility.yul\":10451:10780   */\n    tag_46:\n        /* \"#utility.yul\":10510:10516   */\n      0x00\n        /* \"#utility.yul\":10559:10561   */\n      0x20\n        /* \"#utility.yul\":10547:10556   */\n      dup3\n        /* \"#utility.yul\":10538:10545   */\n      dup5\n        /* \"#utility.yul\":10534:10557   */\n      sub\n        /* \"#utility.yul\":10530:10562   */\n      slt\n        /* \"#utility.yul\":10527:10646   */\n      iszero\n      tag_471\n      jumpi\n        /* \"#utility.yul\":10565:10644   */\n      tag_472\n      tag_285\n      jump\t// in\n    tag_472:\n        /* \"#utility.yul\":10527:10646   */\n    tag_471:\n        /* \"#utility.yul\":10685:10686   */\n      0x00\n        /* \"#utility.yul\":10710:10763   */\n      tag_473\n        /* \"#utility.yul\":10755:10762   */\n      dup5\n        /* \"#utility.yul\":10746:10752   */\n      dup3\n        /* \"#utility.yul\":10735:10744   */\n      dup6\n        /* \"#utility.yul\":10731:10753   */\n      add\n        /* \"#utility.yul\":10710:10763   */\n      tag_311\n      jump\t// in\n    tag_473:\n        /* \"#utility.yul\":10700:10763   */\n      swap2\n      pop\n        /* \"#utility.yul\":10656:10773   */\n      pop\n        /* \"#utility.yul\":10451:10780   */\n      swap3\n      swap2\n      pop\n      pop\n      jump\t// out\n        /* \"#utility.yul\":10786:10970   */\n    tag_321:\n        /* \"#utility.yul\":10885:10896   */\n      0x00\n        /* \"#utility.yul\":10919:10925   */\n      dup3\n        /* \"#utility.yul\":10914:10917   */\n      dup3\n        /* \"#utility.yul\":10907:10926   */\n      mstore\n        /* \"#utility.yul\":10959:10963   */\n      0x20\n        /* \"#utility.yul\":10954:10957   */\n      dup3\n        /* \"#utility.yul\":10950:10964   */\n      add\n        /* \"#utility.yul\":10935:10964   */\n      swap1\n      pop\n        /* \"#utility.yul\":10786:10970   */\n      swap3\n      swap2\n      pop\n      pop\n      jump\t// out\n        /* \"#utility.yul\":11006:11738   */\n    tag_322:\n        /* \"#utility.yul\":11125:11128   */\n      0x00\n        /* \"#utility.yul\":11154:11208   */\n      tag_476\n        /* \"#utility.yul\":11202:11207   */\n      dup3\n        /* \"#utility.yul\":11154:11208   */\n      tag_299\n      jump\t// in\n    tag_476:\n        /* \"#utility.yul\":11224:11310   */\n      tag_477\n        /* \"#utility.yul\":11303:11309   */\n      dup2\n        /* \"#utility.yul\":11298:11301   */\n      dup6\n        /* \"#utility.yul\":11224:11310   */\n      tag_321\n      jump\t// in\n    tag_477:\n        /* \"#utility.yul\":11217:11310   */\n      swap4\n      pop\n        /* \"#utility.yul\":11334:11390   */\n      tag_478\n        /* \"#utility.yul\":11384:11389   */\n      dup4\n        /* \"#utility.yul\":11334:11390   */\n      tag_301\n      jump\t// in\n    tag_478:\n        /* \"#utility.yul\":11413:11420   */\n      dup1\n        /* \"#utility.yul\":11444:11445   */\n      0x00\n        /* \"#utility.yul\":11429:11713   */\n    tag_479:\n        /* \"#utility.yul\":11454:11460   */\n      dup4\n        /* \"#utility.yul\":11451:11452   */\n      dup2\n        /* \"#utility.yul\":11448:11461   */\n      lt\n        /* \"#utility.yul\":11429:11713   */\n      iszero\n      tag_481\n      jumpi\n        /* \"#utility.yul\":11530:11536   */\n      dup2\n        /* \"#utility.yul\":11524:11537   */\n      mload\n        /* \"#utility.yul\":11557:11620   */\n      tag_482\n        /* \"#utility.yul\":11616:11619   */\n      dup9\n        /* \"#utility.yul\":11601:11614   */\n      dup3\n        /* \"#utility.yul\":11557:11620   */\n      tag_302\n      jump\t// in\n    tag_482:\n        /* \"#utility.yul\":11550:11620   */\n      swap8\n      pop\n        /* \"#utility.yul\":11643:11703   */\n      tag_483\n        /* \"#utility.yul\":11696:11702   */\n      dup4\n        /* \"#utility.yul\":11643:11703   */\n      tag_303\n      jump\t// in\n    tag_483:\n        /* \"#utility.yul\":11633:11703   */\n      swap3\n      pop\n        /* \"#utility.yul\":11489:11713   */\n      pop\n        /* \"#utility.yul\":11476:11477   */\n      0x01\n        /* \"#utility.yul\":11473:11474   */\n      dup2\n        /* \"#utility.yul\":11469:11478   */\n      add\n        /* \"#utility.yul\":11464:11478   */\n      swap1\n      pop\n        /* \"#utility.yul\":11429:11713   */\n      jump(tag_479)\n    tag_481:\n        /* \"#utility.yul\":11433:11447   */\n      pop\n        /* \"#utility.yul\":11729:11732   */\n      dup6\n        /* \"#utility.yul\":11722:11732   */\n      swap4\n      pop\n        /* \"#utility.yul\":11130:11738   */\n      pop\n      pop\n      pop\n        /* \"#utility.yul\":11006:11738   */\n      swap3\n      swap2\n      pop\n      pop\n      jump\t// out\n        /* \"#utility.yul\":11744:12630   */\n    tag_49:\n        /* \"#utility.yul\":12011:12015   */\n      0x00\n        /* \"#utility.yul\":12049:12052   */\n      0x80\n        /* \"#utility.yul\":12038:12047   */\n      dup3\n        /* \"#utility.yul\":12034:12053   */\n      add\n        /* \"#utility.yul\":12026:12053   */\n      swap1\n      pop\n        /* \"#utility.yul\":12099:12108   */\n      dup2\n        /* \"#utility.yul\":12093:12097   */\n      dup2\n        /* \"#utility.yul\":12089:12109   */\n      sub\n        /* \"#utility.yul\":12085:12086   */\n      0x00\n        /* \"#utility.yul\":12074:12083   */\n      dup4\n        /* \"#utility.yul\":12070:12087   */\n      add\n        /* \"#utility.yul\":12063:12110   */\n      mstore\n        /* \"#utility.yul\":12127:12205   */\n      tag_485\n        /* \"#utility.yul\":12200:12204   */\n      dup2\n        /* \"#utility.yul\":12191:12197   */\n      dup8\n        /* \"#utility.yul\":12127:12205   */\n      tag_309\n      jump\t// in\n    tag_485:\n        /* \"#utility.yul\":12119:12205   */\n      swap1\n      pop\n        /* \"#utility.yul\":12252:12261   */\n      dup2\n        /* \"#utility.yul\":12246:12250   */\n      dup2\n        /* \"#utility.yul\":12242:12262   */\n      sub\n        /* \"#utility.yul\":12237:12239   */\n      0x20\n        /* \"#utility.yul\":12226:12235   */\n      dup4\n        /* \"#utility.yul\":12222:12240   */\n      add\n        /* \"#utility.yul\":12215:12263   */\n      mstore\n        /* \"#utility.yul\":12280:12358   */\n      tag_486\n        /* \"#utility.yul\":12353:12357   */\n      dup2\n        /* \"#utility.yul\":12344:12350   */\n      dup7\n        /* \"#utility.yul\":12280:12358   */\n      tag_309\n      jump\t// in\n    tag_486:\n        /* \"#utility.yul\":12272:12358   */\n      swap1\n      pop\n        /* \"#utility.yul\":12368:12440   */\n      tag_487\n        /* \"#utility.yul\":12436:12438   */\n      0x40\n        /* \"#utility.yul\":12425:12434   */\n      dup4\n        /* \"#utility.yul\":12421:12439   */\n      add\n        /* \"#utility.yul\":12412:12418   */\n      dup6\n        /* \"#utility.yul\":12368:12440   */\n      tag_307\n      jump\t// in\n    tag_487:\n        /* \"#utility.yul\":12487:12496   */\n      dup2\n        /* \"#utility.yul\":12481:12485   */\n      dup2\n        /* \"#utility.yul\":12477:12497   */\n      sub\n        /* \"#utility.yul\":12472:12474   */\n      0x60\n        /* \"#utility.yul\":12461:12470   */\n      dup4\n        /* \"#utility.yul\":12457:12475   */\n      add\n        /* \"#utility.yul\":12450:12498   */\n      mstore\n        /* \"#utility.yul\":12515:12623   */\n      tag_488\n        /* \"#utility.yul\":12618:12622   */\n      dup2\n        /* \"#utility.yul\":12609:12615   */\n      dup5\n        /* \"#utility.yul\":12515:12623   */\n      tag_322\n      jump\t// in\n    tag_488:\n        /* \"#utility.yul\":12507:12623   */\n      swap1\n      pop\n        /* \"#utility.yul\":11744:12630   */\n      swap6\n      swap5\n      pop\n      pop\n      pop\n      pop\n      pop\n      jump\t// out\n        /* \"#utility.yul\":12636:13761   */\n    tag_52:\n        /* \"#utility.yul\":12742:12748   */\n      0x00\n        /* \"#utility.yul\":12750:12756   */\n      dup1\n        /* \"#utility.yul\":12758:12764   */\n      0x00\n        /* \"#utility.yul\":12766:12772   */\n      dup1\n        /* \"#utility.yul\":12815:12818   */\n      0x80\n        /* \"#utility.yul\":12803:12812   */\n      dup6\n        /* \"#utility.yul\":12794:12801   */\n      dup8\n        /* \"#utility.yul\":12790:12813   */\n      sub\n        /* \"#utility.yul\":12786:12819   */\n      slt\n        /* \"#utility.yul\":12783:12903   */\n      iszero\n      tag_490\n      jumpi\n        /* \"#utility.yul\":12822:12901   */\n      tag_491\n      tag_285\n      jump\t// in\n    tag_491:\n        /* \"#utility.yul\":12783:12903   */\n    tag_490:\n        /* \"#utility.yul\":12942:12943   */\n      0x00\n        /* \"#utility.yul\":12967:13020   */\n      tag_492\n        /* \"#utility.yul\":13012:13019   */\n      dup8\n        /* \"#utility.yul\":13003:13009   */\n      dup3\n        /* \"#utility.yul\":12992:13001   */\n      dup9\n        /* \"#utility.yul\":12988:13010   */\n      add\n        /* \"#utility.yul\":12967:13020   */\n      tag_311\n      jump\t// in\n    tag_492:\n        /* \"#utility.yul\":12957:13020   */\n      swap5\n      pop\n        /* \"#utility.yul\":12913:13030   */\n      pop\n        /* \"#utility.yul\":13097:13099   */\n      0x20\n        /* \"#utility.yul\":13086:13095   */\n      dup6\n        /* \"#utility.yul\":13082:13100   */\n      add\n        /* \"#utility.yul\":13069:13101   */\n      calldataload\n        /* \"#utility.yul\":13128:13146   */\n      0xffffffffffffffff\n        /* \"#utility.yul\":13120:13126   */\n      dup2\n        /* \"#utility.yul\":13117:13147   */\n      gt\n        /* \"#utility.yul\":13114:13231   */\n      iszero\n      tag_493\n      jumpi\n        /* \"#utility.yul\":13150:13229   */\n      tag_494\n      tag_286\n      jump\t// in\n    tag_494:\n        /* \"#utility.yul\":13114:13231   */\n    tag_493:\n        /* \"#utility.yul\":13255:13318   */\n      tag_495\n        /* \"#utility.yul\":13310:13317   */\n      dup8\n        /* \"#utility.yul\":13301:13307   */\n      dup3\n        /* \"#utility.yul\":13290:13299   */\n      dup9\n        /* \"#utility.yul\":13286:13308   */\n      add\n        /* \"#utility.yul\":13255:13318   */\n      tag_320\n      jump\t// in\n    tag_495:\n        /* \"#utility.yul\":13245:13318   */\n      swap4\n      pop\n        /* \"#utility.yul\":13040:13328   */\n      pop\n        /* \"#utility.yul\":13395:13397   */\n      0x40\n        /* \"#utility.yul\":13384:13393   */\n      dup6\n        /* \"#utility.yul\":13380:13398   */\n      add\n        /* \"#utility.yul\":13367:13399   */\n      calldataload\n        /* \"#utility.yul\":13426:13444   */\n      0xffffffffffffffff\n        /* \"#utility.yul\":13418:13424   */\n      dup2\n        /* \"#utility.yul\":13415:13445   */\n      gt\n        /* \"#utility.yul\":13412:13529   */\n      iszero\n      tag_496\n      jumpi\n        /* \"#utility.yul\":13448:13527   */\n      tag_497\n      tag_286\n      jump\t// in\n    tag_497:\n        /* \"#utility.yul\":13412:13529   */\n    tag_496:\n        /* \"#utility.yul\":13553:13616   */\n      tag_498\n        /* \"#utility.yul\":13608:13615   */\n      dup8\n        /* \"#utility.yul\":13599:13605   */\n      dup3\n        /* \"#utility.yul\":13588:13597   */\n      dup9\n        /* \"#utility.yul\":13584:13606   */\n      add\n        /* \"#utility.yul\":13553:13616   */\n      tag_320\n      jump\t// in\n    tag_498:\n        /* \"#utility.yul\":13543:13616   */\n      swap3\n      pop\n        /* \"#utility.yul\":13338:13626   */\n      pop\n        /* \"#utility.yul\":13665:13667   */\n      0x60\n        /* \"#utility.yul\":13691:13744   */\n      tag_499\n        /* \"#utility.yul\":13736:13743   */\n      dup8\n        /* \"#utility.yul\":13727:13733   */\n      dup3\n        /* \"#utility.yul\":13716:13725   */\n      dup9\n        /* \"#utility.yul\":13712:13734   */\n      add\n        /* \"#utility.yul\":13691:13744   */\n      tag_289\n      jump\t// in\n    tag_499:\n        /* \"#utility.yul\":13681:13744   */\n      swap2\n      pop\n        /* \"#utility.yul\":13636:13754   */\n      pop\n        /* \"#utility.yul\":12636:13761   */\n      swap3\n      swap6\n      swap2\n      swap5\n      pop\n      swap3\n      pop\n      jump\t// out\n        /* \"#utility.yul\":13767:14746   */\n    tag_56:\n        /* \"#utility.yul\":13864:13870   */\n      0x00\n        /* \"#utility.yul\":13872:13878   */\n      dup1\n        /* \"#utility.yul\":13880:13886   */\n      0x00\n        /* \"#utility.yul\":13929:13931   */\n      0x60\n        /* \"#utility.yul\":13917:13926   */\n      dup5\n        /* \"#utility.yul\":13908:13915   */\n      dup7\n        /* \"#utility.yul\":13904:13927   */\n      sub\n        /* \"#utility.yul\":13900:13932   */\n      slt\n        /* \"#utility.yul\":13897:14016   */\n      iszero\n      tag_501\n      jumpi\n        /* \"#utility.yul\":13935:14014   */\n      tag_502\n      tag_285\n      jump\t// in\n    tag_502:\n        /* \"#utility.yul\":13897:14016   */\n    tag_501:\n        /* \"#utility.yul\":14055:14056   */\n      0x00\n        /* \"#utility.yul\":14080:14133   */\n      tag_503\n        /* \"#utility.yul\":14125:14132   */\n      dup7\n        /* \"#utility.yul\":14116:14122   */\n      dup3\n        /* \"#utility.yul\":14105:14114   */\n      dup8\n        /* \"#utility.yul\":14101:14123   */\n      add\n        /* \"#utility.yul\":14080:14133   */\n      tag_311\n      jump\t// in\n    tag_503:\n        /* \"#utility.yul\":14070:14133   */\n      swap4\n      pop\n        /* \"#utility.yul\":14026:14143   */\n      pop\n        /* \"#utility.yul\":14210:14212   */\n      0x20\n        /* \"#utility.yul\":14199:14208   */\n      dup5\n        /* \"#utility.yul\":14195:14213   */\n      add\n        /* \"#utility.yul\":14182:14214   */\n      calldataload\n        /* \"#utility.yul\":14241:14259   */\n      0xffffffffffffffff\n        /* \"#utility.yul\":14233:14239   */\n      dup2\n        /* \"#utility.yul\":14230:14260   */\n      gt\n        /* \"#utility.yul\":14227:14344   */\n      iszero\n      tag_504\n      jumpi\n        /* \"#utility.yul\":14263:14342   */\n      tag_505\n      tag_286\n      jump\t// in\n    tag_505:\n        /* \"#utility.yul\":14227:14344   */\n    tag_504:\n        /* \"#utility.yul\":14368:14431   */\n      tag_506\n        /* \"#utility.yul\":14423:14430   */\n      dup7\n        /* \"#utility.yul\":14414:14420   */\n      dup3\n        /* \"#utility.yul\":14403:14412   */\n      dup8\n        /* \"#utility.yul\":14399:14421   */\n      add\n        /* \"#utility.yul\":14368:14431   */\n      tag_320\n      jump\t// in\n    tag_506:\n        /* \"#utility.yul\":14358:14431   */\n      swap3\n      pop\n        /* \"#utility.yul\":14153:14441   */\n      pop\n        /* \"#utility.yul\":14508:14510   */\n      0x40\n        /* \"#utility.yul\":14497:14506   */\n      dup5\n        /* \"#utility.yul\":14493:14511   */\n      add\n        /* \"#utility.yul\":14480:14512   */\n      calldataload\n        /* \"#utility.yul\":14539:14557   */\n      0xffffffffffffffff\n        /* \"#utility.yul\":14531:14537   */\n      dup2\n        /* \"#utility.yul\":14528:14558   */\n      gt\n        /* \"#utility.yul\":14525:14642   */\n      iszero\n      tag_507\n      jumpi\n        /* \"#utility.yul\":14561:14640   */\n      tag_508\n      tag_286\n      jump\t// in\n    tag_508:\n        /* \"#utility.yul\":14525:14642   */\n    tag_507:\n        /* \"#utility.yul\":14666:14729   */\n      tag_509\n        /* \"#utility.yul\":14721:14728   */\n      dup7\n        /* \"#utility.yul\":14712:14718   */\n      dup3\n        /* \"#utility.yul\":14701:14710   */\n      dup8\n        /* \"#utility.yul\":14697:14719   */\n      add\n        /* \"#utility.yul\":14666:14729   */\n      tag_320\n      jump\t// in\n    tag_509:\n        /* \"#utility.yul\":14656:14729   */\n      swap2\n      pop\n        /* \"#utility.yul\":14451:14739   */\n      pop\n        /* \"#utility.yul\":13767:14746   */\n      swap3\n      pop\n      swap3\n      pop\n      swap3\n      jump\t// out\n        /* \"#utility.yul\":14752:14842   */\n    tag_323:\n        /* \"#utility.yul\":14786:14793   */\n      0x00\n        /* \"#utility.yul\":14829:14834   */\n      dup2\n        /* \"#utility.yul\":14822:14835   */\n      iszero\n        /* \"#utility.yul\":14815:14836   */\n      iszero\n        /* \"#utility.yul\":14804:14836   */\n      swap1\n      pop\n        /* \"#utility.yul\":14752:14842   */\n      swap2\n      swap1\n      pop\n      jump\t// out\n        /* \"#utility.yul\":14848:14957   */\n    tag_324:\n        /* \"#utility.yul\":14929:14950   */\n      tag_512\n        /* \"#utility.yul\":14944:14949   */\n      dup2\n        /* \"#utility.yul\":14929:14950   */\n      tag_323\n      jump\t// in\n    tag_512:\n        /* \"#utility.yul\":14924:14927   */\n      dup3\n        /* \"#utility.yul\":14917:14951   */\n      mstore\n        /* \"#utility.yul\":14848:14957   */\n      pop\n      pop\n      jump\t// out\n        /* \"#utility.yul\":14963:15173   */\n    tag_65:\n        /* \"#utility.yul\":15050:15054   */\n      0x00\n        /* \"#utility.yul\":15088:15090   */\n      0x20\n        /* \"#utility.yul\":15077:15086   */\n      dup3\n        /* \"#utility.yul\":15073:15091   */\n      add\n        /* \"#utility.yul\":15065:15091   */\n      swap1\n      pop\n        /* \"#utility.yul\":15101:15166   */\n      tag_514\n        /* \"#utility.yul\":15163:15164   */\n      0x00\n        /* \"#utility.yul\":15152:15161   */\n      dup4\n        /* \"#utility.yul\":15148:15165   */\n      add\n        /* \"#utility.yul\":15139:15145   */\n      dup5\n        /* \"#utility.yul\":15101:15166   */\n      tag_324\n      jump\t// in\n    tag_514:\n        /* \"#utility.yul\":14963:15173   */\n      swap3\n      swap2\n      pop\n      pop\n      jump\t// out\n        /* \"#utility.yul\":15179:15401   */\n    tag_70:\n        /* \"#utility.yul\":15272:15276   */\n      0x00\n        /* \"#utility.yul\":15310:15312   */\n      0x20\n        /* \"#utility.yul\":15299:15308   */\n      dup3\n        /* \"#utility.yul\":15295:15313   */\n      add\n        /* \"#utility.yul\":15287:15313   */\n      swap1\n      pop\n        /* \"#utility.yul\":15323:15394   */\n      tag_516\n        /* \"#utility.yul\":15391:15392   */\n      0x00\n        /* \"#utility.yul\":15380:15389   */\n      dup4\n        /* \"#utility.yul\":15376:15393   */\n      add\n        /* \"#utility.yul\":15367:15373   */\n      dup5\n        /* \"#utility.yul\":15323:15394   */\n      tag_307\n      jump\t// in\n    tag_516:\n        /* \"#utility.yul\":15179:15401   */\n      swap3\n      swap2\n      pop\n      pop\n      jump\t// out\n        /* \"#utility.yul\":15407:15881   */\n    tag_77:\n        /* \"#utility.yul\":15475:15481   */\n      0x00\n        /* \"#utility.yul\":15483:15489   */\n      dup1\n        /* \"#utility.yul\":15532:15534   */\n      0x40\n        /* \"#utility.yul\":15520:15529   */\n      dup4\n        /* \"#utility.yul\":15511:15518   */\n      dup6\n        /* \"#utility.yul\":15507:15530   */\n      sub\n        /* \"#utility.yul\":15503:15535   */\n      slt\n        /* \"#utility.yul\":15500:15619   */\n      iszero\n      tag_518\n      jumpi\n        /* \"#utility.yul\":15538:15617   */\n      tag_519\n      tag_285\n      jump\t// in\n    tag_519:\n        /* \"#utility.yul\":15500:15619   */\n    tag_518:\n        /* \"#utility.yul\":15658:15659   */\n      0x00\n        /* \"#utility.yul\":15683:15736   */\n      tag_520\n        /* \"#utility.yul\":15728:15735   */\n      dup6\n        /* \"#utility.yul\":15719:15725   */\n      dup3\n        /* \"#utility.yul\":15708:15717   */\n      dup7\n        /* \"#utility.yul\":15704:15726   */\n      add\n        /* \"#utility.yul\":15683:15736   */\n      tag_311\n      jump\t// in\n    tag_520:\n        /* \"#utility.yul\":15673:15736   */\n      swap3\n      pop\n        /* \"#utility.yul\":15629:15746   */\n      pop\n        /* \"#utility.yul\":15785:15787   */\n      0x20\n        /* \"#utility.yul\":15811:15864   */\n      tag_521\n        /* \"#utility.yul\":15856:15863   */\n      dup6\n        /* \"#utility.yul\":15847:15853   */\n      dup3\n        /* \"#utility.yul\":15836:15845   */\n      dup7\n        /* \"#utility.yul\":15832:15854   */\n      add\n        /* \"#utility.yul\":15811:15864   */\n      tag_311\n      jump\t// in\n    tag_521:\n        /* \"#utility.yul\":15801:15864   */\n      swap2\n      pop\n        /* \"#utility.yul\":15756:15874   */\n      pop\n        /* \"#utility.yul\":15407:15881   */\n      swap3\n      pop\n      swap3\n      swap1\n      pop\n      jump\t// out\n        /* \"#utility.yul\":15887:16001   */\n    tag_325:\n        /* \"#utility.yul\":15954:15960   */\n      0x00\n        /* \"#utility.yul\":15988:15993   */\n      dup2\n        /* \"#utility.yul\":15982:15994   */\n      mload\n        /* \"#utility.yul\":15972:15994   */\n      swap1\n      pop\n        /* \"#utility.yul\":15887:16001   */\n      swap2\n      swap1\n      pop\n      jump\t// out\n        /* \"#utility.yul\":16007:16191   */\n    tag_326:\n        /* \"#utility.yul\":16106:16117   */\n      0x00\n        /* \"#utility.yul\":16140:16146   */\n      dup3\n        /* \"#utility.yul\":16135:16138   */\n      dup3\n        /* \"#utility.yul\":16128:16147   */\n      mstore\n        /* \"#utility.yul\":16180:16184   */\n      0x20\n        /* \"#utility.yul\":16175:16178   */\n      dup3\n        /* \"#utility.yul\":16171:16185   */\n      add\n        /* \"#utility.yul\":16156:16185   */\n      swap1\n      pop\n        /* \"#utility.yul\":16007:16191   */\n      swap3\n      swap2\n      pop\n      pop\n      jump\t// out\n        /* \"#utility.yul\":16197:16329   */\n    tag_327:\n        /* \"#utility.yul\":16264:16268   */\n      0x00\n        /* \"#utility.yul\":16287:16290   */\n      dup2\n        /* \"#utility.yul\":16279:16290   */\n      swap1\n      pop\n        /* \"#utility.yul\":16317:16321   */\n      0x20\n        /* \"#utility.yul\":16312:16315   */\n      dup3\n        /* \"#utility.yul\":16308:16322   */\n      add\n        /* \"#utility.yul\":16300:16322   */\n      swap1\n      pop\n        /* \"#utility.yul\":16197:16329   */\n      swap2\n      swap1\n      pop\n      jump\t// out\n        /* \"#utility.yul\":16335:16514   */\n    tag_328:\n        /* \"#utility.yul\":16404:16414   */\n      0x00\n        /* \"#utility.yul\":16425:16471   */\n      tag_526\n        /* \"#utility.yul\":16467:16470   */\n      dup4\n        /* \"#utility.yul\":16459:16465   */\n      dup4\n        /* \"#utility.yul\":16425:16471   */\n      tag_293\n      jump\t// in\n    tag_526:\n        /* \"#utility.yul\":16503:16507   */\n      0x20\n        /* \"#utility.yul\":16498:16501   */\n      dup4\n        /* \"#utility.yul\":16494:16508   */\n      add\n        /* \"#utility.yul\":16480:16508   */\n      swap1\n      pop\n        /* \"#utility.yul\":16335:16514   */\n      swap3\n      swap2\n      pop\n      pop\n      jump\t// out\n        /* \"#utility.yul\":16520:16633   */\n    tag_329:\n        /* \"#utility.yul\":16590:16594   */\n      0x00\n        /* \"#utility.yul\":16622:16626   */\n      0x20\n        /* \"#utility.yul\":16617:16620   */\n      dup3\n        /* \"#utility.yul\":16613:16627   */\n      add\n        /* \"#utility.yul\":16605:16627   */\n      swap1\n      pop\n        /* \"#utility.yul\":16520:16633   */\n      swap2\n      swap1\n      pop\n      jump\t// out\n        /* \"#utility.yul\":16669:17401   */\n    tag_330:\n        /* \"#utility.yul\":16788:16791   */\n      0x00\n        /* \"#utility.yul\":16817:16871   */\n      tag_529\n        /* \"#utility.yul\":16865:16870   */\n      dup3\n        /* \"#utility.yul\":16817:16871   */\n      tag_325\n      jump\t// in\n    tag_529:\n        /* \"#utility.yul\":16887:16973   */\n      tag_530\n        /* \"#utility.yul\":16966:16972   */\n      dup2\n        /* \"#utility.yul\":16961:16964   */\n      dup6\n        /* \"#utility.yul\":16887:16973   */\n      tag_326\n      jump\t// in\n    tag_530:\n        /* \"#utility.yul\":16880:16973   */\n      swap4\n      pop\n        /* \"#utility.yul\":16997:17053   */\n      tag_531\n        /* \"#utility.yul\":17047:17052   */\n      dup4\n        /* \"#utility.yul\":16997:17053   */\n      tag_327\n      jump\t// in\n    tag_531:\n        /* \"#utility.yul\":17076:17083   */\n      dup1\n        /* \"#utility.yul\":17107:17108   */\n      0x00\n        /* \"#utility.yul\":17092:17376   */\n    tag_532:\n        /* \"#utility.yul\":17117:17123   */\n      dup4\n        /* \"#utility.yul\":17114:17115   */\n      dup2\n        /* \"#utility.yul\":17111:17124   */\n      lt\n        /* \"#utility.yul\":17092:17376   */\n      iszero\n      tag_534\n      jumpi\n        /* \"#utility.yul\":17193:17199   */\n      dup2\n        /* \"#utility.yul\":17187:17200   */\n      mload\n        /* \"#utility.yul\":17220:17283   */\n      tag_535\n        /* \"#utility.yul\":17279:17282   */\n      dup9\n        /* \"#utility.yul\":17264:17277   */\n      dup3\n        /* \"#utility.yul\":17220:17283   */\n      tag_328\n      jump\t// in\n    tag_535:\n        /* \"#utility.yul\":17213:17283   */\n      swap8\n      pop\n        /* \"#utility.yul\":17306:17366   */\n      tag_536\n        /* \"#utility.yul\":17359:17365   */\n      dup4\n        /* \"#utility.yul\":17306:17366   */\n      tag_329\n      jump\t// in\n    tag_536:\n        /* \"#utility.yul\":17296:17366   */\n      swap3\n      pop\n        /* \"#utility.yul\":17152:17376   */\n      pop\n        /* \"#utility.yul\":17139:17140   */\n      0x01\n        /* \"#utility.yul\":17136:17137   */\n      dup2\n        /* \"#utility.yul\":17132:17141   */\n      add\n        /* \"#utility.yul\":17127:17141   */\n      swap1\n      pop\n        /* \"#utility.yul\":17092:17376   */\n      jump(tag_532)\n    tag_534:\n        /* \"#utility.yul\":17096:17110   */\n      pop\n        /* \"#utility.yul\":17392:17395   */\n      dup6\n        /* \"#utility.yul\":17385:17395   */\n      swap4\n      pop\n        /* \"#utility.yul\":16793:17401   */\n      pop\n      pop\n      pop\n        /* \"#utility.yul\":16669:17401   */\n      swap3\n      swap2\n      pop\n      pop\n      jump\t// out\n        /* \"#utility.yul\":17407:17780   */\n    tag_86:\n        /* \"#utility.yul\":17550:17554   */\n      0x00\n        /* \"#utility.yul\":17588:17590   */\n      0x20\n        /* \"#utility.yul\":17577:17586   */\n      dup3\n        /* \"#utility.yul\":17573:17591   */\n      add\n        /* \"#utility.yul\":17565:17591   */\n      swap1\n      pop\n        /* \"#utility.yul\":17637:17646   */\n      dup2\n        /* \"#utility.yul\":17631:17635   */\n      dup2\n        /* \"#utility.yul\":17627:17647   */\n      sub\n        /* \"#utility.yul\":17623:17624   */\n      0x00\n        /* \"#utility.yul\":17612:17621   */\n      dup4\n        /* \"#utility.yul\":17608:17625   */\n      add\n        /* \"#utility.yul\":17601:17648   */\n      mstore\n        /* \"#utility.yul\":17665:17773   */\n      tag_538\n        /* \"#utility.yul\":17768:17772   */\n      dup2\n        /* \"#utility.yul\":17759:17765   */\n      dup5\n        /* \"#utility.yul\":17665:17773   */\n      tag_330\n      jump\t// in\n    tag_538:\n        /* \"#utility.yul\":17657:17773   */\n      swap1\n      pop\n        /* \"#utility.yul\":17407:17780   */\n      swap3\n      swap2\n      pop\n      pop\n      jump\t// out\n        /* \"#utility.yul\":17786:18159   */\n    tag_91:\n        /* \"#utility.yul\":17929:17933   */\n      0x00\n        /* \"#utility.yul\":17967:17969   */\n      0x20\n        /* \"#utility.yul\":17956:17965   */\n      dup3\n        /* \"#utility.yul\":17952:17970   */\n      add\n        /* \"#utility.yul\":17944:17970   */\n      swap1\n      pop\n        /* \"#utility.yul\":18016:18025   */\n      dup2\n        /* \"#utility.yul\":18010:18014   */\n      dup2\n        /* \"#utility.yul\":18006:18026   */\n      sub\n        /* \"#utility.yul\":18002:18003   */\n      0x00\n        /* \"#utility.yul\":17991:18000   */\n      dup4\n        /* \"#utility.yul\":17987:18004   */\n      add\n        /* \"#utility.yul\":17980:18027   */\n      mstore\n        /* \"#utility.yul\":18044:18152   */\n      tag_540\n        /* \"#utility.yul\":18147:18151   */\n      dup2\n        /* \"#utility.yul\":18138:18144   */\n      dup5\n        /* \"#utility.yul\":18044:18152   */\n      tag_322\n      jump\t// in\n    tag_540:\n        /* \"#utility.yul\":18036:18152   */\n      swap1\n      pop\n        /* \"#utility.yul\":17786:18159   */\n      swap3\n      swap2\n      pop\n      pop\n      jump\t// out\n        /* \"#utility.yul\":18165:18345   */\n    tag_109:\n        /* \"#utility.yul\":18213:18290   */\n      0x4e487b7100000000000000000000000000000000000000000000000000000000\n        /* \"#utility.yul\":18210:18211   */\n      0x00\n        /* \"#utility.yul\":18203:18291   */\n      mstore\n        /* \"#utility.yul\":18310:18314   */\n      0x32\n        /* \"#utility.yul\":18307:18308   */\n      0x04\n        /* \"#utility.yul\":18300:18315   */\n      mstore\n        /* \"#utility.yul\":18334:18338   */\n      0x24\n        /* \"#utility.yul\":18331:18332   */\n      0x00\n        /* \"#utility.yul\":18324:18339   */\n      revert\n        /* \"#utility.yul\":18351:18531   */\n    tag_331:\n        /* \"#utility.yul\":18399:18476   */\n      0x4e487b7100000000000000000000000000000000000000000000000000000000\n        /* \"#utility.yul\":18396:18397   */\n      0x00\n        /* \"#utility.yul\":18389:18477   */\n      mstore\n        /* \"#utility.yul\":18496:18500   */\n      0x22\n        /* \"#utility.yul\":18493:18494   */\n      0x04\n        /* \"#utility.yul\":18486:18501   */\n      mstore\n        /* \"#utility.yul\":18520:18524   */\n      0x24\n        /* \"#utility.yul\":18517:18518   */\n      0x00\n        /* \"#utility.yul\":18510:18525   */\n      revert\n        /* \"#utility.yul\":18537:18857   */\n    tag_112:\n        /* \"#utility.yul\":18581:18587   */\n      0x00\n        /* \"#utility.yul\":18618:18619   */\n      0x02\n        /* \"#utility.yul\":18612:18616   */\n      dup3\n        /* \"#utility.yul\":18608:18620   */\n      div\n        /* \"#utility.yul\":18598:18620   */\n      swap1\n      pop\n        /* \"#utility.yul\":18665:18666   */\n      0x01\n        /* \"#utility.yul\":18659:18663   */\n      dup3\n        /* \"#utility.yul\":18655:18667   */\n      and\n        /* \"#utility.yul\":18686:18704   */\n      dup1\n        /* \"#utility.yul\":18676:18757   */\n      tag_544\n      jumpi\n        /* \"#utility.yul\":18742:18746   */\n      0x7f\n        /* \"#utility.yul\":18734:18740   */\n      dup3\n        /* \"#utility.yul\":18730:18747   */\n      and\n        /* \"#utility.yul\":18720:18747   */\n      swap2\n      pop\n        /* \"#utility.yul\":18676:18757   */\n    tag_544:\n        /* \"#utility.yul\":18804:18806   */\n      0x20\n        /* \"#utility.yul\":18796:18802   */\n      dup3\n        /* \"#utility.yul\":18793:18807   */\n      lt\n        /* \"#utility.yul\":18773:18791   */\n      dup2\n        /* \"#utility.yul\":18770:18808   */\n      sub\n        /* \"#utility.yul\":18767:18851   */\n      tag_545\n      jumpi\n        /* \"#utility.yul\":18823:18841   */\n      tag_546\n      tag_331\n      jump\t// in\n    tag_546:\n        /* \"#utility.yul\":18767:18851   */\n    tag_545:\n        /* \"#utility.yul\":18588:18857   */\n      pop\n        /* \"#utility.yul\":18537:18857   */\n      swap2\n      swap1\n      pop\n      jump\t// out\n        /* \"#utility.yul\":18863:19024   */\n    tag_332:\n        /* \"#utility.yul\":19003:19016   */\n      0x446f63746f72206f6e6c79000000000000000000000000000000000000000000\n        /* \"#utility.yul\":18999:19000   */\n      0x00\n        /* \"#utility.yul\":18991:18997   */\n      dup3\n        /* \"#utility.yul\":18987:19001   */\n      add\n        /* \"#utility.yul\":18980:19017   */\n      mstore\n        /* \"#utility.yul\":18863:19024   */\n      pop\n      jump\t// out\n        /* \"#utility.yul\":19030:19396   */\n    tag_333:\n        /* \"#utility.yul\":19172:19175   */\n      0x00\n        /* \"#utility.yul\":19193:19260   */\n      tag_549\n        /* \"#utility.yul\":19257:19259   */\n      0x0b\n        /* \"#utility.yul\":19252:19255   */\n      dup4\n        /* \"#utility.yul\":19193:19260   */\n      tag_308\n      jump\t// in\n    tag_549:\n        /* \"#utility.yul\":19186:19260   */\n      swap2\n      pop\n        /* \"#utility.yul\":19269:19362   */\n      tag_550\n        /* \"#utility.yul\":19358:19361   */\n      dup3\n        /* \"#utility.yul\":19269:19362   */\n      tag_332\n      jump\t// in\n    tag_550:\n        /* \"#utility.yul\":19387:19389   */\n      0x20\n        /* \"#utility.yul\":19382:19385   */\n      dup3\n        /* \"#utility.yul\":19378:19390   */\n      add\n        /* \"#utility.yul\":19371:19390   */\n      swap1\n      pop\n        /* \"#utility.yul\":19030:19396   */\n      swap2\n      swap1\n      pop\n      jump\t// out\n        /* \"#utility.yul\":19402:19821   */\n    tag_135:\n        /* \"#utility.yul\":19568:19572   */\n      0x00\n        /* \"#utility.yul\":19606:19608   */\n      0x20\n        /* \"#utility.yul\":19595:19604   */\n      dup3\n        /* \"#utility.yul\":19591:19609   */\n      add\n        /* \"#utility.yul\":19583:19609   */\n      swap1\n      pop\n        /* \"#utility.yul\":19655:19664   */\n      dup2\n        /* \"#utility.yul\":19649:19653   */\n      dup2\n        /* \"#utility.yul\":19645:19665   */\n      sub\n        /* \"#utility.yul\":19641:19642   */\n      0x00\n        /* \"#utility.yul\":19630:19639   */\n      dup4\n        /* \"#utility.yul\":19626:19643   */\n      add\n        /* \"#utility.yul\":19619:19666   */\n      mstore\n        /* \"#utility.yul\":19683:19814   */\n      tag_552\n        /* \"#utility.yul\":19809:19813   */\n      dup2\n        /* \"#utility.yul\":19683:19814   */\n      tag_333\n      jump\t// in\n    tag_552:\n        /* \"#utility.yul\":19675:19814   */\n      swap1\n      pop\n        /* \"#utility.yul\":19402:19821   */\n      swap2\n      swap1\n      pop\n      jump\t// out\n        /* \"#utility.yul\":19827:20052   */\n    tag_334:\n        /* \"#utility.yul\":19967:20001   */\n      0x596f7520686176656e2774206265656e2061737369676e656420746869732070\n        /* \"#utility.yul\":19963:19964   */\n      0x00\n        /* \"#utility.yul\":19955:19961   */\n      dup3\n        /* \"#utility.yul\":19951:19965   */\n      add\n        /* \"#utility.yul\":19944:20002   */\n      mstore\n        /* \"#utility.yul\":20036:20044   */\n      0x617469656e740000000000000000000000000000000000000000000000000000\n        /* \"#utility.yul\":20031:20033   */\n      0x20\n        /* \"#utility.yul\":20023:20029   */\n      dup3\n        /* \"#utility.yul\":20019:20034   */\n      add\n        /* \"#utility.yul\":20012:20045   */\n      mstore\n        /* \"#utility.yul\":19827:20052   */\n      pop\n      jump\t// out\n        /* \"#utility.yul\":20058:20424   */\n    tag_335:\n        /* \"#utility.yul\":20200:20203   */\n      0x00\n        /* \"#utility.yul\":20221:20288   */\n      tag_555\n        /* \"#utility.yul\":20285:20287   */\n      0x26\n        /* \"#utility.yul\":20280:20283   */\n      dup4\n        /* \"#utility.yul\":20221:20288   */\n      tag_308\n      jump\t// in\n    tag_555:\n        /* \"#utility.yul\":20214:20288   */\n      swap2\n      pop\n        /* \"#utility.yul\":20297:20390   */\n      tag_556\n        /* \"#utility.yul\":20386:20389   */\n      dup3\n        /* \"#utility.yul\":20297:20390   */\n      tag_334\n      jump\t// in\n    tag_556:\n        /* \"#utility.yul\":20415:20417   */\n      0x40\n        /* \"#utility.yul\":20410:20413   */\n      dup3\n        /* \"#utility.yul\":20406:20418   */\n      add\n        /* \"#utility.yul\":20399:20418   */\n      swap1\n      pop\n        /* \"#utility.yul\":20058:20424   */\n      swap2\n      swap1\n      pop\n      jump\t// out\n        /* \"#utility.yul\":20430:20849   */\n    tag_139:\n        /* \"#utility.yul\":20596:20600   */\n      0x00\n        /* \"#utility.yul\":20634:20636   */\n      0x20\n        /* \"#utility.yul\":20623:20632   */\n      dup3\n        /* \"#utility.yul\":20619:20637   */\n      add\n        /* \"#utility.yul\":20611:20637   */\n      swap1\n      pop\n        /* \"#utility.yul\":20683:20692   */\n      dup2\n        /* \"#utility.yul\":20677:20681   */\n      dup2\n        /* \"#utility.yul\":20673:20693   */\n      sub\n        /* \"#utility.yul\":20669:20670   */\n      0x00\n        /* \"#utility.yul\":20658:20667   */\n      dup4\n        /* \"#utility.yul\":20654:20671   */\n      add\n        /* \"#utility.yul\":20647:20694   */\n      mstore\n        /* \"#utility.yul\":20711:20842   */\n      tag_558\n        /* \"#utility.yul\":20837:20841   */\n      dup2\n        /* \"#utility.yul\":20711:20842   */\n      tag_335\n      jump\t// in\n    tag_558:\n        /* \"#utility.yul\":20703:20842   */\n      swap1\n      pop\n        /* \"#utility.yul\":20430:20849   */\n      swap2\n      swap1\n      pop\n      jump\t// out\n        /* \"#utility.yul\":20855:21018   */\n    tag_336:\n        /* \"#utility.yul\":20995:21010   */\n      0x4e6f7420666f722061646d696e00000000000000000000000000000000000000\n        /* \"#utility.yul\":20991:20992   */\n      0x00\n        /* \"#utility.yul\":20983:20989   */\n      dup3\n        /* \"#utility.yul\":20979:20993   */\n      add\n        /* \"#utility.yul\":20972:21011   */\n      mstore\n        /* \"#utility.yul\":20855:21018   */\n      pop\n      jump\t// out\n        /* \"#utility.yul\":21024:21390   */\n    tag_337:\n        /* \"#utility.yul\":21166:21169   */\n      0x00\n        /* \"#utility.yul\":21187:21254   */\n      tag_561\n        /* \"#utility.yul\":21251:21253   */\n      0x0d\n        /* \"#utility.yul\":21246:21249   */\n      dup4\n        /* \"#utility.yul\":21187:21254   */\n      tag_308\n      jump\t// in\n    tag_561:\n        /* \"#utility.yul\":21180:21254   */\n      swap2\n      pop\n        /* \"#utility.yul\":21263:21356   */\n      tag_562\n        /* \"#utility.yul\":21352:21355   */\n      dup3\n        /* \"#utility.yul\":21263:21356   */\n      tag_336\n      jump\t// in\n    tag_562:\n        /* \"#utility.yul\":21381:21383   */\n      0x20\n        /* \"#utility.yul\":21376:21379   */\n      dup3\n        /* \"#utility.yul\":21372:21384   */\n      add\n        /* \"#utility.yul\":21365:21384   */\n      swap1\n      pop\n        /* \"#utility.yul\":21024:21390   */\n      swap2\n      swap1\n      pop\n      jump\t// out\n        /* \"#utility.yul\":21396:21815   */\n    tag_144:\n        /* \"#utility.yul\":21562:21566   */\n      0x00\n        /* \"#utility.yul\":21600:21602   */\n      0x20\n        /* \"#utility.yul\":21589:21598   */\n      dup3\n        /* \"#utility.yul\":21585:21603   */\n      add\n        /* \"#utility.yul\":21577:21603   */\n      swap1\n      pop\n        /* \"#utility.yul\":21649:21658   */\n      dup2\n        /* \"#utility.yul\":21643:21647   */\n      dup2\n        /* \"#utility.yul\":21639:21659   */\n      sub\n        /* \"#utility.yul\":21635:21636   */\n      0x00\n        /* \"#utility.yul\":21624:21633   */\n      dup4\n        /* \"#utility.yul\":21620:21637   */\n      add\n        /* \"#utility.yul\":21613:21660   */\n      mstore\n        /* \"#utility.yul\":21677:21808   */\n      tag_564\n        /* \"#utility.yul\":21803:21807   */\n      dup2\n        /* \"#utility.yul\":21677:21808   */\n      tag_337\n      jump\t// in\n    tag_564:\n        /* \"#utility.yul\":21669:21808   */\n      swap1\n      pop\n        /* \"#utility.yul\":21396:21815   */\n      swap2\n      swap1\n      pop\n      jump\t// out\n        /* \"#utility.yul\":21821:21962   */\n    tag_338:\n        /* \"#utility.yul\":21870:21874   */\n      0x00\n        /* \"#utility.yul\":21893:21896   */\n      dup2\n        /* \"#utility.yul\":21885:21896   */\n      swap1\n      pop\n        /* \"#utility.yul\":21916:21919   */\n      dup2\n        /* \"#utility.yul\":21913:21914   */\n      0x00\n        /* \"#utility.yul\":21906:21920   */\n      mstore\n        /* \"#utility.yul\":21950:21954   */\n      0x20\n        /* \"#utility.yul\":21947:21948   */\n      0x00\n        /* \"#utility.yul\":21937:21955   */\n      keccak256\n        /* \"#utility.yul\":21929:21955   */\n      swap1\n      pop\n        /* \"#utility.yul\":21821:21962   */\n      swap2\n      swap1\n      pop\n      jump\t// out\n        /* \"#utility.yul\":21968:22061   */\n    tag_339:\n        /* \"#utility.yul\":22005:22011   */\n      0x00\n        /* \"#utility.yul\":22052:22054   */\n      0x20\n        /* \"#utility.yul\":22047:22049   */\n      0x1f\n        /* \"#utility.yul\":22040:22045   */\n      dup4\n        /* \"#utility.yul\":22036:22050   */\n      add\n        /* \"#utility.yul\":22032:22055   */\n      div\n        /* \"#utility.yul\":22022:22055   */\n      swap1\n      pop\n        /* \"#utility.yul\":21968:22061   */\n      swap2\n      swap1\n      pop\n      jump\t// out\n        /* \"#utility.yul\":22067:22174   */\n    tag_340:\n        /* \"#utility.yul\":22111:22119   */\n      0x00\n        /* \"#utility.yul\":22161:22166   */\n      dup3\n        /* \"#utility.yul\":22155:22159   */\n      dup3\n        /* \"#utility.yul\":22151:22167   */\n      shl\n        /* \"#utility.yul\":22130:22167   */\n      swap1\n      pop\n        /* \"#utility.yul\":22067:22174   */\n      swap3\n      swap2\n      pop\n      pop\n      jump\t// out\n        /* \"#utility.yul\":22180:22573   */\n    tag_341:\n        /* \"#utility.yul\":22249:22255   */\n      0x00\n        /* \"#utility.yul\":22299:22300   */\n      0x08\n        /* \"#utility.yul\":22287:22297   */\n      dup4\n        /* \"#utility.yul\":22283:22301   */\n      mul\n        /* \"#utility.yul\":22322:22419   */\n      tag_569\n        /* \"#utility.yul\":22352:22418   */\n      0xffffffffffffffffffffffffffffffffffffffffffffffffffffffffffffffff\n        /* \"#utility.yul\":22341:22350   */\n      dup3\n        /* \"#utility.yul\":22322:22419   */\n      tag_340\n      jump\t// in\n    tag_569:\n        /* \"#utility.yul\":22440:22479   */\n      tag_570\n        /* \"#utility.yul\":22470:22478   */\n      dup7\n        /* \"#utility.yul\":22459:22468   */\n      dup4\n        /* \"#utility.yul\":22440:22479   */\n      tag_340\n      jump\t// in\n    tag_570:\n        /* \"#utility.yul\":22428:22479   */\n      swap6\n      pop\n        /* \"#utility.yul\":22512:22516   */\n      dup1\n        /* \"#utility.yul\":22508:22517   */\n      not\n        /* \"#utility.yul\":22501:22506   */\n      dup5\n        /* \"#utility.yul\":22497:22518   */\n      and\n        /* \"#utility.yul\":22488:22518   */\n      swap4\n      pop\n        /* \"#utility.yul\":22561:22565   */\n      dup1\n        /* \"#utility.yul\":22551:22559   */\n      dup7\n        /* \"#utility.yul\":22547:22566   */\n      and\n        /* \"#utility.yul\":22540:22545   */\n      dup5\n        /* \"#utility.yul\":22537:22567   */\n      or\n        /* \"#utility.yul\":22527:22567   */\n      swap3\n      pop\n        /* \"#utility.yul\":22256:22573   */\n      pop\n      pop\n        /* \"#utility.yul\":22180:22573   */\n      swap4\n      swap3\n      pop\n      pop\n      pop\n      jump\t// out\n        /* \"#utility.yul\":22579:22639   */\n    tag_342:\n        /* \"#utility.yul\":22607:22610   */\n      0x00\n        /* \"#utility.yul\":22628:22633   */\n      dup2\n        /* \"#utility.yul\":22621:22633   */\n      swap1\n      pop\n        /* \"#utility.yul\":22579:22639   */\n      swap2\n      swap1\n      pop\n      jump\t// out\n        /* \"#utility.yul\":22645:22787   */\n    tag_343:\n        /* \"#utility.yul\":22695:22704   */\n      0x00\n        /* \"#utility.yul\":22728:22781   */\n      tag_573\n        /* \"#utility.yul\":22746:22780   */\n      tag_574\n        /* \"#utility.yul\":22755:22779   */\n      tag_575\n        /* \"#utility.yul\":22773:22778   */\n      dup5\n        /* \"#utility.yul\":22755:22779   */\n      tag_287\n      jump\t// in\n    tag_575:\n        /* \"#utility.yul\":22746:22780   */\n      tag_342\n      jump\t// in\n    tag_574:\n        /* \"#utility.yul\":22728:22781   */\n      tag_287\n      jump\t// in\n    tag_573:\n        /* \"#utility.yul\":22715:22781   */\n      swap1\n      pop\n        /* \"#utility.yul\":22645:22787   */\n      swap2\n      swap1\n      pop\n      jump\t// out\n        /* \"#utility.yul\":22793:22868   */\n    tag_344:\n        /* \"#utility.yul\":22836:22839   */\n      0x00\n        /* \"#utility.yul\":22857:22862   */\n      dup2\n        /* \"#utility.yul\":22850:22862   */\n      swap1\n      pop\n        /* \"#utility.yul\":22793:22868   */\n      swap2\n      swap1\n      pop\n      jump\t// out\n        /* \"#utility.yul\":22874:23143   */\n    tag_345:\n        /* \"#utility.yul\":22984:23023   */\n      tag_578\n        /* \"#utility.yul\":23015:23022   */\n      dup4\n        /* \"#utility.yul\":22984:23023   */\n      tag_343\n      jump\t// in\n    tag_578:\n        /* \"#utility.yul\":23045:23136   */\n      tag_579\n        /* \"#utility.yul\":23094:23135   */\n      tag_580\n        /* \"#utility.yul\":23118:23134   */\n      dup3\n        /* \"#utility.yul\":23094:23135   */\n      tag_344\n      jump\t// in\n    tag_580:\n        /* \"#utility.yul\":23086:23092   */\n      dup5\n        /* \"#utility.yul\":23079:23083   */\n      dup5\n        /* \"#utility.yul\":23073:23084   */\n      sload\n        /* \"#utility.yul\":23045:23136   */\n      tag_341\n      jump\t// in\n    tag_579:\n        /* \"#utility.yul\":23039:23043   */\n      dup3\n        /* \"#utility.yul\":23032:23137   */\n      sstore\n        /* \"#utility.yul\":22950:23143   */\n      pop\n        /* \"#utility.yul\":22874:23143   */\n      pop\n      pop\n      pop\n      jump\t// out\n        /* \"#utility.yul\":23149:23222   */\n    tag_346:\n        /* \"#utility.yul\":23194:23197   */\n      0x00\n        /* \"#utility.yul\":23149:23222   */\n      swap1\n      jump\t// out\n        /* \"#utility.yul\":23228:23417   */\n    tag_347:\n        /* \"#utility.yul\":23305:23337   */\n      tag_583\n      tag_346\n      jump\t// in\n    tag_583:\n        /* \"#utility.yul\":23346:23411   */\n      tag_584\n        /* \"#utility.yul\":23404:23410   */\n      dup2\n        /* \"#utility.yul\":23396:23402   */\n      dup5\n        /* \"#utility.yul\":23390:23394   */\n      dup5\n        /* \"#utility.yul\":23346:23411   */\n      tag_345\n      jump\t// in\n    tag_584:\n        /* \"#utility.yul\":23281:23417   */\n      pop\n        /* \"#utility.yul\":23228:23417   */\n      pop\n      pop\n      jump\t// out\n        /* \"#utility.yul\":23423:23609   */\n    tag_348:\n        /* \"#utility.yul\":23483:23603   */\n    tag_586:\n        /* \"#utility.yul\":23500:23503   */\n      dup2\n        /* \"#utility.yul\":23493:23498   */\n      dup2\n        /* \"#utility.yul\":23490:23504   */\n      lt\n        /* \"#utility.yul\":23483:23603   */\n      iszero\n      tag_588\n      jumpi\n        /* \"#utility.yul\":23554:23593   */\n      tag_589\n        /* \"#utility.yul\":23591:23592   */\n      0x00\n        /* \"#utility.yul\":23584:23589   */\n      dup3\n        /* \"#utility.yul\":23554:23593   */\n      tag_347\n      jump\t// in\n    tag_589:\n        /* \"#utility.yul\":23527:23528   */\n      0x01\n        /* \"#utility.yul\":23520:23525   */\n      dup2\n        /* \"#utility.yul\":23516:23529   */\n      add\n        /* \"#utility.yul\":23507:23529   */\n      swap1\n      pop\n        /* \"#utility.yul\":23483:23603   */\n      jump(tag_586)\n    tag_588:\n        /* \"#utility.yul\":23423:23609   */\n      pop\n      pop\n      jump\t// out\n        /* \"#utility.yul\":23615:24158   */\n    tag_349:\n        /* \"#utility.yul\":23716:23718   */\n      0x1f\n        /* \"#utility.yul\":23711:23714   */\n      dup3\n        /* \"#utility.yul\":23708:23719   */\n      gt\n        /* \"#utility.yul\":23705:24151   */\n      iszero\n      tag_591\n      jumpi\n        /* \"#utility.yul\":23750:23788   */\n      tag_592\n        /* \"#utility.yul\":23782:23787   */\n      dup2\n        /* \"#utility.yul\":23750:23788   */\n      tag_338\n      jump\t// in\n    tag_592:\n        /* \"#utility.yul\":23834:23863   */\n      tag_593\n        /* \"#utility.yul\":23852:23862   */\n      dup5\n        /* \"#utility.yul\":23834:23863   */\n      tag_339\n      jump\t// in\n    tag_593:\n        /* \"#utility.yul\":23824:23832   */\n      dup2\n        /* \"#utility.yul\":23820:23864   */\n      add\n        /* \"#utility.yul\":24017:24019   */\n      0x20\n        /* \"#utility.yul\":24005:24015   */\n      dup6\n        /* \"#utility.yul\":24002:24020   */\n      lt\n        /* \"#utility.yul\":23999:24048   */\n      iszero\n      tag_594\n      jumpi\n        /* \"#utility.yul\":24038:24046   */\n      dup2\n        /* \"#utility.yul\":24023:24046   */\n      swap1\n      pop\n        /* \"#utility.yul\":23999:24048   */\n    tag_594:\n        /* \"#utility.yul\":24061:24141   */\n      tag_595\n        /* \"#utility.yul\":24117:24139   */\n      tag_596\n        /* \"#utility.yul\":24135:24138   */\n      dup6\n        /* \"#utility.yul\":24117:24139   */\n      tag_339\n      jump\t// in\n    tag_596:\n        /* \"#utility.yul\":24107:24115   */\n      dup4\n        /* \"#utility.yul\":24103:24140   */\n      add\n        /* \"#utility.yul\":24090:24101   */\n      dup3\n        /* \"#utility.yul\":24061:24141   */\n      tag_348\n      jump\t// in\n    tag_595:\n        /* \"#utility.yul\":23720:24151   */\n      pop\n      pop\n        /* \"#utility.yul\":23705:24151   */\n    tag_591:\n        /* \"#utility.yul\":23615:24158   */\n      pop\n      pop\n      pop\n      jump\t// out\n        /* \"#utility.yul\":24164:24281   */\n    tag_350:\n        /* \"#utility.yul\":24218:24226   */\n      0x00\n        /* \"#utility.yul\":24268:24273   */\n      dup3\n        /* \"#utility.yul\":24262:24266   */\n      dup3\n        /* \"#utility.yul\":24258:24274   */\n      shr\n        /* \"#utility.yul\":24237:24274   */\n      swap1\n      pop\n        /* \"#utility.yul\":24164:24281   */\n      swap3\n      swap2\n      pop\n      pop\n      jump\t// out\n        /* \"#utility.yul\":24287:24456   */\n    tag_351:\n        /* \"#utility.yul\":24331:24337   */\n      0x00\n        /* \"#utility.yul\":24364:24415   */\n      tag_599\n        /* \"#utility.yul\":24412:24413   */\n      0x00\n        /* \"#utility.yul\":24408:24414   */\n      not\n        /* \"#utility.yul\":24400:24405   */\n      dup5\n        /* \"#utility.yul\":24397:24398   */\n      0x08\n        /* \"#utility.yul\":24393:24406   */\n      mul\n        /* \"#utility.yul\":24364:24415   */\n      tag_350\n      jump\t// in\n    tag_599:\n        /* \"#utility.yul\":24360:24416   */\n      not\n        /* \"#utility.yul\":24445:24449   */\n      dup1\n        /* \"#utility.yul\":24439:24443   */\n      dup4\n        /* \"#utility.yul\":24435:24450   */\n      and\n        /* \"#utility.yul\":24425:24450   */\n      swap2\n      pop\n        /* \"#utility.yul\":24338:24456   */\n      pop\n        /* \"#utility.yul\":24287:24456   */\n      swap3\n      swap2\n      pop\n      pop\n      jump\t// out\n        /* \"#utility.yul\":24461:24756   */\n    tag_352:\n        /* \"#utility.yul\":24537:24541   */\n      0x00\n        /* \"#utility.yul\":24683:24712   */\n      tag_601\n        /* \"#utility.yul\":24708:24711   */\n      dup4\n        /* \"#utility.yul\":24702:24706   */\n      dup4\n        /* \"#utility.yul\":24683:24712   */\n      tag_351\n      jump\t// in\n    tag_601:\n        /* \"#utility.yul\":24675:24712   */\n      swap2\n      pop\n        /* \"#utility.yul\":24745:24748   */\n      dup3\n        /* \"#utility.yul\":24742:24743   */\n      0x02\n        /* \"#utility.yul\":24738:24749   */\n      mul\n        /* \"#utility.yul\":24732:24736   */\n      dup3\n        /* \"#utility.yul\":24729:24750   */\n      or\n        /* \"#utility.yul\":24721:24750   */\n      swap1\n      pop\n        /* \"#utility.yul\":24461:24756   */\n      swap3\n      swap2\n      pop\n      pop\n      jump\t// out\n        /* \"#utility.yul\":24761:26156   */\n    tag_151:\n        /* \"#utility.yul\":24878:24915   */\n      tag_603\n        /* \"#utility.yul\":24911:24914   */\n      dup3\n        /* \"#utility.yul\":24878:24915   */\n      tag_294\n      jump\t// in\n    tag_603:\n        /* \"#utility.yul\":24980:24998   */\n      0xffffffffffffffff\n        /* \"#utility.yul\":24972:24978   */\n      dup2\n        /* \"#utility.yul\":24969:24999   */\n      gt\n        /* \"#utility.yul\":24966:25022   */\n      iszero\n      tag_604\n      jumpi\n        /* \"#utility.yul\":25002:25020   */\n      tag_605\n      tag_314\n      jump\t// in\n    tag_605:\n        /* \"#utility.yul\":24966:25022   */\n    tag_604:\n        /* \"#utility.yul\":25046:25084   */\n      tag_606\n        /* \"#utility.yul\":25078:25082   */\n      dup3\n        /* \"#utility.yul\":25072:25083   */\n      sload\n        /* \"#utility.yul\":25046:25084   */\n      tag_112\n      jump\t// in\n    tag_606:\n        /* \"#utility.yul\":25131:25198   */\n      tag_607\n        /* \"#utility.yul\":25191:25197   */\n      dup3\n        /* \"#utility.yul\":25183:25189   */\n      dup3\n        /* \"#utility.yul\":25177:25181   */\n      dup6\n        /* \"#utility.yul\":25131:25198   */\n      tag_349\n      jump\t// in\n    tag_607:\n        /* \"#utility.yul\":25225:25226   */\n      0x00\n        /* \"#utility.yul\":25249:25253   */\n      0x20\n        /* \"#utility.yul\":25236:25253   */\n      swap1\n      pop\n        /* \"#utility.yul\":25281:25283   */\n      0x1f\n        /* \"#utility.yul\":25273:25279   */\n      dup4\n        /* \"#utility.yul\":25270:25284   */\n      gt\n        /* \"#utility.yul\":25298:25299   */\n      0x01\n        /* \"#utility.yul\":25293:25911   */\n      dup2\n      eq\n      tag_609\n      jumpi\n        /* \"#utility.yul\":25955:25956   */\n      0x00\n        /* \"#utility.yul\":25972:25978   */\n      dup5\n        /* \"#utility.yul\":25969:26046   */\n      iszero\n      tag_610\n      jumpi\n        /* \"#utility.yul\":26021:26030   */\n      dup3\n        /* \"#utility.yul\":26016:26019   */\n      dup8\n        /* \"#utility.yul\":26012:26031   */\n      add\n        /* \"#utility.yul\":26006:26032   */\n      mload\n        /* \"#utility.yul\":25997:26032   */\n      swap1\n      pop\n        /* \"#utility.yul\":25969:26046   */\n    tag_610:\n        /* \"#utility.yul\":26072:26139   */\n      tag_611\n        /* \"#utility.yul\":26132:26138   */\n      dup6\n        /* \"#utility.yul\":26125:26130   */\n      dup3\n        /* \"#utility.yul\":26072:26139   */\n      tag_352\n      jump\t// in\n    tag_611:\n        /* \"#utility.yul\":26066:26070   */\n      dup7\n        /* \"#utility.yul\":26059:26140   */\n      sstore\n        /* \"#utility.yul\":25928:26150   */\n      pop\n        /* \"#utility.yul\":25263:26150   */\n      jump(tag_608)\n        /* \"#utility.yul\":25293:25911   */\n    tag_609:\n        /* \"#utility.yul\":25345:25349   */\n      0x1f\n        /* \"#utility.yul\":25341:25350   */\n      not\n        /* \"#utility.yul\":25333:25339   */\n      dup5\n        /* \"#utility.yul\":25329:25351   */\n      and\n        /* \"#utility.yul\":25379:25416   */\n      tag_612\n        /* \"#utility.yul\":25411:25415   */\n      dup7\n        /* \"#utility.yul\":25379:25416   */\n      tag_338\n      jump\t// in\n    tag_612:\n        /* \"#utility.yul\":25438:25439   */\n      0x00\n        /* \"#utility.yul\":25452:25660   */\n    tag_613:\n        /* \"#utility.yul\":25466:25473   */\n      dup3\n        /* \"#utility.yul\":25463:25464   */\n      dup2\n        /* \"#utility.yul\":25460:25474   */\n      lt\n        /* \"#utility.yul\":25452:25660   */\n      iszero\n      tag_615\n      jumpi\n        /* \"#utility.yul\":25545:25554   */\n      dup5\n        /* \"#utility.yul\":25540:25543   */\n      dup10\n        /* \"#utility.yul\":25536:25555   */\n      add\n        /* \"#utility.yul\":25530:25556   */\n      mload\n        /* \"#utility.yul\":25522:25528   */\n      dup3\n        /* \"#utility.yul\":25515:25557   */\n      sstore\n        /* \"#utility.yul\":25596:25597   */\n      0x01\n        /* \"#utility.yul\":25588:25594   */\n      dup3\n        /* \"#utility.yul\":25584:25598   */\n      add\n        /* \"#utility.yul\":25574:25598   */\n      swap2\n      pop\n        /* \"#utility.yul\":25643:25645   */\n      0x20\n        /* \"#utility.yul\":25632:25641   */\n      dup6\n        /* \"#utility.yul\":25628:25646   */\n      add\n        /* \"#utility.yul\":25615:25646   */\n      swap5\n      pop\n        /* \"#utility.yul\":25489:25493   */\n      0x20\n        /* \"#utility.yul\":25486:25487   */\n      dup2\n        /* \"#utility.yul\":25482:25494   */\n      add\n        /* \"#utility.yul\":25477:25494   */\n      swap1\n      pop\n        /* \"#utility.yul\":25452:25660   */\n      jump(tag_613)\n    tag_615:\n        /* \"#utility.yul\":25688:25694   */\n      dup7\n        /* \"#utility.yul\":25679:25686   */\n      dup4\n        /* \"#utility.yul\":25676:25695   */\n      lt\n        /* \"#utility.yul\":25673:25852   */\n      iszero\n      tag_616\n      jumpi\n        /* \"#utility.yul\":25746:25755   */\n      dup5\n        /* \"#utility.yul\":25741:25744   */\n      dup10\n        /* \"#utility.yul\":25737:25756   */\n      add\n        /* \"#utility.yul\":25731:25757   */\n      mload\n        /* \"#utility.yul\":25789:25837   */\n      tag_617\n        /* \"#utility.yul\":25831:25835   */\n      0x1f\n        /* \"#utility.yul\":25823:25829   */\n      dup10\n        /* \"#utility.yul\":25819:25836   */\n      and\n        /* \"#utility.yul\":25808:25817   */\n      dup3\n        /* \"#utility.yul\":25789:25837   */\n      tag_351\n      jump\t// in\n    tag_617:\n        /* \"#utility.yul\":25781:25787   */\n      dup4\n        /* \"#utility.yul\":25774:25838   */\n      sstore\n        /* \"#utility.yul\":25696:25852   */\n      pop\n        /* \"#utility.yul\":25673:25852   */\n    tag_616:\n        /* \"#utility.yul\":25898:25899   */\n      0x01\n        /* \"#utility.yul\":25894:25895   */\n      0x02\n        /* \"#utility.yul\":25886:25892   */\n      dup9\n        /* \"#utility.yul\":25882:25896   */\n      mul\n        /* \"#utility.yul\":25878:25900   */\n      add\n        /* \"#utility.yul\":25872:25876   */\n      dup9\n        /* \"#utility.yul\":25865:25901   */\n      sstore\n        /* \"#utility.yul\":25300:25911   */\n      pop\n      pop\n      pop\n        /* \"#utility.yul\":25263:26150   */\n    tag_608:\n      pop\n        /* \"#utility.yul\":24853:26156   */\n      pop\n      pop\n      pop\n        /* \"#utility.yul\":24761:26156   */\n      pop\n      pop\n      jump\t// out\n        /* \"#utility.yul\":26162:26322   */\n    tag_353:\n        /* \"#utility.yul\":26302:26314   */\n      0x41646d696e206f6e6c7900000000000000000000000000000000000000000000\n        /* \"#utility.yul\":26298:26299   */\n      0x00\n        /* \"#utility.yul\":26290:26296   */\n      dup3\n        /* \"#utility.yul\":26286:26300   */\n      add\n        /* \"#utility.yul\":26279:26315   */\n      mstore\n        /* \"#utility.yul\":26162:26322   */\n      pop\n      jump\t// out\n        /* \"#utility.yul\":26328:26694   */\n    tag_354:\n        /* \"#utility.yul\":26470:26473   */\n      0x00\n        /* \"#utility.yul\":26491:26558   */\n      tag_620\n        /* \"#utility.yul\":26555:26557   */\n      0x0a\n        /* \"#utility.yul\":26550:26553   */\n      dup4\n        /* \"#utility.yul\":26491:26558   */\n      tag_308\n      jump\t// in\n    tag_620:\n        /* \"#utility.yul\":26484:26558   */\n      swap2\n      pop\n        /* \"#utility.yul\":26567:26660   */\n      tag_621\n        /* \"#utility.yul\":26656:26659   */\n      dup3\n        /* \"#utility.yul\":26567:26660   */\n      tag_353\n      jump\t// in\n    tag_621:\n        /* \"#utility.yul\":26685:26687   */\n      0x20\n        /* \"#utility.yul\":26680:26683   */\n      dup3\n        /* \"#utility.yul\":26676:26688   */\n      add\n        /* \"#utility.yul\":26669:26688   */\n      swap1\n      pop\n        /* \"#utility.yul\":26328:26694   */\n      swap2\n      swap1\n      pop\n      jump\t// out\n        /* \"#utility.yul\":26700:27119   */\n    tag_190:\n        /* \"#utility.yul\":26866:26870   */\n      0x00\n        /* \"#utility.yul\":26904:26906   */\n      0x20\n        /* \"#utility.yul\":26893:26902   */\n      dup3\n        /* \"#utility.yul\":26889:26907   */\n      add\n        /* \"#utility.yul\":26881:26907   */\n      swap1\n      pop\n        /* \"#utility.yul\":26953:26962   */\n      dup2\n        /* \"#utility.yul\":26947:26951   */\n      dup2\n        /* \"#utility.yul\":26943:26963   */\n      sub\n        /* \"#utility.yul\":26939:26940   */\n      0x00\n        /* \"#utility.yul\":26928:26937   */\n      dup4\n        /* \"#utility.yul\":26924:26941   */\n      add\n        /* \"#utility.yul\":26917:26964   */\n      mstore\n        /* \"#utility.yul\":26981:27112   */\n      tag_623\n        /* \"#utility.yul\":27107:27111   */\n      dup2\n        /* \"#utility.yul\":26981:27112   */\n      tag_354\n      jump\t// in\n    tag_623:\n        /* \"#utility.yul\":26973:27112   */\n      swap1\n      pop\n        /* \"#utility.yul\":26700:27119   */\n      swap2\n      swap1\n      pop\n      jump\t// out\n        /* \"#utility.yul\":27125:27346   */\n    tag_355:\n        /* \"#utility.yul\":27265:27299   */\n      0x596f7520617265206e6f7420656c696769626c6520666f72207468697320726f\n        /* \"#utility.yul\":27261:27262   */\n      0x00\n        /* \"#utility.yul\":27253:27259   */\n      dup3\n        /* \"#utility.yul\":27249:27263   */\n      add\n        /* \"#utility.yul\":27242:27300   */\n      mstore\n        /* \"#utility.yul\":27334:27338   */\n      0x6c65000000000000000000000000000000000000000000000000000000000000\n        /* \"#utility.yul\":27329:27331   */\n      0x20\n        /* \"#utility.yul\":27321:27327   */\n      dup3\n        /* \"#utility.yul\":27317:27332   */\n      add\n        /* \"#utility.yul\":27310:27339   */\n      mstore\n        /* \"#utility.yul\":27125:27346   */\n      pop\n      jump\t// out\n        /* \"#utility.yul\":27352:27718   */\n    tag_356:\n        /* \"#utility.yul\":27494:27497   */\n      0x00\n        /* \"#utility.yul\":27515:27582   */\n      tag_626\n        /* \"#utility.yul\":27579:27581   */\n      0x22\n        /* \"#utility.yul\":27574:27577   */\n      dup4\n        /* \"#utility.yul\":27515:27582   */\n      tag_308\n      jump\t// in\n    tag_626:\n        /* \"#utility.yul\":27508:27582   */\n      swap2\n      pop\n        /* \"#utility.yul\":27591:27684   */\n      tag_627\n        /* \"#utility.yul\":27680:27683   */\n      dup3\n        /* \"#utility.yul\":27591:27684   */\n      tag_355\n      jump\t// in\n    tag_627:\n        /* \"#utility.yul\":27709:27711   */\n      0x40\n        /* \"#utility.yul\":27704:27707   */\n      dup3\n        /* \"#utility.yul\":27700:27712   */\n      add\n        /* \"#utility.yul\":27693:27712   */\n      swap1\n      pop\n        /* \"#utility.yul\":27352:27718   */\n      swap2\n      swap1\n      pop\n      jump\t// out\n        /* \"#utility.yul\":27724:28143   */\n    tag_194:\n        /* \"#utility.yul\":27890:27894   */\n      0x00\n        /* \"#utility.yul\":27928:27930   */\n      0x20\n        /* \"#utility.yul\":27917:27926   */\n      dup3\n        /* \"#utility.yul\":27913:27931   */\n      add\n        /* \"#utility.yul\":27905:27931   */\n      swap1\n      pop\n        /* \"#utility.yul\":27977:27986   */\n      dup2\n        /* \"#utility.yul\":27971:27975   */\n      dup2\n        /* \"#utility.yul\":27967:27987   */\n      sub\n        /* \"#utility.yul\":27963:27964   */\n      0x00\n        /* \"#utility.yul\":27952:27961   */\n      dup4\n        /* \"#utility.yul\":27948:27965   */\n      add\n        /* \"#utility.yul\":27941:27988   */\n      mstore\n        /* \"#utility.yul\":28005:28136   */\n      tag_629\n        /* \"#utility.yul\":28131:28135   */\n      dup2\n        /* \"#utility.yul\":28005:28136   */\n      tag_356\n      jump\t// in\n    tag_629:\n        /* \"#utility.yul\":27997:28136   */\n      swap1\n      pop\n        /* \"#utility.yul\":27724:28143   */\n      swap2\n      swap1\n      pop\n      jump\t// out\n        /* \"#utility.yul\":28149:28330   */\n    tag_357:\n        /* \"#utility.yul\":28289:28322   */\n      0x526f6c65733a206163636f756e7420616c72656164792068617320726f6c6500\n        /* \"#utility.yul\":28285:28286   */\n      0x00\n        /* \"#utility.yul\":28277:28283   */\n      dup3\n        /* \"#utility.yul\":28273:28287   */\n      add\n        /* \"#utility.yul\":28266:28323   */\n      mstore\n        /* \"#utility.yul\":28149:28330   */\n      pop\n      jump\t// out\n        /* \"#utility.yul\":28336:28702   */\n    tag_358:\n        /* \"#utility.yul\":28478:28481   */\n      0x00\n        /* \"#utility.yul\":28499:28566   */\n      tag_632\n        /* \"#utility.yul\":28563:28565   */\n      0x1f\n        /* \"#utility.yul\":28558:28561   */\n      dup4\n        /* \"#utility.yul\":28499:28566   */\n      tag_308\n      jump\t// in\n    tag_632:\n        /* \"#utility.yul\":28492:28566   */\n      swap2\n      pop\n        /* \"#utility.yul\":28575:28668   */\n      tag_633\n        /* \"#utility.yul\":28664:28667   */\n      dup3\n        /* \"#utility.yul\":28575:28668   */\n      tag_357\n      jump\t// in\n    tag_633:\n        /* \"#utility.yul\":28693:28695   */\n      0x20\n        /* \"#utility.yul\":28688:28691   */\n      dup3\n        /* \"#utility.yul\":28684:28696   */\n      add\n        /* \"#utility.yul\":28677:28696   */\n      swap1\n      pop\n        /* \"#utility.yul\":28336:28702   */\n      swap2\n      swap1\n      pop\n      jump\t// out\n        /* \"#utility.yul\":28708:29127   */\n    tag_270:\n        /* \"#utility.yul\":28874:28878   */\n      0x00\n        /* \"#utility.yul\":28912:28914   */\n      0x20\n        /* \"#utility.yul\":28901:28910   */\n      dup3\n        /* \"#utility.yul\":28897:28915   */\n      add\n        /* \"#utility.yul\":28889:28915   */\n      swap1\n      pop\n        /* \"#utility.yul\":28961:28970   */\n      dup2\n        /* \"#utility.yul\":28955:28959   */\n      dup2\n        /* \"#utility.yul\":28951:28971   */\n      sub\n        /* \"#utility.yul\":28947:28948   */\n      0x00\n        /* \"#utility.yul\":28936:28945   */\n      dup4\n        /* \"#utility.yul\":28932:28949   */\n      add\n        /* \"#utility.yul\":28925:28972   */\n      mstore\n        /* \"#utility.yul\":28989:29120   */\n      tag_635\n        /* \"#utility.yul\":29115:29119   */\n      dup2\n        /* \"#utility.yul\":28989:29120   */\n      tag_358\n      jump\t// in\n    tag_635:\n        /* \"#utility.yul\":28981:29120   */\n      swap1\n      pop\n        /* \"#utility.yul\":28708:29127   */\n      swap2\n      swap1\n      pop\n      jump\t// out\n\n    auxdata: 0xa2646970667358221220f8aa55ec0e6d7496fd389a414579c4f63d6c1716d4266eb86b0d349d8f46c5da64736f6c634300080f0033\n}\n","bytecode":{"linkReferences":{},"object":"60806040523480156200001157600080fd5b5033600a60006101000a81548173ffffffffffffffffffffffffffffffffffffffff021916908373ffffffffffffffffffffffffffffffffffffffff16021790555062000090600a60009054906101000a900473ffffffffffffffffffffffffffffffffffffffff1660006200009660201b62001bb41790919060201c565b62000225565b620000a882826200014960201b60201c565b15620000eb576040517f08c379a0000000000000000000000000000000000000000000000000000000008152600401620000e29062000203565b60405180910390fd5b60018260000160008373ffffffffffffffffffffffffffffffffffffffff1673ffffffffffffffffffffffffffffffffffffffff16815260200190815260200160002060006101000a81548160ff0219169083151502179055505050565b60008260000160008373ffffffffffffffffffffffffffffffffffffffff1673ffffffffffffffffffffffffffffffffffffffff16815260200190815260200160002060009054906101000a900460ff16905092915050565b600082825260208201905092915050565b7f526f6c65733a206163636f756e7420616c72656164792068617320726f6c6500600082015250565b6000620001eb601f83620001a2565b9150620001f882620001b3565b602082019050919050565b600060208201905081810360008301526200021e81620001dc565b9050919050565b612d7080620002356000396000f3fe608060405234801561001057600080fd5b50600436106101165760003560e01c806358214308116100a2578063a71aefc911610071578063a71aefc91461032d578063b105e22e1461034b578063b5368e201461037b578063babb1d41146103ae578063f851a440146103de57610116565b806358214308146102815780638f9c79ed146102b15780639429e171146102e1578063996440c6146102fd57610116565b80632f04e064116100e95780632f04e064146101ca57806334b3e4f1146101fd57806334b789981461021957806337b16b5014610235578063400d288f1461025157610116565b80630c3887221461011b578063127ca4b41461014b57806319da83a81461017b5780631f21a79d146101ae575b600080fd5b61013560048036038101906101309190611ec5565b6103fc565b6040516101429190612107565b60405180910390f35b61016560048036038101906101609190611ec5565b610654565b6040516101729190612138565b60405180910390f35b61019560048036038101906101909190611ec5565b610693565b6040516101a594939291906121ac565b60405180910390f35b6101c860048036038101906101c39190612359565b61079b565b005b6101e460048036038101906101df91906123b5565b610ba5565b6040516101f49493929190612451565b60405180910390f35b610217600480360381019061021291906124ab565b610da4565b005b610233600480360381019061022e919061254a565b6110ba565b005b61024f600480360381019061024a919061254a565b6112b3565b005b61026b600480360381019061026691906123b5565b6114ac565b60405161027891906125f0565b60405180910390f35b61029b600480360381019061029691906123b5565b611543565b6040516102a8919061260b565b60405180910390f35b6102cb60048036038101906102c691906123b5565b61162d565b6040516102d891906125f0565b60405180910390f35b6102fb60048036038101906102f69190612626565b61164a565b005b610317600480360381019061031291906123b5565b61171f565b60405161032491906125f0565b60405180910390f35b61033561173c565b6040516103429190612715565b60405180910390f35b610365600480360381019061036091906123b5565b6117ca565b6040516103729190612737565b60405180910390f35b610395600480360381019061039091906123b5565b611950565b6040516103a59493929190612451565b60405180910390f35b6103c860048036038101906103c39190611ec5565b611b4f565b6040516103d59190612138565b60405180910390f35b6103e6611b8e565b6040516103f39190612138565b60405180910390f35b610404611d0b565b60006007838154811061041a57610419612759565b5b90600052602060002090600502016040518060a0016040529081600082015481526020016001820160009054906101000a900473ffffffffffffffffffffffffffffffffffffffff1673ffffffffffffffffffffffffffffffffffffffff1673ffffffffffffffffffffffffffffffffffffffff1681526020016002820160009054906101000a900473ffffffffffffffffffffffffffffffffffffffff1673ffffffffffffffffffffffffffffffffffffffff1673ffffffffffffffffffffffffffffffffffffffff1681526020016003820180546104f9906127b7565b80601f0160208091040260200160405190810160405280929190818152602001828054610525906127b7565b80156105725780601f1061054757610100808354040283529160200191610572565b820191906000526020600020905b81548152906001019060200180831161055557829003601f168201915b50505050508152602001600482018054806020026020016040519081016040528092919081815260200182805480156105ca57602002820191906000526020600020905b8154815260200190600101908083116105b6575b50505050508152505090503373ffffffffffffffffffffffffffffffffffffffff16816040015173ffffffffffffffffffffffffffffffffffffffff16148061064257503373ffffffffffffffffffffffffffffffffffffffff16816020015173ffffffffffffffffffffffffffffffffffffffff16145b61064b57600080fd5b80915050919050565b6008818154811061066457600080fd5b906000526020600020016000915054906101000a900473ffffffffffffffffffffffffffffffffffffffff1681565b600781815481106106a357600080fd5b90600052602060002090600502016000915090508060000154908060010160009054906101000a900473ffffffffffffffffffffffffffffffffffffffff16908060020160009054906101000a900473ffffffffffffffffffffffffffffffffffffffff1690806003018054610718906127b7565b80601f0160208091040260200160405190810160405280929190818152602001828054610744906127b7565b80156107915780601f1061076657610100808354040283529160200191610791565b820191906000526020600020905b81548152906001019060200180831161077457829003601f168201915b5050505050905084565b6107af336001611c5c90919063ffffffff16565b6107ee576040517f08c379a00000000000000000000000000000000000000000000000000000000081526004016107e590612834565b60405180910390fd5b813373ffffffffffffffffffffffffffffffffffffffff16600560008373ffffffffffffffffffffffffffffffffffffffff1673ffffffffffffffffffffffffffffffffffffffff16815260200190815260200160002060009054906101000a900473ffffffffffffffffffffffffffffffffffffffff1673ffffffffffffffffffffffffffffffffffffffff16146108bc576040517f08c379a00000000000000000000000000000000000000000000000000000000081526004016108b3906128c6565b60405180910390fd5b6108d0336000611c5c90919063ffffffff16565b15610910576040517f08c379a000000000000000000000000000000000000000000000000000000000815260040161090790612932565b60405180910390fd5b610918611d0b565b60078054905081600001818152505033816020019073ffffffffffffffffffffffffffffffffffffffff16908173ffffffffffffffffffffffffffffffffffffffff168152505083816040019073ffffffffffffffffffffffffffffffffffffffff16908173ffffffffffffffffffffffffffffffffffffffff16815250508281606001819052506000600360003373ffffffffffffffffffffffffffffffffffffffff1673ffffffffffffffffffffffffffffffffffffffff16815260200190815260200160002090506000600460008773ffffffffffffffffffffffffffffffffffffffff1673ffffffffffffffffffffffffffffffffffffffff168152602001908152602001600020905081600201836000015190806001815401808255809150506001900390600052602060002001600090919091909150558160020180549050826003018190555080600201836000015190806001815401808255809150506001900390600052602060002001600090919091909150558060020180549050816003018190555060078390806001815401808255809150506001900390600052602060002090600502016000909190919091506000820151816000015560208201518160010160006101000a81548173ffffffffffffffffffffffffffffffffffffffff021916908373ffffffffffffffffffffffffffffffffffffffff16021790555060408201518160020160006101000a81548173ffffffffffffffffffffffffffffffffffffffff021916908373ffffffffffffffffffffffffffffffffffffffff1602179055506060820151816003019081610b7d9190612afe565b506080820151816004019080519060200190610b9a929190611d66565b505050505050505050565b606080600060606000600360008773ffffffffffffffffffffffffffffffffffffffff1673ffffffffffffffffffffffffffffffffffffffff168152602001908152602001600020604051806080016040529081600082018054610c08906127b7565b80601f0160208091040260200160405190810160405280929190818152602001828054610c34906127b7565b8015610c815780601f10610c5657610100808354040283529160200191610c81565b820191906000526020600020905b815481529060010190602001808311610c6457829003601f168201915b50505050508152602001600182018054610c9a906127b7565b80601f0160208091040260200160405190810160405280929190818152602001828054610cc6906127b7565b8015610d135780601f10610ce857610100808354040283529160200191610d13565b820191906000526020600020905b815481529060010190602001808311610cf657829003601f168201915b5050505050815260200160028201805480602002602001604051908101604052809291908181526020018280548015610d6b57602002820191906000526020600020905b815481526020019060010190808311610d57575b50505050508152602001600382015481525050905080600001518160200151826060015183604001519450945094509450509193509193565b610db8336001611c5c90919063ffffffff16565b610df7576040517f08c379a0000000000000000000000000000000000000000000000000000000008152600401610dee90612834565b60405180910390fd5b833373ffffffffffffffffffffffffffffffffffffffff16600560008373ffffffffffffffffffffffffffffffffffffffff1673ffffffffffffffffffffffffffffffffffffffff16815260200190815260200160002060009054906101000a900473ffffffffffffffffffffffffffffffffffffffff1673ffffffffffffffffffffffffffffffffffffffff1614610ec5576040517f08c379a0000000000000000000000000000000000000000000000000000000008152600401610ebc906128c6565b60405180910390fd5b610ed9336000611c5c90919063ffffffff16565b15610f19576040517f08c379a0000000000000000000000000000000000000000000000000000000008152600401610f1090612932565b60405180910390fd5b610f21611db3565b60068054905081600001818152505085816020019073ffffffffffffffffffffffffffffffffffffffff16908173ffffffffffffffffffffffffffffffffffffffff168152505033816040019073ffffffffffffffffffffffffffffffffffffffff16908173ffffffffffffffffffffffffffffffffffffffff168152505084816060018190525083816080018190525060068190806001815401808255809150506001900390600052602060002090600502016000909190919091506000820151816000015560208201518160010160006101000a81548173ffffffffffffffffffffffffffffffffffffffff021916908373ffffffffffffffffffffffffffffffffffffffff16021790555060408201518160020160006101000a81548173ffffffffffffffffffffffffffffffffffffffff021916908373ffffffffffffffffffffffffffffffffffffffff160217905550606082015181600301908161108b9190612afe565b5060808201518160040190816110a19190612afe565b5050506110b2838260000151611cb5565b505050505050565b6110ce336000611c5c90919063ffffffff16565b61110d576040517f08c379a000000000000000000000000000000000000000000000000000000000815260040161110490612c1c565b60405180910390fd5b3373ffffffffffffffffffffffffffffffffffffffff168373ffffffffffffffffffffffffffffffffffffffff160361117b576040517f08c379a000000000000000000000000000000000000000000000000000000000815260040161117290612cae565b60405180910390fd5b61118f836001611bb490919063ffffffff16565b611197611e0e565b82816000018190525081816020018190525060008160600181815250506008849080600181540180825580915050600190039060005260206000200160009091909190916101000a81548173ffffffffffffffffffffffffffffffffffffffff021916908373ffffffffffffffffffffffffffffffffffffffff16021790555080600360008673ffffffffffffffffffffffffffffffffffffffff1673ffffffffffffffffffffffffffffffffffffffff168152602001908152602001600020600082015181600001908161126c9190612afe565b5060208201518160010190816112829190612afe565b50604082015181600201908051906020019061129f929190611d66565b506060820151816003015590505050505050565b6112c7336000611c5c90919063ffffffff16565b611306576040517f08c379a00000000000000000000000000000000000000000000000000000000081526004016112fd90612c1c565b60405180910390fd5b3373ffffffffffffffffffffffffffffffffffffffff168373ffffffffffffffffffffffffffffffffffffffff1603611374576040517f08c379a000000000000000000000000000000000000000000000000000000000815260040161136b90612cae565b60405180910390fd5b611388836002611bb490919063ffffffff16565b611390611e36565b828160000181905250818160200181905250600081606001818152505080600460008673ffffffffffffffffffffffffffffffffffffffff1673ffffffffffffffffffffffffffffffffffffffff16815260200190815260200160002060008201518160000190816114029190612afe565b5060208201518160010190816114189190612afe565b506040820151816002019080519060200190611435929190611d66565b50606082015181600301559050506009849080600181540180825580915050600190039060005260206000200160009091909190916101000a81548173ffffffffffffffffffffffffffffffffffffffff021916908373ffffffffffffffffffffffffffffffffffffffff16021790555050505050565b60003373ffffffffffffffffffffffffffffffffffffffff16600560008473ffffffffffffffffffffffffffffffffffffffff1673ffffffffffffffffffffffffffffffffffffffff16815260200190815260200160002060009054906101000a900473ffffffffffffffffffffffffffffffffffffffff1673ffffffffffffffffffffffffffffffffffffffff16149050919050565b60008161155a816001611c5c90919063ffffffff16565b806115755750611574816002611c5c90919063ffffffff16565b5b61157e57600080fd5b611592336001611c5c90919063ffffffff16565b156115e157600360003373ffffffffffffffffffffffffffffffffffffffff1673ffffffffffffffffffffffffffffffffffffffff168152602001908152602001600020600301549150611627565b600460003373ffffffffffffffffffffffffffffffffffffffff1673ffffffffffffffffffffffffffffffffffffffff1681526020019081526020016000206003015491505b50919050565b6000611643826002611c5c90919063ffffffff16565b9050919050565b61165e336000611c5c90919063ffffffff16565b61169d576040517f08c379a000000000000000000000000000000000000000000000000000000000815260040161169490612c1c565b60405180910390fd5b80600560008473ffffffffffffffffffffffffffffffffffffffff1673ffffffffffffffffffffffffffffffffffffffff16815260200190815260200160002060006101000a81548173ffffffffffffffffffffffffffffffffffffffff021916908373ffffffffffffffffffffffffffffffffffffffff1602179055505050565b6000611735826001611c5c90919063ffffffff16565b9050919050565b606060088054806020026020016040519081016040528092919081815260200182805480156117c057602002820191906000526020600020905b8160009054906101000a900473ffffffffffffffffffffffffffffffffffffffff1673ffffffffffffffffffffffffffffffffffffffff1681526020019060010190808311611776575b5050505050905090565b6060816117e1816001611c5c90919063ffffffff16565b806117fc57506117fb816002611c5c90919063ffffffff16565b5b61180557600080fd5b611819336001611c5c90919063ffffffff16565b156118b657600360003373ffffffffffffffffffffffffffffffffffffffff1673ffffffffffffffffffffffffffffffffffffffff1681526020019081526020016000206002018054806020026020016040519081016040528092919081815260200182805480156118aa57602002820191906000526020600020905b815481526020019060010190808311611896575b5050505050915061194a565b600460003373ffffffffffffffffffffffffffffffffffffffff1673ffffffffffffffffffffffffffffffffffffffff16815260200190815260200160002060020180548060200260200160405190810160405280929190818152602001828054801561194257602002820191906000526020600020905b81548152602001906001019080831161192e575b505050505091505b50919050565b606080600060606000600460008773ffffffffffffffffffffffffffffffffffffffff1673ffffffffffffffffffffffffffffffffffffffff1681526020019081526020016000206040518060800160405290816000820180546119b3906127b7565b80601f01602080910402602001604051908101604052809291908181526020018280546119df906127b7565b8015611a2c5780601f10611a0157610100808354040283529160200191611a2c565b820191906000526020600020905b815481529060010190602001808311611a0f57829003601f168201915b50505050508152602001600182018054611a45906127b7565b80601f0160208091040260200160405190810160405280929190818152602001828054611a71906127b7565b8015611abe5780601f10611a9357610100808354040283529160200191611abe565b820191906000526020600020905b815481529060010190602001808311611aa157829003601f168201915b5050505050815260200160028201805480602002602001604051908101604052809291908181526020018280548015611b1657602002820191906000526020600020905b815481526020019060010190808311611b02575b50505050508152602001600382015481525050905080600001518160200151826060015183604001519450945094509450509193509193565b60098181548110611b5f57600080fd5b906000526020600020016000915054906101000a900473ffffffffffffffffffffffffffffffffffffffff1681565b600a60009054906101000a900473ffffffffffffffffffffffffffffffffffffffff1681565b611bbe8282611c5c565b15611bfe576040517f08c379a0000000000000000000000000000000000000000000000000000000008152600401611bf590612d1a565b60405180910390fd5b60018260000160008373ffffffffffffffffffffffffffffffffffffffff1673ffffffffffffffffffffffffffffffffffffffff16815260200190815260200160002060006101000a81548160ff0219169083151502179055505050565b60008260000160008373ffffffffffffffffffffffffffffffffffffffff1673ffffffffffffffffffffffffffffffffffffffff16815260200190815260200160002060009054906101000a900460ff16905092915050565b600060078381548110611ccb57611cca612759565b5b9060005260206000209060050201905080600401829080600181540180825580915050600190039060005260206000200160009091909190915055505050565b6040518060a0016040528060008152602001600073ffffffffffffffffffffffffffffffffffffffff168152602001600073ffffffffffffffffffffffffffffffffffffffff16815260200160608152602001606081525090565b828054828255906000526020600020908101928215611da2579160200282015b82811115611da1578251825591602001919060010190611d86565b5b509050611daf9190611e5e565b5090565b6040518060a0016040528060008152602001600073ffffffffffffffffffffffffffffffffffffffff168152602001600073ffffffffffffffffffffffffffffffffffffffff16815260200160608152602001606081525090565b6040518060800160405280606081526020016060815260200160608152602001600081525090565b6040518060800160405280606081526020016060815260200160608152602001600081525090565b5b80821115611e77576000816000905550600101611e5f565b5090565b6000604051905090565b600080fd5b600080fd5b6000819050919050565b611ea281611e8f565b8114611ead57600080fd5b50565b600081359050611ebf81611e99565b92915050565b600060208284031215611edb57611eda611e85565b5b6000611ee984828501611eb0565b91505092915050565b611efb81611e8f565b82525050565b600073ffffffffffffffffffffffffffffffffffffffff82169050919050565b6000611f2c82611f01565b9050919050565b611f3c81611f21565b82525050565b600081519050919050565b600082825260208201905092915050565b60005b83811015611f7c578082015181840152602081019050611f61565b83811115611f8b576000848401525b50505050565b6000601f19601f8301169050919050565b6000611fad82611f42565b611fb78185611f4d565b9350611fc7818560208601611f5e565b611fd081611f91565b840191505092915050565b600081519050919050565b600082825260208201905092915050565b6000819050602082019050919050565b60006120138383611ef2565b60208301905092915050565b6000602082019050919050565b600061203782611fdb565b6120418185611fe6565b935061204c83611ff7565b8060005b8381101561207d5781516120648882612007565b975061206f8361201f565b925050600181019050612050565b5085935050505092915050565b600060a0830160008301516120a26000860182611ef2565b5060208301516120b56020860182611f33565b5060408301516120c86040860182611f33565b50606083015184820360608601526120e08282611fa2565b915050608083015184820360808601526120fa828261202c565b9150508091505092915050565b60006020820190508181036000830152612121818461208a565b905092915050565b61213281611f21565b82525050565b600060208201905061214d6000830184612129565b92915050565b61215c81611e8f565b82525050565b600082825260208201905092915050565b600061217e82611f42565b6121888185612162565b9350612198818560208601611f5e565b6121a181611f91565b840191505092915050565b60006080820190506121c16000830187612153565b6121ce6020830186612129565b6121db6040830185612129565b81810360608301526121ed8184612173565b905095945050505050565b61220181611f21565b811461220c57600080fd5b50565b60008135905061221e816121f8565b92915050565b600080fd5b600080fd5b7f4e487b7100000000000000000000000000000000000000000000000000000000600052604160045260246000fd5b61226682611f91565b810181811067ffffffffffffffff821117156122855761228461222e565b5b80604052505050565b6000612298611e7b565b90506122a4828261225d565b919050565b600067ffffffffffffffff8211156122c4576122c361222e565b5b6122cd82611f91565b9050602081019050919050565b82818337600083830152505050565b60006122fc6122f7846122a9565b61228e565b90508281526020810184848401111561231857612317612229565b5b6123238482856122da565b509392505050565b600082601f8301126123405761233f612224565b5b81356123508482602086016122e9565b91505092915050565b600080604083850312156123705761236f611e85565b5b600061237e8582860161220f565b925050602083013567ffffffffffffffff81111561239f5761239e611e8a565b5b6123ab8582860161232b565b9150509250929050565b6000602082840312156123cb576123ca611e85565b5b60006123d98482850161220f565b91505092915050565b600082825260208201905092915050565b60006123fe82611fdb565b61240881856123e2565b935061241383611ff7565b8060005b8381101561244457815161242b8882612007565b97506124368361201f565b925050600181019050612417565b5085935050505092915050565b6000608082019050818103600083015261246b8187612173565b9050818103602083015261247f8186612173565b905061248e6040830185612153565b81810360608301526124a081846123f3565b905095945050505050565b600080600080608085870312156124c5576124c4611e85565b5b60006124d38782880161220f565b945050602085013567ffffffffffffffff8111156124f4576124f3611e8a565b5b6125008782880161232b565b935050604085013567ffffffffffffffff81111561252157612520611e8a565b5b61252d8782880161232b565b925050606061253e87828801611eb0565b91505092959194509250565b60008060006060848603121561256357612562611e85565b5b60006125718682870161220f565b935050602084013567ffffffffffffffff81111561259257612591611e8a565b5b61259e8682870161232b565b925050604084013567ffffffffffffffff8111156125bf576125be611e8a565b5b6125cb8682870161232b565b9150509250925092565b60008115159050919050565b6125ea816125d5565b82525050565b600060208201905061260560008301846125e1565b92915050565b60006020820190506126206000830184612153565b92915050565b6000806040838503121561263d5761263c611e85565b5b600061264b8582860161220f565b925050602061265c8582860161220f565b9150509250929050565b600081519050919050565b600082825260208201905092915050565b6000819050602082019050919050565b600061269e8383611f33565b60208301905092915050565b6000602082019050919050565b60006126c282612666565b6126cc8185612671565b93506126d783612682565b8060005b838110156127085781516126ef8882612692565b97506126fa836126aa565b9250506001810190506126db565b5085935050505092915050565b6000602082019050818103600083015261272f81846126b7565b905092915050565b6000602082019050818103600083015261275181846123f3565b905092915050565b7f4e487b7100000000000000000000000000000000000000000000000000000000600052603260045260246000fd5b7f4e487b7100000000000000000000000000000000000000000000000000000000600052602260045260246000fd5b600060028204905060018216806127cf57607f821691505b6020821081036127e2576127e1612788565b5b50919050565b7f446f63746f72206f6e6c79000000000000000000000000000000000000000000600082015250565b600061281e600b83612162565b9150612829826127e8565b602082019050919050565b6000602082019050818103600083015261284d81612811565b9050919050565b7f596f7520686176656e2774206265656e2061737369676e65642074686973207060008201527f617469656e740000000000000000000000000000000000000000000000000000602082015250565b60006128b0602683612162565b91506128bb82612854565b604082019050919050565b600060208201905081810360008301526128df816128a3565b9050919050565b7f4e6f7420666f722061646d696e00000000000000000000000000000000000000600082015250565b600061291c600d83612162565b9150612927826128e6565b602082019050919050565b6000602082019050818103600083015261294b8161290f565b9050919050565b60008190508160005260206000209050919050565b60006020601f8301049050919050565b600082821b905092915050565b6000600883026129b47fffffffffffffffffffffffffffffffffffffffffffffffffffffffffffffffff82612977565b6129be8683612977565b95508019841693508086168417925050509392505050565b6000819050919050565b60006129fb6129f66129f184611e8f565b6129d6565b611e8f565b9050919050565b6000819050919050565b612a15836129e0565b612a29612a2182612a02565b848454612984565b825550505050565b600090565b612a3e612a31565b612a49818484612a0c565b505050565b5b81811015612a6d57612a62600082612a36565b600181019050612a4f565b5050565b601f821115612ab257612a8381612952565b612a8c84612967565b81016020851015612a9b578190505b612aaf612aa785612967565b830182612a4e565b50505b505050565b600082821c905092915050565b6000612ad560001984600802612ab7565b1980831691505092915050565b6000612aee8383612ac4565b9150826002028217905092915050565b612b0782611f42565b67ffffffffffffffff811115612b2057612b1f61222e565b5b612b2a82546127b7565b612b35828285612a71565b600060209050601f831160018114612b685760008415612b56578287015190505b612b608582612ae2565b865550612bc8565b601f198416612b7686612952565b60005b82811015612b9e57848901518255600182019150602085019450602081019050612b79565b86831015612bbb5784890151612bb7601f891682612ac4565b8355505b6001600288020188555050505b505050505050565b7f41646d696e206f6e6c7900000000000000000000000000000000000000000000600082015250565b6000612c06600a83612162565b9150612c1182612bd0565b602082019050919050565b60006020820190508181036000830152612c3581612bf9565b9050919050565b7f596f7520617265206e6f7420656c696769626c6520666f72207468697320726f60008201527f6c65000000000000000000000000000000000000000000000000000000000000602082015250565b6000612c98602283612162565b9150612ca382612c3c565b604082019050919050565b60006020820190508181036000830152612cc781612c8b565b9050919050565b7f526f6c65733a206163636f756e7420616c72656164792068617320726f6c6500600082015250565b6000612d04601f83612162565b9150612d0f82612cce565b602082019050919050565b60006020820190508181036000830152612d3381612cf7565b905091905056fea2646970667358221220f8aa55ec0e6d7496fd389a414579c4f63d6c1716d4266eb86b0d349d8f46c5da64736f6c634300080f0033","opcodes":"PUSH1 0x80 PUSH1 0x40 MSTORE CALLVALUE DUP1 ISZERO PUSH3 0x11 JUMPI PUSH1 0x0 DUP1 REVERT JUMPDEST POP CALLER PUSH1 0xA PUSH1 0x0 PUSH2 0x100 EXP DUP2 SLOAD DUP2 PUSH20 0xFFFFFFFFFFFFFFFFFFFFFFFFFFFFFFFFFFFFFFFF MUL NOT AND SWAP1 DUP4 PUSH20 0xFFFFFFFFFFFFFFFFFFFFFFFFFFFFFFFFFFFFFFFF AND MUL OR SWAP1 SSTORE POP PUSH3 0x90 PUSH1 0xA PUSH1 0x0 SWAP1 SLOAD SWAP1 PUSH2 0x100 EXP SWAP1 DIV PUSH20 0xFFFFFFFFFFFFFFFFFFFFFFFFFFFFFFFFFFFFFFFF AND PUSH1 0x0 PUSH3 0x96 PUSH1 0x20 SHL PUSH3 0x1BB4 OR SWAP1 SWAP2 SWAP1 PUSH1 0x20 SHR JUMP JUMPDEST PUSH3 0x225 JUMP JUMPDEST PUSH3 0xA8 DUP3 DUP3 PUSH3 0x149 PUSH1 0x20 SHL PUSH1 0x20 SHR JUMP JUMPDEST ISZERO PUSH3 0xEB JUMPI PUSH1 0x40 MLOAD PUSH32 0x8C379A000000000000000000000000000000000000000000000000000000000 DUP2 MSTORE PUSH1 0x4 ADD PUSH3 0xE2 SWAP1 PUSH3 0x203 JUMP JUMPDEST PUSH1 0x40 MLOAD DUP1 SWAP2 SUB SWAP1 REVERT JUMPDEST PUSH1 0x1 DUP3 PUSH1 0x0 ADD PUSH1 0x0 DUP4 PUSH20 0xFFFFFFFFFFFFFFFFFFFFFFFFFFFFFFFFFFFFFFFF AND PUSH20 0xFFFFFFFFFFFFFFFFFFFFFFFFFFFFFFFFFFFFFFFF AND DUP2 MSTORE PUSH1 0x20 ADD SWAP1 DUP2 MSTORE PUSH1 0x20 ADD PUSH1 0x0 KECCAK256 PUSH1 0x0 PUSH2 0x100 EXP DUP2 SLOAD DUP2 PUSH1 0xFF MUL NOT AND SWAP1 DUP4 ISZERO ISZERO MUL OR SWAP1 SSTORE POP POP POP JUMP JUMPDEST PUSH1 0x0 DUP3 PUSH1 0x0 ADD PUSH1 0x0 DUP4 PUSH20 0xFFFFFFFFFFFFFFFFFFFFFFFFFFFFFFFFFFFFFFFF AND PUSH20 0xFFFFFFFFFFFFFFFFFFFFFFFFFFFFFFFFFFFFFFFF AND DUP2 MSTORE PUSH1 0x20 ADD SWAP1 DUP2 MSTORE PUSH1 0x20 ADD PUSH1 0x0 KECCAK256 PUSH1 0x0 SWAP1 SLOAD SWAP1 PUSH2 0x100 EXP SWAP1 DIV PUSH1 0xFF AND SWAP1 POP SWAP3 SWAP2 POP POP JUMP JUMPDEST PUSH1 0x0 DUP3 DUP3 MSTORE PUSH1 0x20 DUP3 ADD SWAP1 POP SWAP3 SWAP2 POP POP JUMP JUMPDEST PUSH32 0x526F6C65733A206163636F756E7420616C72656164792068617320726F6C6500 PUSH1 0x0 DUP3 ADD MSTORE POP JUMP JUMPDEST PUSH1 0x0 PUSH3 0x1EB PUSH1 0x1F DUP4 PUSH3 0x1A2 JUMP JUMPDEST SWAP2 POP PUSH3 0x1F8 DUP3 PUSH3 0x1B3 JUMP JUMPDEST PUSH1 0x20 DUP3 ADD SWAP1 POP SWAP2 SWAP1 POP JUMP JUMPDEST PUSH1 0x0 PUSH1 0x20 DUP3 ADD SWAP1 POP DUP2 DUP2 SUB PUSH1 0x0 DUP4 ADD MSTORE PUSH3 0x21E DUP2 PUSH3 0x1DC JUMP JUMPDEST SWAP1 POP SWAP2 SWAP1 POP JUMP JUMPDEST PUSH2 0x2D70 DUP1 PUSH3 0x235 PUSH1 0x0 CODECOPY PUSH1 0x0 RETURN INVALID PUSH1 0x80 PUSH1 0x40 MSTORE CALLVALUE DUP1 ISZERO PUSH2 0x10 JUMPI PUSH1 0x0 DUP1 REVERT JUMPDEST POP PUSH1 0x4 CALLDATASIZE LT PUSH2 0x116 JUMPI PUSH1 0x0 CALLDATALOAD PUSH1 0xE0 SHR DUP1 PUSH4 0x58214308 GT PUSH2 0xA2 JUMPI DUP1 PUSH4 0xA71AEFC9 GT PUSH2 0x71 JUMPI DUP1 PUSH4 0xA71AEFC9 EQ PUSH2 0x32D JUMPI DUP1 PUSH4 0xB105E22E EQ PUSH2 0x34B JUMPI DUP1 PUSH4 0xB5368E20 EQ PUSH2 0x37B JUMPI DUP1 PUSH4 0xBABB1D41 EQ PUSH2 0x3AE JUMPI DUP1 PUSH4 0xF851A440 EQ PUSH2 0x3DE JUMPI PUSH2 0x116 JUMP JUMPDEST DUP1 PUSH4 0x58214308 EQ PUSH2 0x281 JUMPI DUP1 PUSH4 0x8F9C79ED EQ PUSH2 0x2B1 JUMPI DUP1 PUSH4 0x9429E171 EQ PUSH2 0x2E1 JUMPI DUP1 PUSH4 0x996440C6 EQ PUSH2 0x2FD JUMPI PUSH2 0x116 JUMP JUMPDEST DUP1 PUSH4 0x2F04E064 GT PUSH2 0xE9 JUMPI DUP1 PUSH4 0x2F04E064 EQ PUSH2 0x1CA JUMPI DUP1 PUSH4 0x34B3E4F1 EQ PUSH2 0x1FD JUMPI DUP1 PUSH4 0x34B78998 EQ PUSH2 0x219 JUMPI DUP1 PUSH4 0x37B16B50 EQ PUSH2 0x235 JUMPI DUP1 PUSH4 0x400D288F EQ PUSH2 0x251 JUMPI PUSH2 0x116 JUMP JUMPDEST DUP1 PUSH4 0xC388722 EQ PUSH2 0x11B JUMPI DUP1 PUSH4 0x127CA4B4 EQ PUSH2 0x14B JUMPI DUP1 PUSH4 0x19DA83A8 EQ PUSH2 0x17B JUMPI DUP1 PUSH4 0x1F21A79D EQ PUSH2 0x1AE JUMPI JUMPDEST PUSH1 0x0 DUP1 REVERT JUMPDEST PUSH2 0x135 PUSH1 0x4 DUP1 CALLDATASIZE SUB DUP2 ADD SWAP1 PUSH2 0x130 SWAP2 SWAP1 PUSH2 0x1EC5 JUMP JUMPDEST PUSH2 0x3FC JUMP JUMPDEST PUSH1 0x40 MLOAD PUSH2 0x142 SWAP2 SWAP1 PUSH2 0x2107 JUMP JUMPDEST PUSH1 0x40 MLOAD DUP1 SWAP2 SUB SWAP1 RETURN JUMPDEST PUSH2 0x165 PUSH1 0x4 DUP1 CALLDATASIZE SUB DUP2 ADD SWAP1 PUSH2 0x160 SWAP2 SWAP1 PUSH2 0x1EC5 JUMP JUMPDEST PUSH2 0x654 JUMP JUMPDEST PUSH1 0x40 MLOAD PUSH2 0x172 SWAP2 SWAP1 PUSH2 0x2138 JUMP JUMPDEST PUSH1 0x40 MLOAD DUP1 SWAP2 SUB SWAP1 RETURN JUMPDEST PUSH2 0x195 PUSH1 0x4 DUP1 CALLDATASIZE SUB DUP2 ADD SWAP1 PUSH2 0x190 SWAP2 SWAP1 PUSH2 0x1EC5 JUMP JUMPDEST PUSH2 0x693 JUMP JUMPDEST PUSH1 0x40 MLOAD PUSH2 0x1A5 SWAP5 SWAP4 SWAP3 SWAP2 SWAP1 PUSH2 0x21AC JUMP JUMPDEST PUSH1 0x40 MLOAD DUP1 SWAP2 SUB SWAP1 RETURN JUMPDEST PUSH2 0x1C8 PUSH1 0x4 DUP1 CALLDATASIZE SUB DUP2 ADD SWAP1 PUSH2 0x1C3 SWAP2 SWAP1 PUSH2 0x2359 JUMP JUMPDEST PUSH2 0x79B JUMP JUMPDEST STOP JUMPDEST PUSH2 0x1E4 PUSH1 0x4 DUP1 CALLDATASIZE SUB DUP2 ADD SWAP1 PUSH2 0x1DF SWAP2 SWAP1 PUSH2 0x23B5 JUMP JUMPDEST PUSH2 0xBA5 JUMP JUMPDEST PUSH1 0x40 MLOAD PUSH2 0x1F4 SWAP5 SWAP4 SWAP3 SWAP2 SWAP1 PUSH2 0x2451 JUMP JUMPDEST PUSH1 0x40 MLOAD DUP1 SWAP2 SUB SWAP1 RETURN JUMPDEST PUSH2 0x217 PUSH1 0x4 DUP1 CALLDATASIZE SUB DUP2 ADD SWAP1 PUSH2 0x212 SWAP2 SWAP1 PUSH2 0x24AB JUMP JUMPDEST PUSH2 0xDA4 JUMP JUMPDEST STOP JUMPDEST PUSH2 0x233 PUSH1 0x4 DUP1 CALLDATASIZE SUB DUP2 ADD SWAP1 PUSH2 0x22E SWAP2 SWAP1 PUSH2 0x254A JUMP JUMPDEST PUSH2 0x10BA JUMP JUMPDEST STOP JUMPDEST PUSH2 0x24F PUSH1 0x4 DUP1 CALLDATASIZE SUB DUP2 ADD SWAP1 PUSH2 0x24A SWAP2 SWAP1 PUSH2 0x254A JUMP JUMPDEST PUSH2 0x12B3 JUMP JUMPDEST STOP JUMPDEST PUSH2 0x26B PUSH1 0x4 DUP1 CALLDATASIZE SUB DUP2 ADD SWAP1 PUSH2 0x266 SWAP2 SWAP1 PUSH2 0x23B5 JUMP JUMPDEST PUSH2 0x14AC JUMP JUMPDEST PUSH1 0x40 MLOAD PUSH2 0x278 SWAP2 SWAP1 PUSH2 0x25F0 JUMP JUMPDEST PUSH1 0x40 MLOAD DUP1 SWAP2 SUB SWAP1 RETURN JUMPDEST PUSH2 0x29B PUSH1 0x4 DUP1 CALLDATASIZE SUB DUP2 ADD SWAP1 PUSH2 0x296 SWAP2 SWAP1 PUSH2 0x23B5 JUMP JUMPDEST PUSH2 0x1543 JUMP JUMPDEST PUSH1 0x40 MLOAD PUSH2 0x2A8 SWAP2 SWAP1 PUSH2 0x260B JUMP JUMPDEST PUSH1 0x40 MLOAD DUP1 SWAP2 SUB SWAP1 RETURN JUMPDEST PUSH2 0x2CB PUSH1 0x4 DUP1 CALLDATASIZE SUB DUP2 ADD SWAP1 PUSH2 0x2C6 SWAP2 SWAP1 PUSH2 0x23B5 JUMP JUMPDEST PUSH2 0x162D JUMP JUMPDEST PUSH1 0x40 MLOAD PUSH2 0x2D8 SWAP2 SWAP1 PUSH2 0x25F0 JUMP JUMPDEST PUSH1 0x40 MLOAD DUP1 SWAP2 SUB SWAP1 RETURN JUMPDEST PUSH2 0x2FB PUSH1 0x4 DUP1 CALLDATASIZE SUB DUP2 ADD SWAP1 PUSH2 0x2F6 SWAP2 SWAP1 PUSH2 0x2626 JUMP JUMPDEST PUSH2 0x164A JUMP JUMPDEST STOP JUMPDEST PUSH2 0x317 PUSH1 0x4 DUP1 CALLDATASIZE SUB DUP2 ADD SWAP1 PUSH2 0x312 SWAP2 SWAP1 PUSH2 0x23B5 JUMP JUMPDEST PUSH2 0x171F JUMP JUMPDEST PUSH1 0x40 MLOAD PUSH2 0x324 SWAP2 SWAP1 PUSH2 0x25F0 JUMP JUMPDEST PUSH1 0x40 MLOAD DUP1 SWAP2 SUB SWAP1 RETURN JUMPDEST PUSH2 0x335 PUSH2 0x173C JUMP JUMPDEST PUSH1 0x40 MLOAD PUSH2 0x342 SWAP2 SWAP1 PUSH2 0x2715 JUMP JUMPDEST PUSH1 0x40 MLOAD DUP1 SWAP2 SUB SWAP1 RETURN JUMPDEST PUSH2 0x365 PUSH1 0x4 DUP1 CALLDATASIZE SUB DUP2 ADD SWAP1 PUSH2 0x360 SWAP2 SWAP1 PUSH2 0x23B5 JUMP JUMPDEST PUSH2 0x17CA JUMP JUMPDEST PUSH1 0x40 MLOAD PUSH2 0x372 SWAP2 SWAP1 PUSH2 0x2737 JUMP JUMPDEST PUSH1 0x40 MLOAD DUP1 SWAP2 SUB SWAP1 RETURN JUMPDEST PUSH2 0x395 PUSH1 0x4 DUP1 CALLDATASIZE SUB DUP2 ADD SWAP1 PUSH2 0x390 SWAP2 SWAP1 PUSH2 0x23B5 JUMP JUMPDEST PUSH2 0x1950 JUMP JUMPDEST PUSH1 0x40 MLOAD PUSH2 0x3A5 SWAP5 SWAP4 SWAP3 SWAP2 SWAP1 PUSH2 0x2451 JUMP JUMPDEST PUSH1 0x40 MLOAD DUP1 SWAP2 SUB SWAP1 RETURN JUMPDEST PUSH2 0x3C8 PUSH1 0x4 DUP1 CALLDATASIZE SUB DUP2 ADD SWAP1 PUSH2 0x3C3 SWAP2 SWAP1 PUSH2 0x1EC5 JUMP JUMPDEST PUSH2 0x1B4F JUMP JUMPDEST PUSH1 0x40 MLOAD PUSH2 0x3D5 SWAP2 SWAP1 PUSH2 0x2138 JUMP JUMPDEST PUSH1 0x40 MLOAD DUP1 SWAP2 SUB SWAP1 RETURN JUMPDEST PUSH2 0x3E6 PUSH2 0x1B8E JUMP JUMPDEST PUSH1 0x40 MLOAD PUSH2 0x3F3 SWAP2 SWAP1 PUSH2 0x2138 JUMP JUMPDEST PUSH1 0x40 MLOAD DUP1 SWAP2 SUB SWAP1 RETURN JUMPDEST PUSH2 0x404 PUSH2 0x1D0B JUMP JUMPDEST PUSH1 0x0 PUSH1 0x7 DUP4 DUP2 SLOAD DUP2 LT PUSH2 0x41A JUMPI PUSH2 0x419 PUSH2 0x2759 JUMP JUMPDEST JUMPDEST SWAP1 PUSH1 0x0 MSTORE PUSH1 0x20 PUSH1 0x0 KECCAK256 SWAP1 PUSH1 0x5 MUL ADD PUSH1 0x40 MLOAD DUP1 PUSH1 0xA0 ADD PUSH1 0x40 MSTORE SWAP1 DUP2 PUSH1 0x0 DUP3 ADD SLOAD DUP2 MSTORE PUSH1 0x20 ADD PUSH1 0x1 DUP3 ADD PUSH1 0x0 SWAP1 SLOAD SWAP1 PUSH2 0x100 EXP SWAP1 DIV PUSH20 0xFFFFFFFFFFFFFFFFFFFFFFFFFFFFFFFFFFFFFFFF AND PUSH20 0xFFFFFFFFFFFFFFFFFFFFFFFFFFFFFFFFFFFFFFFF AND PUSH20 0xFFFFFFFFFFFFFFFFFFFFFFFFFFFFFFFFFFFFFFFF AND DUP2 MSTORE PUSH1 0x20 ADD PUSH1 0x2 DUP3 ADD PUSH1 0x0 SWAP1 SLOAD SWAP1 PUSH2 0x100 EXP SWAP1 DIV PUSH20 0xFFFFFFFFFFFFFFFFFFFFFFFFFFFFFFFFFFFFFFFF AND PUSH20 0xFFFFFFFFFFFFFFFFFFFFFFFFFFFFFFFFFFFFFFFF AND PUSH20 0xFFFFFFFFFFFFFFFFFFFFFFFFFFFFFFFFFFFFFFFF AND DUP2 MSTORE PUSH1 0x20 ADD PUSH1 0x3 DUP3 ADD DUP1 SLOAD PUSH2 0x4F9 SWAP1 PUSH2 0x27B7 JUMP JUMPDEST DUP1 PUSH1 0x1F ADD PUSH1 0x20 DUP1 SWAP2 DIV MUL PUSH1 0x20 ADD PUSH1 0x40 MLOAD SWAP1 DUP2 ADD PUSH1 0x40 MSTORE DUP1 SWAP3 SWAP2 SWAP1 DUP2 DUP2 MSTORE PUSH1 0x20 ADD DUP3 DUP1 SLOAD PUSH2 0x525 SWAP1 PUSH2 0x27B7 JUMP JUMPDEST DUP1 ISZERO PUSH2 0x572 JUMPI DUP1 PUSH1 0x1F LT PUSH2 0x547 JUMPI PUSH2 0x100 DUP1 DUP4 SLOAD DIV MUL DUP4 MSTORE SWAP2 PUSH1 0x20 ADD SWAP2 PUSH2 0x572 JUMP JUMPDEST DUP3 ADD SWAP2 SWAP1 PUSH1 0x0 MSTORE PUSH1 0x20 PUSH1 0x0 KECCAK256 SWAP1 JUMPDEST DUP2 SLOAD DUP2 MSTORE SWAP1 PUSH1 0x1 ADD SWAP1 PUSH1 0x20 ADD DUP1 DUP4 GT PUSH2 0x555 JUMPI DUP3 SWAP1 SUB PUSH1 0x1F AND DUP3 ADD SWAP2 JUMPDEST POP POP POP POP POP DUP2 MSTORE PUSH1 0x20 ADD PUSH1 0x4 DUP3 ADD DUP1 SLOAD DUP1 PUSH1 0x20 MUL PUSH1 0x20 ADD PUSH1 0x40 MLOAD SWAP1 DUP2 ADD PUSH1 0x40 MSTORE DUP1 SWAP3 SWAP2 SWAP1 DUP2 DUP2 MSTORE PUSH1 0x20 ADD DUP3 DUP1 SLOAD DUP1 ISZERO PUSH2 0x5CA JUMPI PUSH1 0x20 MUL DUP3 ADD SWAP2 SWAP1 PUSH1 0x0 MSTORE PUSH1 0x20 PUSH1 0x0 KECCAK256 SWAP1 JUMPDEST DUP2 SLOAD DUP2 MSTORE PUSH1 0x20 ADD SWAP1 PUSH1 0x1 ADD SWAP1 DUP1 DUP4 GT PUSH2 0x5B6 JUMPI JUMPDEST POP POP POP POP POP DUP2 MSTORE POP POP SWAP1 POP CALLER PUSH20 0xFFFFFFFFFFFFFFFFFFFFFFFFFFFFFFFFFFFFFFFF AND DUP2 PUSH1 0x40 ADD MLOAD PUSH20 0xFFFFFFFFFFFFFFFFFFFFFFFFFFFFFFFFFFFFFFFF AND EQ DUP1 PUSH2 0x642 JUMPI POP CALLER PUSH20 0xFFFFFFFFFFFFFFFFFFFFFFFFFFFFFFFFFFFFFFFF AND DUP2 PUSH1 0x20 ADD MLOAD PUSH20 0xFFFFFFFFFFFFFFFFFFFFFFFFFFFFFFFFFFFFFFFF AND EQ JUMPDEST PUSH2 0x64B JUMPI PUSH1 0x0 DUP1 REVERT JUMPDEST DUP1 SWAP2 POP POP SWAP2 SWAP1 POP JUMP JUMPDEST PUSH1 0x8 DUP2 DUP2 SLOAD DUP2 LT PUSH2 0x664 JUMPI PUSH1 0x0 DUP1 REVERT JUMPDEST SWAP1 PUSH1 0x0 MSTORE PUSH1 0x20 PUSH1 0x0 KECCAK256 ADD PUSH1 0x0 SWAP2 POP SLOAD SWAP1 PUSH2 0x100 EXP SWAP1 DIV PUSH20 0xFFFFFFFFFFFFFFFFFFFFFFFFFFFFFFFFFFFFFFFF AND DUP2 JUMP JUMPDEST PUSH1 0x7 DUP2 DUP2 SLOAD DUP2 LT PUSH2 0x6A3 JUMPI PUSH1 0x0 DUP1 REVERT JUMPDEST SWAP1 PUSH1 0x0 MSTORE PUSH1 0x20 PUSH1 0x0 KECCAK256 SWAP1 PUSH1 0x5 MUL ADD PUSH1 0x0 SWAP2 POP SWAP1 POP DUP1 PUSH1 0x0 ADD SLOAD SWAP1 DUP1 PUSH1 0x1 ADD PUSH1 0x0 SWAP1 SLOAD SWAP1 PUSH2 0x100 EXP SWAP1 DIV PUSH20 0xFFFFFFFFFFFFFFFFFFFFFFFFFFFFFFFFFFFFFFFF AND SWAP1 DUP1 PUSH1 0x2 ADD PUSH1 0x0 SWAP1 SLOAD SWAP1 PUSH2 0x100 EXP SWAP1 DIV PUSH20 0xFFFFFFFFFFFFFFFFFFFFFFFFFFFFFFFFFFFFFFFF AND SWAP1 DUP1 PUSH1 0x3 ADD DUP1 SLOAD PUSH2 0x718 SWAP1 PUSH2 0x27B7 JUMP JUMPDEST DUP1 PUSH1 0x1F ADD PUSH1 0x20 DUP1 SWAP2 DIV MUL PUSH1 0x20 ADD PUSH1 0x40 MLOAD SWAP1 DUP2 ADD PUSH1 0x40 MSTORE DUP1 SWAP3 SWAP2 SWAP1 DUP2 DUP2 MSTORE PUSH1 0x20 ADD DUP3 DUP1 SLOAD PUSH2 0x744 SWAP1 PUSH2 0x27B7 JUMP JUMPDEST DUP1 ISZERO PUSH2 0x791 JUMPI DUP1 PUSH1 0x1F LT PUSH2 0x766 JUMPI PUSH2 0x100 DUP1 DUP4 SLOAD DIV MUL DUP4 MSTORE SWAP2 PUSH1 0x20 ADD SWAP2 PUSH2 0x791 JUMP JUMPDEST DUP3 ADD SWAP2 SWAP1 PUSH1 0x0 MSTORE PUSH1 0x20 PUSH1 0x0 KECCAK256 SWAP1 JUMPDEST DUP2 SLOAD DUP2 MSTORE SWAP1 PUSH1 0x1 ADD SWAP1 PUSH1 0x20 ADD DUP1 DUP4 GT PUSH2 0x774 JUMPI DUP3 SWAP1 SUB PUSH1 0x1F AND DUP3 ADD SWAP2 JUMPDEST POP POP POP POP POP SWAP1 POP DUP5 JUMP JUMPDEST PUSH2 0x7AF CALLER PUSH1 0x1 PUSH2 0x1C5C SWAP1 SWAP2 SWAP1 PUSH4 0xFFFFFFFF AND JUMP JUMPDEST PUSH2 0x7EE JUMPI PUSH1 0x40 MLOAD PUSH32 0x8C379A000000000000000000000000000000000000000000000000000000000 DUP2 MSTORE PUSH1 0x4 ADD PUSH2 0x7E5 SWAP1 PUSH2 0x2834 JUMP JUMPDEST PUSH1 0x40 MLOAD DUP1 SWAP2 SUB SWAP1 REVERT JUMPDEST DUP2 CALLER PUSH20 0xFFFFFFFFFFFFFFFFFFFFFFFFFFFFFFFFFFFFFFFF AND PUSH1 0x5 PUSH1 0x0 DUP4 PUSH20 0xFFFFFFFFFFFFFFFFFFFFFFFFFFFFFFFFFFFFFFFF AND PUSH20 0xFFFFFFFFFFFFFFFFFFFFFFFFFFFFFFFFFFFFFFFF AND DUP2 MSTORE PUSH1 0x20 ADD SWAP1 DUP2 MSTORE PUSH1 0x20 ADD PUSH1 0x0 KECCAK256 PUSH1 0x0 SWAP1 SLOAD SWAP1 PUSH2 0x100 EXP SWAP1 DIV PUSH20 0xFFFFFFFFFFFFFFFFFFFFFFFFFFFFFFFFFFFFFFFF AND PUSH20 0xFFFFFFFFFFFFFFFFFFFFFFFFFFFFFFFFFFFFFFFF AND EQ PUSH2 0x8BC JUMPI PUSH1 0x40 MLOAD PUSH32 0x8C379A000000000000000000000000000000000000000000000000000000000 DUP2 MSTORE PUSH1 0x4 ADD PUSH2 0x8B3 SWAP1 PUSH2 0x28C6 JUMP JUMPDEST PUSH1 0x40 MLOAD DUP1 SWAP2 SUB SWAP1 REVERT JUMPDEST PUSH2 0x8D0 CALLER PUSH1 0x0 PUSH2 0x1C5C SWAP1 SWAP2 SWAP1 PUSH4 0xFFFFFFFF AND JUMP JUMPDEST ISZERO PUSH2 0x910 JUMPI PUSH1 0x40 MLOAD PUSH32 0x8C379A000000000000000000000000000000000000000000000000000000000 DUP2 MSTORE PUSH1 0x4 ADD PUSH2 0x907 SWAP1 PUSH2 0x2932 JUMP JUMPDEST PUSH1 0x40 MLOAD DUP1 SWAP2 SUB SWAP1 REVERT JUMPDEST PUSH2 0x918 PUSH2 0x1D0B JUMP JUMPDEST PUSH1 0x7 DUP1 SLOAD SWAP1 POP DUP2 PUSH1 0x0 ADD DUP2 DUP2 MSTORE POP POP CALLER DUP2 PUSH1 0x20 ADD SWAP1 PUSH20 0xFFFFFFFFFFFFFFFFFFFFFFFFFFFFFFFFFFFFFFFF AND SWAP1 DUP2 PUSH20 0xFFFFFFFFFFFFFFFFFFFFFFFFFFFFFFFFFFFFFFFF AND DUP2 MSTORE POP POP DUP4 DUP2 PUSH1 0x40 ADD SWAP1 PUSH20 0xFFFFFFFFFFFFFFFFFFFFFFFFFFFFFFFFFFFFFFFF AND SWAP1 DUP2 PUSH20 0xFFFFFFFFFFFFFFFFFFFFFFFFFFFFFFFFFFFFFFFF AND DUP2 MSTORE POP POP DUP3 DUP2 PUSH1 0x60 ADD DUP2 SWAP1 MSTORE POP PUSH1 0x0 PUSH1 0x3 PUSH1 0x0 CALLER PUSH20 0xFFFFFFFFFFFFFFFFFFFFFFFFFFFFFFFFFFFFFFFF AND PUSH20 0xFFFFFFFFFFFFFFFFFFFFFFFFFFFFFFFFFFFFFFFF AND DUP2 MSTORE PUSH1 0x20 ADD SWAP1 DUP2 MSTORE PUSH1 0x20 ADD PUSH1 0x0 KECCAK256 SWAP1 POP PUSH1 0x0 PUSH1 0x4 PUSH1 0x0 DUP8 PUSH20 0xFFFFFFFFFFFFFFFFFFFFFFFFFFFFFFFFFFFFFFFF AND PUSH20 0xFFFFFFFFFFFFFFFFFFFFFFFFFFFFFFFFFFFFFFFF AND DUP2 MSTORE PUSH1 0x20 ADD SWAP1 DUP2 MSTORE PUSH1 0x20 ADD PUSH1 0x0 KECCAK256 SWAP1 POP DUP2 PUSH1 0x2 ADD DUP4 PUSH1 0x0 ADD MLOAD SWAP1 DUP1 PUSH1 0x1 DUP2 SLOAD ADD DUP1 DUP3 SSTORE DUP1 SWAP2 POP POP PUSH1 0x1 SWAP1 SUB SWAP1 PUSH1 0x0 MSTORE PUSH1 0x20 PUSH1 0x0 KECCAK256 ADD PUSH1 0x0 SWAP1 SWAP2 SWAP1 SWAP2 SWAP1 SWAP2 POP SSTORE DUP2 PUSH1 0x2 ADD DUP1 SLOAD SWAP1 POP DUP3 PUSH1 0x3 ADD DUP2 SWAP1 SSTORE POP DUP1 PUSH1 0x2 ADD DUP4 PUSH1 0x0 ADD MLOAD SWAP1 DUP1 PUSH1 0x1 DUP2 SLOAD ADD DUP1 DUP3 SSTORE DUP1 SWAP2 POP POP PUSH1 0x1 SWAP1 SUB SWAP1 PUSH1 0x0 MSTORE PUSH1 0x20 PUSH1 0x0 KECCAK256 ADD PUSH1 0x0 SWAP1 SWAP2 SWAP1 SWAP2 SWAP1 SWAP2 POP SSTORE DUP1 PUSH1 0x2 ADD DUP1 SLOAD SWAP1 POP DUP2 PUSH1 0x3 ADD DUP2 SWAP1 SSTORE POP PUSH1 0x7 DUP4 SWAP1 DUP1 PUSH1 0x1 DUP2 SLOAD ADD DUP1 DUP3 SSTORE DUP1 SWAP2 POP POP PUSH1 0x1 SWAP1 SUB SWAP1 PUSH1 0x0 MSTORE PUSH1 0x20 PUSH1 0x0 KECCAK256 SWAP1 PUSH1 0x5 MUL ADD PUSH1 0x0 SWAP1 SWAP2 SWAP1 SWAP2 SWAP1 SWAP2 POP PUSH1 0x0 DUP3 ADD MLOAD DUP2 PUSH1 0x0 ADD SSTORE PUSH1 0x20 DUP3 ADD MLOAD DUP2 PUSH1 0x1 ADD PUSH1 0x0 PUSH2 0x100 EXP DUP2 SLOAD DUP2 PUSH20 0xFFFFFFFFFFFFFFFFFFFFFFFFFFFFFFFFFFFFFFFF MUL NOT AND SWAP1 DUP4 PUSH20 0xFFFFFFFFFFFFFFFFFFFFFFFFFFFFFFFFFFFFFFFF AND MUL OR SWAP1 SSTORE POP PUSH1 0x40 DUP3 ADD MLOAD DUP2 PUSH1 0x2 ADD PUSH1 0x0 PUSH2 0x100 EXP DUP2 SLOAD DUP2 PUSH20 0xFFFFFFFFFFFFFFFFFFFFFFFFFFFFFFFFFFFFFFFF MUL NOT AND SWAP1 DUP4 PUSH20 0xFFFFFFFFFFFFFFFFFFFFFFFFFFFFFFFFFFFFFFFF AND MUL OR SWAP1 SSTORE POP PUSH1 0x60 DUP3 ADD MLOAD DUP2 PUSH1 0x3 ADD SWAP1 DUP2 PUSH2 0xB7D SWAP2 SWAP1 PUSH2 0x2AFE JUMP JUMPDEST POP PUSH1 0x80 DUP3 ADD MLOAD DUP2 PUSH1 0x4 ADD SWAP1 DUP1 MLOAD SWAP1 PUSH1 0x20 ADD SWAP1 PUSH2 0xB9A SWAP3 SWAP2 SWAP1 PUSH2 0x1D66 JUMP JUMPDEST POP POP POP POP POP POP POP POP POP JUMP JUMPDEST PUSH1 0x60 DUP1 PUSH1 0x0 PUSH1 0x60 PUSH1 0x0 PUSH1 0x3 PUSH1 0x0 DUP8 PUSH20 0xFFFFFFFFFFFFFFFFFFFFFFFFFFFFFFFFFFFFFFFF AND PUSH20 0xFFFFFFFFFFFFFFFFFFFFFFFFFFFFFFFFFFFFFFFF AND DUP2 MSTORE PUSH1 0x20 ADD SWAP1 DUP2 MSTORE PUSH1 0x20 ADD PUSH1 0x0 KECCAK256 PUSH1 0x40 MLOAD DUP1 PUSH1 0x80 ADD PUSH1 0x40 MSTORE SWAP1 DUP2 PUSH1 0x0 DUP3 ADD DUP1 SLOAD PUSH2 0xC08 SWAP1 PUSH2 0x27B7 JUMP JUMPDEST DUP1 PUSH1 0x1F ADD PUSH1 0x20 DUP1 SWAP2 DIV MUL PUSH1 0x20 ADD PUSH1 0x40 MLOAD SWAP1 DUP2 ADD PUSH1 0x40 MSTORE DUP1 SWAP3 SWAP2 SWAP1 DUP2 DUP2 MSTORE PUSH1 0x20 ADD DUP3 DUP1 SLOAD PUSH2 0xC34 SWAP1 PUSH2 0x27B7 JUMP JUMPDEST DUP1 ISZERO PUSH2 0xC81 JUMPI DUP1 PUSH1 0x1F LT PUSH2 0xC56 JUMPI PUSH2 0x100 DUP1 DUP4 SLOAD DIV MUL DUP4 MSTORE SWAP2 PUSH1 0x20 ADD SWAP2 PUSH2 0xC81 JUMP JUMPDEST DUP3 ADD SWAP2 SWAP1 PUSH1 0x0 MSTORE PUSH1 0x20 PUSH1 0x0 KECCAK256 SWAP1 JUMPDEST DUP2 SLOAD DUP2 MSTORE SWAP1 PUSH1 0x1 ADD SWAP1 PUSH1 0x20 ADD DUP1 DUP4 GT PUSH2 0xC64 JUMPI DUP3 SWAP1 SUB PUSH1 0x1F AND DUP3 ADD SWAP2 JUMPDEST POP POP POP POP POP DUP2 MSTORE PUSH1 0x20 ADD PUSH1 0x1 DUP3 ADD DUP1 SLOAD PUSH2 0xC9A SWAP1 PUSH2 0x27B7 JUMP JUMPDEST DUP1 PUSH1 0x1F ADD PUSH1 0x20 DUP1 SWAP2 DIV MUL PUSH1 0x20 ADD PUSH1 0x40 MLOAD SWAP1 DUP2 ADD PUSH1 0x40 MSTORE DUP1 SWAP3 SWAP2 SWAP1 DUP2 DUP2 MSTORE PUSH1 0x20 ADD DUP3 DUP1 SLOAD PUSH2 0xCC6 SWAP1 PUSH2 0x27B7 JUMP JUMPDEST DUP1 ISZERO PUSH2 0xD13 JUMPI DUP1 PUSH1 0x1F LT PUSH2 0xCE8 JUMPI PUSH2 0x100 DUP1 DUP4 SLOAD DIV MUL DUP4 MSTORE SWAP2 PUSH1 0x20 ADD SWAP2 PUSH2 0xD13 JUMP JUMPDEST DUP3 ADD SWAP2 SWAP1 PUSH1 0x0 MSTORE PUSH1 0x20 PUSH1 0x0 KECCAK256 SWAP1 JUMPDEST DUP2 SLOAD DUP2 MSTORE SWAP1 PUSH1 0x1 ADD SWAP1 PUSH1 0x20 ADD DUP1 DUP4 GT PUSH2 0xCF6 JUMPI DUP3 SWAP1 SUB PUSH1 0x1F AND DUP3 ADD SWAP2 JUMPDEST POP POP POP POP POP DUP2 MSTORE PUSH1 0x20 ADD PUSH1 0x2 DUP3 ADD DUP1 SLOAD DUP1 PUSH1 0x20 MUL PUSH1 0x20 ADD PUSH1 0x40 MLOAD SWAP1 DUP2 ADD PUSH1 0x40 MSTORE DUP1 SWAP3 SWAP2 SWAP1 DUP2 DUP2 MSTORE PUSH1 0x20 ADD DUP3 DUP1 SLOAD DUP1 ISZERO PUSH2 0xD6B JUMPI PUSH1 0x20 MUL DUP3 ADD SWAP2 SWAP1 PUSH1 0x0 MSTORE PUSH1 0x20 PUSH1 0x0 KECCAK256 SWAP1 JUMPDEST DUP2 SLOAD DUP2 MSTORE PUSH1 0x20 ADD SWAP1 PUSH1 0x1 ADD SWAP1 DUP1 DUP4 GT PUSH2 0xD57 JUMPI JUMPDEST POP POP POP POP POP DUP2 MSTORE PUSH1 0x20 ADD PUSH1 0x3 DUP3 ADD SLOAD DUP2 MSTORE POP POP SWAP1 POP DUP1 PUSH1 0x0 ADD MLOAD DUP2 PUSH1 0x20 ADD MLOAD DUP3 PUSH1 0x60 ADD MLOAD DUP4 PUSH1 0x40 ADD MLOAD SWAP5 POP SWAP5 POP SWAP5 POP SWAP5 POP POP SWAP2 SWAP4 POP SWAP2 SWAP4 JUMP JUMPDEST PUSH2 0xDB8 CALLER PUSH1 0x1 PUSH2 0x1C5C SWAP1 SWAP2 SWAP1 PUSH4 0xFFFFFFFF AND JUMP JUMPDEST PUSH2 0xDF7 JUMPI PUSH1 0x40 MLOAD PUSH32 0x8C379A000000000000000000000000000000000000000000000000000000000 DUP2 MSTORE PUSH1 0x4 ADD PUSH2 0xDEE SWAP1 PUSH2 0x2834 JUMP JUMPDEST PUSH1 0x40 MLOAD DUP1 SWAP2 SUB SWAP1 REVERT JUMPDEST DUP4 CALLER PUSH20 0xFFFFFFFFFFFFFFFFFFFFFFFFFFFFFFFFFFFFFFFF AND PUSH1 0x5 PUSH1 0x0 DUP4 PUSH20 0xFFFFFFFFFFFFFFFFFFFFFFFFFFFFFFFFFFFFFFFF AND PUSH20 0xFFFFFFFFFFFFFFFFFFFFFFFFFFFFFFFFFFFFFFFF AND DUP2 MSTORE PUSH1 0x20 ADD SWAP1 DUP2 MSTORE PUSH1 0x20 ADD PUSH1 0x0 KECCAK256 PUSH1 0x0 SWAP1 SLOAD SWAP1 PUSH2 0x100 EXP SWAP1 DIV PUSH20 0xFFFFFFFFFFFFFFFFFFFFFFFFFFFFFFFFFFFFFFFF AND PUSH20 0xFFFFFFFFFFFFFFFFFFFFFFFFFFFFFFFFFFFFFFFF AND EQ PUSH2 0xEC5 JUMPI PUSH1 0x40 MLOAD PUSH32 0x8C379A000000000000000000000000000000000000000000000000000000000 DUP2 MSTORE PUSH1 0x4 ADD PUSH2 0xEBC SWAP1 PUSH2 0x28C6 JUMP JUMPDEST PUSH1 0x40 MLOAD DUP1 SWAP2 SUB SWAP1 REVERT JUMPDEST PUSH2 0xED9 CALLER PUSH1 0x0 PUSH2 0x1C5C SWAP1 SWAP2 SWAP1 PUSH4 0xFFFFFFFF AND JUMP JUMPDEST ISZERO PUSH2 0xF19 JUMPI PUSH1 0x40 MLOAD PUSH32 0x8C379A000000000000000000000000000000000000000000000000000000000 DUP2 MSTORE PUSH1 0x4 ADD PUSH2 0xF10 SWAP1 PUSH2 0x2932 JUMP JUMPDEST PUSH1 0x40 MLOAD DUP1 SWAP2 SUB SWAP1 REVERT JUMPDEST PUSH2 0xF21 PUSH2 0x1DB3 JUMP JUMPDEST PUSH1 0x6 DUP1 SLOAD SWAP1 POP DUP2 PUSH1 0x0 ADD DUP2 DUP2 MSTORE POP POP DUP6 DUP2 PUSH1 0x20 ADD SWAP1 PUSH20 0xFFFFFFFFFFFFFFFFFFFFFFFFFFFFFFFFFFFFFFFF AND SWAP1 DUP2 PUSH20 0xFFFFFFFFFFFFFFFFFFFFFFFFFFFFFFFFFFFFFFFF AND DUP2 MSTORE POP POP CALLER DUP2 PUSH1 0x40 ADD SWAP1 PUSH20 0xFFFFFFFFFFFFFFFFFFFFFFFFFFFFFFFFFFFFFFFF AND SWAP1 DUP2 PUSH20 0xFFFFFFFFFFFFFFFFFFFFFFFFFFFFFFFFFFFFFFFF AND DUP2 MSTORE POP POP DUP5 DUP2 PUSH1 0x60 ADD DUP2 SWAP1 MSTORE POP DUP4 DUP2 PUSH1 0x80 ADD DUP2 SWAP1 MSTORE POP PUSH1 0x6 DUP2 SWAP1 DUP1 PUSH1 0x1 DUP2 SLOAD ADD DUP1 DUP3 SSTORE DUP1 SWAP2 POP POP PUSH1 0x1 SWAP1 SUB SWAP1 PUSH1 0x0 MSTORE PUSH1 0x20 PUSH1 0x0 KECCAK256 SWAP1 PUSH1 0x5 MUL ADD PUSH1 0x0 SWAP1 SWAP2 SWAP1 SWAP2 SWAP1 SWAP2 POP PUSH1 0x0 DUP3 ADD MLOAD DUP2 PUSH1 0x0 ADD SSTORE PUSH1 0x20 DUP3 ADD MLOAD DUP2 PUSH1 0x1 ADD PUSH1 0x0 PUSH2 0x100 EXP DUP2 SLOAD DUP2 PUSH20 0xFFFFFFFFFFFFFFFFFFFFFFFFFFFFFFFFFFFFFFFF MUL NOT AND SWAP1 DUP4 PUSH20 0xFFFFFFFFFFFFFFFFFFFFFFFFFFFFFFFFFFFFFFFF AND MUL OR SWAP1 SSTORE POP PUSH1 0x40 DUP3 ADD MLOAD DUP2 PUSH1 0x2 ADD PUSH1 0x0 PUSH2 0x100 EXP DUP2 SLOAD DUP2 PUSH20 0xFFFFFFFFFFFFFFFFFFFFFFFFFFFFFFFFFFFFFFFF MUL NOT AND SWAP1 DUP4 PUSH20 0xFFFFFFFFFFFFFFFFFFFFFFFFFFFFFFFFFFFFFFFF AND MUL OR SWAP1 SSTORE POP PUSH1 0x60 DUP3 ADD MLOAD DUP2 PUSH1 0x3 ADD SWAP1 DUP2 PUSH2 0x108B SWAP2 SWAP1 PUSH2 0x2AFE JUMP JUMPDEST POP PUSH1 0x80 DUP3 ADD MLOAD DUP2 PUSH1 0x4 ADD SWAP1 DUP2 PUSH2 0x10A1 SWAP2 SWAP1 PUSH2 0x2AFE JUMP JUMPDEST POP POP POP PUSH2 0x10B2 DUP4 DUP3 PUSH1 0x0 ADD MLOAD PUSH2 0x1CB5 JUMP JUMPDEST POP POP POP POP POP POP JUMP JUMPDEST PUSH2 0x10CE CALLER PUSH1 0x0 PUSH2 0x1C5C SWAP1 SWAP2 SWAP1 PUSH4 0xFFFFFFFF AND JUMP JUMPDEST PUSH2 0x110D JUMPI PUSH1 0x40 MLOAD PUSH32 0x8C379A000000000000000000000000000000000000000000000000000000000 DUP2 MSTORE PUSH1 0x4 ADD PUSH2 0x1104 SWAP1 PUSH2 0x2C1C JUMP JUMPDEST PUSH1 0x40 MLOAD DUP1 SWAP2 SUB SWAP1 REVERT JUMPDEST CALLER PUSH20 0xFFFFFFFFFFFFFFFFFFFFFFFFFFFFFFFFFFFFFFFF AND DUP4 PUSH20 0xFFFFFFFFFFFFFFFFFFFFFFFFFFFFFFFFFFFFFFFF AND SUB PUSH2 0x117B JUMPI PUSH1 0x40 MLOAD PUSH32 0x8C379A000000000000000000000000000000000000000000000000000000000 DUP2 MSTORE PUSH1 0x4 ADD PUSH2 0x1172 SWAP1 PUSH2 0x2CAE JUMP JUMPDEST PUSH1 0x40 MLOAD DUP1 SWAP2 SUB SWAP1 REVERT JUMPDEST PUSH2 0x118F DUP4 PUSH1 0x1 PUSH2 0x1BB4 SWAP1 SWAP2 SWAP1 PUSH4 0xFFFFFFFF AND JUMP JUMPDEST PUSH2 0x1197 PUSH2 0x1E0E JUMP JUMPDEST DUP3 DUP2 PUSH1 0x0 ADD DUP2 SWAP1 MSTORE POP DUP2 DUP2 PUSH1 0x20 ADD DUP2 SWAP1 MSTORE POP PUSH1 0x0 DUP2 PUSH1 0x60 ADD DUP2 DUP2 MSTORE POP POP PUSH1 0x8 DUP5 SWAP1 DUP1 PUSH1 0x1 DUP2 SLOAD ADD DUP1 DUP3 SSTORE DUP1 SWAP2 POP POP PUSH1 0x1 SWAP1 SUB SWAP1 PUSH1 0x0 MSTORE PUSH1 0x20 PUSH1 0x0 KECCAK256 ADD PUSH1 0x0 SWAP1 SWAP2 SWAP1 SWAP2 SWAP1 SWAP2 PUSH2 0x100 EXP DUP2 SLOAD DUP2 PUSH20 0xFFFFFFFFFFFFFFFFFFFFFFFFFFFFFFFFFFFFFFFF MUL NOT AND SWAP1 DUP4 PUSH20 0xFFFFFFFFFFFFFFFFFFFFFFFFFFFFFFFFFFFFFFFF AND MUL OR SWAP1 SSTORE POP DUP1 PUSH1 0x3 PUSH1 0x0 DUP7 PUSH20 0xFFFFFFFFFFFFFFFFFFFFFFFFFFFFFFFFFFFFFFFF AND PUSH20 0xFFFFFFFFFFFFFFFFFFFFFFFFFFFFFFFFFFFFFFFF AND DUP2 MSTORE PUSH1 0x20 ADD SWAP1 DUP2 MSTORE PUSH1 0x20 ADD PUSH1 0x0 KECCAK256 PUSH1 0x0 DUP3 ADD MLOAD DUP2 PUSH1 0x0 ADD SWAP1 DUP2 PUSH2 0x126C SWAP2 SWAP1 PUSH2 0x2AFE JUMP JUMPDEST POP PUSH1 0x20 DUP3 ADD MLOAD DUP2 PUSH1 0x1 ADD SWAP1 DUP2 PUSH2 0x1282 SWAP2 SWAP1 PUSH2 0x2AFE JUMP JUMPDEST POP PUSH1 0x40 DUP3 ADD MLOAD DUP2 PUSH1 0x2 ADD SWAP1 DUP1 MLOAD SWAP1 PUSH1 0x20 ADD SWAP1 PUSH2 0x129F SWAP3 SWAP2 SWAP1 PUSH2 0x1D66 JUMP JUMPDEST POP PUSH1 0x60 DUP3 ADD MLOAD DUP2 PUSH1 0x3 ADD SSTORE SWAP1 POP POP POP POP POP POP JUMP JUMPDEST PUSH2 0x12C7 CALLER PUSH1 0x0 PUSH2 0x1C5C SWAP1 SWAP2 SWAP1 PUSH4 0xFFFFFFFF AND JUMP JUMPDEST PUSH2 0x1306 JUMPI PUSH1 0x40 MLOAD PUSH32 0x8C379A000000000000000000000000000000000000000000000000000000000 DUP2 MSTORE PUSH1 0x4 ADD PUSH2 0x12FD SWAP1 PUSH2 0x2C1C JUMP JUMPDEST PUSH1 0x40 MLOAD DUP1 SWAP2 SUB SWAP1 REVERT JUMPDEST CALLER PUSH20 0xFFFFFFFFFFFFFFFFFFFFFFFFFFFFFFFFFFFFFFFF AND DUP4 PUSH20 0xFFFFFFFFFFFFFFFFFFFFFFFFFFFFFFFFFFFFFFFF AND SUB PUSH2 0x1374 JUMPI PUSH1 0x40 MLOAD PUSH32 0x8C379A000000000000000000000000000000000000000000000000000000000 DUP2 MSTORE PUSH1 0x4 ADD PUSH2 0x136B SWAP1 PUSH2 0x2CAE JUMP JUMPDEST PUSH1 0x40 MLOAD DUP1 SWAP2 SUB SWAP1 REVERT JUMPDEST PUSH2 0x1388 DUP4 PUSH1 0x2 PUSH2 0x1BB4 SWAP1 SWAP2 SWAP1 PUSH4 0xFFFFFFFF AND JUMP JUMPDEST PUSH2 0x1390 PUSH2 0x1E36 JUMP JUMPDEST DUP3 DUP2 PUSH1 0x0 ADD DUP2 SWAP1 MSTORE POP DUP2 DUP2 PUSH1 0x20 ADD DUP2 SWAP1 MSTORE POP PUSH1 0x0 DUP2 PUSH1 0x60 ADD DUP2 DUP2 MSTORE POP POP DUP1 PUSH1 0x4 PUSH1 0x0 DUP7 PUSH20 0xFFFFFFFFFFFFFFFFFFFFFFFFFFFFFFFFFFFFFFFF AND PUSH20 0xFFFFFFFFFFFFFFFFFFFFFFFFFFFFFFFFFFFFFFFF AND DUP2 MSTORE PUSH1 0x20 ADD SWAP1 DUP2 MSTORE PUSH1 0x20 ADD PUSH1 0x0 KECCAK256 PUSH1 0x0 DUP3 ADD MLOAD DUP2 PUSH1 0x0 ADD SWAP1 DUP2 PUSH2 0x1402 SWAP2 SWAP1 PUSH2 0x2AFE JUMP JUMPDEST POP PUSH1 0x20 DUP3 ADD MLOAD DUP2 PUSH1 0x1 ADD SWAP1 DUP2 PUSH2 0x1418 SWAP2 SWAP1 PUSH2 0x2AFE JUMP JUMPDEST POP PUSH1 0x40 DUP3 ADD MLOAD DUP2 PUSH1 0x2 ADD SWAP1 DUP1 MLOAD SWAP1 PUSH1 0x20 ADD SWAP1 PUSH2 0x1435 SWAP3 SWAP2 SWAP1 PUSH2 0x1D66 JUMP JUMPDEST POP PUSH1 0x60 DUP3 ADD MLOAD DUP2 PUSH1 0x3 ADD SSTORE SWAP1 POP POP PUSH1 0x9 DUP5 SWAP1 DUP1 PUSH1 0x1 DUP2 SLOAD ADD DUP1 DUP3 SSTORE DUP1 SWAP2 POP POP PUSH1 0x1 SWAP1 SUB SWAP1 PUSH1 0x0 MSTORE PUSH1 0x20 PUSH1 0x0 KECCAK256 ADD PUSH1 0x0 SWAP1 SWAP2 SWAP1 SWAP2 SWAP1 SWAP2 PUSH2 0x100 EXP DUP2 SLOAD DUP2 PUSH20 0xFFFFFFFFFFFFFFFFFFFFFFFFFFFFFFFFFFFFFFFF MUL NOT AND SWAP1 DUP4 PUSH20 0xFFFFFFFFFFFFFFFFFFFFFFFFFFFFFFFFFFFFFFFF AND MUL OR SWAP1 SSTORE POP POP POP POP POP JUMP JUMPDEST PUSH1 0x0 CALLER PUSH20 0xFFFFFFFFFFFFFFFFFFFFFFFFFFFFFFFFFFFFFFFF AND PUSH1 0x5 PUSH1 0x0 DUP5 PUSH20 0xFFFFFFFFFFFFFFFFFFFFFFFFFFFFFFFFFFFFFFFF AND PUSH20 0xFFFFFFFFFFFFFFFFFFFFFFFFFFFFFFFFFFFFFFFF AND DUP2 MSTORE PUSH1 0x20 ADD SWAP1 DUP2 MSTORE PUSH1 0x20 ADD PUSH1 0x0 KECCAK256 PUSH1 0x0 SWAP1 SLOAD SWAP1 PUSH2 0x100 EXP SWAP1 DIV PUSH20 0xFFFFFFFFFFFFFFFFFFFFFFFFFFFFFFFFFFFFFFFF AND PUSH20 0xFFFFFFFFFFFFFFFFFFFFFFFFFFFFFFFFFFFFFFFF AND EQ SWAP1 POP SWAP2 SWAP1 POP JUMP JUMPDEST PUSH1 0x0 DUP2 PUSH2 0x155A DUP2 PUSH1 0x1 PUSH2 0x1C5C SWAP1 SWAP2 SWAP1 PUSH4 0xFFFFFFFF AND JUMP JUMPDEST DUP1 PUSH2 0x1575 JUMPI POP PUSH2 0x1574 DUP2 PUSH1 0x2 PUSH2 0x1C5C SWAP1 SWAP2 SWAP1 PUSH4 0xFFFFFFFF AND JUMP JUMPDEST JUMPDEST PUSH2 0x157E JUMPI PUSH1 0x0 DUP1 REVERT JUMPDEST PUSH2 0x1592 CALLER PUSH1 0x1 PUSH2 0x1C5C SWAP1 SWAP2 SWAP1 PUSH4 0xFFFFFFFF AND JUMP JUMPDEST ISZERO PUSH2 0x15E1 JUMPI PUSH1 0x3 PUSH1 0x0 CALLER PUSH20 0xFFFFFFFFFFFFFFFFFFFFFFFFFFFFFFFFFFFFFFFF AND PUSH20 0xFFFFFFFFFFFFFFFFFFFFFFFFFFFFFFFFFFFFFFFF AND DUP2 MSTORE PUSH1 0x20 ADD SWAP1 DUP2 MSTORE PUSH1 0x20 ADD PUSH1 0x0 KECCAK256 PUSH1 0x3 ADD SLOAD SWAP2 POP PUSH2 0x1627 JUMP JUMPDEST PUSH1 0x4 PUSH1 0x0 CALLER PUSH20 0xFFFFFFFFFFFFFFFFFFFFFFFFFFFFFFFFFFFFFFFF AND PUSH20 0xFFFFFFFFFFFFFFFFFFFFFFFFFFFFFFFFFFFFFFFF AND DUP2 MSTORE PUSH1 0x20 ADD SWAP1 DUP2 MSTORE PUSH1 0x20 ADD PUSH1 0x0 KECCAK256 PUSH1 0x3 ADD SLOAD SWAP2 POP JUMPDEST POP SWAP2 SWAP1 POP JUMP JUMPDEST PUSH1 0x0 PUSH2 0x1643 DUP3 PUSH1 0x2 PUSH2 0x1C5C SWAP1 SWAP2 SWAP1 PUSH4 0xFFFFFFFF AND JUMP JUMPDEST SWAP1 POP SWAP2 SWAP1 POP JUMP JUMPDEST PUSH2 0x165E CALLER PUSH1 0x0 PUSH2 0x1C5C SWAP1 SWAP2 SWAP1 PUSH4 0xFFFFFFFF AND JUMP JUMPDEST PUSH2 0x169D JUMPI PUSH1 0x40 MLOAD PUSH32 0x8C379A000000000000000000000000000000000000000000000000000000000 DUP2 MSTORE PUSH1 0x4 ADD PUSH2 0x1694 SWAP1 PUSH2 0x2C1C JUMP JUMPDEST PUSH1 0x40 MLOAD DUP1 SWAP2 SUB SWAP1 REVERT JUMPDEST DUP1 PUSH1 0x5 PUSH1 0x0 DUP5 PUSH20 0xFFFFFFFFFFFFFFFFFFFFFFFFFFFFFFFFFFFFFFFF AND PUSH20 0xFFFFFFFFFFFFFFFFFFFFFFFFFFFFFFFFFFFFFFFF AND DUP2 MSTORE PUSH1 0x20 ADD SWAP1 DUP2 MSTORE PUSH1 0x20 ADD PUSH1 0x0 KECCAK256 PUSH1 0x0 PUSH2 0x100 EXP DUP2 SLOAD DUP2 PUSH20 0xFFFFFFFFFFFFFFFFFFFFFFFFFFFFFFFFFFFFFFFF MUL NOT AND SWAP1 DUP4 PUSH20 0xFFFFFFFFFFFFFFFFFFFFFFFFFFFFFFFFFFFFFFFF AND MUL OR SWAP1 SSTORE POP POP POP JUMP JUMPDEST PUSH1 0x0 PUSH2 0x1735 DUP3 PUSH1 0x1 PUSH2 0x1C5C SWAP1 SWAP2 SWAP1 PUSH4 0xFFFFFFFF AND JUMP JUMPDEST SWAP1 POP SWAP2 SWAP1 POP JUMP JUMPDEST PUSH1 0x60 PUSH1 0x8 DUP1 SLOAD DUP1 PUSH1 0x20 MUL PUSH1 0x20 ADD PUSH1 0x40 MLOAD SWAP1 DUP2 ADD PUSH1 0x40 MSTORE DUP1 SWAP3 SWAP2 SWAP1 DUP2 DUP2 MSTORE PUSH1 0x20 ADD DUP3 DUP1 SLOAD DUP1 ISZERO PUSH2 0x17C0 JUMPI PUSH1 0x20 MUL DUP3 ADD SWAP2 SWAP1 PUSH1 0x0 MSTORE PUSH1 0x20 PUSH1 0x0 KECCAK256 SWAP1 JUMPDEST DUP2 PUSH1 0x0 SWAP1 SLOAD SWAP1 PUSH2 0x100 EXP SWAP1 DIV PUSH20 0xFFFFFFFFFFFFFFFFFFFFFFFFFFFFFFFFFFFFFFFF AND PUSH20 0xFFFFFFFFFFFFFFFFFFFFFFFFFFFFFFFFFFFFFFFF AND DUP2 MSTORE PUSH1 0x20 ADD SWAP1 PUSH1 0x1 ADD SWAP1 DUP1 DUP4 GT PUSH2 0x1776 JUMPI JUMPDEST POP POP POP POP POP SWAP1 POP SWAP1 JUMP JUMPDEST PUSH1 0x60 DUP2 PUSH2 0x17E1 DUP2 PUSH1 0x1 PUSH2 0x1C5C SWAP1 SWAP2 SWAP1 PUSH4 0xFFFFFFFF AND JUMP JUMPDEST DUP1 PUSH2 0x17FC JUMPI POP PUSH2 0x17FB DUP2 PUSH1 0x2 PUSH2 0x1C5C SWAP1 SWAP2 SWAP1 PUSH4 0xFFFFFFFF AND JUMP JUMPDEST JUMPDEST PUSH2 0x1805 JUMPI PUSH1 0x0 DUP1 REVERT JUMPDEST PUSH2 0x1819 CALLER PUSH1 0x1 PUSH2 0x1C5C SWAP1 SWAP2 SWAP1 PUSH4 0xFFFFFFFF AND JUMP JUMPDEST ISZERO PUSH2 0x18B6 JUMPI PUSH1 0x3 PUSH1 0x0 CALLER PUSH20 0xFFFFFFFFFFFFFFFFFFFFFFFFFFFFFFFFFFFFFFFF AND PUSH20 0xFFFFFFFFFFFFFFFFFFFFFFFFFFFFFFFFFFFFFFFF AND DUP2 MSTORE PUSH1 0x20 ADD SWAP1 DUP2 MSTORE PUSH1 0x20 ADD PUSH1 0x0 KECCAK256 PUSH1 0x2 ADD DUP1 SLOAD DUP1 PUSH1 0x20 MUL PUSH1 0x20 ADD PUSH1 0x40 MLOAD SWAP1 DUP2 ADD PUSH1 0x40 MSTORE DUP1 SWAP3 SWAP2 SWAP1 DUP2 DUP2 MSTORE PUSH1 0x20 ADD DUP3 DUP1 SLOAD DUP1 ISZERO PUSH2 0x18AA JUMPI PUSH1 0x20 MUL DUP3 ADD SWAP2 SWAP1 PUSH1 0x0 MSTORE PUSH1 0x20 PUSH1 0x0 KECCAK256 SWAP1 JUMPDEST DUP2 SLOAD DUP2 MSTORE PUSH1 0x20 ADD SWAP1 PUSH1 0x1 ADD SWAP1 DUP1 DUP4 GT PUSH2 0x1896 JUMPI JUMPDEST POP POP POP POP POP SWAP2 POP PUSH2 0x194A JUMP JUMPDEST PUSH1 0x4 PUSH1 0x0 CALLER PUSH20 0xFFFFFFFFFFFFFFFFFFFFFFFFFFFFFFFFFFFFFFFF AND PUSH20 0xFFFFFFFFFFFFFFFFFFFFFFFFFFFFFFFFFFFFFFFF AND DUP2 MSTORE PUSH1 0x20 ADD SWAP1 DUP2 MSTORE PUSH1 0x20 ADD PUSH1 0x0 KECCAK256 PUSH1 0x2 ADD DUP1 SLOAD DUP1 PUSH1 0x20 MUL PUSH1 0x20 ADD PUSH1 0x40 MLOAD SWAP1 DUP2 ADD PUSH1 0x40 MSTORE DUP1 SWAP3 SWAP2 SWAP1 DUP2 DUP2 MSTORE PUSH1 0x20 ADD DUP3 DUP1 SLOAD DUP1 ISZERO PUSH2 0x1942 JUMPI PUSH1 0x20 MUL DUP3 ADD SWAP2 SWAP1 PUSH1 0x0 MSTORE PUSH1 0x20 PUSH1 0x0 KECCAK256 SWAP1 JUMPDEST DUP2 SLOAD DUP2 MSTORE PUSH1 0x20 ADD SWAP1 PUSH1 0x1 ADD SWAP1 DUP1 DUP4 GT PUSH2 0x192E JUMPI JUMPDEST POP POP POP POP POP SWAP2 POP JUMPDEST POP SWAP2 SWAP1 POP JUMP JUMPDEST PUSH1 0x60 DUP1 PUSH1 0x0 PUSH1 0x60 PUSH1 0x0 PUSH1 0x4 PUSH1 0x0 DUP8 PUSH20 0xFFFFFFFFFFFFFFFFFFFFFFFFFFFFFFFFFFFFFFFF AND PUSH20 0xFFFFFFFFFFFFFFFFFFFFFFFFFFFFFFFFFFFFFFFF AND DUP2 MSTORE PUSH1 0x20 ADD SWAP1 DUP2 MSTORE PUSH1 0x20 ADD PUSH1 0x0 KECCAK256 PUSH1 0x40 MLOAD DUP1 PUSH1 0x80 ADD PUSH1 0x40 MSTORE SWAP1 DUP2 PUSH1 0x0 DUP3 ADD DUP1 SLOAD PUSH2 0x19B3 SWAP1 PUSH2 0x27B7 JUMP JUMPDEST DUP1 PUSH1 0x1F ADD PUSH1 0x20 DUP1 SWAP2 DIV MUL PUSH1 0x20 ADD PUSH1 0x40 MLOAD SWAP1 DUP2 ADD PUSH1 0x40 MSTORE DUP1 SWAP3 SWAP2 SWAP1 DUP2 DUP2 MSTORE PUSH1 0x20 ADD DUP3 DUP1 SLOAD PUSH2 0x19DF SWAP1 PUSH2 0x27B7 JUMP JUMPDEST DUP1 ISZERO PUSH2 0x1A2C JUMPI DUP1 PUSH1 0x1F LT PUSH2 0x1A01 JUMPI PUSH2 0x100 DUP1 DUP4 SLOAD DIV MUL DUP4 MSTORE SWAP2 PUSH1 0x20 ADD SWAP2 PUSH2 0x1A2C JUMP JUMPDEST DUP3 ADD SWAP2 SWAP1 PUSH1 0x0 MSTORE PUSH1 0x20 PUSH1 0x0 KECCAK256 SWAP1 JUMPDEST DUP2 SLOAD DUP2 MSTORE SWAP1 PUSH1 0x1 ADD SWAP1 PUSH1 0x20 ADD DUP1 DUP4 GT PUSH2 0x1A0F JUMPI DUP3 SWAP1 SUB PUSH1 0x1F AND DUP3 ADD SWAP2 JUMPDEST POP POP POP POP POP DUP2 MSTORE PUSH1 0x20 ADD PUSH1 0x1 DUP3 ADD DUP1 SLOAD PUSH2 0x1A45 SWAP1 PUSH2 0x27B7 JUMP JUMPDEST DUP1 PUSH1 0x1F ADD PUSH1 0x20 DUP1 SWAP2 DIV MUL PUSH1 0x20 ADD PUSH1 0x40 MLOAD SWAP1 DUP2 ADD PUSH1 0x40 MSTORE DUP1 SWAP3 SWAP2 SWAP1 DUP2 DUP2 MSTORE PUSH1 0x20 ADD DUP3 DUP1 SLOAD PUSH2 0x1A71 SWAP1 PUSH2 0x27B7 JUMP JUMPDEST DUP1 ISZERO PUSH2 0x1ABE JUMPI DUP1 PUSH1 0x1F LT PUSH2 0x1A93 JUMPI PUSH2 0x100 DUP1 DUP4 SLOAD DIV MUL DUP4 MSTORE SWAP2 PUSH1 0x20 ADD SWAP2 PUSH2 0x1ABE JUMP JUMPDEST DUP3 ADD SWAP2 SWAP1 PUSH1 0x0 MSTORE PUSH1 0x20 PUSH1 0x0 KECCAK256 SWAP1 JUMPDEST DUP2 SLOAD DUP2 MSTORE SWAP1 PUSH1 0x1 ADD SWAP1 PUSH1 0x20 ADD DUP1 DUP4 GT PUSH2 0x1AA1 JUMPI DUP3 SWAP1 SUB PUSH1 0x1F AND DUP3 ADD SWAP2 JUMPDEST POP POP POP POP POP DUP2 MSTORE PUSH1 0x20 ADD PUSH1 0x2 DUP3 ADD DUP1 SLOAD DUP1 PUSH1 0x20 MUL PUSH1 0x20 ADD PUSH1 0x40 MLOAD SWAP1 DUP2 ADD PUSH1 0x40 MSTORE DUP1 SWAP3 SWAP2 SWAP1 DUP2 DUP2 MSTORE PUSH1 0x20 ADD DUP3 DUP1 SLOAD DUP1 ISZERO PUSH2 0x1B16 JUMPI PUSH1 0x20 MUL DUP3 ADD SWAP2 SWAP1 PUSH1 0x0 MSTORE PUSH1 0x20 PUSH1 0x0 KECCAK256 SWAP1 JUMPDEST DUP2 SLOAD DUP2 MSTORE PUSH1 0x20 ADD SWAP1 PUSH1 0x1 ADD SWAP1 DUP1 DUP4 GT PUSH2 0x1B02 JUMPI JUMPDEST POP POP POP POP POP DUP2 MSTORE PUSH1 0x20 ADD PUSH1 0x3 DUP3 ADD SLOAD DUP2 MSTORE POP POP SWAP1 POP DUP1 PUSH1 0x0 ADD MLOAD DUP2 PUSH1 0x20 ADD MLOAD DUP3 PUSH1 0x60 ADD MLOAD DUP4 PUSH1 0x40 ADD MLOAD SWAP5 POP SWAP5 POP SWAP5 POP SWAP5 POP POP SWAP2 SWAP4 POP SWAP2 SWAP4 JUMP JUMPDEST PUSH1 0x9 DUP2 DUP2 SLOAD DUP2 LT PUSH2 0x1B5F JUMPI PUSH1 0x0 DUP1 REVERT JUMPDEST SWAP1 PUSH1 0x0 MSTORE PUSH1 0x20 PUSH1 0x0 KECCAK256 ADD PUSH1 0x0 SWAP2 POP SLOAD SWAP1 PUSH2 0x100 EXP SWAP1 DIV PUSH20 0xFFFFFFFFFFFFFFFFFFFFFFFFFFFFFFFFFFFFFFFF AND DUP2 JUMP JUMPDEST PUSH1 0xA PUSH1 0x0 SWAP1 SLOAD SWAP1 PUSH2 0x100 EXP SWAP1 DIV PUSH20 0xFFFFFFFFFFFFFFFFFFFFFFFFFFFFFFFFFFFFFFFF AND DUP2 JUMP JUMPDEST PUSH2 0x1BBE DUP3 DUP3 PUSH2 0x1C5C JUMP JUMPDEST ISZERO PUSH2 0x1BFE JUMPI PUSH1 0x40 MLOAD PUSH32 0x8C379A000000000000000000000000000000000000000000000000000000000 DUP2 MSTORE PUSH1 0x4 ADD PUSH2 0x1BF5 SWAP1 PUSH2 0x2D1A JUMP JUMPDEST PUSH1 0x40 MLOAD DUP1 SWAP2 SUB SWAP1 REVERT JUMPDEST PUSH1 0x1 DUP3 PUSH1 0x0 ADD PUSH1 0x0 DUP4 PUSH20 0xFFFFFFFFFFFFFFFFFFFFFFFFFFFFFFFFFFFFFFFF AND PUSH20 0xFFFFFFFFFFFFFFFFFFFFFFFFFFFFFFFFFFFFFFFF AND DUP2 MSTORE PUSH1 0x20 ADD SWAP1 DUP2 MSTORE PUSH1 0x20 ADD PUSH1 0x0 KECCAK256 PUSH1 0x0 PUSH2 0x100 EXP DUP2 SLOAD DUP2 PUSH1 0xFF MUL NOT AND SWAP1 DUP4 ISZERO ISZERO MUL OR SWAP1 SSTORE POP POP POP JUMP JUMPDEST PUSH1 0x0 DUP3 PUSH1 0x0 ADD PUSH1 0x0 DUP4 PUSH20 0xFFFFFFFFFFFFFFFFFFFFFFFFFFFFFFFFFFFFFFFF AND PUSH20 0xFFFFFFFFFFFFFFFFFFFFFFFFFFFFFFFFFFFFFFFF AND DUP2 MSTORE PUSH1 0x20 ADD SWAP1 DUP2 MSTORE PUSH1 0x20 ADD PUSH1 0x0 KECCAK256 PUSH1 0x0 SWAP1 SLOAD SWAP1 PUSH2 0x100 EXP SWAP1 DIV PUSH1 0xFF AND SWAP1 POP SWAP3 SWAP2 POP POP JUMP JUMPDEST PUSH1 0x0 PUSH1 0x7 DUP4 DUP2 SLOAD DUP2 LT PUSH2 0x1CCB JUMPI PUSH2 0x1CCA PUSH2 0x2759 JUMP JUMPDEST JUMPDEST SWAP1 PUSH1 0x0 MSTORE PUSH1 0x20 PUSH1 0x0 KECCAK256 SWAP1 PUSH1 0x5 MUL ADD SWAP1 POP DUP1 PUSH1 0x4 ADD DUP3 SWAP1 DUP1 PUSH1 0x1 DUP2 SLOAD ADD DUP1 DUP3 SSTORE DUP1 SWAP2 POP POP PUSH1 0x1 SWAP1 SUB SWAP1 PUSH1 0x0 MSTORE PUSH1 0x20 PUSH1 0x0 KECCAK256 ADD PUSH1 0x0 SWAP1 SWAP2 SWAP1 SWAP2 SWAP1 SWAP2 POP SSTORE POP POP POP JUMP JUMPDEST PUSH1 0x40 MLOAD DUP1 PUSH1 0xA0 ADD PUSH1 0x40 MSTORE DUP1 PUSH1 0x0 DUP2 MSTORE PUSH1 0x20 ADD PUSH1 0x0 PUSH20 0xFFFFFFFFFFFFFFFFFFFFFFFFFFFFFFFFFFFFFFFF AND DUP2 MSTORE PUSH1 0x20 ADD PUSH1 0x0 PUSH20 0xFFFFFFFFFFFFFFFFFFFFFFFFFFFFFFFFFFFFFFFF AND DUP2 MSTORE PUSH1 0x20 ADD PUSH1 0x60 DUP2 MSTORE PUSH1 0x20 ADD PUSH1 0x60 DUP2 MSTORE POP SWAP1 JUMP JUMPDEST DUP3 DUP1 SLOAD DUP3 DUP3 SSTORE SWAP1 PUSH1 0x0 MSTORE PUSH1 0x20 PUSH1 0x0 KECCAK256 SWAP1 DUP2 ADD SWAP3 DUP3 ISZERO PUSH2 0x1DA2 JUMPI SWAP2 PUSH1 0x20 MUL DUP3 ADD JUMPDEST DUP3 DUP2 GT ISZERO PUSH2 0x1DA1 JUMPI DUP3 MLOAD DUP3 SSTORE SWAP2 PUSH1 0x20 ADD SWAP2 SWAP1 PUSH1 0x1 ADD SWAP1 PUSH2 0x1D86 JUMP JUMPDEST JUMPDEST POP SWAP1 POP PUSH2 0x1DAF SWAP2 SWAP1 PUSH2 0x1E5E JUMP JUMPDEST POP SWAP1 JUMP JUMPDEST PUSH1 0x40 MLOAD DUP1 PUSH1 0xA0 ADD PUSH1 0x40 MSTORE DUP1 PUSH1 0x0 DUP2 MSTORE PUSH1 0x20 ADD PUSH1 0x0 PUSH20 0xFFFFFFFFFFFFFFFFFFFFFFFFFFFFFFFFFFFFFFFF AND DUP2 MSTORE PUSH1 0x20 ADD PUSH1 0x0 PUSH20 0xFFFFFFFFFFFFFFFFFFFFFFFFFFFFFFFFFFFFFFFF AND DUP2 MSTORE PUSH1 0x20 ADD PUSH1 0x60 DUP2 MSTORE PUSH1 0x20 ADD PUSH1 0x60 DUP2 MSTORE POP SWAP1 JUMP JUMPDEST PUSH1 0x40 MLOAD DUP1 PUSH1 0x80 ADD PUSH1 0x40 MSTORE DUP1 PUSH1 0x60 DUP2 MSTORE PUSH1 0x20 ADD PUSH1 0x60 DUP2 MSTORE PUSH1 0x20 ADD PUSH1 0x60 DUP2 MSTORE PUSH1 0x20 ADD PUSH1 0x0 DUP2 MSTORE POP SWAP1 JUMP JUMPDEST PUSH1 0x40 MLOAD DUP1 PUSH1 0x80 ADD PUSH1 0x40 MSTORE DUP1 PUSH1 0x60 DUP2 MSTORE PUSH1 0x20 ADD PUSH1 0x60 DUP2 MSTORE PUSH1 0x20 ADD PUSH1 0x60 DUP2 MSTORE PUSH1 0x20 ADD PUSH1 0x0 DUP2 MSTORE POP SWAP1 JUMP JUMPDEST JUMPDEST DUP1 DUP3 GT ISZERO PUSH2 0x1E77 JUMPI PUSH1 0x0 DUP2 PUSH1 0x0 SWAP1 SSTORE POP PUSH1 0x1 ADD PUSH2 0x1E5F JUMP JUMPDEST POP SWAP1 JUMP JUMPDEST PUSH1 0x0 PUSH1 0x40 MLOAD SWAP1 POP SWAP1 JUMP JUMPDEST PUSH1 0x0 DUP1 REVERT JUMPDEST PUSH1 0x0 DUP1 REVERT JUMPDEST PUSH1 0x0 DUP2 SWAP1 POP SWAP2 SWAP1 POP JUMP JUMPDEST PUSH2 0x1EA2 DUP2 PUSH2 0x1E8F JUMP JUMPDEST DUP2 EQ PUSH2 0x1EAD JUMPI PUSH1 0x0 DUP1 REVERT JUMPDEST POP JUMP JUMPDEST PUSH1 0x0 DUP2 CALLDATALOAD SWAP1 POP PUSH2 0x1EBF DUP2 PUSH2 0x1E99 JUMP JUMPDEST SWAP3 SWAP2 POP POP JUMP JUMPDEST PUSH1 0x0 PUSH1 0x20 DUP3 DUP5 SUB SLT ISZERO PUSH2 0x1EDB JUMPI PUSH2 0x1EDA PUSH2 0x1E85 JUMP JUMPDEST JUMPDEST PUSH1 0x0 PUSH2 0x1EE9 DUP5 DUP3 DUP6 ADD PUSH2 0x1EB0 JUMP JUMPDEST SWAP2 POP POP SWAP3 SWAP2 POP POP JUMP JUMPDEST PUSH2 0x1EFB DUP2 PUSH2 0x1E8F JUMP JUMPDEST DUP3 MSTORE POP POP JUMP JUMPDEST PUSH1 0x0 PUSH20 0xFFFFFFFFFFFFFFFFFFFFFFFFFFFFFFFFFFFFFFFF DUP3 AND SWAP1 POP SWAP2 SWAP1 POP JUMP JUMPDEST PUSH1 0x0 PUSH2 0x1F2C DUP3 PUSH2 0x1F01 JUMP JUMPDEST SWAP1 POP SWAP2 SWAP1 POP JUMP JUMPDEST PUSH2 0x1F3C DUP2 PUSH2 0x1F21 JUMP JUMPDEST DUP3 MSTORE POP POP JUMP JUMPDEST PUSH1 0x0 DUP2 MLOAD SWAP1 POP SWAP2 SWAP1 POP JUMP JUMPDEST PUSH1 0x0 DUP3 DUP3 MSTORE PUSH1 0x20 DUP3 ADD SWAP1 POP SWAP3 SWAP2 POP POP JUMP JUMPDEST PUSH1 0x0 JUMPDEST DUP4 DUP2 LT ISZERO PUSH2 0x1F7C JUMPI DUP1 DUP3 ADD MLOAD DUP2 DUP5 ADD MSTORE PUSH1 0x20 DUP2 ADD SWAP1 POP PUSH2 0x1F61 JUMP JUMPDEST DUP4 DUP2 GT ISZERO PUSH2 0x1F8B JUMPI PUSH1 0x0 DUP5 DUP5 ADD MSTORE JUMPDEST POP POP POP POP JUMP JUMPDEST PUSH1 0x0 PUSH1 0x1F NOT PUSH1 0x1F DUP4 ADD AND SWAP1 POP SWAP2 SWAP1 POP JUMP JUMPDEST PUSH1 0x0 PUSH2 0x1FAD DUP3 PUSH2 0x1F42 JUMP JUMPDEST PUSH2 0x1FB7 DUP2 DUP6 PUSH2 0x1F4D JUMP JUMPDEST SWAP4 POP PUSH2 0x1FC7 DUP2 DUP6 PUSH1 0x20 DUP7 ADD PUSH2 0x1F5E JUMP JUMPDEST PUSH2 0x1FD0 DUP2 PUSH2 0x1F91 JUMP JUMPDEST DUP5 ADD SWAP2 POP POP SWAP3 SWAP2 POP POP JUMP JUMPDEST PUSH1 0x0 DUP2 MLOAD SWAP1 POP SWAP2 SWAP1 POP JUMP JUMPDEST PUSH1 0x0 DUP3 DUP3 MSTORE PUSH1 0x20 DUP3 ADD SWAP1 POP SWAP3 SWAP2 POP POP JUMP JUMPDEST PUSH1 0x0 DUP2 SWAP1 POP PUSH1 0x20 DUP3 ADD SWAP1 POP SWAP2 SWAP1 POP JUMP JUMPDEST PUSH1 0x0 PUSH2 0x2013 DUP4 DUP4 PUSH2 0x1EF2 JUMP JUMPDEST PUSH1 0x20 DUP4 ADD SWAP1 POP SWAP3 SWAP2 POP POP JUMP JUMPDEST PUSH1 0x0 PUSH1 0x20 DUP3 ADD SWAP1 POP SWAP2 SWAP1 POP JUMP JUMPDEST PUSH1 0x0 PUSH2 0x2037 DUP3 PUSH2 0x1FDB JUMP JUMPDEST PUSH2 0x2041 DUP2 DUP6 PUSH2 0x1FE6 JUMP JUMPDEST SWAP4 POP PUSH2 0x204C DUP4 PUSH2 0x1FF7 JUMP JUMPDEST DUP1 PUSH1 0x0 JUMPDEST DUP4 DUP2 LT ISZERO PUSH2 0x207D JUMPI DUP2 MLOAD PUSH2 0x2064 DUP9 DUP3 PUSH2 0x2007 JUMP JUMPDEST SWAP8 POP PUSH2 0x206F DUP4 PUSH2 0x201F JUMP JUMPDEST SWAP3 POP POP PUSH1 0x1 DUP2 ADD SWAP1 POP PUSH2 0x2050 JUMP JUMPDEST POP DUP6 SWAP4 POP POP POP POP SWAP3 SWAP2 POP POP JUMP JUMPDEST PUSH1 0x0 PUSH1 0xA0 DUP4 ADD PUSH1 0x0 DUP4 ADD MLOAD PUSH2 0x20A2 PUSH1 0x0 DUP7 ADD DUP3 PUSH2 0x1EF2 JUMP JUMPDEST POP PUSH1 0x20 DUP4 ADD MLOAD PUSH2 0x20B5 PUSH1 0x20 DUP7 ADD DUP3 PUSH2 0x1F33 JUMP JUMPDEST POP PUSH1 0x40 DUP4 ADD MLOAD PUSH2 0x20C8 PUSH1 0x40 DUP7 ADD DUP3 PUSH2 0x1F33 JUMP JUMPDEST POP PUSH1 0x60 DUP4 ADD MLOAD DUP5 DUP3 SUB PUSH1 0x60 DUP7 ADD MSTORE PUSH2 0x20E0 DUP3 DUP3 PUSH2 0x1FA2 JUMP JUMPDEST SWAP2 POP POP PUSH1 0x80 DUP4 ADD MLOAD DUP5 DUP3 SUB PUSH1 0x80 DUP7 ADD MSTORE PUSH2 0x20FA DUP3 DUP3 PUSH2 0x202C JUMP JUMPDEST SWAP2 POP POP DUP1 SWAP2 POP POP SWAP3 SWAP2 POP POP JUMP JUMPDEST PUSH1 0x0 PUSH1 0x20 DUP3 ADD SWAP1 POP DUP2 DUP2 SUB PUSH1 0x0 DUP4 ADD MSTORE PUSH2 0x2121 DUP2 DUP5 PUSH2 0x208A JUMP JUMPDEST SWAP1 POP SWAP3 SWAP2 POP POP JUMP JUMPDEST PUSH2 0x2132 DUP2 PUSH2 0x1F21 JUMP JUMPDEST DUP3 MSTORE POP POP JUMP JUMPDEST PUSH1 0x0 PUSH1 0x20 DUP3 ADD SWAP1 POP PUSH2 0x214D PUSH1 0x0 DUP4 ADD DUP5 PUSH2 0x2129 JUMP JUMPDEST SWAP3 SWAP2 POP POP JUMP JUMPDEST PUSH2 0x215C DUP2 PUSH2 0x1E8F JUMP JUMPDEST DUP3 MSTORE POP POP JUMP JUMPDEST PUSH1 0x0 DUP3 DUP3 MSTORE PUSH1 0x20 DUP3 ADD SWAP1 POP SWAP3 SWAP2 POP POP JUMP JUMPDEST PUSH1 0x0 PUSH2 0x217E DUP3 PUSH2 0x1F42 JUMP JUMPDEST PUSH2 0x2188 DUP2 DUP6 PUSH2 0x2162 JUMP JUMPDEST SWAP4 POP PUSH2 0x2198 DUP2 DUP6 PUSH1 0x20 DUP7 ADD PUSH2 0x1F5E JUMP JUMPDEST PUSH2 0x21A1 DUP2 PUSH2 0x1F91 JUMP JUMPDEST DUP5 ADD SWAP2 POP POP SWAP3 SWAP2 POP POP JUMP JUMPDEST PUSH1 0x0 PUSH1 0x80 DUP3 ADD SWAP1 POP PUSH2 0x21C1 PUSH1 0x0 DUP4 ADD DUP8 PUSH2 0x2153 JUMP JUMPDEST PUSH2 0x21CE PUSH1 0x20 DUP4 ADD DUP7 PUSH2 0x2129 JUMP JUMPDEST PUSH2 0x21DB PUSH1 0x40 DUP4 ADD DUP6 PUSH2 0x2129 JUMP JUMPDEST DUP2 DUP2 SUB PUSH1 0x60 DUP4 ADD MSTORE PUSH2 0x21ED DUP2 DUP5 PUSH2 0x2173 JUMP JUMPDEST SWAP1 POP SWAP6 SWAP5 POP POP POP POP POP JUMP JUMPDEST PUSH2 0x2201 DUP2 PUSH2 0x1F21 JUMP JUMPDEST DUP2 EQ PUSH2 0x220C JUMPI PUSH1 0x0 DUP1 REVERT JUMPDEST POP JUMP JUMPDEST PUSH1 0x0 DUP2 CALLDATALOAD SWAP1 POP PUSH2 0x221E DUP2 PUSH2 0x21F8 JUMP JUMPDEST SWAP3 SWAP2 POP POP JUMP JUMPDEST PUSH1 0x0 DUP1 REVERT JUMPDEST PUSH1 0x0 DUP1 REVERT JUMPDEST PUSH32 0x4E487B7100000000000000000000000000000000000000000000000000000000 PUSH1 0x0 MSTORE PUSH1 0x41 PUSH1 0x4 MSTORE PUSH1 0x24 PUSH1 0x0 REVERT JUMPDEST PUSH2 0x2266 DUP3 PUSH2 0x1F91 JUMP JUMPDEST DUP2 ADD DUP2 DUP2 LT PUSH8 0xFFFFFFFFFFFFFFFF DUP3 GT OR ISZERO PUSH2 0x2285 JUMPI PUSH2 0x2284 PUSH2 0x222E JUMP JUMPDEST JUMPDEST DUP1 PUSH1 0x40 MSTORE POP POP POP JUMP JUMPDEST PUSH1 0x0 PUSH2 0x2298 PUSH2 0x1E7B JUMP JUMPDEST SWAP1 POP PUSH2 0x22A4 DUP3 DUP3 PUSH2 0x225D JUMP JUMPDEST SWAP2 SWAP1 POP JUMP JUMPDEST PUSH1 0x0 PUSH8 0xFFFFFFFFFFFFFFFF DUP3 GT ISZERO PUSH2 0x22C4 JUMPI PUSH2 0x22C3 PUSH2 0x222E JUMP JUMPDEST JUMPDEST PUSH2 0x22CD DUP3 PUSH2 0x1F91 JUMP JUMPDEST SWAP1 POP PUSH1 0x20 DUP2 ADD SWAP1 POP SWAP2 SWAP1 POP JUMP JUMPDEST DUP3 DUP2 DUP4 CALLDATACOPY PUSH1 0x0 DUP4 DUP4 ADD MSTORE POP POP POP JUMP JUMPDEST PUSH1 0x0 PUSH2 0x22FC PUSH2 0x22F7 DUP5 PUSH2 0x22A9 JUMP JUMPDEST PUSH2 0x228E JUMP JUMPDEST SWAP1 POP DUP3 DUP2 MSTORE PUSH1 0x20 DUP2 ADD DUP5 DUP5 DUP5 ADD GT ISZERO PUSH2 0x2318 JUMPI PUSH2 0x2317 PUSH2 0x2229 JUMP JUMPDEST JUMPDEST PUSH2 0x2323 DUP5 DUP3 DUP6 PUSH2 0x22DA JUMP JUMPDEST POP SWAP4 SWAP3 POP POP POP JUMP JUMPDEST PUSH1 0x0 DUP3 PUSH1 0x1F DUP4 ADD SLT PUSH2 0x2340 JUMPI PUSH2 0x233F PUSH2 0x2224 JUMP JUMPDEST JUMPDEST DUP2 CALLDATALOAD PUSH2 0x2350 DUP5 DUP3 PUSH1 0x20 DUP7 ADD PUSH2 0x22E9 JUMP JUMPDEST SWAP2 POP POP SWAP3 SWAP2 POP POP JUMP JUMPDEST PUSH1 0x0 DUP1 PUSH1 0x40 DUP4 DUP6 SUB SLT ISZERO PUSH2 0x2370 JUMPI PUSH2 0x236F PUSH2 0x1E85 JUMP JUMPDEST JUMPDEST PUSH1 0x0 PUSH2 0x237E DUP6 DUP3 DUP7 ADD PUSH2 0x220F JUMP JUMPDEST SWAP3 POP POP PUSH1 0x20 DUP4 ADD CALLDATALOAD PUSH8 0xFFFFFFFFFFFFFFFF DUP2 GT ISZERO PUSH2 0x239F JUMPI PUSH2 0x239E PUSH2 0x1E8A JUMP JUMPDEST JUMPDEST PUSH2 0x23AB DUP6 DUP3 DUP7 ADD PUSH2 0x232B JUMP JUMPDEST SWAP2 POP POP SWAP3 POP SWAP3 SWAP1 POP JUMP JUMPDEST PUSH1 0x0 PUSH1 0x20 DUP3 DUP5 SUB SLT ISZERO PUSH2 0x23CB JUMPI PUSH2 0x23CA PUSH2 0x1E85 JUMP JUMPDEST JUMPDEST PUSH1 0x0 PUSH2 0x23D9 DUP5 DUP3 DUP6 ADD PUSH2 0x220F JUMP JUMPDEST SWAP2 POP POP SWAP3 SWAP2 POP POP JUMP JUMPDEST PUSH1 0x0 DUP3 DUP3 MSTORE PUSH1 0x20 DUP3 ADD SWAP1 POP SWAP3 SWAP2 POP POP JUMP JUMPDEST PUSH1 0x0 PUSH2 0x23FE DUP3 PUSH2 0x1FDB JUMP JUMPDEST PUSH2 0x2408 DUP2 DUP6 PUSH2 0x23E2 JUMP JUMPDEST SWAP4 POP PUSH2 0x2413 DUP4 PUSH2 0x1FF7 JUMP JUMPDEST DUP1 PUSH1 0x0 JUMPDEST DUP4 DUP2 LT ISZERO PUSH2 0x2444 JUMPI DUP2 MLOAD PUSH2 0x242B DUP9 DUP3 PUSH2 0x2007 JUMP JUMPDEST SWAP8 POP PUSH2 0x2436 DUP4 PUSH2 0x201F JUMP JUMPDEST SWAP3 POP POP PUSH1 0x1 DUP2 ADD SWAP1 POP PUSH2 0x2417 JUMP JUMPDEST POP DUP6 SWAP4 POP POP POP POP SWAP3 SWAP2 POP POP JUMP JUMPDEST PUSH1 0x0 PUSH1 0x80 DUP3 ADD SWAP1 POP DUP2 DUP2 SUB PUSH1 0x0 DUP4 ADD MSTORE PUSH2 0x246B DUP2 DUP8 PUSH2 0x2173 JUMP JUMPDEST SWAP1 POP DUP2 DUP2 SUB PUSH1 0x20 DUP4 ADD MSTORE PUSH2 0x247F DUP2 DUP7 PUSH2 0x2173 JUMP JUMPDEST SWAP1 POP PUSH2 0x248E PUSH1 0x40 DUP4 ADD DUP6 PUSH2 0x2153 JUMP JUMPDEST DUP2 DUP2 SUB PUSH1 0x60 DUP4 ADD MSTORE PUSH2 0x24A0 DUP2 DUP5 PUSH2 0x23F3 JUMP JUMPDEST SWAP1 POP SWAP6 SWAP5 POP POP POP POP POP JUMP JUMPDEST PUSH1 0x0 DUP1 PUSH1 0x0 DUP1 PUSH1 0x80 DUP6 DUP8 SUB SLT ISZERO PUSH2 0x24C5 JUMPI PUSH2 0x24C4 PUSH2 0x1E85 JUMP JUMPDEST JUMPDEST PUSH1 0x0 PUSH2 0x24D3 DUP8 DUP3 DUP9 ADD PUSH2 0x220F JUMP JUMPDEST SWAP5 POP POP PUSH1 0x20 DUP6 ADD CALLDATALOAD PUSH8 0xFFFFFFFFFFFFFFFF DUP2 GT ISZERO PUSH2 0x24F4 JUMPI PUSH2 0x24F3 PUSH2 0x1E8A JUMP JUMPDEST JUMPDEST PUSH2 0x2500 DUP8 DUP3 DUP9 ADD PUSH2 0x232B JUMP JUMPDEST SWAP4 POP POP PUSH1 0x40 DUP6 ADD CALLDATALOAD PUSH8 0xFFFFFFFFFFFFFFFF DUP2 GT ISZERO PUSH2 0x2521 JUMPI PUSH2 0x2520 PUSH2 0x1E8A JUMP JUMPDEST JUMPDEST PUSH2 0x252D DUP8 DUP3 DUP9 ADD PUSH2 0x232B JUMP JUMPDEST SWAP3 POP POP PUSH1 0x60 PUSH2 0x253E DUP8 DUP3 DUP9 ADD PUSH2 0x1EB0 JUMP JUMPDEST SWAP2 POP POP SWAP3 SWAP6 SWAP2 SWAP5 POP SWAP3 POP JUMP JUMPDEST PUSH1 0x0 DUP1 PUSH1 0x0 PUSH1 0x60 DUP5 DUP7 SUB SLT ISZERO PUSH2 0x2563 JUMPI PUSH2 0x2562 PUSH2 0x1E85 JUMP JUMPDEST JUMPDEST PUSH1 0x0 PUSH2 0x2571 DUP7 DUP3 DUP8 ADD PUSH2 0x220F JUMP JUMPDEST SWAP4 POP POP PUSH1 0x20 DUP5 ADD CALLDATALOAD PUSH8 0xFFFFFFFFFFFFFFFF DUP2 GT ISZERO PUSH2 0x2592 JUMPI PUSH2 0x2591 PUSH2 0x1E8A JUMP JUMPDEST JUMPDEST PUSH2 0x259E DUP7 DUP3 DUP8 ADD PUSH2 0x232B JUMP JUMPDEST SWAP3 POP POP PUSH1 0x40 DUP5 ADD CALLDATALOAD PUSH8 0xFFFFFFFFFFFFFFFF DUP2 GT ISZERO PUSH2 0x25BF JUMPI PUSH2 0x25BE PUSH2 0x1E8A JUMP JUMPDEST JUMPDEST PUSH2 0x25CB DUP7 DUP3 DUP8 ADD PUSH2 0x232B JUMP JUMPDEST SWAP2 POP POP SWAP3 POP SWAP3 POP SWAP3 JUMP JUMPDEST PUSH1 0x0 DUP2 ISZERO ISZERO SWAP1 POP SWAP2 SWAP1 POP JUMP JUMPDEST PUSH2 0x25EA DUP2 PUSH2 0x25D5 JUMP JUMPDEST DUP3 MSTORE POP POP JUMP JUMPDEST PUSH1 0x0 PUSH1 0x20 DUP3 ADD SWAP1 POP PUSH2 0x2605 PUSH1 0x0 DUP4 ADD DUP5 PUSH2 0x25E1 JUMP JUMPDEST SWAP3 SWAP2 POP POP JUMP JUMPDEST PUSH1 0x0 PUSH1 0x20 DUP3 ADD SWAP1 POP PUSH2 0x2620 PUSH1 0x0 DUP4 ADD DUP5 PUSH2 0x2153 JUMP JUMPDEST SWAP3 SWAP2 POP POP JUMP JUMPDEST PUSH1 0x0 DUP1 PUSH1 0x40 DUP4 DUP6 SUB SLT ISZERO PUSH2 0x263D JUMPI PUSH2 0x263C PUSH2 0x1E85 JUMP JUMPDEST JUMPDEST PUSH1 0x0 PUSH2 0x264B DUP6 DUP3 DUP7 ADD PUSH2 0x220F JUMP JUMPDEST SWAP3 POP POP PUSH1 0x20 PUSH2 0x265C DUP6 DUP3 DUP7 ADD PUSH2 0x220F JUMP JUMPDEST SWAP2 POP POP SWAP3 POP SWAP3 SWAP1 POP JUMP JUMPDEST PUSH1 0x0 DUP2 MLOAD SWAP1 POP SWAP2 SWAP1 POP JUMP JUMPDEST PUSH1 0x0 DUP3 DUP3 MSTORE PUSH1 0x20 DUP3 ADD SWAP1 POP SWAP3 SWAP2 POP POP JUMP JUMPDEST PUSH1 0x0 DUP2 SWAP1 POP PUSH1 0x20 DUP3 ADD SWAP1 POP SWAP2 SWAP1 POP JUMP JUMPDEST PUSH1 0x0 PUSH2 0x269E DUP4 DUP4 PUSH2 0x1F33 JUMP JUMPDEST PUSH1 0x20 DUP4 ADD SWAP1 POP SWAP3 SWAP2 POP POP JUMP JUMPDEST PUSH1 0x0 PUSH1 0x20 DUP3 ADD SWAP1 POP SWAP2 SWAP1 POP JUMP JUMPDEST PUSH1 0x0 PUSH2 0x26C2 DUP3 PUSH2 0x2666 JUMP JUMPDEST PUSH2 0x26CC DUP2 DUP6 PUSH2 0x2671 JUMP JUMPDEST SWAP4 POP PUSH2 0x26D7 DUP4 PUSH2 0x2682 JUMP JUMPDEST DUP1 PUSH1 0x0 JUMPDEST DUP4 DUP2 LT ISZERO PUSH2 0x2708 JUMPI DUP2 MLOAD PUSH2 0x26EF DUP9 DUP3 PUSH2 0x2692 JUMP JUMPDEST SWAP8 POP PUSH2 0x26FA DUP4 PUSH2 0x26AA JUMP JUMPDEST SWAP3 POP POP PUSH1 0x1 DUP2 ADD SWAP1 POP PUSH2 0x26DB JUMP JUMPDEST POP DUP6 SWAP4 POP POP POP POP SWAP3 SWAP2 POP POP JUMP JUMPDEST PUSH1 0x0 PUSH1 0x20 DUP3 ADD SWAP1 POP DUP2 DUP2 SUB PUSH1 0x0 DUP4 ADD MSTORE PUSH2 0x272F DUP2 DUP5 PUSH2 0x26B7 JUMP JUMPDEST SWAP1 POP SWAP3 SWAP2 POP POP JUMP JUMPDEST PUSH1 0x0 PUSH1 0x20 DUP3 ADD SWAP1 POP DUP2 DUP2 SUB PUSH1 0x0 DUP4 ADD MSTORE PUSH2 0x2751 DUP2 DUP5 PUSH2 0x23F3 JUMP JUMPDEST SWAP1 POP SWAP3 SWAP2 POP POP JUMP JUMPDEST PUSH32 0x4E487B7100000000000000000000000000000000000000000000000000000000 PUSH1 0x0 MSTORE PUSH1 0x32 PUSH1 0x4 MSTORE PUSH1 0x24 PUSH1 0x0 REVERT JUMPDEST PUSH32 0x4E487B7100000000000000000000000000000000000000000000000000000000 PUSH1 0x0 MSTORE PUSH1 0x22 PUSH1 0x4 MSTORE PUSH1 0x24 PUSH1 0x0 REVERT JUMPDEST PUSH1 0x0 PUSH1 0x2 DUP3 DIV SWAP1 POP PUSH1 0x1 DUP3 AND DUP1 PUSH2 0x27CF JUMPI PUSH1 0x7F DUP3 AND SWAP2 POP JUMPDEST PUSH1 0x20 DUP3 LT DUP2 SUB PUSH2 0x27E2 JUMPI PUSH2 0x27E1 PUSH2 0x2788 JUMP JUMPDEST JUMPDEST POP SWAP2 SWAP1 POP JUMP JUMPDEST PUSH32 0x446F63746F72206F6E6C79000000000000000000000000000000000000000000 PUSH1 0x0 DUP3 ADD MSTORE POP JUMP JUMPDEST PUSH1 0x0 PUSH2 0x281E PUSH1 0xB DUP4 PUSH2 0x2162 JUMP JUMPDEST SWAP2 POP PUSH2 0x2829 DUP3 PUSH2 0x27E8 JUMP JUMPDEST PUSH1 0x20 DUP3 ADD SWAP1 POP SWAP2 SWAP1 POP JUMP JUMPDEST PUSH1 0x0 PUSH1 0x20 DUP3 ADD SWAP1 POP DUP2 DUP2 SUB PUSH1 0x0 DUP4 ADD MSTORE PUSH2 0x284D DUP2 PUSH2 0x2811 JUMP JUMPDEST SWAP1 POP SWAP2 SWAP1 POP JUMP JUMPDEST PUSH32 0x596F7520686176656E2774206265656E2061737369676E656420746869732070 PUSH1 0x0 DUP3 ADD MSTORE PUSH32 0x617469656E740000000000000000000000000000000000000000000000000000 PUSH1 0x20 DUP3 ADD MSTORE POP JUMP JUMPDEST PUSH1 0x0 PUSH2 0x28B0 PUSH1 0x26 DUP4 PUSH2 0x2162 JUMP JUMPDEST SWAP2 POP PUSH2 0x28BB DUP3 PUSH2 0x2854 JUMP JUMPDEST PUSH1 0x40 DUP3 ADD SWAP1 POP SWAP2 SWAP1 POP JUMP JUMPDEST PUSH1 0x0 PUSH1 0x20 DUP3 ADD SWAP1 POP DUP2 DUP2 SUB PUSH1 0x0 DUP4 ADD MSTORE PUSH2 0x28DF DUP2 PUSH2 0x28A3 JUMP JUMPDEST SWAP1 POP SWAP2 SWAP1 POP JUMP JUMPDEST PUSH32 0x4E6F7420666F722061646D696E00000000000000000000000000000000000000 PUSH1 0x0 DUP3 ADD MSTORE POP JUMP JUMPDEST PUSH1 0x0 PUSH2 0x291C PUSH1 0xD DUP4 PUSH2 0x2162 JUMP JUMPDEST SWAP2 POP PUSH2 0x2927 DUP3 PUSH2 0x28E6 JUMP JUMPDEST PUSH1 0x20 DUP3 ADD SWAP1 POP SWAP2 SWAP1 POP JUMP JUMPDEST PUSH1 0x0 PUSH1 0x20 DUP3 ADD SWAP1 POP DUP2 DUP2 SUB PUSH1 0x0 DUP4 ADD MSTORE PUSH2 0x294B DUP2 PUSH2 0x290F JUMP JUMPDEST SWAP1 POP SWAP2 SWAP1 POP JUMP JUMPDEST PUSH1 0x0 DUP2 SWAP1 POP DUP2 PUSH1 0x0 MSTORE PUSH1 0x20 PUSH1 0x0 KECCAK256 SWAP1 POP SWAP2 SWAP1 POP JUMP JUMPDEST PUSH1 0x0 PUSH1 0x20 PUSH1 0x1F DUP4 ADD DIV SWAP1 POP SWAP2 SWAP1 POP JUMP JUMPDEST PUSH1 0x0 DUP3 DUP3 SHL SWAP1 POP SWAP3 SWAP2 POP POP JUMP JUMPDEST PUSH1 0x0 PUSH1 0x8 DUP4 MUL PUSH2 0x29B4 PUSH32 0xFFFFFFFFFFFFFFFFFFFFFFFFFFFFFFFFFFFFFFFFFFFFFFFFFFFFFFFFFFFFFFFF DUP3 PUSH2 0x2977 JUMP JUMPDEST PUSH2 0x29BE DUP7 DUP4 PUSH2 0x2977 JUMP JUMPDEST SWAP6 POP DUP1 NOT DUP5 AND SWAP4 POP DUP1 DUP7 AND DUP5 OR SWAP3 POP POP POP SWAP4 SWAP3 POP POP POP JUMP JUMPDEST PUSH1 0x0 DUP2 SWAP1 POP SWAP2 SWAP1 POP JUMP JUMPDEST PUSH1 0x0 PUSH2 0x29FB PUSH2 0x29F6 PUSH2 0x29F1 DUP5 PUSH2 0x1E8F JUMP JUMPDEST PUSH2 0x29D6 JUMP JUMPDEST PUSH2 0x1E8F JUMP JUMPDEST SWAP1 POP SWAP2 SWAP1 POP JUMP JUMPDEST PUSH1 0x0 DUP2 SWAP1 POP SWAP2 SWAP1 POP JUMP JUMPDEST PUSH2 0x2A15 DUP4 PUSH2 0x29E0 JUMP JUMPDEST PUSH2 0x2A29 PUSH2 0x2A21 DUP3 PUSH2 0x2A02 JUMP JUMPDEST DUP5 DUP5 SLOAD PUSH2 0x2984 JUMP JUMPDEST DUP3 SSTORE POP POP POP POP JUMP JUMPDEST PUSH1 0x0 SWAP1 JUMP JUMPDEST PUSH2 0x2A3E PUSH2 0x2A31 JUMP JUMPDEST PUSH2 0x2A49 DUP2 DUP5 DUP5 PUSH2 0x2A0C JUMP JUMPDEST POP POP POP JUMP JUMPDEST JUMPDEST DUP2 DUP2 LT ISZERO PUSH2 0x2A6D JUMPI PUSH2 0x2A62 PUSH1 0x0 DUP3 PUSH2 0x2A36 JUMP JUMPDEST PUSH1 0x1 DUP2 ADD SWAP1 POP PUSH2 0x2A4F JUMP JUMPDEST POP POP JUMP JUMPDEST PUSH1 0x1F DUP3 GT ISZERO PUSH2 0x2AB2 JUMPI PUSH2 0x2A83 DUP2 PUSH2 0x2952 JUMP JUMPDEST PUSH2 0x2A8C DUP5 PUSH2 0x2967 JUMP JUMPDEST DUP2 ADD PUSH1 0x20 DUP6 LT ISZERO PUSH2 0x2A9B JUMPI DUP2 SWAP1 POP JUMPDEST PUSH2 0x2AAF PUSH2 0x2AA7 DUP6 PUSH2 0x2967 JUMP JUMPDEST DUP4 ADD DUP3 PUSH2 0x2A4E JUMP JUMPDEST POP POP JUMPDEST POP POP POP JUMP JUMPDEST PUSH1 0x0 DUP3 DUP3 SHR SWAP1 POP SWAP3 SWAP2 POP POP JUMP JUMPDEST PUSH1 0x0 PUSH2 0x2AD5 PUSH1 0x0 NOT DUP5 PUSH1 0x8 MUL PUSH2 0x2AB7 JUMP JUMPDEST NOT DUP1 DUP4 AND SWAP2 POP POP SWAP3 SWAP2 POP POP JUMP JUMPDEST PUSH1 0x0 PUSH2 0x2AEE DUP4 DUP4 PUSH2 0x2AC4 JUMP JUMPDEST SWAP2 POP DUP3 PUSH1 0x2 MUL DUP3 OR SWAP1 POP SWAP3 SWAP2 POP POP JUMP JUMPDEST PUSH2 0x2B07 DUP3 PUSH2 0x1F42 JUMP JUMPDEST PUSH8 0xFFFFFFFFFFFFFFFF DUP2 GT ISZERO PUSH2 0x2B20 JUMPI PUSH2 0x2B1F PUSH2 0x222E JUMP JUMPDEST JUMPDEST PUSH2 0x2B2A DUP3 SLOAD PUSH2 0x27B7 JUMP JUMPDEST PUSH2 0x2B35 DUP3 DUP3 DUP6 PUSH2 0x2A71 JUMP JUMPDEST PUSH1 0x0 PUSH1 0x20 SWAP1 POP PUSH1 0x1F DUP4 GT PUSH1 0x1 DUP2 EQ PUSH2 0x2B68 JUMPI PUSH1 0x0 DUP5 ISZERO PUSH2 0x2B56 JUMPI DUP3 DUP8 ADD MLOAD SWAP1 POP JUMPDEST PUSH2 0x2B60 DUP6 DUP3 PUSH2 0x2AE2 JUMP JUMPDEST DUP7 SSTORE POP PUSH2 0x2BC8 JUMP JUMPDEST PUSH1 0x1F NOT DUP5 AND PUSH2 0x2B76 DUP7 PUSH2 0x2952 JUMP JUMPDEST PUSH1 0x0 JUMPDEST DUP3 DUP2 LT ISZERO PUSH2 0x2B9E JUMPI DUP5 DUP10 ADD MLOAD DUP3 SSTORE PUSH1 0x1 DUP3 ADD SWAP2 POP PUSH1 0x20 DUP6 ADD SWAP5 POP PUSH1 0x20 DUP2 ADD SWAP1 POP PUSH2 0x2B79 JUMP JUMPDEST DUP7 DUP4 LT ISZERO PUSH2 0x2BBB JUMPI DUP5 DUP10 ADD MLOAD PUSH2 0x2BB7 PUSH1 0x1F DUP10 AND DUP3 PUSH2 0x2AC4 JUMP JUMPDEST DUP4 SSTORE POP JUMPDEST PUSH1 0x1 PUSH1 0x2 DUP9 MUL ADD DUP9 SSTORE POP POP POP JUMPDEST POP POP POP POP POP POP JUMP JUMPDEST PUSH32 0x41646D696E206F6E6C7900000000000000000000000000000000000000000000 PUSH1 0x0 DUP3 ADD MSTORE POP JUMP JUMPDEST PUSH1 0x0 PUSH2 0x2C06 PUSH1 0xA DUP4 PUSH2 0x2162 JUMP JUMPDEST SWAP2 POP PUSH2 0x2C11 DUP3 PUSH2 0x2BD0 JUMP JUMPDEST PUSH1 0x20 DUP3 ADD SWAP1 POP SWAP2 SWAP1 POP JUMP JUMPDEST PUSH1 0x0 PUSH1 0x20 DUP3 ADD SWAP1 POP DUP2 DUP2 SUB PUSH1 0x0 DUP4 ADD MSTORE PUSH2 0x2C35 DUP2 PUSH2 0x2BF9 JUMP JUMPDEST SWAP1 POP SWAP2 SWAP1 POP JUMP JUMPDEST PUSH32 0x596F7520617265206E6F7420656C696769626C6520666F72207468697320726F PUSH1 0x0 DUP3 ADD MSTORE PUSH32 0x6C65000000000000000000000000000000000000000000000000000000000000 PUSH1 0x20 DUP3 ADD MSTORE POP JUMP JUMPDEST PUSH1 0x0 PUSH2 0x2C98 PUSH1 0x22 DUP4 PUSH2 0x2162 JUMP JUMPDEST SWAP2 POP PUSH2 0x2CA3 DUP3 PUSH2 0x2C3C JUMP JUMPDEST PUSH1 0x40 DUP3 ADD SWAP1 POP SWAP2 SWAP1 POP JUMP JUMPDEST PUSH1 0x0 PUSH1 0x20 DUP3 ADD SWAP1 POP DUP2 DUP2 SUB PUSH1 0x0 DUP4 ADD MSTORE PUSH2 0x2CC7 DUP2 PUSH2 0x2C8B JUMP JUMPDEST SWAP1 POP SWAP2 SWAP1 POP JUMP JUMPDEST PUSH32 0x526F6C65733A206163636F756E7420616C72656164792068617320726F6C6500 PUSH1 0x0 DUP3 ADD MSTORE POP JUMP JUMPDEST PUSH1 0x0 PUSH2 0x2D04 PUSH1 0x1F DUP4 PUSH2 0x2162 JUMP JUMPDEST SWAP2 POP PUSH2 0x2D0F DUP3 PUSH2 0x2CCE JUMP JUMPDEST PUSH1 0x20 DUP3 ADD SWAP1 POP SWAP2 SWAP1 POP JUMP JUMPDEST PUSH1 0x0 PUSH1 0x20 DUP3 ADD SWAP1 POP DUP2 DUP2 SUB PUSH1 0x0 DUP4 ADD MSTORE PUSH2 0x2D33 DUP2 PUSH2 0x2CF7 JUMP JUMPDEST SWAP1 POP SWAP2 SWAP1 POP JUMP INVALID LOG2 PUSH5 0x6970667358 0x22 SLT KECCAK256 0xF8 0xAA SSTORE 0xEC 0xE PUSH14 0x7496FD389A414579C4F63D6C1716 0xD4 0x26 PUSH15 0xB86B0D349D8F46C5DA64736F6C6343 STOP ADDMOD 0xF STOP CALLER "},"gasEstimates":{"creation":{"codeDepositCost":"2326400","executionCost":"infinite","totalCost":"infinite"},"external":{"addDoctor(address,string,string)":"infinite","addPatient(address,string,string)":"infinite","admin()":"2624","assign(address,address)":"infinite","createAppointment(address,string,string,uint256)":"infinite","createRecord(address,string)":"infinite","doctorList(uint256)":"5002","getDoctor(address)":"infinite","getDoctorList()":"infinite","getMedicalRecord(uint256)":"infinite","getPatient(address)":"infinite","getRecordCount(address)":"infinite","getRecordNumbers(address)":"infinite","isAssignedToDoctor(address)":"3011","isDoctor(address)":"infinite","isPatient(address)":"infinite","patientList(uint256)":"5044","recordList(uint256)":"infinite"},"internal":{"addAppointmentToRecord(uint256,uint256)":"48649"}},"methodIdentifiers":{"addDoctor(address,string,string)":"34b78998","addPatient(address,string,string)":"37b16b50","admin()":"f851a440","assign(address,address)":"9429e171","createAppointment(address,string,string,uint256)":"34b3e4f1","createRecord(address,string)":"1f21a79d","doctorList(uint256)":"127ca4b4","getDoctor(address)":"2f04e064","getDoctorList()":"a71aefc9","getMedicalRecord(uint256)":"0c388722","getPatient(address)":"b5368e20","getRecordCount(address)":"58214308","getRecordNumbers(address)":"b105e22e","isAssignedToDoctor(address)":"400d288f","isDoctor(address)":"996440c6","isPatient(address)":"8f9c79ed","patientList(uint256)":"babb1d41","recordList(uint256)":"19da83a8"}},"storageLayout":{"storage":[{"astId":85,"contract":"Contract.sol:Contract","label":"adminRole","offset":0,"slot":"0","type":"t_struct(Role)7_storage"},{"astId":88,"contract":"Contract.sol:Contract","label":"doctorRole","offset":0,"slot":"1","type":"t_struct(Role)7_storage"},{"astId":91,"contract":"Contract.sol:Contract","label":"patientRole","offset":0,"slot":"2","type":"t_struct(Role)7_storage"},{"astId":139,"contract":"Contract.sol:Contract","label":"addressToDoctorMapping","offset":0,"slot":"3","type":"t_mapping(t_address,t_struct(Doctor)101_storage)"},{"astId":144,"contract":"Contract.sol:Contract","label":"addressToPatientMapping","offset":0,"slot":"4","type":"t_mapping(t_address,t_struct(Patient)111_storage)"},{"astId":148,"contract":"Contract.sol:Contract","label":"patientToDoctorMapping","offset":0,"slot":"5","type":"t_mapping(t_address,t_address)"},{"astId":152,"contract":"Contract.sol:Contract","label":"appointmentList","offset":0,"slot":"6","type":"t_array(t_struct(Appointment)134_storage)dyn_storage"},{"astId":156,"contract":"Contract.sol:Contract","label":"recordList","offset":0,"slot":"7","type":"t_array(t_struct(Record)123_storage)dyn_storage"},{"astId":159,"contract":"Contract.sol:Contract","label":"doctorList","offset":0,"slot":"8","type":"t_array(t_address)dyn_storage"},{"astId":162,"contract":"Contract.sol:Contract","label":"patientList","offset":0,"slot":"9","type":"t_array(t_address)dyn_storage"},{"astId":164,"contract":"Contract.sol:Contract","label":"admin","offset":0,"slot":"10","type":"t_address"}],"types":{"t_address":{"encoding":"inplace","label":"address","numberOfBytes":"20"},"t_array(t_address)dyn_storage":{"base":"t_address","encoding":"dynamic_array","label":"address[]","numberOfBytes":"32"},"t_array(t_struct(Appointment)134_storage)dyn_storage":{"base":"t_struct(Appointment)134_storage","encoding":"dynamic_array","label":"struct Contract.Appointment[]","numberOfBytes":"32"},"t_array(t_struct(Record)123_storage)dyn_storage":{"base":"t_struct(Record)123_storage","encoding":"dynamic_array","label":"struct Contract.Record[]","numberOfBytes":"32"},"t_array(t_uint256)dyn_storage":{"base":"t_uint256","encoding":"dynamic_array","label":"uint256[]","numberOfBytes":"32"},"t_bool":{"encoding":"inplace","label":"bool","numberOfBytes":"1"},"t_mapping(t_address,t_address)":{"encoding":"mapping","key":"t_address","label":"mapping(address => address)","numberOfBytes":"32","value":"t_address"},"t_mapping(t_address,t_bool)":{"encoding":"mapping","key":"t_address","label":"mapping(address => bool)","numberOfBytes":"32","value":"t_bool"},"t_mapping(t_address,t_struct(Doctor)101_storage)":{"encoding":"mapping","key":"t_address","label":"mapping(address => struct Contract.Doctor)","numberOfBytes":"32","value":"t_struct(Doctor)101_storage"},"t_mapping(t_address,t_struct(Patient)111_storage)":{"encoding":"mapping","key":"t_address","label":"mapping(address => struct Contract.Patient)","numberOfBytes":"32","value":"t_struct(Patient)111_storage"},"t_string_storage":{"encoding":"bytes","label":"string","numberOfBytes":"32"},"t_struct(Appointment)134_storage":{"encoding":"inplace","label":"struct Contract.Appointment","members":[{"astId":125,"contract":"Contract.sol:Contract","label":"number","offset":0,"slot":"0","type":"t_uint256"},{"astId":127,"contract":"Contract.sol:Contract","label":"patientAddress","offset":0,"slot":"1","type":"t_address"},{"astId":129,"contract":"Contract.sol:Contract","label":"doctorAddress","offset":0,"slot":"2","type":"t_address"},{"astId":131,"contract":"Contract.sol:Contract","label":"diagnosis","offset":0,"slot":"3","type":"t_string_storage"},{"astId":133,"contract":"Contract.sol:Contract","label":"treatmentPrescribed","offset":0,"slot":"4","type":"t_string_storage"}],"numberOfBytes":"160"},"t_struct(Doctor)101_storage":{"encoding":"inplace","label":"struct Contract.Doctor","members":[{"astId":93,"contract":"Contract.sol:Contract","label":"name","offset":0,"slot":"0","type":"t_string_storage"},{"astId":95,"contract":"Contract.sol:Contract","label":"phoneNumber","offset":0,"slot":"1","type":"t_string_storage"},{"astId":98,"contract":"Contract.sol:Contract","label":"recordNumberList","offset":0,"slot":"2","type":"t_array(t_uint256)dyn_storage"},{"astId":100,"contract":"Contract.sol:Contract","label":"recordCount","offset":0,"slot":"3","type":"t_uint256"}],"numberOfBytes":"128"},"t_struct(Patient)111_storage":{"encoding":"inplace","label":"struct Contract.Patient","members":[{"astId":103,"contract":"Contract.sol:Contract","label":"name","offset":0,"slot":"0","type":"t_string_storage"},{"astId":105,"contract":"Contract.sol:Contract","label":"phoneNumber","offset":0,"slot":"1","type":"t_string_storage"},{"astId":108,"contract":"Contract.sol:Contract","label":"recordNumberList","offset":0,"slot":"2","type":"t_array(t_uint256)dyn_storage"},{"astId":110,"contract":"Contract.sol:Contract","label":"recordCount","offset":0,"slot":"3","type":"t_uint256"}],"numberOfBytes":"128"},"t_struct(Record)123_storage":{"encoding":"inplace","label":"struct Contract.Record","members":[{"astId":113,"contract":"Contract.sol:Contract","label":"recordNumber","offset":0,"slot":"0","type":"t_uint256"},{"astId":115,"contract":"Contract.sol:Contract","label":"doctorAddress","offset":0,"slot":"1","type":"t_address"},{"astId":117,"contract":"Contract.sol:Contract","label":"patientAddress","offset":0,"slot":"2","type":"t_address"},{"astId":119,"contract":"Contract.sol:Contract","label":"patientHistoryDescription","offset":0,"slot":"3","type":"t_string_storage"},{"astId":122,"contract":"Contract.sol:Contract","label":"appointmentNumberList","offset":0,"slot":"4","type":"t_array(t_uint256)dyn_storage"}],"numberOfBytes":"160"},"t_struct(Role)7_storage":{"encoding":"inplace","label":"struct Roles.Role","members":[{"astId":6,"contract":"Contract.sol:Contract","label":"bearer","offset":0,"slot":"0","type":"t_mapping(t_address,t_bool)"}],"numberOfBytes":"32"},"t_uint256":{"encoding":"inplace","label":"uint256","numberOfBytes":"32"}}},"userdoc":{"kind":"user","methods":{},"version":1}}