{"abi":[{"inputs":[],"stateMutability":"nonpayable","type":"constructor"},{"inputs":[{"internalType":"address","name":"doctorAddress","type":"address"},{"internalType":"string","name":"doctorName","type":"string"},{"internalType":"string","name":"phoneNumber","type":"string"}],"name":"addDoctor","outputs":[],"stateMutability":"nonpayable","type":"function"},{"inputs":[{"internalType":"address","name":"patientAddress","type":"address"},{"internalType":"string","name":"patientName","type":"string"},{"internalType":"string","name":"phoneNumber","type":"string"}],"name":"addPatient","outputs":[],"stateMutability":"nonpayable","type":"function"},{"inputs":[],"name":"admin","outputs":[{"internalType":"address","name":"","type":"address"}],"stateMutability":"view","type":"function"},{"inputs":[{"internalType":"address","name":"patientAddress","type":"address"},{"internalType":"address","name":"doctorAddress","type":"address"}],"name":"assign","outputs":[],"stateMutability":"nonpayable","type":"function"},{"inputs":[{"internalType":"address","name":"patientAddress","type":"address"},{"internalType":"string","name":"diagnosis","type":"string"},{"internalType":"string","name":"treatmentPrescribed","type":"string"},{"internalType":"uint256","name":"recordNumber","type":"uint256"}],"name":"createAppointment","outputs":[],"stateMutability":"nonpayable","type":"function"},{"inputs":[{"internalType":"address","name":"patientAddress","type":"address"},{"internalType":"string","name":"patientHistoryDescription","type":"string"}],"name":"createRecord","outputs":[],"stateMutability":"nonpayable","type":"function"},{"inputs":[{"internalType":"uint256","name":"","type":"uint256"}],"name":"doctorList","outputs":[{"internalType":"address","name":"","type":"address"}],"stateMutability":"view","type":"function"},{"inputs":[{"internalType":"address","name":"doctorAddress","type":"address"}],"name":"getDoctor","outputs":[{"internalType":"string","name":"","type":"string"},{"internalType":"string","name":"","type":"string"}],"stateMutability":"view","type":"function"},{"inputs":[],"name":"getDoctorList","outputs":[{"internalType":"address[]","name":"","type":"address[]"}],"stateMutability":"view","type":"function"},{"inputs":[{"internalType":"uint256","name":"recordNumber","type":"uint256"}],"name":"getMedicalRecord","outputs":[{"components":[{"internalType":"uint256","name":"recordNumber","type":"uint256"},{"internalType":"address","name":"doctorAddress","type":"address"},{"internalType":"address","name":"patientAddress","type":"address"},{"internalType":"string","name":"patientHistoryDescription","type":"string"},{"internalType":"uint256[]","name":"appointmentNumberList","type":"uint256[]"}],"internalType":"struct Contract.Record","name":"","type":"tuple"}],"stateMutability":"view","type":"function"},{"inputs":[{"internalType":"address","name":"senderAddress","type":"address"}],"name":"getRecordCount","outputs":[{"internalType":"uint256","name":"","type":"uint256"}],"stateMutability":"view","type":"function"},{"inputs":[{"internalType":"address","name":"senderAddress","type":"address"}],"name":"getRecordNumbers","outputs":[{"internalType":"uint256[]","name":"","type":"uint256[]"}],"stateMutability":"view","type":"function"},{"inputs":[{"internalType":"address","name":"patientAddress","type":"address"}],"name":"isAssignedToDoctor","outputs":[{"internalType":"bool","name":"","type":"bool"}],"stateMutability":"view","type":"function"},{"inputs":[{"internalType":"address","name":"givenAddress","type":"address"}],"name":"isDoctor","outputs":[{"internalType":"bool","name":"","type":"bool"}],"stateMutability":"view","type":"function"},{"inputs":[{"internalType":"address","name":"givenAddress","type":"address"}],"name":"isPatient","outputs":[{"internalType":"bool","name":"","type":"bool"}],"stateMutability":"view","type":"function"},{"inputs":[{"internalType":"uint256","name":"","type":"uint256"}],"name":"patientList","outputs":[{"internalType":"address","name":"","type":"address"}],"stateMutability":"view","type":"function"},{"inputs":[{"internalType":"uint256","name":"","type":"uint256"}],"name":"recordList","outputs":[{"internalType":"uint256","name":"recordNumber","type":"uint256"},{"internalType":"address","name":"doctorAddress","type":"address"},{"internalType":"address","name":"patientAddress","type":"address"},{"internalType":"string","name":"patientHistoryDescription","type":"string"}],"stateMutability":"view","type":"function"}],"devdoc":{"kind":"dev","methods":{},"version":1},"evm":{"assembly":"    /* \"Contract.sol\":961:8086  contract Contract... */\n  mstore(0x40, 0x80)\n    /* \"Contract.sol\":2118:2202  constructor() ... */\n  callvalue\n  dup1\n  iszero\n  tag_1\n  jumpi\n  0x00\n  dup1\n  revert\ntag_1:\n  pop\n    /* \"Contract.sol\":2155:2165  msg.sender */\n  caller\n    /* \"Contract.sol\":2147:2152  admin */\n  0x0a\n  0x00\n    /* \"Contract.sol\":2147:2165  admin = msg.sender */\n  0x0100\n  exp\n  dup2\n  sload\n  dup2\n  0xffffffffffffffffffffffffffffffffffffffff\n  mul\n  not\n  and\n  swap1\n  dup4\n  0xffffffffffffffffffffffffffffffffffffffff\n  and\n  mul\n  or\n  swap1\n  sstore\n  pop\n    /* \"Contract.sol\":2175:2195  adminRole.add(admin) */\n  tag_4\n    /* \"Contract.sol\":2189:2194  admin */\n  0x0a\n  0x00\n  swap1\n  sload\n  swap1\n  0x0100\n  exp\n  swap1\n  div\n  0xffffffffffffffffffffffffffffffffffffffff\n  and\n    /* \"Contract.sol\":2175:2184  adminRole */\n  0x00\n    /* \"Contract.sol\":2175:2188  adminRole.add */\n  or(tag_0_98, shl(0x20, tag_5))\n  swap1\n    /* \"Contract.sol\":2175:2195  adminRole.add(admin) */\n  swap2\n  swap1\n  0x20\n  shr\n  jump\t// in\ntag_4:\n    /* \"Contract.sol\":961:8086  contract Contract... */\n  jump(tag_6)\n    /* \"Contract.sol\":301:481  function add(Role storage role, address account) internal ... */\ntag_5:\n    /* \"Contract.sol\":383:401  has(role, account) */\n  tag_8\n    /* \"Contract.sol\":387:391  role */\n  dup3\n    /* \"Contract.sol\":393:400  account */\n  dup3\n    /* \"Contract.sol\":383:386  has */\n  shl(0x20, tag_9)\n    /* \"Contract.sol\":383:401  has(role, account) */\n  0x20\n  shr\n  jump\t// in\ntag_8:\n    /* \"Contract.sol\":382:401  !has(role, account) */\n  iszero\n    /* \"Contract.sol\":374:437  require(!has(role, account), \"Roles: account already has role\") */\n  tag_10\n  jumpi\n  mload(0x40)\n  0x08c379a000000000000000000000000000000000000000000000000000000000\n  dup2\n  mstore\n  0x04\n  add\n  tag_11\n  swap1\n  tag_12\n  jump\t// in\ntag_11:\n  mload(0x40)\n  dup1\n  swap2\n  sub\n  swap1\n  revert\ntag_10:\n    /* \"Contract.sol\":470:474  true */\n  0x01\n    /* \"Contract.sol\":447:451  role */\n  dup3\n    /* \"Contract.sol\":447:458  role.bearer */\n  0x00\n  add\n    /* \"Contract.sol\":447:467  role.bearer[account] */\n  0x00\n    /* \"Contract.sol\":459:466  account */\n  dup4\n    /* \"Contract.sol\":447:467  role.bearer[account] */\n  0xffffffffffffffffffffffffffffffffffffffff\n  and\n  0xffffffffffffffffffffffffffffffffffffffff\n  and\n  dup2\n  mstore\n  0x20\n  add\n  swap1\n  dup2\n  mstore\n  0x20\n  add\n  0x00\n  keccak256\n  0x00\n    /* \"Contract.sol\":447:474  role.bearer[account] = true */\n  0x0100\n  exp\n  dup2\n  sload\n  dup2\n  0xff\n  mul\n  not\n  and\n  swap1\n  dup4\n  iszero\n  iszero\n  mul\n  or\n  swap1\n  sstore\n  pop\n    /* \"Contract.sol\":301:481  function add(Role storage role, address account) internal ... */\n  pop\n  pop\n  jump\t// out\n    /* \"Contract.sol\":830:957  function has(Role storage role, address account) internal view returns (bool) ... */\ntag_9:\n    /* \"Contract.sol\":902:906  bool */\n  0x00\n    /* \"Contract.sol\":930:934  role */\n  dup3\n    /* \"Contract.sol\":930:941  role.bearer */\n  0x00\n  add\n    /* \"Contract.sol\":930:950  role.bearer[account] */\n  0x00\n    /* \"Contract.sol\":942:949  account */\n  dup4\n    /* \"Contract.sol\":930:950  role.bearer[account] */\n  0xffffffffffffffffffffffffffffffffffffffff\n  and\n  0xffffffffffffffffffffffffffffffffffffffff\n  and\n  dup2\n  mstore\n  0x20\n  add\n  swap1\n  dup2\n  mstore\n  0x20\n  add\n  0x00\n  keccak256\n  0x00\n  swap1\n  sload\n  swap1\n  0x0100\n  exp\n  swap1\n  div\n  0xff\n  and\n    /* \"Contract.sol\":923:950  return role.bearer[account] */\n  swap1\n  pop\n    /* \"Contract.sol\":830:957  function has(Role storage role, address account) internal view returns (bool) ... */\n  swap3\n  swap2\n  pop\n  pop\n  jump\t// out\n    /* \"#utility.yul\":7:176   */\ntag_14:\n    /* \"#utility.yul\":91:102   */\n  0x00\n    /* \"#utility.yul\":125:131   */\n  dup3\n    /* \"#utility.yul\":120:123   */\n  dup3\n    /* \"#utility.yul\":113:132   */\n  mstore\n    /* \"#utility.yul\":165:169   */\n  0x20\n    /* \"#utility.yul\":160:163   */\n  dup3\n    /* \"#utility.yul\":156:170   */\n  add\n    /* \"#utility.yul\":141:170   */\n  swap1\n  pop\n    /* \"#utility.yul\":7:176   */\n  swap3\n  swap2\n  pop\n  pop\n  jump\t// out\n    /* \"#utility.yul\":182:363   */\ntag_15:\n    /* \"#utility.yul\":322:355   */\n  0x526f6c65733a206163636f756e7420616c72656164792068617320726f6c6500\n    /* \"#utility.yul\":318:319   */\n  0x00\n    /* \"#utility.yul\":310:316   */\n  dup3\n    /* \"#utility.yul\":306:320   */\n  add\n    /* \"#utility.yul\":299:356   */\n  mstore\n    /* \"#utility.yul\":182:363   */\n  pop\n  jump\t// out\n    /* \"#utility.yul\":369:735   */\ntag_16:\n    /* \"#utility.yul\":511:514   */\n  0x00\n    /* \"#utility.yul\":532:599   */\n  tag_21\n    /* \"#utility.yul\":596:598   */\n  0x1f\n    /* \"#utility.yul\":591:594   */\n  dup4\n    /* \"#utility.yul\":532:599   */\n  tag_14\n  jump\t// in\ntag_21:\n    /* \"#utility.yul\":525:599   */\n  swap2\n  pop\n    /* \"#utility.yul\":608:701   */\n  tag_22\n    /* \"#utility.yul\":697:700   */\n  dup3\n    /* \"#utility.yul\":608:701   */\n  tag_15\n  jump\t// in\ntag_22:\n    /* \"#utility.yul\":726:728   */\n  0x20\n    /* \"#utility.yul\":721:724   */\n  dup3\n    /* \"#utility.yul\":717:729   */\n  add\n    /* \"#utility.yul\":710:729   */\n  swap1\n  pop\n    /* \"#utility.yul\":369:735   */\n  swap2\n  swap1\n  pop\n  jump\t// out\n    /* \"#utility.yul\":741:1160   */\ntag_12:\n    /* \"#utility.yul\":907:911   */\n  0x00\n    /* \"#utility.yul\":945:947   */\n  0x20\n    /* \"#utility.yul\":934:943   */\n  dup3\n    /* \"#utility.yul\":930:948   */\n  add\n    /* \"#utility.yul\":922:948   */\n  swap1\n  pop\n    /* \"#utility.yul\":994:1003   */\n  dup2\n    /* \"#utility.yul\":988:992   */\n  dup2\n    /* \"#utility.yul\":984:1004   */\n  sub\n    /* \"#utility.yul\":980:981   */\n  0x00\n    /* \"#utility.yul\":969:978   */\n  dup4\n    /* \"#utility.yul\":965:982   */\n  add\n    /* \"#utility.yul\":958:1005   */\n  mstore\n    /* \"#utility.yul\":1022:1153   */\n  tag_24\n    /* \"#utility.yul\":1148:1152   */\n  dup2\n    /* \"#utility.yul\":1022:1153   */\n  tag_16\n  jump\t// in\ntag_24:\n    /* \"#utility.yul\":1014:1153   */\n  swap1\n  pop\n    /* \"#utility.yul\":741:1160   */\n  swap2\n  swap1\n  pop\n  jump\t// out\n    /* \"Contract.sol\":961:8086  contract Contract... */\ntag_6:\n  dataSize(sub_0)\n  dup1\n  dataOffset(sub_0)\n  0x00\n  codecopy\n  0x00\n  return\nstop\n\nsub_0: assembly {\n        /* \"Contract.sol\":961:8086  contract Contract... */\n      mstore(0x40, 0x80)\n      callvalue\n      dup1\n      iszero\n      tag_1\n      jumpi\n      0x00\n      dup1\n      revert\n    tag_1:\n      pop\n      jumpi(tag_2, lt(calldatasize, 0x04))\n      shr(0xe0, calldataload(0x00))\n      dup1\n      0x400d288f\n      gt\n      tag_20\n      jumpi\n      dup1\n      0x996440c6\n      gt\n      tag_21\n      jumpi\n      dup1\n      0x996440c6\n      eq\n      tag_15\n      jumpi\n      dup1\n      0xa71aefc9\n      eq\n      tag_16\n      jumpi\n      dup1\n      0xb105e22e\n      eq\n      tag_17\n      jumpi\n      dup1\n      0xbabb1d41\n      eq\n      tag_18\n      jumpi\n      dup1\n      0xf851a440\n      eq\n      tag_19\n      jumpi\n      jump(tag_2)\n    tag_21:\n      dup1\n      0x400d288f\n      eq\n      tag_11\n      jumpi\n      dup1\n      0x58214308\n      eq\n      tag_12\n      jumpi\n      dup1\n      0x8f9c79ed\n      eq\n      tag_13\n      jumpi\n      dup1\n      0x9429e171\n      eq\n      tag_14\n      jumpi\n      jump(tag_2)\n    tag_20:\n      dup1\n      0x2f04e064\n      gt\n      tag_22\n      jumpi\n      dup1\n      0x2f04e064\n      eq\n      tag_7\n      jumpi\n      dup1\n      0x34b3e4f1\n      eq\n      tag_8\n      jumpi\n      dup1\n      0x34b78998\n      eq\n      tag_9\n      jumpi\n      dup1\n      0x37b16b50\n      eq\n      tag_10\n      jumpi\n      jump(tag_2)\n    tag_22:\n      dup1\n      0x0c388722\n      eq\n      tag_3\n      jumpi\n      dup1\n      0x127ca4b4\n      eq\n      tag_4\n      jumpi\n      dup1\n      0x19da83a8\n      eq\n      tag_5\n      jumpi\n      dup1\n      0x1f21a79d\n      eq\n      tag_6\n      jumpi\n    tag_2:\n      0x00\n      dup1\n      revert\n        /* \"Contract.sol\":6035:6302  function getMedicalRecord(uint recordNumber) public view returns(Record memory)... */\n    tag_3:\n      tag_23\n      0x04\n      dup1\n      calldatasize\n      sub\n      dup2\n      add\n      swap1\n      tag_24\n      swap2\n      swap1\n      tag_25\n      jump\t// in\n    tag_24:\n      tag_26\n      jump\t// in\n    tag_23:\n      mload(0x40)\n      tag_27\n      swap2\n      swap1\n      tag_28\n      jump\t// in\n    tag_27:\n      mload(0x40)\n      dup1\n      swap2\n      sub\n      swap1\n      return\n        /* \"Contract.sol\":2023:2050  address[] public doctorList */\n    tag_4:\n      tag_29\n      0x04\n      dup1\n      calldatasize\n      sub\n      dup2\n      add\n      swap1\n      tag_30\n      swap2\n      swap1\n      tag_25\n      jump\t// in\n    tag_30:\n      tag_31\n      jump\t// in\n    tag_29:\n      mload(0x40)\n      tag_32\n      swap2\n      swap1\n      tag_33\n      jump\t// in\n    tag_32:\n      mload(0x40)\n      dup1\n      swap2\n      sub\n      swap1\n      return\n        /* \"Contract.sol\":1990:2016  Record[] public recordList */\n    tag_5:\n      tag_34\n      0x04\n      dup1\n      calldatasize\n      sub\n      dup2\n      add\n      swap1\n      tag_35\n      swap2\n      swap1\n      tag_25\n      jump\t// in\n    tag_35:\n      tag_36\n      jump\t// in\n    tag_34:\n      mload(0x40)\n      tag_37\n      swap5\n      swap4\n      swap3\n      swap2\n      swap1\n      tag_38\n      jump\t// in\n    tag_37:\n      mload(0x40)\n      dup1\n      swap2\n      sub\n      swap1\n      return\n        /* \"Contract.sol\":4401:5227  function createRecord(address patientAddress, string memory patientHistoryDescription) public doctorOnly assignedDoctorOnly(patientAddress) notForAdmin... */\n    tag_6:\n      tag_39\n      0x04\n      dup1\n      calldatasize\n      sub\n      dup2\n      add\n      swap1\n      tag_40\n      swap2\n      swap1\n      tag_41\n      jump\t// in\n    tag_40:\n      tag_42\n      jump\t// in\n    tag_39:\n      stop\n        /* \"Contract.sol\":2836:3094  function getDoctor(address doctorAddress) public view returns(string memory, string memory)... */\n    tag_7:\n      tag_43\n      0x04\n      dup1\n      calldatasize\n      sub\n      dup2\n      add\n      swap1\n      tag_44\n      swap2\n      swap1\n      tag_45\n      jump\t// in\n    tag_44:\n      tag_46\n      jump\t// in\n    tag_43:\n      mload(0x40)\n      tag_47\n      swap3\n      swap2\n      swap1\n      tag_48\n      jump\t// in\n    tag_47:\n      mload(0x40)\n      dup1\n      swap2\n      sub\n      swap1\n      return\n        /* \"Contract.sol\":6335:6971  function createAppointment... */\n    tag_8:\n      tag_49\n      0x04\n      dup1\n      calldatasize\n      sub\n      dup2\n      add\n      swap1\n      tag_50\n      swap2\n      swap1\n      tag_51\n      jump\t// in\n    tag_50:\n      tag_52\n      jump\t// in\n    tag_49:\n      stop\n        /* \"Contract.sol\":2230:2723  function addDoctor(address doctorAddress, string memory doctorName, string memory phoneNumber) public adminOnly... */\n    tag_9:\n      tag_53\n      0x04\n      dup1\n      calldatasize\n      sub\n      dup2\n      add\n      swap1\n      tag_54\n      swap2\n      swap1\n      tag_55\n      jump\t// in\n    tag_54:\n      tag_56\n      jump\t// in\n    tag_53:\n      stop\n        /* \"Contract.sol\":3120:3630  function addPatient(address patientAddress, string memory patientName, string memory phoneNumber) public adminOnly... */\n    tag_10:\n      tag_57\n      0x04\n      dup1\n      calldatasize\n      sub\n      dup2\n      add\n      swap1\n      tag_58\n      swap2\n      swap1\n      tag_55\n      jump\t// in\n    tag_58:\n      tag_59\n      jump\t// in\n    tag_57:\n      stop\n        /* \"Contract.sol\":4196:4365  function isAssignedToDoctor(address patientAddress) public view doctorOnly returns(bool)... */\n    tag_11:\n      tag_60\n      0x04\n      dup1\n      calldatasize\n      sub\n      dup2\n      add\n      swap1\n      tag_61\n      swap2\n      swap1\n      tag_45\n      jump\t// in\n    tag_61:\n      tag_62\n      jump\t// in\n    tag_60:\n      mload(0x40)\n      tag_63\n      swap2\n      swap1\n      tag_64\n      jump\t// in\n    tag_63:\n      mload(0x40)\n      dup1\n      swap2\n      sub\n      swap1\n      return\n        /* \"Contract.sol\":5258:5600  function getRecordCount(address senderAddress) public view assignablesOnly(senderAddress) returns(uint)... */\n    tag_12:\n      tag_65\n      0x04\n      dup1\n      calldatasize\n      sub\n      dup2\n      add\n      swap1\n      tag_66\n      swap2\n      swap1\n      tag_45\n      jump\t// in\n    tag_66:\n      tag_67\n      jump\t// in\n    tag_65:\n      mload(0x40)\n      tag_68\n      swap2\n      swap1\n      tag_69\n      jump\t// in\n    tag_68:\n      mload(0x40)\n      dup1\n      swap2\n      sub\n      swap1\n      return\n        /* \"Contract.sol\":4027:4151  function isPatient(address givenAddress) public view returns(bool)... */\n    tag_13:\n      tag_70\n      0x04\n      dup1\n      calldatasize\n      sub\n      dup2\n      add\n      swap1\n      tag_71\n      swap2\n      swap1\n      tag_45\n      jump\t// in\n    tag_71:\n      tag_72\n      jump\t// in\n    tag_70:\n      mload(0x40)\n      tag_73\n      swap2\n      swap1\n      tag_64\n      jump\t// in\n    tag_73:\n      mload(0x40)\n      dup1\n      swap2\n      sub\n      swap1\n      return\n        /* \"Contract.sol\":3684:3839  function assign(address patientAddress, address doctorAddress) public adminOnly... */\n    tag_14:\n      tag_74\n      0x04\n      dup1\n      calldatasize\n      sub\n      dup2\n      add\n      swap1\n      tag_75\n      swap2\n      swap1\n      tag_76\n      jump\t// in\n    tag_75:\n      tag_77\n      jump\t// in\n    tag_74:\n      stop\n        /* \"Contract.sol\":3871:3993  function isDoctor(address givenAddress) public view returns(bool)... */\n    tag_15:\n      tag_78\n      0x04\n      dup1\n      calldatasize\n      sub\n      dup2\n      add\n      swap1\n      tag_79\n      swap2\n      swap1\n      tag_45\n      jump\t// in\n    tag_79:\n      tag_80\n      jump\t// in\n    tag_78:\n      mload(0x40)\n      tag_81\n      swap2\n      swap1\n      tag_64\n      jump\t// in\n    tag_81:\n      mload(0x40)\n      dup1\n      swap2\n      sub\n      swap1\n      return\n        /* \"Contract.sol\":2729:2830  function getDoctorList() public view returns(address[] memory)... */\n    tag_16:\n      tag_82\n      tag_83\n      jump\t// in\n    tag_82:\n      mload(0x40)\n      tag_84\n      swap2\n      swap1\n      tag_85\n      jump\t// in\n    tag_84:\n      mload(0x40)\n      dup1\n      swap2\n      sub\n      swap1\n      return\n        /* \"Contract.sol\":5633:5996  function getRecordNumbers(address senderAddress) public view assignablesOnly(senderAddress) returns(uint[] memory)... */\n    tag_17:\n      tag_86\n      0x04\n      dup1\n      calldatasize\n      sub\n      dup2\n      add\n      swap1\n      tag_87\n      swap2\n      swap1\n      tag_45\n      jump\t// in\n    tag_87:\n      tag_88\n      jump\t// in\n    tag_86:\n      mload(0x40)\n      tag_89\n      swap2\n      swap1\n      tag_90\n      jump\t// in\n    tag_89:\n      mload(0x40)\n      dup1\n      swap2\n      sub\n      swap1\n      return\n        /* \"Contract.sol\":2056:2084  address[] public patientList */\n    tag_18:\n      tag_91\n      0x04\n      dup1\n      calldatasize\n      sub\n      dup2\n      add\n      swap1\n      tag_92\n      swap2\n      swap1\n      tag_25\n      jump\t// in\n    tag_92:\n      tag_93\n      jump\t// in\n    tag_91:\n      mload(0x40)\n      tag_94\n      swap2\n      swap1\n      tag_33\n      jump\t// in\n    tag_94:\n      mload(0x40)\n      dup1\n      swap2\n      sub\n      swap1\n      return\n        /* \"Contract.sol\":2091:2111  address public admin */\n    tag_19:\n      tag_95\n      tag_96\n      jump\t// in\n    tag_95:\n      mload(0x40)\n      tag_97\n      swap2\n      swap1\n      tag_33\n      jump\t// in\n    tag_97:\n      mload(0x40)\n      dup1\n      swap2\n      sub\n      swap1\n      return\n        /* \"Contract.sol\":6035:6302  function getMedicalRecord(uint recordNumber) public view returns(Record memory)... */\n    tag_26:\n        /* \"Contract.sol\":6100:6113  Record memory */\n      tag_99\n      tag_100\n      jump\t// in\n    tag_99:\n        /* \"Contract.sol\":6129:6149  Record memory record */\n      0x00\n        /* \"Contract.sol\":6152:6162  recordList */\n      0x07\n        /* \"Contract.sol\":6163:6175  recordNumber */\n      dup4\n        /* \"Contract.sol\":6152:6176  recordList[recordNumber] */\n      dup2\n      sload\n      dup2\n      lt\n      tag_102\n      jumpi\n      tag_103\n      tag_104\n      jump\t// in\n    tag_103:\n    tag_102:\n      swap1\n      0x00\n      mstore\n      keccak256(0x00, 0x20)\n      swap1\n      0x05\n      mul\n      add\n        /* \"Contract.sol\":6129:6176  Record memory record = recordList[recordNumber] */\n      mload(0x40)\n      dup1\n      0xa0\n      add\n      0x40\n      mstore\n      swap1\n      dup2\n      0x00\n      dup3\n      add\n      sload\n      dup2\n      mstore\n      0x20\n      add\n      0x01\n      dup3\n      add\n      0x00\n      swap1\n      sload\n      swap1\n      0x0100\n      exp\n      swap1\n      div\n      0xffffffffffffffffffffffffffffffffffffffff\n      and\n      0xffffffffffffffffffffffffffffffffffffffff\n      and\n      0xffffffffffffffffffffffffffffffffffffffff\n      and\n      dup2\n      mstore\n      0x20\n      add\n      0x02\n      dup3\n      add\n      0x00\n      swap1\n      sload\n      swap1\n      0x0100\n      exp\n      swap1\n      div\n      0xffffffffffffffffffffffffffffffffffffffff\n      and\n      0xffffffffffffffffffffffffffffffffffffffff\n      and\n      0xffffffffffffffffffffffffffffffffffffffff\n      and\n      dup2\n      mstore\n      0x20\n      add\n      0x03\n      dup3\n      add\n      dup1\n      sload\n      tag_106\n      swap1\n      tag_107\n      jump\t// in\n    tag_106:\n      dup1\n      0x1f\n      add\n      0x20\n      dup1\n      swap2\n      div\n      mul\n      0x20\n      add\n      mload(0x40)\n      swap1\n      dup2\n      add\n      0x40\n      mstore\n      dup1\n      swap3\n      swap2\n      swap1\n      dup2\n      dup2\n      mstore\n      0x20\n      add\n      dup3\n      dup1\n      sload\n      tag_108\n      swap1\n      tag_107\n      jump\t// in\n    tag_108:\n      dup1\n      iszero\n      tag_109\n      jumpi\n      dup1\n      0x1f\n      lt\n      tag_110\n      jumpi\n      0x0100\n      dup1\n      dup4\n      sload\n      div\n      mul\n      dup4\n      mstore\n      swap2\n      0x20\n      add\n      swap2\n      jump(tag_109)\n    tag_110:\n      dup3\n      add\n      swap2\n      swap1\n      0x00\n      mstore\n      keccak256(0x00, 0x20)\n      swap1\n    tag_111:\n      dup2\n      sload\n      dup2\n      mstore\n      swap1\n      0x01\n      add\n      swap1\n      0x20\n      add\n      dup1\n      dup4\n      gt\n      tag_111\n      jumpi\n      dup3\n      swap1\n      sub\n      0x1f\n      and\n      dup3\n      add\n      swap2\n    tag_109:\n      pop\n      pop\n      pop\n      pop\n      pop\n      dup2\n      mstore\n      0x20\n      add\n      0x04\n      dup3\n      add\n      dup1\n      sload\n      dup1\n      0x20\n      mul\n      0x20\n      add\n      mload(0x40)\n      swap1\n      dup2\n      add\n      0x40\n      mstore\n      dup1\n      swap3\n      swap2\n      swap1\n      dup2\n      dup2\n      mstore\n      0x20\n      add\n      dup3\n      dup1\n      sload\n      dup1\n      iszero\n      tag_112\n      jumpi\n      0x20\n      mul\n      dup3\n      add\n      swap2\n      swap1\n      0x00\n      mstore\n      keccak256(0x00, 0x20)\n      swap1\n    tag_113:\n      dup2\n      sload\n      dup2\n      mstore\n      0x20\n      add\n      swap1\n      0x01\n      add\n      swap1\n      dup1\n      dup4\n      gt\n      tag_113\n      jumpi\n    tag_112:\n      pop\n      pop\n      pop\n      pop\n      pop\n      dup2\n      mstore\n      pop\n      pop\n      swap1\n      pop\n        /* \"Contract.sol\":6221:6231  msg.sender */\n      caller\n        /* \"Contract.sol\":6196:6231  record.patientAddress == msg.sender */\n      0xffffffffffffffffffffffffffffffffffffffff\n      and\n        /* \"Contract.sol\":6196:6202  record */\n      dup2\n        /* \"Contract.sol\":6196:6217  record.patientAddress */\n      0x40\n      add\n      mload\n        /* \"Contract.sol\":6196:6231  record.patientAddress == msg.sender */\n      0xffffffffffffffffffffffffffffffffffffffff\n      and\n      eq\n        /* \"Contract.sol\":6196:6269  record.patientAddress == msg.sender || record.doctorAddress == msg.sender */\n      dup1\n      tag_114\n      jumpi\n      pop\n        /* \"Contract.sol\":6259:6269  msg.sender */\n      caller\n        /* \"Contract.sol\":6235:6269  record.doctorAddress == msg.sender */\n      0xffffffffffffffffffffffffffffffffffffffff\n      and\n        /* \"Contract.sol\":6235:6241  record */\n      dup2\n        /* \"Contract.sol\":6235:6255  record.doctorAddress */\n      0x20\n      add\n      mload\n        /* \"Contract.sol\":6235:6269  record.doctorAddress == msg.sender */\n      0xffffffffffffffffffffffffffffffffffffffff\n      and\n      eq\n        /* \"Contract.sol\":6196:6269  record.patientAddress == msg.sender || record.doctorAddress == msg.sender */\n    tag_114:\n        /* \"Contract.sol\":6187:6271  require((record.patientAddress == msg.sender || record.doctorAddress == msg.sender)) */\n      tag_115\n      jumpi\n      0x00\n      dup1\n      revert\n    tag_115:\n        /* \"Contract.sol\":6289:6295  record */\n      dup1\n        /* \"Contract.sol\":6282:6295  return record */\n      swap2\n      pop\n      pop\n        /* \"Contract.sol\":6035:6302  function getMedicalRecord(uint recordNumber) public view returns(Record memory)... */\n      swap2\n      swap1\n      pop\n      jump\t// out\n        /* \"Contract.sol\":2023:2050  address[] public doctorList */\n    tag_31:\n      0x08\n      dup2\n      dup2\n      sload\n      dup2\n      lt\n      tag_116\n      jumpi\n      0x00\n      dup1\n      revert\n    tag_116:\n      swap1\n      0x00\n      mstore\n      keccak256(0x00, 0x20)\n      add\n      0x00\n      swap2\n      pop\n      sload\n      swap1\n      0x0100\n      exp\n      swap1\n      div\n      0xffffffffffffffffffffffffffffffffffffffff\n      and\n      dup2\n      jump\t// out\n        /* \"Contract.sol\":1990:2016  Record[] public recordList */\n    tag_36:\n      0x07\n      dup2\n      dup2\n      sload\n      dup2\n      lt\n      tag_118\n      jumpi\n      0x00\n      dup1\n      revert\n    tag_118:\n      swap1\n      0x00\n      mstore\n      keccak256(0x00, 0x20)\n      swap1\n      0x05\n      mul\n      add\n      0x00\n      swap2\n      pop\n      swap1\n      pop\n      dup1\n      0x00\n      add\n      sload\n      swap1\n      dup1\n      0x01\n      add\n      0x00\n      swap1\n      sload\n      swap1\n      0x0100\n      exp\n      swap1\n      div\n      0xffffffffffffffffffffffffffffffffffffffff\n      and\n      swap1\n      dup1\n      0x02\n      add\n      0x00\n      swap1\n      sload\n      swap1\n      0x0100\n      exp\n      swap1\n      div\n      0xffffffffffffffffffffffffffffffffffffffff\n      and\n      swap1\n      dup1\n      0x03\n      add\n      dup1\n      sload\n      tag_120\n      swap1\n      tag_107\n      jump\t// in\n    tag_120:\n      dup1\n      0x1f\n      add\n      0x20\n      dup1\n      swap2\n      div\n      mul\n      0x20\n      add\n      mload(0x40)\n      swap1\n      dup2\n      add\n      0x40\n      mstore\n      dup1\n      swap3\n      swap2\n      swap1\n      dup2\n      dup2\n      mstore\n      0x20\n      add\n      dup3\n      dup1\n      sload\n      tag_121\n      swap1\n      tag_107\n      jump\t// in\n    tag_121:\n      dup1\n      iszero\n      tag_122\n      jumpi\n      dup1\n      0x1f\n      lt\n      tag_123\n      jumpi\n      0x0100\n      dup1\n      dup4\n      sload\n      div\n      mul\n      dup4\n      mstore\n      swap2\n      0x20\n      add\n      swap2\n      jump(tag_122)\n    tag_123:\n      dup3\n      add\n      swap2\n      swap1\n      0x00\n      mstore\n      keccak256(0x00, 0x20)\n      swap1\n    tag_124:\n      dup2\n      sload\n      dup2\n      mstore\n      swap1\n      0x01\n      add\n      swap1\n      0x20\n      add\n      dup1\n      dup4\n      gt\n      tag_124\n      jumpi\n      dup3\n      swap1\n      sub\n      0x1f\n      and\n      dup3\n      add\n      swap2\n    tag_122:\n      pop\n      pop\n      pop\n      pop\n      pop\n      swap1\n      pop\n      dup5\n      jump\t// out\n        /* \"Contract.sol\":4401:5227  function createRecord(address patientAddress, string memory patientHistoryDescription) public doctorOnly assignedDoctorOnly(patientAddress) notForAdmin... */\n    tag_42:\n        /* \"Contract.sol\":7464:7468  true */\n      0x01\n        /* \"Contract.sol\":7434:7468  doctorRole.has(msg.sender) == true */\n      iszero\n      iszero\n        /* \"Contract.sol\":7434:7460  doctorRole.has(msg.sender) */\n      tag_126\n        /* \"Contract.sol\":7449:7459  msg.sender */\n      caller\n        /* \"Contract.sol\":7434:7444  doctorRole */\n      0x01\n        /* \"Contract.sol\":7434:7448  doctorRole.has */\n      tag_127\n      swap1\n        /* \"Contract.sol\":7434:7460  doctorRole.has(msg.sender) */\n      swap2\n      swap1\n      0xffffffff\n      and\n      jump\t// in\n    tag_126:\n        /* \"Contract.sol\":7434:7468  doctorRole.has(msg.sender) == true */\n      iszero\n      iszero\n      eq\n        /* \"Contract.sol\":7426:7484  require(doctorRole.has(msg.sender) == true, 'Doctor only') */\n      tag_128\n      jumpi\n      mload(0x40)\n      0x08c379a000000000000000000000000000000000000000000000000000000000\n      dup2\n      mstore\n      0x04\n      add\n      tag_129\n      swap1\n      tag_130\n      jump\t// in\n    tag_129:\n      mload(0x40)\n      dup1\n      swap2\n      sub\n      swap1\n      revert\n    tag_128:\n        /* \"Contract.sol\":4525:4539  patientAddress */\n      dup2\n        /* \"Contract.sol\":7745:7755  msg.sender */\n      caller\n        /* \"Contract.sol\":7703:7755  patientToDoctorMapping[patientAddress] == msg.sender */\n      0xffffffffffffffffffffffffffffffffffffffff\n      and\n        /* \"Contract.sol\":7703:7725  patientToDoctorMapping */\n      0x05\n        /* \"Contract.sol\":7703:7741  patientToDoctorMapping[patientAddress] */\n      0x00\n        /* \"Contract.sol\":7726:7740  patientAddress */\n      dup4\n        /* \"Contract.sol\":7703:7741  patientToDoctorMapping[patientAddress] */\n      0xffffffffffffffffffffffffffffffffffffffff\n      and\n      0xffffffffffffffffffffffffffffffffffffffff\n      and\n      dup2\n      mstore\n      0x20\n      add\n      swap1\n      dup2\n      mstore\n      0x20\n      add\n      0x00\n      keccak256\n      0x00\n      swap1\n      sload\n      swap1\n      0x0100\n      exp\n      swap1\n      div\n      0xffffffffffffffffffffffffffffffffffffffff\n      and\n        /* \"Contract.sol\":7703:7755  patientToDoctorMapping[patientAddress] == msg.sender */\n      0xffffffffffffffffffffffffffffffffffffffff\n      and\n      eq\n        /* \"Contract.sol\":7695:7798  require(patientToDoctorMapping[patientAddress] == msg.sender, \"You haven't been assigned this patient\") */\n      tag_132\n      jumpi\n      mload(0x40)\n      0x08c379a000000000000000000000000000000000000000000000000000000000\n      dup2\n      mstore\n      0x04\n      add\n      tag_133\n      swap1\n      tag_134\n      jump\t// in\n    tag_133:\n      mload(0x40)\n      dup1\n      swap2\n      sub\n      swap1\n      revert\n    tag_132:\n        /* \"Contract.sol\":8023:8048  adminRole.has(msg.sender) */\n      tag_136\n        /* \"Contract.sol\":8037:8047  msg.sender */\n      caller\n        /* \"Contract.sol\":8023:8032  adminRole */\n      0x00\n        /* \"Contract.sol\":8023:8036  adminRole.has */\n      tag_127\n      swap1\n        /* \"Contract.sol\":8023:8048  adminRole.has(msg.sender) */\n      swap2\n      swap1\n      0xffffffff\n      and\n      jump\t// in\n    tag_136:\n        /* \"Contract.sol\":8022:8048  !adminRole.has(msg.sender) */\n      iszero\n        /* \"Contract.sol\":8014:8066  require(!adminRole.has(msg.sender), 'Not for admin') */\n      tag_137\n      jumpi\n      mload(0x40)\n      0x08c379a000000000000000000000000000000000000000000000000000000000\n      dup2\n      mstore\n      0x04\n      add\n      tag_138\n      swap1\n      tag_139\n      jump\t// in\n    tag_138:\n      mload(0x40)\n      dup1\n      swap2\n      sub\n      swap1\n      revert\n    tag_137:\n        /* \"Contract.sol\":4567:4587  Record memory record */\n      tag_141\n      tag_100\n      jump\t// in\n    tag_141:\n        /* \"Contract.sol\":4620:4630  recordList */\n      0x07\n        /* \"Contract.sol\":4620:4637  recordList.length */\n      dup1\n      sload\n      swap1\n      pop\n        /* \"Contract.sol\":4598:4604  record */\n      dup2\n        /* \"Contract.sol\":4598:4617  record.recordNumber */\n      0x00\n      add\n        /* \"Contract.sol\":4598:4637  record.recordNumber = recordList.length */\n      dup2\n      dup2\n      mstore\n      pop\n      pop\n        /* \"Contract.sol\":4670:4680  msg.sender */\n      caller\n        /* \"Contract.sol\":4647:4653  record */\n      dup2\n        /* \"Contract.sol\":4647:4667  record.doctorAddress */\n      0x20\n      add\n        /* \"Contract.sol\":4647:4680  record.doctorAddress = msg.sender */\n      swap1\n      0xffffffffffffffffffffffffffffffffffffffff\n      and\n      swap1\n      dup2\n      0xffffffffffffffffffffffffffffffffffffffff\n      and\n      dup2\n      mstore\n      pop\n      pop\n        /* \"Contract.sol\":4714:4728  patientAddress */\n      dup4\n        /* \"Contract.sol\":4690:4696  record */\n      dup2\n        /* \"Contract.sol\":4690:4711  record.patientAddress */\n      0x40\n      add\n        /* \"Contract.sol\":4690:4728  record.patientAddress = patientAddress */\n      swap1\n      0xffffffffffffffffffffffffffffffffffffffff\n      and\n      swap1\n      dup2\n      0xffffffffffffffffffffffffffffffffffffffff\n      and\n      dup2\n      mstore\n      pop\n      pop\n        /* \"Contract.sol\":4773:4798  patientHistoryDescription */\n      dup3\n        /* \"Contract.sol\":4738:4744  record */\n      dup2\n        /* \"Contract.sol\":4738:4770  record.patientHistoryDescription */\n      0x60\n      add\n        /* \"Contract.sol\":4738:4798  record.patientHistoryDescription = patientHistoryDescription */\n      dup2\n      swap1\n      mstore\n      pop\n        /* \"Contract.sol\":4809:4830  Doctor storage doctor */\n      0x00\n        /* \"Contract.sol\":4833:4855  addressToDoctorMapping */\n      0x03\n        /* \"Contract.sol\":4833:4867  addressToDoctorMapping[msg.sender] */\n      0x00\n        /* \"Contract.sol\":4856:4866  msg.sender */\n      caller\n        /* \"Contract.sol\":4833:4867  addressToDoctorMapping[msg.sender] */\n      0xffffffffffffffffffffffffffffffffffffffff\n      and\n      0xffffffffffffffffffffffffffffffffffffffff\n      and\n      dup2\n      mstore\n      0x20\n      add\n      swap1\n      dup2\n      mstore\n      0x20\n      add\n      0x00\n      keccak256\n        /* \"Contract.sol\":4809:4867  Doctor storage doctor = addressToDoctorMapping[msg.sender] */\n      swap1\n      pop\n        /* \"Contract.sol\":4877:4900  Patient storage patient */\n      0x00\n        /* \"Contract.sol\":4903:4926  addressToPatientMapping */\n      0x04\n        /* \"Contract.sol\":4903:4942  addressToPatientMapping[patientAddress] */\n      0x00\n        /* \"Contract.sol\":4927:4941  patientAddress */\n      dup8\n        /* \"Contract.sol\":4903:4942  addressToPatientMapping[patientAddress] */\n      0xffffffffffffffffffffffffffffffffffffffff\n      and\n      0xffffffffffffffffffffffffffffffffffffffff\n      and\n      dup2\n      mstore\n      0x20\n      add\n      swap1\n      dup2\n      mstore\n      0x20\n      add\n      0x00\n      keccak256\n        /* \"Contract.sol\":4877:4942  Patient storage patient = addressToPatientMapping[patientAddress] */\n      swap1\n      pop\n        /* \"Contract.sol\":4953:4959  doctor */\n      dup2\n        /* \"Contract.sol\":4953:4976  doctor.recordNumberList */\n      0x02\n      add\n        /* \"Contract.sol\":4982:4988  record */\n      dup4\n        /* \"Contract.sol\":4982:5001  record.recordNumber */\n      0x00\n      add\n      mload\n        /* \"Contract.sol\":4953:5002  doctor.recordNumberList.push(record.recordNumber) */\n      swap1\n      dup1\n      0x01\n      dup2\n      sload\n      add\n      dup1\n      dup3\n      sstore\n      dup1\n      swap2\n      pop\n      pop\n      0x01\n      swap1\n      sub\n      swap1\n      0x00\n      mstore\n      keccak256(0x00, 0x20)\n      add\n      0x00\n      swap1\n      swap2\n      swap1\n      swap2\n      swap1\n      swap2\n      pop\n      sstore\n        /* \"Contract.sol\":5033:5039  doctor */\n      dup2\n        /* \"Contract.sol\":5033:5056  doctor.recordNumberList */\n      0x02\n      add\n        /* \"Contract.sol\":5033:5063  doctor.recordNumberList.length */\n      dup1\n      sload\n      swap1\n      pop\n        /* \"Contract.sol\":5012:5018  doctor */\n      dup3\n        /* \"Contract.sol\":5012:5030  doctor.recordCount */\n      0x03\n      add\n        /* \"Contract.sol\":5012:5063  doctor.recordCount = doctor.recordNumberList.length */\n      dup2\n      swap1\n      sstore\n      pop\n        /* \"Contract.sol\":5073:5080  patient */\n      dup1\n        /* \"Contract.sol\":5073:5097  patient.recordNumberList */\n      0x02\n      add\n        /* \"Contract.sol\":5103:5109  record */\n      dup4\n        /* \"Contract.sol\":5103:5122  record.recordNumber */\n      0x00\n      add\n      mload\n        /* \"Contract.sol\":5073:5123  patient.recordNumberList.push(record.recordNumber) */\n      swap1\n      dup1\n      0x01\n      dup2\n      sload\n      add\n      dup1\n      dup3\n      sstore\n      dup1\n      swap2\n      pop\n      pop\n      0x01\n      swap1\n      sub\n      swap1\n      0x00\n      mstore\n      keccak256(0x00, 0x20)\n      add\n      0x00\n      swap1\n      swap2\n      swap1\n      swap2\n      swap1\n      swap2\n      pop\n      sstore\n        /* \"Contract.sol\":5155:5162  patient */\n      dup1\n        /* \"Contract.sol\":5155:5179  patient.recordNumberList */\n      0x02\n      add\n        /* \"Contract.sol\":5155:5186  patient.recordNumberList.length */\n      dup1\n      sload\n      swap1\n      pop\n        /* \"Contract.sol\":5133:5140  patient */\n      dup2\n        /* \"Contract.sol\":5133:5152  patient.recordCount */\n      0x03\n      add\n        /* \"Contract.sol\":5133:5186  patient.recordCount = patient.recordNumberList.length */\n      dup2\n      swap1\n      sstore\n      pop\n        /* \"Contract.sol\":5197:5207  recordList */\n      0x07\n        /* \"Contract.sol\":5213:5219  record */\n      dup4\n        /* \"Contract.sol\":5197:5220  recordList.push(record) */\n      swap1\n      dup1\n      0x01\n      dup2\n      sload\n      add\n      dup1\n      dup3\n      sstore\n      dup1\n      swap2\n      pop\n      pop\n      0x01\n      swap1\n      sub\n      swap1\n      0x00\n      mstore\n      keccak256(0x00, 0x20)\n      swap1\n      0x05\n      mul\n      add\n      0x00\n      swap1\n      swap2\n      swap1\n      swap2\n      swap1\n      swap2\n      pop\n      0x00\n      dup3\n      add\n      mload\n      dup2\n      0x00\n      add\n      sstore\n      0x20\n      dup3\n      add\n      mload\n      dup2\n      0x01\n      add\n      exp(0x0100, 0x00)\n      dup2\n      sload\n      dup2\n      0xffffffffffffffffffffffffffffffffffffffff\n      mul\n      not\n      and\n      swap1\n      dup4\n      0xffffffffffffffffffffffffffffffffffffffff\n      and\n      mul\n      or\n      swap1\n      sstore\n      pop\n      0x40\n      dup3\n      add\n      mload\n      dup2\n      0x02\n      add\n      exp(0x0100, 0x00)\n      dup2\n      sload\n      dup2\n      0xffffffffffffffffffffffffffffffffffffffff\n      mul\n      not\n      and\n      swap1\n      dup4\n      0xffffffffffffffffffffffffffffffffffffffff\n      and\n      mul\n      or\n      swap1\n      sstore\n      pop\n      0x60\n      dup3\n      add\n      mload\n      dup2\n      0x03\n      add\n      swap1\n      dup2\n      tag_145\n      swap2\n      swap1\n      tag_146\n      jump\t// in\n    tag_145:\n      pop\n      0x80\n      dup3\n      add\n      mload\n      dup2\n      0x04\n      add\n      swap1\n      dup1\n      mload\n      swap1\n      0x20\n      add\n      swap1\n      tag_147\n      swap3\n      swap2\n      swap1\n      tag_148\n      jump\t// in\n    tag_147:\n      pop\n      pop\n      pop\n        /* \"Contract.sol\":4557:5227  {... */\n      pop\n      pop\n      pop\n        /* \"Contract.sol\":7494:7495  _ */\n      pop\n        /* \"Contract.sol\":4401:5227  function createRecord(address patientAddress, string memory patientHistoryDescription) public doctorOnly assignedDoctorOnly(patientAddress) notForAdmin... */\n      pop\n      pop\n      jump\t// out\n        /* \"Contract.sol\":2836:3094  function getDoctor(address doctorAddress) public view returns(string memory, string memory)... */\n    tag_46:\n        /* \"Contract.sol\":2898:2911  string memory */\n      0x60\n        /* \"Contract.sol\":2913:2926  string memory */\n      dup1\n        /* \"Contract.sol\":2942:2962  Doctor memory doctor */\n      0x00\n        /* \"Contract.sol\":2965:2987  addressToDoctorMapping */\n      0x03\n        /* \"Contract.sol\":2965:3002  addressToDoctorMapping[doctorAddress] */\n      0x00\n        /* \"Contract.sol\":2988:3001  doctorAddress */\n      dup6\n        /* \"Contract.sol\":2965:3002  addressToDoctorMapping[doctorAddress] */\n      0xffffffffffffffffffffffffffffffffffffffff\n      and\n      0xffffffffffffffffffffffffffffffffffffffff\n      and\n      dup2\n      mstore\n      0x20\n      add\n      swap1\n      dup2\n      mstore\n      0x20\n      add\n      0x00\n      keccak256\n        /* \"Contract.sol\":2942:3002  Doctor memory doctor = addressToDoctorMapping[doctorAddress] */\n      mload(0x40)\n      dup1\n      0x80\n      add\n      0x40\n      mstore\n      swap1\n      dup2\n      0x00\n      dup3\n      add\n      dup1\n      sload\n      tag_150\n      swap1\n      tag_107\n      jump\t// in\n    tag_150:\n      dup1\n      0x1f\n      add\n      0x20\n      dup1\n      swap2\n      div\n      mul\n      0x20\n      add\n      mload(0x40)\n      swap1\n      dup2\n      add\n      0x40\n      mstore\n      dup1\n      swap3\n      swap2\n      swap1\n      dup2\n      dup2\n      mstore\n      0x20\n      add\n      dup3\n      dup1\n      sload\n      tag_151\n      swap1\n      tag_107\n      jump\t// in\n    tag_151:\n      dup1\n      iszero\n      tag_152\n      jumpi\n      dup1\n      0x1f\n      lt\n      tag_153\n      jumpi\n      0x0100\n      dup1\n      dup4\n      sload\n      div\n      mul\n      dup4\n      mstore\n      swap2\n      0x20\n      add\n      swap2\n      jump(tag_152)\n    tag_153:\n      dup3\n      add\n      swap2\n      swap1\n      0x00\n      mstore\n      keccak256(0x00, 0x20)\n      swap1\n    tag_154:\n      dup2\n      sload\n      dup2\n      mstore\n      swap1\n      0x01\n      add\n      swap1\n      0x20\n      add\n      dup1\n      dup4\n      gt\n      tag_154\n      jumpi\n      dup3\n      swap1\n      sub\n      0x1f\n      and\n      dup3\n      add\n      swap2\n    tag_152:\n      pop\n      pop\n      pop\n      pop\n      pop\n      dup2\n      mstore\n      0x20\n      add\n      0x01\n      dup3\n      add\n      dup1\n      sload\n      tag_155\n      swap1\n      tag_107\n      jump\t// in\n    tag_155:\n      dup1\n      0x1f\n      add\n      0x20\n      dup1\n      swap2\n      div\n      mul\n      0x20\n      add\n      mload(0x40)\n      swap1\n      dup2\n      add\n      0x40\n      mstore\n      dup1\n      swap3\n      swap2\n      swap1\n      dup2\n      dup2\n      mstore\n      0x20\n      add\n      dup3\n      dup1\n      sload\n      tag_156\n      swap1\n      tag_107\n      jump\t// in\n    tag_156:\n      dup1\n      iszero\n      tag_157\n      jumpi\n      dup1\n      0x1f\n      lt\n      tag_158\n      jumpi\n      0x0100\n      dup1\n      dup4\n      sload\n      div\n      mul\n      dup4\n      mstore\n      swap2\n      0x20\n      add\n      swap2\n      jump(tag_157)\n    tag_158:\n      dup3\n      add\n      swap2\n      swap1\n      0x00\n      mstore\n      keccak256(0x00, 0x20)\n      swap1\n    tag_159:\n      dup2\n      sload\n      dup2\n      mstore\n      swap1\n      0x01\n      add\n      swap1\n      0x20\n      add\n      dup1\n      dup4\n      gt\n      tag_159\n      jumpi\n      dup3\n      swap1\n      sub\n      0x1f\n      and\n      dup3\n      add\n      swap2\n    tag_157:\n      pop\n      pop\n      pop\n      pop\n      pop\n      dup2\n      mstore\n      0x20\n      add\n      0x02\n      dup3\n      add\n      dup1\n      sload\n      dup1\n      0x20\n      mul\n      0x20\n      add\n      mload(0x40)\n      swap1\n      dup2\n      add\n      0x40\n      mstore\n      dup1\n      swap3\n      swap2\n      swap1\n      dup2\n      dup2\n      mstore\n      0x20\n      add\n      dup3\n      dup1\n      sload\n      dup1\n      iszero\n      tag_160\n      jumpi\n      0x20\n      mul\n      dup3\n      add\n      swap2\n      swap1\n      0x00\n      mstore\n      keccak256(0x00, 0x20)\n      swap1\n    tag_161:\n      dup2\n      sload\n      dup2\n      mstore\n      0x20\n      add\n      swap1\n      0x01\n      add\n      swap1\n      dup1\n      dup4\n      gt\n      tag_161\n      jumpi\n    tag_160:\n      pop\n      pop\n      pop\n      pop\n      pop\n      dup2\n      mstore\n      0x20\n      add\n      0x03\n      dup3\n      add\n      sload\n      dup2\n      mstore\n      pop\n      pop\n      swap1\n      pop\n        /* \"Contract.sol\":3034:3040  doctor */\n      dup1\n        /* \"Contract.sol\":3034:3045  doctor.name */\n      0x00\n      add\n      mload\n        /* \"Contract.sol\":3059:3065  doctor */\n      dup2\n        /* \"Contract.sol\":3059:3077  doctor.phoneNumber */\n      0x20\n      add\n      mload\n        /* \"Contract.sol\":3013:3087  return (... */\n      swap3\n      pop\n      swap3\n      pop\n      pop\n        /* \"Contract.sol\":2836:3094  function getDoctor(address doctorAddress) public view returns(string memory, string memory)... */\n      swap2\n      pop\n      swap2\n      jump\t// out\n        /* \"Contract.sol\":6335:6971  function createAppointment... */\n    tag_52:\n        /* \"Contract.sol\":7464:7468  true */\n      0x01\n        /* \"Contract.sol\":7434:7468  doctorRole.has(msg.sender) == true */\n      iszero\n      iszero\n        /* \"Contract.sol\":7434:7460  doctorRole.has(msg.sender) */\n      tag_163\n        /* \"Contract.sol\":7449:7459  msg.sender */\n      caller\n        /* \"Contract.sol\":7434:7444  doctorRole */\n      0x01\n        /* \"Contract.sol\":7434:7448  doctorRole.has */\n      tag_127\n      swap1\n        /* \"Contract.sol\":7434:7460  doctorRole.has(msg.sender) */\n      swap2\n      swap1\n      0xffffffff\n      and\n      jump\t// in\n    tag_163:\n        /* \"Contract.sol\":7434:7468  doctorRole.has(msg.sender) == true */\n      iszero\n      iszero\n      eq\n        /* \"Contract.sol\":7426:7484  require(doctorRole.has(msg.sender) == true, 'Doctor only') */\n      tag_164\n      jumpi\n      mload(0x40)\n      0x08c379a000000000000000000000000000000000000000000000000000000000\n      dup2\n      mstore\n      0x04\n      add\n      tag_165\n      swap1\n      tag_130\n      jump\t// in\n    tag_165:\n      mload(0x40)\n      dup1\n      swap2\n      sub\n      swap1\n      revert\n    tag_164:\n        /* \"Contract.sol\":6520:6534  patientAddress */\n      dup4\n        /* \"Contract.sol\":7745:7755  msg.sender */\n      caller\n        /* \"Contract.sol\":7703:7755  patientToDoctorMapping[patientAddress] == msg.sender */\n      0xffffffffffffffffffffffffffffffffffffffff\n      and\n        /* \"Contract.sol\":7703:7725  patientToDoctorMapping */\n      0x05\n        /* \"Contract.sol\":7703:7741  patientToDoctorMapping[patientAddress] */\n      0x00\n        /* \"Contract.sol\":7726:7740  patientAddress */\n      dup4\n        /* \"Contract.sol\":7703:7741  patientToDoctorMapping[patientAddress] */\n      0xffffffffffffffffffffffffffffffffffffffff\n      and\n      0xffffffffffffffffffffffffffffffffffffffff\n      and\n      dup2\n      mstore\n      0x20\n      add\n      swap1\n      dup2\n      mstore\n      0x20\n      add\n      0x00\n      keccak256\n      0x00\n      swap1\n      sload\n      swap1\n      0x0100\n      exp\n      swap1\n      div\n      0xffffffffffffffffffffffffffffffffffffffff\n      and\n        /* \"Contract.sol\":7703:7755  patientToDoctorMapping[patientAddress] == msg.sender */\n      0xffffffffffffffffffffffffffffffffffffffff\n      and\n      eq\n        /* \"Contract.sol\":7695:7798  require(patientToDoctorMapping[patientAddress] == msg.sender, \"You haven't been assigned this patient\") */\n      tag_167\n      jumpi\n      mload(0x40)\n      0x08c379a000000000000000000000000000000000000000000000000000000000\n      dup2\n      mstore\n      0x04\n      add\n      tag_168\n      swap1\n      tag_134\n      jump\t// in\n    tag_168:\n      mload(0x40)\n      dup1\n      swap2\n      sub\n      swap1\n      revert\n    tag_167:\n        /* \"Contract.sol\":8023:8048  adminRole.has(msg.sender) */\n      tag_170\n        /* \"Contract.sol\":8037:8047  msg.sender */\n      caller\n        /* \"Contract.sol\":8023:8032  adminRole */\n      0x00\n        /* \"Contract.sol\":8023:8036  adminRole.has */\n      tag_127\n      swap1\n        /* \"Contract.sol\":8023:8048  adminRole.has(msg.sender) */\n      swap2\n      swap1\n      0xffffffff\n      and\n      jump\t// in\n    tag_170:\n        /* \"Contract.sol\":8022:8048  !adminRole.has(msg.sender) */\n      iszero\n        /* \"Contract.sol\":8014:8066  require(!adminRole.has(msg.sender), 'Not for admin') */\n      tag_171\n      jumpi\n      mload(0x40)\n      0x08c379a000000000000000000000000000000000000000000000000000000000\n      dup2\n      mstore\n      0x04\n      add\n      tag_172\n      swap1\n      tag_139\n      jump\t// in\n    tag_172:\n      mload(0x40)\n      dup1\n      swap2\n      sub\n      swap1\n      revert\n    tag_171:\n        /* \"Contract.sol\":6562:6592  Appointment memory appointment */\n      tag_174\n      tag_175\n      jump\t// in\n    tag_174:\n        /* \"Contract.sol\":6624:6639  appointmentList */\n      0x06\n        /* \"Contract.sol\":6624:6646  appointmentList.length */\n      dup1\n      sload\n      swap1\n      pop\n        /* \"Contract.sol\":6603:6614  appointment */\n      dup2\n        /* \"Contract.sol\":6603:6621  appointment.number */\n      0x00\n      add\n        /* \"Contract.sol\":6603:6646  appointment.number = appointmentList.length */\n      dup2\n      dup2\n      mstore\n      pop\n      pop\n        /* \"Contract.sol\":6685:6699  patientAddress */\n      dup6\n        /* \"Contract.sol\":6656:6667  appointment */\n      dup2\n        /* \"Contract.sol\":6656:6682  appointment.patientAddress */\n      0x20\n      add\n        /* \"Contract.sol\":6656:6699  appointment.patientAddress = patientAddress */\n      swap1\n      0xffffffffffffffffffffffffffffffffffffffff\n      and\n      swap1\n      dup2\n      0xffffffffffffffffffffffffffffffffffffffff\n      and\n      dup2\n      mstore\n      pop\n      pop\n        /* \"Contract.sol\":6737:6747  msg.sender */\n      caller\n        /* \"Contract.sol\":6709:6720  appointment */\n      dup2\n        /* \"Contract.sol\":6709:6734  appointment.doctorAddress */\n      0x40\n      add\n        /* \"Contract.sol\":6709:6747  appointment.doctorAddress = msg.sender */\n      swap1\n      0xffffffffffffffffffffffffffffffffffffffff\n      and\n      swap1\n      dup2\n      0xffffffffffffffffffffffffffffffffffffffff\n      and\n      dup2\n      mstore\n      pop\n      pop\n        /* \"Contract.sol\":6781:6790  diagnosis */\n      dup5\n        /* \"Contract.sol\":6757:6768  appointment */\n      dup2\n        /* \"Contract.sol\":6757:6778  appointment.diagnosis */\n      0x60\n      add\n        /* \"Contract.sol\":6757:6790  appointment.diagnosis = diagnosis */\n      dup2\n      swap1\n      mstore\n      pop\n        /* \"Contract.sol\":6834:6853  treatmentPrescribed */\n      dup4\n        /* \"Contract.sol\":6800:6811  appointment */\n      dup2\n        /* \"Contract.sol\":6800:6831  appointment.treatmentPrescribed */\n      0x80\n      add\n        /* \"Contract.sol\":6800:6853  appointment.treatmentPrescribed = treatmentPrescribed */\n      dup2\n      swap1\n      mstore\n      pop\n        /* \"Contract.sol\":6864:6879  appointmentList */\n      0x06\n        /* \"Contract.sol\":6885:6896  appointment */\n      dup2\n        /* \"Contract.sol\":6864:6897  appointmentList.push(appointment) */\n      swap1\n      dup1\n      0x01\n      dup2\n      sload\n      add\n      dup1\n      dup3\n      sstore\n      dup1\n      swap2\n      pop\n      pop\n      0x01\n      swap1\n      sub\n      swap1\n      0x00\n      mstore\n      keccak256(0x00, 0x20)\n      swap1\n      0x05\n      mul\n      add\n      0x00\n      swap1\n      swap2\n      swap1\n      swap2\n      swap1\n      swap2\n      pop\n      0x00\n      dup3\n      add\n      mload\n      dup2\n      0x00\n      add\n      sstore\n      0x20\n      dup3\n      add\n      mload\n      dup2\n      0x01\n      add\n      exp(0x0100, 0x00)\n      dup2\n      sload\n      dup2\n      0xffffffffffffffffffffffffffffffffffffffff\n      mul\n      not\n      and\n      swap1\n      dup4\n      0xffffffffffffffffffffffffffffffffffffffff\n      and\n      mul\n      or\n      swap1\n      sstore\n      pop\n      0x40\n      dup3\n      add\n      mload\n      dup2\n      0x02\n      add\n      exp(0x0100, 0x00)\n      dup2\n      sload\n      dup2\n      0xffffffffffffffffffffffffffffffffffffffff\n      mul\n      not\n      and\n      swap1\n      dup4\n      0xffffffffffffffffffffffffffffffffffffffff\n      and\n      mul\n      or\n      swap1\n      sstore\n      pop\n      0x60\n      dup3\n      add\n      mload\n      dup2\n      0x03\n      add\n      swap1\n      dup2\n      tag_177\n      swap2\n      swap1\n      tag_146\n      jump\t// in\n    tag_177:\n      pop\n      0x80\n      dup3\n      add\n      mload\n      dup2\n      0x04\n      add\n      swap1\n      dup2\n      tag_178\n      swap2\n      swap1\n      tag_146\n      jump\t// in\n    tag_178:\n      pop\n      pop\n      pop\n        /* \"Contract.sol\":6908:6964  addAppointmentToRecord(recordNumber, appointment.number) */\n      tag_179\n        /* \"Contract.sol\":6931:6943  recordNumber */\n      dup4\n        /* \"Contract.sol\":6945:6956  appointment */\n      dup3\n        /* \"Contract.sol\":6945:6963  appointment.number */\n      0x00\n      add\n      mload\n        /* \"Contract.sol\":6908:6930  addAppointmentToRecord */\n      tag_180\n        /* \"Contract.sol\":6908:6964  addAppointmentToRecord(recordNumber, appointment.number) */\n      jump\t// in\n    tag_179:\n        /* \"Contract.sol\":6552:6971  {... */\n      pop\n        /* \"Contract.sol\":7494:7495  _ */\n      pop\n        /* \"Contract.sol\":6335:6971  function createAppointment... */\n      pop\n      pop\n      pop\n      pop\n      jump\t// out\n        /* \"Contract.sol\":2230:2723  function addDoctor(address doctorAddress, string memory doctorName, string memory phoneNumber) public adminOnly... */\n    tag_56:\n        /* \"Contract.sol\":7347:7351  true */\n      0x01\n        /* \"Contract.sol\":7318:7351  adminRole.has(msg.sender) == true */\n      iszero\n      iszero\n        /* \"Contract.sol\":7318:7343  adminRole.has(msg.sender) */\n      tag_182\n        /* \"Contract.sol\":7332:7342  msg.sender */\n      caller\n        /* \"Contract.sol\":7318:7327  adminRole */\n      0x00\n        /* \"Contract.sol\":7318:7331  adminRole.has */\n      tag_127\n      swap1\n        /* \"Contract.sol\":7318:7343  adminRole.has(msg.sender) */\n      swap2\n      swap1\n      0xffffffff\n      and\n      jump\t// in\n    tag_182:\n        /* \"Contract.sol\":7318:7351  adminRole.has(msg.sender) == true */\n      iszero\n      iszero\n      eq\n        /* \"Contract.sol\":7310:7366  require(adminRole.has(msg.sender) == true, 'Admin only') */\n      tag_183\n      jumpi\n      mload(0x40)\n      0x08c379a000000000000000000000000000000000000000000000000000000000\n      dup2\n      mstore\n      0x04\n      add\n      tag_184\n      swap1\n      tag_185\n      jump\t// in\n    tag_184:\n      mload(0x40)\n      dup1\n      swap2\n      sub\n      swap1\n      revert\n    tag_183:\n        /* \"Contract.sol\":2381:2391  msg.sender */\n      caller\n        /* \"Contract.sol\":2364:2391  doctorAddress != msg.sender */\n      0xffffffffffffffffffffffffffffffffffffffff\n      and\n        /* \"Contract.sol\":2364:2377  doctorAddress */\n      dup4\n        /* \"Contract.sol\":2364:2391  doctorAddress != msg.sender */\n      0xffffffffffffffffffffffffffffffffffffffff\n      and\n      sub\n        /* \"Contract.sol\":2356:2430  require(doctorAddress != msg.sender, \"You are not eligible for this role\") */\n      tag_187\n      jumpi\n      mload(0x40)\n      0x08c379a000000000000000000000000000000000000000000000000000000000\n      dup2\n      mstore\n      0x04\n      add\n      tag_188\n      swap1\n      tag_189\n      jump\t// in\n    tag_188:\n      mload(0x40)\n      dup1\n      swap2\n      sub\n      swap1\n      revert\n    tag_187:\n        /* \"Contract.sol\":2441:2470  doctorRole.add(doctorAddress) */\n      tag_190\n        /* \"Contract.sol\":2456:2469  doctorAddress */\n      dup4\n        /* \"Contract.sol\":2441:2451  doctorRole */\n      0x01\n        /* \"Contract.sol\":2441:2455  doctorRole.add */\n      tag_98\n      swap1\n        /* \"Contract.sol\":2441:2470  doctorRole.add(doctorAddress) */\n      swap2\n      swap1\n      0xffffffff\n      and\n      jump\t// in\n    tag_190:\n        /* \"Contract.sol\":2481:2501  Doctor memory doctor */\n      tag_191\n      tag_192\n      jump\t// in\n    tag_191:\n        /* \"Contract.sol\":2534:2544  doctorName */\n      dup3\n        /* \"Contract.sol\":2520:2526  doctor */\n      dup2\n        /* \"Contract.sol\":2520:2531  doctor.name */\n      0x00\n      add\n        /* \"Contract.sol\":2520:2544  doctor.name = doctorName */\n      dup2\n      swap1\n      mstore\n      pop\n        /* \"Contract.sol\":2575:2586  phoneNumber */\n      dup2\n        /* \"Contract.sol\":2554:2560  doctor */\n      dup2\n        /* \"Contract.sol\":2554:2572  doctor.phoneNumber */\n      0x20\n      add\n        /* \"Contract.sol\":2554:2586  doctor.phoneNumber = phoneNumber */\n      dup2\n      swap1\n      mstore\n      pop\n        /* \"Contract.sol\":2617:2618  0 */\n      0x00\n        /* \"Contract.sol\":2596:2602  doctor */\n      dup2\n        /* \"Contract.sol\":2596:2614  doctor.recordCount */\n      0x60\n      add\n        /* \"Contract.sol\":2596:2618  doctor.recordCount = 0 */\n      dup2\n      dup2\n      mstore\n      pop\n      pop\n        /* \"Contract.sol\":2629:2639  doctorList */\n      0x08\n        /* \"Contract.sol\":2645:2658  doctorAddress */\n      dup5\n        /* \"Contract.sol\":2629:2659  doctorList.push(doctorAddress) */\n      swap1\n      dup1\n      0x01\n      dup2\n      sload\n      add\n      dup1\n      dup3\n      sstore\n      dup1\n      swap2\n      pop\n      pop\n      0x01\n      swap1\n      sub\n      swap1\n      0x00\n      mstore\n      keccak256(0x00, 0x20)\n      add\n      0x00\n      swap1\n      swap2\n      swap1\n      swap2\n      swap1\n      swap2\n      0x0100\n      exp\n      dup2\n      sload\n      dup2\n      0xffffffffffffffffffffffffffffffffffffffff\n      mul\n      not\n      and\n      swap1\n      dup4\n      0xffffffffffffffffffffffffffffffffffffffff\n      and\n      mul\n      or\n      swap1\n      sstore\n      pop\n        /* \"Contract.sol\":2710:2716  doctor */\n      dup1\n        /* \"Contract.sol\":2670:2692  addressToDoctorMapping */\n      0x03\n        /* \"Contract.sol\":2670:2707  addressToDoctorMapping[doctorAddress] */\n      0x00\n        /* \"Contract.sol\":2693:2706  doctorAddress */\n      dup7\n        /* \"Contract.sol\":2670:2707  addressToDoctorMapping[doctorAddress] */\n      0xffffffffffffffffffffffffffffffffffffffff\n      and\n      0xffffffffffffffffffffffffffffffffffffffff\n      and\n      dup2\n      mstore\n      0x20\n      add\n      swap1\n      dup2\n      mstore\n      0x20\n      add\n      0x00\n      keccak256\n        /* \"Contract.sol\":2670:2716  addressToDoctorMapping[doctorAddress] = doctor */\n      0x00\n      dup3\n      add\n      mload\n      dup2\n      0x00\n      add\n      swap1\n      dup2\n      tag_194\n      swap2\n      swap1\n      tag_146\n      jump\t// in\n    tag_194:\n      pop\n      0x20\n      dup3\n      add\n      mload\n      dup2\n      0x01\n      add\n      swap1\n      dup2\n      tag_195\n      swap2\n      swap1\n      tag_146\n      jump\t// in\n    tag_195:\n      pop\n      0x40\n      dup3\n      add\n      mload\n      dup2\n      0x02\n      add\n      swap1\n      dup1\n      mload\n      swap1\n      0x20\n      add\n      swap1\n      tag_196\n      swap3\n      swap2\n      swap1\n      tag_148\n      jump\t// in\n    tag_196:\n      pop\n      0x60\n      dup3\n      add\n      mload\n      dup2\n      0x03\n      add\n      sstore\n      swap1\n      pop\n      pop\n        /* \"Contract.sol\":2346:2723  {... */\n      pop\n        /* \"Contract.sol\":2230:2723  function addDoctor(address doctorAddress, string memory doctorName, string memory phoneNumber) public adminOnly... */\n      pop\n      pop\n      pop\n      jump\t// out\n        /* \"Contract.sol\":3120:3630  function addPatient(address patientAddress, string memory patientName, string memory phoneNumber) public adminOnly... */\n    tag_59:\n        /* \"Contract.sol\":7347:7351  true */\n      0x01\n        /* \"Contract.sol\":7318:7351  adminRole.has(msg.sender) == true */\n      iszero\n      iszero\n        /* \"Contract.sol\":7318:7343  adminRole.has(msg.sender) */\n      tag_198\n        /* \"Contract.sol\":7332:7342  msg.sender */\n      caller\n        /* \"Contract.sol\":7318:7327  adminRole */\n      0x00\n        /* \"Contract.sol\":7318:7331  adminRole.has */\n      tag_127\n      swap1\n        /* \"Contract.sol\":7318:7343  adminRole.has(msg.sender) */\n      swap2\n      swap1\n      0xffffffff\n      and\n      jump\t// in\n    tag_198:\n        /* \"Contract.sol\":7318:7351  adminRole.has(msg.sender) == true */\n      iszero\n      iszero\n      eq\n        /* \"Contract.sol\":7310:7366  require(adminRole.has(msg.sender) == true, 'Admin only') */\n      tag_199\n      jumpi\n      mload(0x40)\n      0x08c379a000000000000000000000000000000000000000000000000000000000\n      dup2\n      mstore\n      0x04\n      add\n      tag_200\n      swap1\n      tag_185\n      jump\t// in\n    tag_200:\n      mload(0x40)\n      dup1\n      swap2\n      sub\n      swap1\n      revert\n    tag_199:\n        /* \"Contract.sol\":3275:3285  msg.sender */\n      caller\n        /* \"Contract.sol\":3257:3285  patientAddress != msg.sender */\n      0xffffffffffffffffffffffffffffffffffffffff\n      and\n        /* \"Contract.sol\":3257:3271  patientAddress */\n      dup4\n        /* \"Contract.sol\":3257:3285  patientAddress != msg.sender */\n      0xffffffffffffffffffffffffffffffffffffffff\n      and\n      sub\n        /* \"Contract.sol\":3249:3324  require(patientAddress != msg.sender, \"You are not eligible for this role\") */\n      tag_202\n      jumpi\n      mload(0x40)\n      0x08c379a000000000000000000000000000000000000000000000000000000000\n      dup2\n      mstore\n      0x04\n      add\n      tag_203\n      swap1\n      tag_189\n      jump\t// in\n    tag_203:\n      mload(0x40)\n      dup1\n      swap2\n      sub\n      swap1\n      revert\n    tag_202:\n        /* \"Contract.sol\":3335:3366  patientRole.add(patientAddress) */\n      tag_204\n        /* \"Contract.sol\":3351:3365  patientAddress */\n      dup4\n        /* \"Contract.sol\":3335:3346  patientRole */\n      0x02\n        /* \"Contract.sol\":3335:3350  patientRole.add */\n      tag_98\n      swap1\n        /* \"Contract.sol\":3335:3366  patientRole.add(patientAddress) */\n      swap2\n      swap1\n      0xffffffff\n      and\n      jump\t// in\n    tag_204:\n        /* \"Contract.sol\":3377:3399  Patient memory patient */\n      tag_205\n      tag_206\n      jump\t// in\n    tag_205:\n        /* \"Contract.sol\":3433:3444  patientName */\n      dup3\n        /* \"Contract.sol\":3418:3425  patient */\n      dup2\n        /* \"Contract.sol\":3418:3430  patient.name */\n      0x00\n      add\n        /* \"Contract.sol\":3418:3444  patient.name = patientName */\n      dup2\n      swap1\n      mstore\n      pop\n        /* \"Contract.sol\":3476:3487  phoneNumber */\n      dup2\n        /* \"Contract.sol\":3454:3461  patient */\n      dup2\n        /* \"Contract.sol\":3454:3473  patient.phoneNumber */\n      0x20\n      add\n        /* \"Contract.sol\":3454:3487  patient.phoneNumber = phoneNumber */\n      dup2\n      swap1\n      mstore\n      pop\n        /* \"Contract.sol\":3519:3520  0 */\n      0x00\n        /* \"Contract.sol\":3497:3504  patient */\n      dup2\n        /* \"Contract.sol\":3497:3516  patient.recordCount */\n      0x60\n      add\n        /* \"Contract.sol\":3497:3520  patient.recordCount = 0 */\n      dup2\n      dup2\n      mstore\n      pop\n      pop\n        /* \"Contract.sol\":3573:3580  patient */\n      dup1\n        /* \"Contract.sol\":3531:3554  addressToPatientMapping */\n      0x04\n        /* \"Contract.sol\":3531:3570  addressToPatientMapping[patientAddress] */\n      0x00\n        /* \"Contract.sol\":3555:3569  patientAddress */\n      dup7\n        /* \"Contract.sol\":3531:3570  addressToPatientMapping[patientAddress] */\n      0xffffffffffffffffffffffffffffffffffffffff\n      and\n      0xffffffffffffffffffffffffffffffffffffffff\n      and\n      dup2\n      mstore\n      0x20\n      add\n      swap1\n      dup2\n      mstore\n      0x20\n      add\n      0x00\n      keccak256\n        /* \"Contract.sol\":3531:3580  addressToPatientMapping[patientAddress] = patient */\n      0x00\n      dup3\n      add\n      mload\n      dup2\n      0x00\n      add\n      swap1\n      dup2\n      tag_207\n      swap2\n      swap1\n      tag_146\n      jump\t// in\n    tag_207:\n      pop\n      0x20\n      dup3\n      add\n      mload\n      dup2\n      0x01\n      add\n      swap1\n      dup2\n      tag_208\n      swap2\n      swap1\n      tag_146\n      jump\t// in\n    tag_208:\n      pop\n      0x40\n      dup3\n      add\n      mload\n      dup2\n      0x02\n      add\n      swap1\n      dup1\n      mload\n      swap1\n      0x20\n      add\n      swap1\n      tag_209\n      swap3\n      swap2\n      swap1\n      tag_148\n      jump\t// in\n    tag_209:\n      pop\n      0x60\n      dup3\n      add\n      mload\n      dup2\n      0x03\n      add\n      sstore\n      swap1\n      pop\n      pop\n        /* \"Contract.sol\":3591:3602  patientList */\n      0x09\n        /* \"Contract.sol\":3608:3622  patientAddress */\n      dup5\n        /* \"Contract.sol\":3591:3623  patientList.push(patientAddress) */\n      swap1\n      dup1\n      0x01\n      dup2\n      sload\n      add\n      dup1\n      dup3\n      sstore\n      dup1\n      swap2\n      pop\n      pop\n      0x01\n      swap1\n      sub\n      swap1\n      0x00\n      mstore\n      keccak256(0x00, 0x20)\n      add\n      0x00\n      swap1\n      swap2\n      swap1\n      swap2\n      swap1\n      swap2\n      0x0100\n      exp\n      dup2\n      sload\n      dup2\n      0xffffffffffffffffffffffffffffffffffffffff\n      mul\n      not\n      and\n      swap1\n      dup4\n      0xffffffffffffffffffffffffffffffffffffffff\n      and\n      mul\n      or\n      swap1\n      sstore\n      pop\n        /* \"Contract.sol\":3239:3630  {... */\n      pop\n        /* \"Contract.sol\":3120:3630  function addPatient(address patientAddress, string memory patientName, string memory phoneNumber) public adminOnly... */\n      pop\n      pop\n      pop\n      jump\t// out\n        /* \"Contract.sol\":4196:4365  function isAssignedToDoctor(address patientAddress) public view doctorOnly returns(bool)... */\n    tag_62:\n        /* \"Contract.sol\":4279:4283  bool */\n      0x00\n        /* \"Contract.sol\":7464:7468  true */\n      0x01\n        /* \"Contract.sol\":7434:7468  doctorRole.has(msg.sender) == true */\n      iszero\n      iszero\n        /* \"Contract.sol\":7434:7460  doctorRole.has(msg.sender) */\n      tag_212\n        /* \"Contract.sol\":7449:7459  msg.sender */\n      caller\n        /* \"Contract.sol\":7434:7444  doctorRole */\n      0x01\n        /* \"Contract.sol\":7434:7448  doctorRole.has */\n      tag_127\n      swap1\n        /* \"Contract.sol\":7434:7460  doctorRole.has(msg.sender) */\n      swap2\n      swap1\n      0xffffffff\n      and\n      jump\t// in\n    tag_212:\n        /* \"Contract.sol\":7434:7468  doctorRole.has(msg.sender) == true */\n      iszero\n      iszero\n      eq\n        /* \"Contract.sol\":7426:7484  require(doctorRole.has(msg.sender) == true, 'Doctor only') */\n      tag_213\n      jumpi\n      mload(0x40)\n      0x08c379a000000000000000000000000000000000000000000000000000000000\n      dup2\n      mstore\n      0x04\n      add\n      tag_214\n      swap1\n      tag_130\n      jump\t// in\n    tag_214:\n      mload(0x40)\n      dup1\n      swap2\n      sub\n      swap1\n      revert\n    tag_213:\n        /* \"Contract.sol\":4348:4358  msg.sender */\n      caller\n        /* \"Contract.sol\":4306:4358  patientToDoctorMapping[patientAddress] == msg.sender */\n      0xffffffffffffffffffffffffffffffffffffffff\n      and\n        /* \"Contract.sol\":4306:4328  patientToDoctorMapping */\n      0x05\n        /* \"Contract.sol\":4306:4344  patientToDoctorMapping[patientAddress] */\n      0x00\n        /* \"Contract.sol\":4329:4343  patientAddress */\n      dup5\n        /* \"Contract.sol\":4306:4344  patientToDoctorMapping[patientAddress] */\n      0xffffffffffffffffffffffffffffffffffffffff\n      and\n      0xffffffffffffffffffffffffffffffffffffffff\n      and\n      dup2\n      mstore\n      0x20\n      add\n      swap1\n      dup2\n      mstore\n      0x20\n      add\n      0x00\n      keccak256\n      0x00\n      swap1\n      sload\n      swap1\n      0x0100\n      exp\n      swap1\n      div\n      0xffffffffffffffffffffffffffffffffffffffff\n      and\n        /* \"Contract.sol\":4306:4358  patientToDoctorMapping[patientAddress] == msg.sender */\n      0xffffffffffffffffffffffffffffffffffffffff\n      and\n      eq\n        /* \"Contract.sol\":4299:4358  return patientToDoctorMapping[patientAddress] == msg.sender */\n      swap1\n      pop\n        /* \"Contract.sol\":4196:4365  function isAssignedToDoctor(address patientAddress) public view doctorOnly returns(bool)... */\n      swap2\n      swap1\n      pop\n      jump\t// out\n        /* \"Contract.sol\":5258:5600  function getRecordCount(address senderAddress) public view assignablesOnly(senderAddress) returns(uint)... */\n    tag_67:\n        /* \"Contract.sol\":5356:5360  uint */\n      0x00\n        /* \"Contract.sol\":5333:5346  senderAddress */\n      dup2\n        /* \"Contract.sol\":7891:7919  doctorRole.has(givenAddress) */\n      tag_217\n        /* \"Contract.sol\":7906:7918  givenAddress */\n      dup2\n        /* \"Contract.sol\":7891:7901  doctorRole */\n      0x01\n        /* \"Contract.sol\":7891:7905  doctorRole.has */\n      tag_127\n      swap1\n        /* \"Contract.sol\":7891:7919  doctorRole.has(givenAddress) */\n      swap2\n      swap1\n      0xffffffff\n      and\n      jump\t// in\n    tag_217:\n        /* \"Contract.sol\":7891:7952  doctorRole.has(givenAddress) || patientRole.has(givenAddress) */\n      dup1\n      tag_218\n      jumpi\n      pop\n        /* \"Contract.sol\":7923:7952  patientRole.has(givenAddress) */\n      tag_219\n        /* \"Contract.sol\":7939:7951  givenAddress */\n      dup2\n        /* \"Contract.sol\":7923:7934  patientRole */\n      0x02\n        /* \"Contract.sol\":7923:7938  patientRole.has */\n      tag_127\n      swap1\n        /* \"Contract.sol\":7923:7952  patientRole.has(givenAddress) */\n      swap2\n      swap1\n      0xffffffff\n      and\n      jump\t// in\n    tag_219:\n        /* \"Contract.sol\":7891:7952  doctorRole.has(givenAddress) || patientRole.has(givenAddress) */\n    tag_218:\n        /* \"Contract.sol\":7883:7953  require(doctorRole.has(givenAddress) || patientRole.has(givenAddress)) */\n      tag_220\n      jumpi\n      0x00\n      dup1\n      revert\n    tag_220:\n        /* \"Contract.sol\":5379:5405  doctorRole.has(msg.sender) */\n      tag_222\n        /* \"Contract.sol\":5394:5404  msg.sender */\n      caller\n        /* \"Contract.sol\":5379:5389  doctorRole */\n      0x01\n        /* \"Contract.sol\":5379:5393  doctorRole.has */\n      tag_127\n      swap1\n        /* \"Contract.sol\":5379:5405  doctorRole.has(msg.sender) */\n      swap2\n      swap1\n      0xffffffff\n      and\n      jump\t// in\n    tag_222:\n        /* \"Contract.sol\":5376:5594  if(doctorRole.has(msg.sender))... */\n      iszero\n      tag_223\n      jumpi\n        /* \"Contract.sol\":5436:5458  addressToDoctorMapping */\n      0x03\n        /* \"Contract.sol\":5436:5470  addressToDoctorMapping[msg.sender] */\n      0x00\n        /* \"Contract.sol\":5459:5469  msg.sender */\n      caller\n        /* \"Contract.sol\":5436:5470  addressToDoctorMapping[msg.sender] */\n      0xffffffffffffffffffffffffffffffffffffffff\n      and\n      0xffffffffffffffffffffffffffffffffffffffff\n      and\n      dup2\n      mstore\n      0x20\n      add\n      swap1\n      dup2\n      mstore\n      0x20\n      add\n      0x00\n      keccak256\n        /* \"Contract.sol\":5436:5482  addressToDoctorMapping[msg.sender].recordCount */\n      0x03\n      add\n      sload\n        /* \"Contract.sol\":5429:5482  return addressToDoctorMapping[msg.sender].recordCount */\n      swap2\n      pop\n      jump(tag_221)\n        /* \"Contract.sol\":5376:5594  if(doctorRole.has(msg.sender))... */\n    tag_223:\n        /* \"Contract.sol\":5536:5559  addressToPatientMapping */\n      0x04\n        /* \"Contract.sol\":5536:5571  addressToPatientMapping[msg.sender] */\n      0x00\n        /* \"Contract.sol\":5560:5570  msg.sender */\n      caller\n        /* \"Contract.sol\":5536:5571  addressToPatientMapping[msg.sender] */\n      0xffffffffffffffffffffffffffffffffffffffff\n      and\n      0xffffffffffffffffffffffffffffffffffffffff\n      and\n      dup2\n      mstore\n      0x20\n      add\n      swap1\n      dup2\n      mstore\n      0x20\n      add\n      0x00\n      keccak256\n        /* \"Contract.sol\":5536:5583  addressToPatientMapping[msg.sender].recordCount */\n      0x03\n      add\n      sload\n        /* \"Contract.sol\":5529:5583  return addressToPatientMapping[msg.sender].recordCount */\n      swap2\n      pop\n        /* \"Contract.sol\":7963:7964  _ */\n    tag_221:\n        /* \"Contract.sol\":5258:5600  function getRecordCount(address senderAddress) public view assignablesOnly(senderAddress) returns(uint)... */\n      pop\n      swap2\n      swap1\n      pop\n      jump\t// out\n        /* \"Contract.sol\":4027:4151  function isPatient(address givenAddress) public view returns(bool)... */\n    tag_72:\n        /* \"Contract.sol\":4088:4092  bool */\n      0x00\n        /* \"Contract.sol\":4115:4144  patientRole.has(givenAddress) */\n      tag_226\n        /* \"Contract.sol\":4131:4143  givenAddress */\n      dup3\n        /* \"Contract.sol\":4115:4126  patientRole */\n      0x02\n        /* \"Contract.sol\":4115:4130  patientRole.has */\n      tag_127\n      swap1\n        /* \"Contract.sol\":4115:4144  patientRole.has(givenAddress) */\n      swap2\n      swap1\n      0xffffffff\n      and\n      jump\t// in\n    tag_226:\n        /* \"Contract.sol\":4108:4144  return patientRole.has(givenAddress) */\n      swap1\n      pop\n        /* \"Contract.sol\":4027:4151  function isPatient(address givenAddress) public view returns(bool)... */\n      swap2\n      swap1\n      pop\n      jump\t// out\n        /* \"Contract.sol\":3684:3839  function assign(address patientAddress, address doctorAddress) public adminOnly... */\n    tag_77:\n        /* \"Contract.sol\":7347:7351  true */\n      0x01\n        /* \"Contract.sol\":7318:7351  adminRole.has(msg.sender) == true */\n      iszero\n      iszero\n        /* \"Contract.sol\":7318:7343  adminRole.has(msg.sender) */\n      tag_228\n        /* \"Contract.sol\":7332:7342  msg.sender */\n      caller\n        /* \"Contract.sol\":7318:7327  adminRole */\n      0x00\n        /* \"Contract.sol\":7318:7331  adminRole.has */\n      tag_127\n      swap1\n        /* \"Contract.sol\":7318:7343  adminRole.has(msg.sender) */\n      swap2\n      swap1\n      0xffffffff\n      and\n      jump\t// in\n    tag_228:\n        /* \"Contract.sol\":7318:7351  adminRole.has(msg.sender) == true */\n      iszero\n      iszero\n      eq\n        /* \"Contract.sol\":7310:7366  require(adminRole.has(msg.sender) == true, 'Admin only') */\n      tag_229\n      jumpi\n      mload(0x40)\n      0x08c379a000000000000000000000000000000000000000000000000000000000\n      dup2\n      mstore\n      0x04\n      add\n      tag_230\n      swap1\n      tag_185\n      jump\t// in\n    tag_230:\n      mload(0x40)\n      dup1\n      swap2\n      sub\n      swap1\n      revert\n    tag_229:\n        /* \"Contract.sol\":3819:3832  doctorAddress */\n      dup1\n        /* \"Contract.sol\":3778:3800  patientToDoctorMapping */\n      0x05\n        /* \"Contract.sol\":3778:3816  patientToDoctorMapping[patientAddress] */\n      0x00\n        /* \"Contract.sol\":3801:3815  patientAddress */\n      dup5\n        /* \"Contract.sol\":3778:3816  patientToDoctorMapping[patientAddress] */\n      0xffffffffffffffffffffffffffffffffffffffff\n      and\n      0xffffffffffffffffffffffffffffffffffffffff\n      and\n      dup2\n      mstore\n      0x20\n      add\n      swap1\n      dup2\n      mstore\n      0x20\n      add\n      0x00\n      keccak256\n      0x00\n        /* \"Contract.sol\":3778:3832  patientToDoctorMapping[patientAddress] = doctorAddress */\n      0x0100\n      exp\n      dup2\n      sload\n      dup2\n      0xffffffffffffffffffffffffffffffffffffffff\n      mul\n      not\n      and\n      swap1\n      dup4\n      0xffffffffffffffffffffffffffffffffffffffff\n      and\n      mul\n      or\n      swap1\n      sstore\n      pop\n        /* \"Contract.sol\":3684:3839  function assign(address patientAddress, address doctorAddress) public adminOnly... */\n      pop\n      pop\n      jump\t// out\n        /* \"Contract.sol\":3871:3993  function isDoctor(address givenAddress) public view returns(bool)... */\n    tag_80:\n        /* \"Contract.sol\":3931:3935  bool */\n      0x00\n        /* \"Contract.sol\":3958:3986  doctorRole.has(givenAddress) */\n      tag_233\n        /* \"Contract.sol\":3973:3985  givenAddress */\n      dup3\n        /* \"Contract.sol\":3958:3968  doctorRole */\n      0x01\n        /* \"Contract.sol\":3958:3972  doctorRole.has */\n      tag_127\n      swap1\n        /* \"Contract.sol\":3958:3986  doctorRole.has(givenAddress) */\n      swap2\n      swap1\n      0xffffffff\n      and\n      jump\t// in\n    tag_233:\n        /* \"Contract.sol\":3951:3986  return doctorRole.has(givenAddress) */\n      swap1\n      pop\n        /* \"Contract.sol\":3871:3993  function isDoctor(address givenAddress) public view returns(bool)... */\n      swap2\n      swap1\n      pop\n      jump\t// out\n        /* \"Contract.sol\":2729:2830  function getDoctorList() public view returns(address[] memory)... */\n    tag_83:\n        /* \"Contract.sol\":2774:2790  address[] memory */\n      0x60\n        /* \"Contract.sol\":2813:2823  doctorList */\n      0x08\n        /* \"Contract.sol\":2806:2823  return doctorList */\n      dup1\n      sload\n      dup1\n      0x20\n      mul\n      0x20\n      add\n      mload(0x40)\n      swap1\n      dup2\n      add\n      0x40\n      mstore\n      dup1\n      swap3\n      swap2\n      swap1\n      dup2\n      dup2\n      mstore\n      0x20\n      add\n      dup3\n      dup1\n      sload\n      dup1\n      iszero\n      tag_235\n      jumpi\n      0x20\n      mul\n      dup3\n      add\n      swap2\n      swap1\n      0x00\n      mstore\n      keccak256(0x00, 0x20)\n      swap1\n    tag_236:\n      dup2\n      0x00\n      swap1\n      sload\n      swap1\n      0x0100\n      exp\n      swap1\n      div\n      0xffffffffffffffffffffffffffffffffffffffff\n      and\n      0xffffffffffffffffffffffffffffffffffffffff\n      and\n      dup2\n      mstore\n      0x20\n      add\n      swap1\n      0x01\n      add\n      swap1\n      dup1\n      dup4\n      gt\n      tag_236\n      jumpi\n    tag_235:\n      pop\n      pop\n      pop\n      pop\n      pop\n      swap1\n      pop\n        /* \"Contract.sol\":2729:2830  function getDoctorList() public view returns(address[] memory)... */\n      swap1\n      jump\t// out\n        /* \"Contract.sol\":5633:5996  function getRecordNumbers(address senderAddress) public view assignablesOnly(senderAddress) returns(uint[] memory)... */\n    tag_88:\n        /* \"Contract.sol\":5733:5746  uint[] memory */\n      0x60\n        /* \"Contract.sol\":5710:5723  senderAddress */\n      dup2\n        /* \"Contract.sol\":7891:7919  doctorRole.has(givenAddress) */\n      tag_238\n        /* \"Contract.sol\":7906:7918  givenAddress */\n      dup2\n        /* \"Contract.sol\":7891:7901  doctorRole */\n      0x01\n        /* \"Contract.sol\":7891:7905  doctorRole.has */\n      tag_127\n      swap1\n        /* \"Contract.sol\":7891:7919  doctorRole.has(givenAddress) */\n      swap2\n      swap1\n      0xffffffff\n      and\n      jump\t// in\n    tag_238:\n        /* \"Contract.sol\":7891:7952  doctorRole.has(givenAddress) || patientRole.has(givenAddress) */\n      dup1\n      tag_239\n      jumpi\n      pop\n        /* \"Contract.sol\":7923:7952  patientRole.has(givenAddress) */\n      tag_240\n        /* \"Contract.sol\":7939:7951  givenAddress */\n      dup2\n        /* \"Contract.sol\":7923:7934  patientRole */\n      0x02\n        /* \"Contract.sol\":7923:7938  patientRole.has */\n      tag_127\n      swap1\n        /* \"Contract.sol\":7923:7952  patientRole.has(givenAddress) */\n      swap2\n      swap1\n      0xffffffff\n      and\n      jump\t// in\n    tag_240:\n        /* \"Contract.sol\":7891:7952  doctorRole.has(givenAddress) || patientRole.has(givenAddress) */\n    tag_239:\n        /* \"Contract.sol\":7883:7953  require(doctorRole.has(givenAddress) || patientRole.has(givenAddress)) */\n      tag_241\n      jumpi\n      0x00\n      dup1\n      revert\n    tag_241:\n        /* \"Contract.sol\":5765:5791  doctorRole.has(msg.sender) */\n      tag_243\n        /* \"Contract.sol\":5780:5790  msg.sender */\n      caller\n        /* \"Contract.sol\":5765:5775  doctorRole */\n      0x01\n        /* \"Contract.sol\":5765:5779  doctorRole.has */\n      tag_127\n      swap1\n        /* \"Contract.sol\":5765:5791  doctorRole.has(msg.sender) */\n      swap2\n      swap1\n      0xffffffff\n      and\n      jump\t// in\n    tag_243:\n        /* \"Contract.sol\":5762:5990  if(doctorRole.has(msg.sender))... */\n      iszero\n      tag_244\n      jumpi\n        /* \"Contract.sol\":5822:5844  addressToDoctorMapping */\n      0x03\n        /* \"Contract.sol\":5822:5856  addressToDoctorMapping[msg.sender] */\n      0x00\n        /* \"Contract.sol\":5845:5855  msg.sender */\n      caller\n        /* \"Contract.sol\":5822:5856  addressToDoctorMapping[msg.sender] */\n      0xffffffffffffffffffffffffffffffffffffffff\n      and\n      0xffffffffffffffffffffffffffffffffffffffff\n      and\n      dup2\n      mstore\n      0x20\n      add\n      swap1\n      dup2\n      mstore\n      0x20\n      add\n      0x00\n      keccak256\n        /* \"Contract.sol\":5822:5873  addressToDoctorMapping[msg.sender].recordNumberList */\n      0x02\n      add\n        /* \"Contract.sol\":5815:5873  return addressToDoctorMapping[msg.sender].recordNumberList */\n      dup1\n      sload\n      dup1\n      0x20\n      mul\n      0x20\n      add\n      mload(0x40)\n      swap1\n      dup2\n      add\n      0x40\n      mstore\n      dup1\n      swap3\n      swap2\n      swap1\n      dup2\n      dup2\n      mstore\n      0x20\n      add\n      dup3\n      dup1\n      sload\n      dup1\n      iszero\n      tag_245\n      jumpi\n      0x20\n      mul\n      dup3\n      add\n      swap2\n      swap1\n      0x00\n      mstore\n      keccak256(0x00, 0x20)\n      swap1\n    tag_246:\n      dup2\n      sload\n      dup2\n      mstore\n      0x20\n      add\n      swap1\n      0x01\n      add\n      swap1\n      dup1\n      dup4\n      gt\n      tag_246\n      jumpi\n    tag_245:\n      pop\n      pop\n      pop\n      pop\n      pop\n      swap2\n      pop\n      jump(tag_242)\n        /* \"Contract.sol\":5762:5990  if(doctorRole.has(msg.sender))... */\n    tag_244:\n        /* \"Contract.sol\":5927:5950  addressToPatientMapping */\n      0x04\n        /* \"Contract.sol\":5927:5962  addressToPatientMapping[msg.sender] */\n      0x00\n        /* \"Contract.sol\":5951:5961  msg.sender */\n      caller\n        /* \"Contract.sol\":5927:5962  addressToPatientMapping[msg.sender] */\n      0xffffffffffffffffffffffffffffffffffffffff\n      and\n      0xffffffffffffffffffffffffffffffffffffffff\n      and\n      dup2\n      mstore\n      0x20\n      add\n      swap1\n      dup2\n      mstore\n      0x20\n      add\n      0x00\n      keccak256\n        /* \"Contract.sol\":5927:5979  addressToPatientMapping[msg.sender].recordNumberList */\n      0x02\n      add\n        /* \"Contract.sol\":5920:5979  return addressToPatientMapping[msg.sender].recordNumberList */\n      dup1\n      sload\n      dup1\n      0x20\n      mul\n      0x20\n      add\n      mload(0x40)\n      swap1\n      dup2\n      add\n      0x40\n      mstore\n      dup1\n      swap3\n      swap2\n      swap1\n      dup2\n      dup2\n      mstore\n      0x20\n      add\n      dup3\n      dup1\n      sload\n      dup1\n      iszero\n      tag_248\n      jumpi\n      0x20\n      mul\n      dup3\n      add\n      swap2\n      swap1\n      0x00\n      mstore\n      keccak256(0x00, 0x20)\n      swap1\n    tag_249:\n      dup2\n      sload\n      dup2\n      mstore\n      0x20\n      add\n      swap1\n      0x01\n      add\n      swap1\n      dup1\n      dup4\n      gt\n      tag_249\n      jumpi\n    tag_248:\n      pop\n      pop\n      pop\n      pop\n      pop\n      swap2\n      pop\n        /* \"Contract.sol\":7963:7964  _ */\n    tag_242:\n        /* \"Contract.sol\":5633:5996  function getRecordNumbers(address senderAddress) public view assignablesOnly(senderAddress) returns(uint[] memory)... */\n      pop\n      swap2\n      swap1\n      pop\n      jump\t// out\n        /* \"Contract.sol\":2056:2084  address[] public patientList */\n    tag_93:\n      0x09\n      dup2\n      dup2\n      sload\n      dup2\n      lt\n      tag_250\n      jumpi\n      0x00\n      dup1\n      revert\n    tag_250:\n      swap1\n      0x00\n      mstore\n      keccak256(0x00, 0x20)\n      add\n      0x00\n      swap2\n      pop\n      sload\n      swap1\n      0x0100\n      exp\n      swap1\n      div\n      0xffffffffffffffffffffffffffffffffffffffff\n      and\n      dup2\n      jump\t// out\n        /* \"Contract.sol\":2091:2111  address public admin */\n    tag_96:\n      0x0a\n      0x00\n      swap1\n      sload\n      swap1\n      0x0100\n      exp\n      swap1\n      div\n      0xffffffffffffffffffffffffffffffffffffffff\n      and\n      dup2\n      jump\t// out\n        /* \"Contract.sol\":301:481  function add(Role storage role, address account) internal ... */\n    tag_98:\n        /* \"Contract.sol\":383:401  has(role, account) */\n      tag_253\n        /* \"Contract.sol\":387:391  role */\n      dup3\n        /* \"Contract.sol\":393:400  account */\n      dup3\n        /* \"Contract.sol\":383:386  has */\n      tag_127\n        /* \"Contract.sol\":383:401  has(role, account) */\n      jump\t// in\n    tag_253:\n        /* \"Contract.sol\":382:401  !has(role, account) */\n      iszero\n        /* \"Contract.sol\":374:437  require(!has(role, account), \"Roles: account already has role\") */\n      tag_254\n      jumpi\n      mload(0x40)\n      0x08c379a000000000000000000000000000000000000000000000000000000000\n      dup2\n      mstore\n      0x04\n      add\n      tag_255\n      swap1\n      tag_256\n      jump\t// in\n    tag_255:\n      mload(0x40)\n      dup1\n      swap2\n      sub\n      swap1\n      revert\n    tag_254:\n        /* \"Contract.sol\":470:474  true */\n      0x01\n        /* \"Contract.sol\":447:451  role */\n      dup3\n        /* \"Contract.sol\":447:458  role.bearer */\n      0x00\n      add\n        /* \"Contract.sol\":447:467  role.bearer[account] */\n      0x00\n        /* \"Contract.sol\":459:466  account */\n      dup4\n        /* \"Contract.sol\":447:467  role.bearer[account] */\n      0xffffffffffffffffffffffffffffffffffffffff\n      and\n      0xffffffffffffffffffffffffffffffffffffffff\n      and\n      dup2\n      mstore\n      0x20\n      add\n      swap1\n      dup2\n      mstore\n      0x20\n      add\n      0x00\n      keccak256\n      0x00\n        /* \"Contract.sol\":447:474  role.bearer[account] = true */\n      0x0100\n      exp\n      dup2\n      sload\n      dup2\n      0xff\n      mul\n      not\n      and\n      swap1\n      dup4\n      iszero\n      iszero\n      mul\n      or\n      swap1\n      sstore\n      pop\n        /* \"Contract.sol\":301:481  function add(Role storage role, address account) internal ... */\n      pop\n      pop\n      jump\t// out\n        /* \"Contract.sol\":830:957  function has(Role storage role, address account) internal view returns (bool) ... */\n    tag_127:\n        /* \"Contract.sol\":902:906  bool */\n      0x00\n        /* \"Contract.sol\":930:934  role */\n      dup3\n        /* \"Contract.sol\":930:941  role.bearer */\n      0x00\n      add\n        /* \"Contract.sol\":930:950  role.bearer[account] */\n      0x00\n        /* \"Contract.sol\":942:949  account */\n      dup4\n        /* \"Contract.sol\":930:950  role.bearer[account] */\n      0xffffffffffffffffffffffffffffffffffffffff\n      and\n      0xffffffffffffffffffffffffffffffffffffffff\n      and\n      dup2\n      mstore\n      0x20\n      add\n      swap1\n      dup2\n      mstore\n      0x20\n      add\n      0x00\n      keccak256\n      0x00\n      swap1\n      sload\n      swap1\n      0x0100\n      exp\n      swap1\n      div\n      0xff\n      and\n        /* \"Contract.sol\":923:950  return role.bearer[account] */\n      swap1\n      pop\n        /* \"Contract.sol\":830:957  function has(Role storage role, address account) internal view returns (bool) ... */\n      swap3\n      swap2\n      pop\n      pop\n      jump\t// out\n        /* \"Contract.sol\":7019:7235  function addAppointmentToRecord(uint recordNumber, uint appointmentNumber) internal... */\n    tag_180:\n        /* \"Contract.sol\":7117:7138  Record storage record */\n      0x00\n        /* \"Contract.sol\":7141:7151  recordList */\n      0x07\n        /* \"Contract.sol\":7152:7164  recordNumber */\n      dup4\n        /* \"Contract.sol\":7141:7165  recordList[recordNumber] */\n      dup2\n      sload\n      dup2\n      lt\n      tag_259\n      jumpi\n      tag_260\n      tag_104\n      jump\t// in\n    tag_260:\n    tag_259:\n      swap1\n      0x00\n      mstore\n      keccak256(0x00, 0x20)\n      swap1\n      0x05\n      mul\n      add\n        /* \"Contract.sol\":7117:7165  Record storage record = recordList[recordNumber] */\n      swap1\n      pop\n        /* \"Contract.sol\":7176:7182  record */\n      dup1\n        /* \"Contract.sol\":7176:7204  record.appointmentNumberList */\n      0x04\n      add\n        /* \"Contract.sol\":7210:7227  appointmentNumber */\n      dup3\n        /* \"Contract.sol\":7176:7228  record.appointmentNumberList.push(appointmentNumber) */\n      swap1\n      dup1\n      0x01\n      dup2\n      sload\n      add\n      dup1\n      dup3\n      sstore\n      dup1\n      swap2\n      pop\n      pop\n      0x01\n      swap1\n      sub\n      swap1\n      0x00\n      mstore\n      keccak256(0x00, 0x20)\n      add\n      0x00\n      swap1\n      swap2\n      swap1\n      swap2\n      swap1\n      swap2\n      pop\n      sstore\n        /* \"Contract.sol\":7107:7235  {... */\n      pop\n        /* \"Contract.sol\":7019:7235  function addAppointmentToRecord(uint recordNumber, uint appointmentNumber) internal... */\n      pop\n      pop\n      jump\t// out\n    tag_100:\n      mload(0x40)\n      dup1\n      0xa0\n      add\n      0x40\n      mstore\n      dup1\n      0x00\n      dup2\n      mstore\n      0x20\n      add\n      and(0xffffffffffffffffffffffffffffffffffffffff, 0x00)\n      dup2\n      mstore\n      0x20\n      add\n      and(0xffffffffffffffffffffffffffffffffffffffff, 0x00)\n      dup2\n      mstore\n      0x20\n      add\n      0x60\n      dup2\n      mstore\n      0x20\n      add\n      0x60\n      dup2\n      mstore\n      pop\n      swap1\n      jump\t// out\n    tag_148:\n      dup3\n      dup1\n      sload\n      dup3\n      dup3\n      sstore\n      swap1\n      0x00\n      mstore\n      keccak256(0x00, 0x20)\n      swap1\n      dup2\n      add\n      swap3\n      dup3\n      iszero\n      tag_263\n      jumpi\n      swap2\n      0x20\n      mul\n      dup3\n      add\n    tag_264:\n      dup3\n      dup2\n      gt\n      iszero\n      tag_265\n      jumpi\n      dup3\n      mload\n      dup3\n      sstore\n      swap2\n      0x20\n      add\n      swap2\n      swap1\n      0x01\n      add\n      swap1\n      jump(tag_264)\n    tag_265:\n    tag_263:\n      pop\n      swap1\n      pop\n      tag_266\n      swap2\n      swap1\n      tag_267\n      jump\t// in\n    tag_266:\n      pop\n      swap1\n      jump\t// out\n    tag_175:\n      mload(0x40)\n      dup1\n      0xa0\n      add\n      0x40\n      mstore\n      dup1\n      0x00\n      dup2\n      mstore\n      0x20\n      add\n      and(0xffffffffffffffffffffffffffffffffffffffff, 0x00)\n      dup2\n      mstore\n      0x20\n      add\n      and(0xffffffffffffffffffffffffffffffffffffffff, 0x00)\n      dup2\n      mstore\n      0x20\n      add\n      0x60\n      dup2\n      mstore\n      0x20\n      add\n      0x60\n      dup2\n      mstore\n      pop\n      swap1\n      jump\t// out\n    tag_192:\n      mload(0x40)\n      dup1\n      0x80\n      add\n      0x40\n      mstore\n      dup1\n      0x60\n      dup2\n      mstore\n      0x20\n      add\n      0x60\n      dup2\n      mstore\n      0x20\n      add\n      0x60\n      dup2\n      mstore\n      0x20\n      add\n      0x00\n      dup2\n      mstore\n      pop\n      swap1\n      jump\t// out\n    tag_206:\n      mload(0x40)\n      dup1\n      0x80\n      add\n      0x40\n      mstore\n      dup1\n      0x60\n      dup2\n      mstore\n      0x20\n      add\n      0x60\n      dup2\n      mstore\n      0x20\n      add\n      0x60\n      dup2\n      mstore\n      0x20\n      add\n      0x00\n      dup2\n      mstore\n      pop\n      swap1\n      jump\t// out\n    tag_267:\n    tag_268:\n      dup1\n      dup3\n      gt\n      iszero\n      tag_269\n      jumpi\n      0x00\n      dup2\n      0x00\n      swap1\n      sstore\n      pop\n      0x01\n      add\n      jump(tag_268)\n    tag_269:\n      pop\n      swap1\n      jump\t// out\n        /* \"#utility.yul\":7:82   */\n    tag_270:\n        /* \"#utility.yul\":40:46   */\n      0x00\n        /* \"#utility.yul\":73:75   */\n      0x40\n        /* \"#utility.yul\":67:76   */\n      mload\n        /* \"#utility.yul\":57:76   */\n      swap1\n      pop\n        /* \"#utility.yul\":7:82   */\n      swap1\n      jump\t// out\n        /* \"#utility.yul\":88:205   */\n    tag_271:\n        /* \"#utility.yul\":197:198   */\n      0x00\n        /* \"#utility.yul\":194:195   */\n      dup1\n        /* \"#utility.yul\":187:199   */\n      revert\n        /* \"#utility.yul\":211:328   */\n    tag_272:\n        /* \"#utility.yul\":320:321   */\n      0x00\n        /* \"#utility.yul\":317:318   */\n      dup1\n        /* \"#utility.yul\":310:322   */\n      revert\n        /* \"#utility.yul\":334:411   */\n    tag_273:\n        /* \"#utility.yul\":371:378   */\n      0x00\n        /* \"#utility.yul\":400:405   */\n      dup2\n        /* \"#utility.yul\":389:405   */\n      swap1\n      pop\n        /* \"#utility.yul\":334:411   */\n      swap2\n      swap1\n      pop\n      jump\t// out\n        /* \"#utility.yul\":417:539   */\n    tag_274:\n        /* \"#utility.yul\":490:514   */\n      tag_351\n        /* \"#utility.yul\":508:513   */\n      dup2\n        /* \"#utility.yul\":490:514   */\n      tag_273\n      jump\t// in\n    tag_351:\n        /* \"#utility.yul\":483:488   */\n      dup2\n        /* \"#utility.yul\":480:515   */\n      eq\n        /* \"#utility.yul\":470:533   */\n      tag_352\n      jumpi\n        /* \"#utility.yul\":529:530   */\n      0x00\n        /* \"#utility.yul\":526:527   */\n      dup1\n        /* \"#utility.yul\":519:531   */\n      revert\n        /* \"#utility.yul\":470:533   */\n    tag_352:\n        /* \"#utility.yul\":417:539   */\n      pop\n      jump\t// out\n        /* \"#utility.yul\":545:684   */\n    tag_275:\n        /* \"#utility.yul\":591:596   */\n      0x00\n        /* \"#utility.yul\":629:635   */\n      dup2\n        /* \"#utility.yul\":616:636   */\n      calldataload\n        /* \"#utility.yul\":607:636   */\n      swap1\n      pop\n        /* \"#utility.yul\":645:678   */\n      tag_354\n        /* \"#utility.yul\":672:677   */\n      dup2\n        /* \"#utility.yul\":645:678   */\n      tag_274\n      jump\t// in\n    tag_354:\n        /* \"#utility.yul\":545:684   */\n      swap3\n      swap2\n      pop\n      pop\n      jump\t// out\n        /* \"#utility.yul\":690:1019   */\n    tag_25:\n        /* \"#utility.yul\":749:755   */\n      0x00\n        /* \"#utility.yul\":798:800   */\n      0x20\n        /* \"#utility.yul\":786:795   */\n      dup3\n        /* \"#utility.yul\":777:784   */\n      dup5\n        /* \"#utility.yul\":773:796   */\n      sub\n        /* \"#utility.yul\":769:801   */\n      slt\n        /* \"#utility.yul\":766:885   */\n      iszero\n      tag_356\n      jumpi\n        /* \"#utility.yul\":804:883   */\n      tag_357\n      tag_271\n      jump\t// in\n    tag_357:\n        /* \"#utility.yul\":766:885   */\n    tag_356:\n        /* \"#utility.yul\":924:925   */\n      0x00\n        /* \"#utility.yul\":949:1002   */\n      tag_358\n        /* \"#utility.yul\":994:1001   */\n      dup5\n        /* \"#utility.yul\":985:991   */\n      dup3\n        /* \"#utility.yul\":974:983   */\n      dup6\n        /* \"#utility.yul\":970:992   */\n      add\n        /* \"#utility.yul\":949:1002   */\n      tag_275\n      jump\t// in\n    tag_358:\n        /* \"#utility.yul\":939:1002   */\n      swap2\n      pop\n        /* \"#utility.yul\":895:1012   */\n      pop\n        /* \"#utility.yul\":690:1019   */\n      swap3\n      swap2\n      pop\n      pop\n      jump\t// out\n        /* \"#utility.yul\":1025:1133   */\n    tag_276:\n        /* \"#utility.yul\":1102:1126   */\n      tag_360\n        /* \"#utility.yul\":1120:1125   */\n      dup2\n        /* \"#utility.yul\":1102:1126   */\n      tag_273\n      jump\t// in\n    tag_360:\n        /* \"#utility.yul\":1097:1100   */\n      dup3\n        /* \"#utility.yul\":1090:1127   */\n      mstore\n        /* \"#utility.yul\":1025:1133   */\n      pop\n      pop\n      jump\t// out\n        /* \"#utility.yul\":1139:1265   */\n    tag_277:\n        /* \"#utility.yul\":1176:1183   */\n      0x00\n        /* \"#utility.yul\":1216:1258   */\n      0xffffffffffffffffffffffffffffffffffffffff\n        /* \"#utility.yul\":1209:1214   */\n      dup3\n        /* \"#utility.yul\":1205:1259   */\n      and\n        /* \"#utility.yul\":1194:1259   */\n      swap1\n      pop\n        /* \"#utility.yul\":1139:1265   */\n      swap2\n      swap1\n      pop\n      jump\t// out\n        /* \"#utility.yul\":1271:1367   */\n    tag_278:\n        /* \"#utility.yul\":1308:1315   */\n      0x00\n        /* \"#utility.yul\":1337:1361   */\n      tag_363\n        /* \"#utility.yul\":1355:1360   */\n      dup3\n        /* \"#utility.yul\":1337:1361   */\n      tag_277\n      jump\t// in\n    tag_363:\n        /* \"#utility.yul\":1326:1361   */\n      swap1\n      pop\n        /* \"#utility.yul\":1271:1367   */\n      swap2\n      swap1\n      pop\n      jump\t// out\n        /* \"#utility.yul\":1373:1481   */\n    tag_279:\n        /* \"#utility.yul\":1450:1474   */\n      tag_365\n        /* \"#utility.yul\":1468:1473   */\n      dup2\n        /* \"#utility.yul\":1450:1474   */\n      tag_278\n      jump\t// in\n    tag_365:\n        /* \"#utility.yul\":1445:1448   */\n      dup3\n        /* \"#utility.yul\":1438:1475   */\n      mstore\n        /* \"#utility.yul\":1373:1481   */\n      pop\n      pop\n      jump\t// out\n        /* \"#utility.yul\":1487:1586   */\n    tag_280:\n        /* \"#utility.yul\":1539:1545   */\n      0x00\n        /* \"#utility.yul\":1573:1578   */\n      dup2\n        /* \"#utility.yul\":1567:1579   */\n      mload\n        /* \"#utility.yul\":1557:1579   */\n      swap1\n      pop\n        /* \"#utility.yul\":1487:1586   */\n      swap2\n      swap1\n      pop\n      jump\t// out\n        /* \"#utility.yul\":1592:1751   */\n    tag_281:\n        /* \"#utility.yul\":1666:1677   */\n      0x00\n        /* \"#utility.yul\":1700:1706   */\n      dup3\n        /* \"#utility.yul\":1695:1698   */\n      dup3\n        /* \"#utility.yul\":1688:1707   */\n      mstore\n        /* \"#utility.yul\":1740:1744   */\n      0x20\n        /* \"#utility.yul\":1735:1738   */\n      dup3\n        /* \"#utility.yul\":1731:1745   */\n      add\n        /* \"#utility.yul\":1716:1745   */\n      swap1\n      pop\n        /* \"#utility.yul\":1592:1751   */\n      swap3\n      swap2\n      pop\n      pop\n      jump\t// out\n        /* \"#utility.yul\":1757:2064   */\n    tag_282:\n        /* \"#utility.yul\":1825:1826   */\n      0x00\n        /* \"#utility.yul\":1835:1948   */\n    tag_369:\n        /* \"#utility.yul\":1849:1855   */\n      dup4\n        /* \"#utility.yul\":1846:1847   */\n      dup2\n        /* \"#utility.yul\":1843:1856   */\n      lt\n        /* \"#utility.yul\":1835:1948   */\n      iszero\n      tag_371\n      jumpi\n        /* \"#utility.yul\":1934:1935   */\n      dup1\n        /* \"#utility.yul\":1929:1932   */\n      dup3\n        /* \"#utility.yul\":1925:1936   */\n      add\n        /* \"#utility.yul\":1919:1937   */\n      mload\n        /* \"#utility.yul\":1915:1916   */\n      dup2\n        /* \"#utility.yul\":1910:1913   */\n      dup5\n        /* \"#utility.yul\":1906:1917   */\n      add\n        /* \"#utility.yul\":1899:1938   */\n      mstore\n        /* \"#utility.yul\":1871:1873   */\n      0x20\n        /* \"#utility.yul\":1868:1869   */\n      dup2\n        /* \"#utility.yul\":1864:1874   */\n      add\n        /* \"#utility.yul\":1859:1874   */\n      swap1\n      pop\n        /* \"#utility.yul\":1835:1948   */\n      jump(tag_369)\n    tag_371:\n        /* \"#utility.yul\":1966:1972   */\n      dup4\n        /* \"#utility.yul\":1963:1964   */\n      dup2\n        /* \"#utility.yul\":1960:1973   */\n      gt\n        /* \"#utility.yul\":1957:2058   */\n      iszero\n      tag_372\n      jumpi\n        /* \"#utility.yul\":2046:2047   */\n      0x00\n        /* \"#utility.yul\":2037:2043   */\n      dup5\n        /* \"#utility.yul\":2032:2035   */\n      dup5\n        /* \"#utility.yul\":2028:2044   */\n      add\n        /* \"#utility.yul\":2021:2048   */\n      mstore\n        /* \"#utility.yul\":1957:2058   */\n    tag_372:\n        /* \"#utility.yul\":1806:2064   */\n      pop\n        /* \"#utility.yul\":1757:2064   */\n      pop\n      pop\n      pop\n      jump\t// out\n        /* \"#utility.yul\":2070:2172   */\n    tag_283:\n        /* \"#utility.yul\":2111:2117   */\n      0x00\n        /* \"#utility.yul\":2162:2164   */\n      0x1f\n        /* \"#utility.yul\":2158:2165   */\n      not\n        /* \"#utility.yul\":2153:2155   */\n      0x1f\n        /* \"#utility.yul\":2146:2151   */\n      dup4\n        /* \"#utility.yul\":2142:2156   */\n      add\n        /* \"#utility.yul\":2138:2166   */\n      and\n        /* \"#utility.yul\":2128:2166   */\n      swap1\n      pop\n        /* \"#utility.yul\":2070:2172   */\n      swap2\n      swap1\n      pop\n      jump\t// out\n        /* \"#utility.yul\":2178:2522   */\n    tag_284:\n        /* \"#utility.yul\":2256:2259   */\n      0x00\n        /* \"#utility.yul\":2284:2323   */\n      tag_375\n        /* \"#utility.yul\":2317:2322   */\n      dup3\n        /* \"#utility.yul\":2284:2323   */\n      tag_280\n      jump\t// in\n    tag_375:\n        /* \"#utility.yul\":2339:2400   */\n      tag_376\n        /* \"#utility.yul\":2393:2399   */\n      dup2\n        /* \"#utility.yul\":2388:2391   */\n      dup6\n        /* \"#utility.yul\":2339:2400   */\n      tag_281\n      jump\t// in\n    tag_376:\n        /* \"#utility.yul\":2332:2400   */\n      swap4\n      pop\n        /* \"#utility.yul\":2409:2461   */\n      tag_377\n        /* \"#utility.yul\":2454:2460   */\n      dup2\n        /* \"#utility.yul\":2449:2452   */\n      dup6\n        /* \"#utility.yul\":2442:2446   */\n      0x20\n        /* \"#utility.yul\":2435:2440   */\n      dup7\n        /* \"#utility.yul\":2431:2447   */\n      add\n        /* \"#utility.yul\":2409:2461   */\n      tag_282\n      jump\t// in\n    tag_377:\n        /* \"#utility.yul\":2486:2515   */\n      tag_378\n        /* \"#utility.yul\":2508:2514   */\n      dup2\n        /* \"#utility.yul\":2486:2515   */\n      tag_283\n      jump\t// in\n    tag_378:\n        /* \"#utility.yul\":2481:2484   */\n      dup5\n        /* \"#utility.yul\":2477:2516   */\n      add\n        /* \"#utility.yul\":2470:2516   */\n      swap2\n      pop\n        /* \"#utility.yul\":2260:2522   */\n      pop\n        /* \"#utility.yul\":2178:2522   */\n      swap3\n      swap2\n      pop\n      pop\n      jump\t// out\n        /* \"#utility.yul\":2528:2642   */\n    tag_285:\n        /* \"#utility.yul\":2595:2601   */\n      0x00\n        /* \"#utility.yul\":2629:2634   */\n      dup2\n        /* \"#utility.yul\":2623:2635   */\n      mload\n        /* \"#utility.yul\":2613:2635   */\n      swap1\n      pop\n        /* \"#utility.yul\":2528:2642   */\n      swap2\n      swap1\n      pop\n      jump\t// out\n        /* \"#utility.yul\":2648:2822   */\n    tag_286:\n        /* \"#utility.yul\":2737:2748   */\n      0x00\n        /* \"#utility.yul\":2771:2777   */\n      dup3\n        /* \"#utility.yul\":2766:2769   */\n      dup3\n        /* \"#utility.yul\":2759:2778   */\n      mstore\n        /* \"#utility.yul\":2811:2815   */\n      0x20\n        /* \"#utility.yul\":2806:2809   */\n      dup3\n        /* \"#utility.yul\":2802:2816   */\n      add\n        /* \"#utility.yul\":2787:2816   */\n      swap1\n      pop\n        /* \"#utility.yul\":2648:2822   */\n      swap3\n      swap2\n      pop\n      pop\n      jump\t// out\n        /* \"#utility.yul\":2828:2960   */\n    tag_287:\n        /* \"#utility.yul\":2895:2899   */\n      0x00\n        /* \"#utility.yul\":2918:2921   */\n      dup2\n        /* \"#utility.yul\":2910:2921   */\n      swap1\n      pop\n        /* \"#utility.yul\":2948:2952   */\n      0x20\n        /* \"#utility.yul\":2943:2946   */\n      dup3\n        /* \"#utility.yul\":2939:2953   */\n      add\n        /* \"#utility.yul\":2931:2953   */\n      swap1\n      pop\n        /* \"#utility.yul\":2828:2960   */\n      swap2\n      swap1\n      pop\n      jump\t// out\n        /* \"#utility.yul\":2966:3145   */\n    tag_288:\n        /* \"#utility.yul\":3035:3045   */\n      0x00\n        /* \"#utility.yul\":3056:3102   */\n      tag_383\n        /* \"#utility.yul\":3098:3101   */\n      dup4\n        /* \"#utility.yul\":3090:3096   */\n      dup4\n        /* \"#utility.yul\":3056:3102   */\n      tag_276\n      jump\t// in\n    tag_383:\n        /* \"#utility.yul\":3134:3138   */\n      0x20\n        /* \"#utility.yul\":3129:3132   */\n      dup4\n        /* \"#utility.yul\":3125:3139   */\n      add\n        /* \"#utility.yul\":3111:3139   */\n      swap1\n      pop\n        /* \"#utility.yul\":2966:3145   */\n      swap3\n      swap2\n      pop\n      pop\n      jump\t// out\n        /* \"#utility.yul\":3151:3264   */\n    tag_289:\n        /* \"#utility.yul\":3221:3225   */\n      0x00\n        /* \"#utility.yul\":3253:3257   */\n      0x20\n        /* \"#utility.yul\":3248:3251   */\n      dup3\n        /* \"#utility.yul\":3244:3258   */\n      add\n        /* \"#utility.yul\":3236:3258   */\n      swap1\n      pop\n        /* \"#utility.yul\":3151:3264   */\n      swap2\n      swap1\n      pop\n      jump\t// out\n        /* \"#utility.yul\":3300:4012   */\n    tag_290:\n        /* \"#utility.yul\":3409:3412   */\n      0x00\n        /* \"#utility.yul\":3438:3492   */\n      tag_386\n        /* \"#utility.yul\":3486:3491   */\n      dup3\n        /* \"#utility.yul\":3438:3492   */\n      tag_285\n      jump\t// in\n    tag_386:\n        /* \"#utility.yul\":3508:3584   */\n      tag_387\n        /* \"#utility.yul\":3577:3583   */\n      dup2\n        /* \"#utility.yul\":3572:3575   */\n      dup6\n        /* \"#utility.yul\":3508:3584   */\n      tag_286\n      jump\t// in\n    tag_387:\n        /* \"#utility.yul\":3501:3584   */\n      swap4\n      pop\n        /* \"#utility.yul\":3608:3664   */\n      tag_388\n        /* \"#utility.yul\":3658:3663   */\n      dup4\n        /* \"#utility.yul\":3608:3664   */\n      tag_287\n      jump\t// in\n    tag_388:\n        /* \"#utility.yul\":3687:3694   */\n      dup1\n        /* \"#utility.yul\":3718:3719   */\n      0x00\n        /* \"#utility.yul\":3703:3987   */\n    tag_389:\n        /* \"#utility.yul\":3728:3734   */\n      dup4\n        /* \"#utility.yul\":3725:3726   */\n      dup2\n        /* \"#utility.yul\":3722:3735   */\n      lt\n        /* \"#utility.yul\":3703:3987   */\n      iszero\n      tag_391\n      jumpi\n        /* \"#utility.yul\":3804:3810   */\n      dup2\n        /* \"#utility.yul\":3798:3811   */\n      mload\n        /* \"#utility.yul\":3831:3894   */\n      tag_392\n        /* \"#utility.yul\":3890:3893   */\n      dup9\n        /* \"#utility.yul\":3875:3888   */\n      dup3\n        /* \"#utility.yul\":3831:3894   */\n      tag_288\n      jump\t// in\n    tag_392:\n        /* \"#utility.yul\":3824:3894   */\n      swap8\n      pop\n        /* \"#utility.yul\":3917:3977   */\n      tag_393\n        /* \"#utility.yul\":3970:3976   */\n      dup4\n        /* \"#utility.yul\":3917:3977   */\n      tag_289\n      jump\t// in\n    tag_393:\n        /* \"#utility.yul\":3907:3977   */\n      swap3\n      pop\n        /* \"#utility.yul\":3763:3987   */\n      pop\n        /* \"#utility.yul\":3750:3751   */\n      0x01\n        /* \"#utility.yul\":3747:3748   */\n      dup2\n        /* \"#utility.yul\":3743:3752   */\n      add\n        /* \"#utility.yul\":3738:3752   */\n      swap1\n      pop\n        /* \"#utility.yul\":3703:3987   */\n      jump(tag_389)\n    tag_391:\n        /* \"#utility.yul\":3707:3721   */\n      pop\n        /* \"#utility.yul\":4003:4006   */\n      dup6\n        /* \"#utility.yul\":3996:4006   */\n      swap4\n      pop\n        /* \"#utility.yul\":3414:4012   */\n      pop\n      pop\n      pop\n        /* \"#utility.yul\":3300:4012   */\n      swap3\n      swap2\n      pop\n      pop\n      jump\t// out\n        /* \"#utility.yul\":4074:5364   */\n    tag_291:\n        /* \"#utility.yul\":4189:4192   */\n      0x00\n        /* \"#utility.yul\":4225:4229   */\n      0xa0\n        /* \"#utility.yul\":4220:4223   */\n      dup4\n        /* \"#utility.yul\":4216:4230   */\n      add\n        /* \"#utility.yul\":4320:4324   */\n      0x00\n        /* \"#utility.yul\":4313:4318   */\n      dup4\n        /* \"#utility.yul\":4309:4325   */\n      add\n        /* \"#utility.yul\":4303:4326   */\n      mload\n        /* \"#utility.yul\":4339:4402   */\n      tag_395\n        /* \"#utility.yul\":4396:4400   */\n      0x00\n        /* \"#utility.yul\":4391:4394   */\n      dup7\n        /* \"#utility.yul\":4387:4401   */\n      add\n        /* \"#utility.yul\":4373:4385   */\n      dup3\n        /* \"#utility.yul\":4339:4402   */\n      tag_276\n      jump\t// in\n    tag_395:\n        /* \"#utility.yul\":4240:4412   */\n      pop\n        /* \"#utility.yul\":4503:4507   */\n      0x20\n        /* \"#utility.yul\":4496:4501   */\n      dup4\n        /* \"#utility.yul\":4492:4508   */\n      add\n        /* \"#utility.yul\":4486:4509   */\n      mload\n        /* \"#utility.yul\":4522:4585   */\n      tag_396\n        /* \"#utility.yul\":4579:4583   */\n      0x20\n        /* \"#utility.yul\":4574:4577   */\n      dup7\n        /* \"#utility.yul\":4570:4584   */\n      add\n        /* \"#utility.yul\":4556:4568   */\n      dup3\n        /* \"#utility.yul\":4522:4585   */\n      tag_279\n      jump\t// in\n    tag_396:\n        /* \"#utility.yul\":4422:4595   */\n      pop\n        /* \"#utility.yul\":4687:4691   */\n      0x40\n        /* \"#utility.yul\":4680:4685   */\n      dup4\n        /* \"#utility.yul\":4676:4692   */\n      add\n        /* \"#utility.yul\":4670:4693   */\n      mload\n        /* \"#utility.yul\":4706:4769   */\n      tag_397\n        /* \"#utility.yul\":4763:4767   */\n      0x40\n        /* \"#utility.yul\":4758:4761   */\n      dup7\n        /* \"#utility.yul\":4754:4768   */\n      add\n        /* \"#utility.yul\":4740:4752   */\n      dup3\n        /* \"#utility.yul\":4706:4769   */\n      tag_279\n      jump\t// in\n    tag_397:\n        /* \"#utility.yul\":4605:4779   */\n      pop\n        /* \"#utility.yul\":4882:4886   */\n      0x60\n        /* \"#utility.yul\":4875:4880   */\n      dup4\n        /* \"#utility.yul\":4871:4887   */\n      add\n        /* \"#utility.yul\":4865:4888   */\n      mload\n        /* \"#utility.yul\":4935:4938   */\n      dup5\n        /* \"#utility.yul\":4929:4933   */\n      dup3\n        /* \"#utility.yul\":4925:4939   */\n      sub\n        /* \"#utility.yul\":4918:4922   */\n      0x60\n        /* \"#utility.yul\":4913:4916   */\n      dup7\n        /* \"#utility.yul\":4909:4923   */\n      add\n        /* \"#utility.yul\":4902:4940   */\n      mstore\n        /* \"#utility.yul\":4961:5034   */\n      tag_398\n        /* \"#utility.yul\":5029:5033   */\n      dup3\n        /* \"#utility.yul\":5015:5027   */\n      dup3\n        /* \"#utility.yul\":4961:5034   */\n      tag_284\n      jump\t// in\n    tag_398:\n        /* \"#utility.yul\":4953:5034   */\n      swap2\n      pop\n        /* \"#utility.yul\":4789:5045   */\n      pop\n        /* \"#utility.yul\":5144:5148   */\n      0x80\n        /* \"#utility.yul\":5137:5142   */\n      dup4\n        /* \"#utility.yul\":5133:5149   */\n      add\n        /* \"#utility.yul\":5127:5150   */\n      mload\n        /* \"#utility.yul\":5197:5200   */\n      dup5\n        /* \"#utility.yul\":5191:5195   */\n      dup3\n        /* \"#utility.yul\":5187:5201   */\n      sub\n        /* \"#utility.yul\":5180:5184   */\n      0x80\n        /* \"#utility.yul\":5175:5178   */\n      dup7\n        /* \"#utility.yul\":5171:5185   */\n      add\n        /* \"#utility.yul\":5164:5202   */\n      mstore\n        /* \"#utility.yul\":5223:5326   */\n      tag_399\n        /* \"#utility.yul\":5321:5325   */\n      dup3\n        /* \"#utility.yul\":5307:5319   */\n      dup3\n        /* \"#utility.yul\":5223:5326   */\n      tag_290\n      jump\t// in\n    tag_399:\n        /* \"#utility.yul\":5215:5326   */\n      swap2\n      pop\n        /* \"#utility.yul\":5055:5337   */\n      pop\n        /* \"#utility.yul\":5354:5358   */\n      dup1\n        /* \"#utility.yul\":5347:5358   */\n      swap2\n      pop\n        /* \"#utility.yul\":4194:5364   */\n      pop\n        /* \"#utility.yul\":4074:5364   */\n      swap3\n      swap2\n      pop\n      pop\n      jump\t// out\n        /* \"#utility.yul\":5370:5735   */\n    tag_28:\n        /* \"#utility.yul\":5509:5513   */\n      0x00\n        /* \"#utility.yul\":5547:5549   */\n      0x20\n        /* \"#utility.yul\":5536:5545   */\n      dup3\n        /* \"#utility.yul\":5532:5550   */\n      add\n        /* \"#utility.yul\":5524:5550   */\n      swap1\n      pop\n        /* \"#utility.yul\":5596:5605   */\n      dup2\n        /* \"#utility.yul\":5590:5594   */\n      dup2\n        /* \"#utility.yul\":5586:5606   */\n      sub\n        /* \"#utility.yul\":5582:5583   */\n      0x00\n        /* \"#utility.yul\":5571:5580   */\n      dup4\n        /* \"#utility.yul\":5567:5584   */\n      add\n        /* \"#utility.yul\":5560:5607   */\n      mstore\n        /* \"#utility.yul\":5624:5728   */\n      tag_401\n        /* \"#utility.yul\":5723:5727   */\n      dup2\n        /* \"#utility.yul\":5714:5720   */\n      dup5\n        /* \"#utility.yul\":5624:5728   */\n      tag_291\n      jump\t// in\n    tag_401:\n        /* \"#utility.yul\":5616:5728   */\n      swap1\n      pop\n        /* \"#utility.yul\":5370:5735   */\n      swap3\n      swap2\n      pop\n      pop\n      jump\t// out\n        /* \"#utility.yul\":5741:5859   */\n    tag_292:\n        /* \"#utility.yul\":5828:5852   */\n      tag_403\n        /* \"#utility.yul\":5846:5851   */\n      dup2\n        /* \"#utility.yul\":5828:5852   */\n      tag_278\n      jump\t// in\n    tag_403:\n        /* \"#utility.yul\":5823:5826   */\n      dup3\n        /* \"#utility.yul\":5816:5853   */\n      mstore\n        /* \"#utility.yul\":5741:5859   */\n      pop\n      pop\n      jump\t// out\n        /* \"#utility.yul\":5865:6087   */\n    tag_33:\n        /* \"#utility.yul\":5958:5962   */\n      0x00\n        /* \"#utility.yul\":5996:5998   */\n      0x20\n        /* \"#utility.yul\":5985:5994   */\n      dup3\n        /* \"#utility.yul\":5981:5999   */\n      add\n        /* \"#utility.yul\":5973:5999   */\n      swap1\n      pop\n        /* \"#utility.yul\":6009:6080   */\n      tag_405\n        /* \"#utility.yul\":6077:6078   */\n      0x00\n        /* \"#utility.yul\":6066:6075   */\n      dup4\n        /* \"#utility.yul\":6062:6079   */\n      add\n        /* \"#utility.yul\":6053:6059   */\n      dup5\n        /* \"#utility.yul\":6009:6080   */\n      tag_292\n      jump\t// in\n    tag_405:\n        /* \"#utility.yul\":5865:6087   */\n      swap3\n      swap2\n      pop\n      pop\n      jump\t// out\n        /* \"#utility.yul\":6093:6211   */\n    tag_293:\n        /* \"#utility.yul\":6180:6204   */\n      tag_407\n        /* \"#utility.yul\":6198:6203   */\n      dup2\n        /* \"#utility.yul\":6180:6204   */\n      tag_273\n      jump\t// in\n    tag_407:\n        /* \"#utility.yul\":6175:6178   */\n      dup3\n        /* \"#utility.yul\":6168:6205   */\n      mstore\n        /* \"#utility.yul\":6093:6211   */\n      pop\n      pop\n      jump\t// out\n        /* \"#utility.yul\":6217:6386   */\n    tag_294:\n        /* \"#utility.yul\":6301:6312   */\n      0x00\n        /* \"#utility.yul\":6335:6341   */\n      dup3\n        /* \"#utility.yul\":6330:6333   */\n      dup3\n        /* \"#utility.yul\":6323:6342   */\n      mstore\n        /* \"#utility.yul\":6375:6379   */\n      0x20\n        /* \"#utility.yul\":6370:6373   */\n      dup3\n        /* \"#utility.yul\":6366:6380   */\n      add\n        /* \"#utility.yul\":6351:6380   */\n      swap1\n      pop\n        /* \"#utility.yul\":6217:6386   */\n      swap3\n      swap2\n      pop\n      pop\n      jump\t// out\n        /* \"#utility.yul\":6392:6756   */\n    tag_295:\n        /* \"#utility.yul\":6480:6483   */\n      0x00\n        /* \"#utility.yul\":6508:6547   */\n      tag_410\n        /* \"#utility.yul\":6541:6546   */\n      dup3\n        /* \"#utility.yul\":6508:6547   */\n      tag_280\n      jump\t// in\n    tag_410:\n        /* \"#utility.yul\":6563:6634   */\n      tag_411\n        /* \"#utility.yul\":6627:6633   */\n      dup2\n        /* \"#utility.yul\":6622:6625   */\n      dup6\n        /* \"#utility.yul\":6563:6634   */\n      tag_294\n      jump\t// in\n    tag_411:\n        /* \"#utility.yul\":6556:6634   */\n      swap4\n      pop\n        /* \"#utility.yul\":6643:6695   */\n      tag_412\n        /* \"#utility.yul\":6688:6694   */\n      dup2\n        /* \"#utility.yul\":6683:6686   */\n      dup6\n        /* \"#utility.yul\":6676:6680   */\n      0x20\n        /* \"#utility.yul\":6669:6674   */\n      dup7\n        /* \"#utility.yul\":6665:6681   */\n      add\n        /* \"#utility.yul\":6643:6695   */\n      tag_282\n      jump\t// in\n    tag_412:\n        /* \"#utility.yul\":6720:6749   */\n      tag_413\n        /* \"#utility.yul\":6742:6748   */\n      dup2\n        /* \"#utility.yul\":6720:6749   */\n      tag_283\n      jump\t// in\n    tag_413:\n        /* \"#utility.yul\":6715:6718   */\n      dup5\n        /* \"#utility.yul\":6711:6750   */\n      add\n        /* \"#utility.yul\":6704:6750   */\n      swap2\n      pop\n        /* \"#utility.yul\":6484:6756   */\n      pop\n        /* \"#utility.yul\":6392:6756   */\n      swap3\n      swap2\n      pop\n      pop\n      jump\t// out\n        /* \"#utility.yul\":6762:7406   */\n    tag_38:\n        /* \"#utility.yul\":6959:6963   */\n      0x00\n        /* \"#utility.yul\":6997:7000   */\n      0x80\n        /* \"#utility.yul\":6986:6995   */\n      dup3\n        /* \"#utility.yul\":6982:7001   */\n      add\n        /* \"#utility.yul\":6974:7001   */\n      swap1\n      pop\n        /* \"#utility.yul\":7011:7082   */\n      tag_415\n        /* \"#utility.yul\":7079:7080   */\n      0x00\n        /* \"#utility.yul\":7068:7077   */\n      dup4\n        /* \"#utility.yul\":7064:7081   */\n      add\n        /* \"#utility.yul\":7055:7061   */\n      dup8\n        /* \"#utility.yul\":7011:7082   */\n      tag_293\n      jump\t// in\n    tag_415:\n        /* \"#utility.yul\":7092:7164   */\n      tag_416\n        /* \"#utility.yul\":7160:7162   */\n      0x20\n        /* \"#utility.yul\":7149:7158   */\n      dup4\n        /* \"#utility.yul\":7145:7163   */\n      add\n        /* \"#utility.yul\":7136:7142   */\n      dup7\n        /* \"#utility.yul\":7092:7164   */\n      tag_292\n      jump\t// in\n    tag_416:\n        /* \"#utility.yul\":7174:7246   */\n      tag_417\n        /* \"#utility.yul\":7242:7244   */\n      0x40\n        /* \"#utility.yul\":7231:7240   */\n      dup4\n        /* \"#utility.yul\":7227:7245   */\n      add\n        /* \"#utility.yul\":7218:7224   */\n      dup6\n        /* \"#utility.yul\":7174:7246   */\n      tag_292\n      jump\t// in\n    tag_417:\n        /* \"#utility.yul\":7293:7302   */\n      dup2\n        /* \"#utility.yul\":7287:7291   */\n      dup2\n        /* \"#utility.yul\":7283:7303   */\n      sub\n        /* \"#utility.yul\":7278:7280   */\n      0x60\n        /* \"#utility.yul\":7267:7276   */\n      dup4\n        /* \"#utility.yul\":7263:7281   */\n      add\n        /* \"#utility.yul\":7256:7304   */\n      mstore\n        /* \"#utility.yul\":7321:7399   */\n      tag_418\n        /* \"#utility.yul\":7394:7398   */\n      dup2\n        /* \"#utility.yul\":7385:7391   */\n      dup5\n        /* \"#utility.yul\":7321:7399   */\n      tag_295\n      jump\t// in\n    tag_418:\n        /* \"#utility.yul\":7313:7399   */\n      swap1\n      pop\n        /* \"#utility.yul\":6762:7406   */\n      swap6\n      swap5\n      pop\n      pop\n      pop\n      pop\n      pop\n      jump\t// out\n        /* \"#utility.yul\":7412:7534   */\n    tag_296:\n        /* \"#utility.yul\":7485:7509   */\n      tag_420\n        /* \"#utility.yul\":7503:7508   */\n      dup2\n        /* \"#utility.yul\":7485:7509   */\n      tag_278\n      jump\t// in\n    tag_420:\n        /* \"#utility.yul\":7478:7483   */\n      dup2\n        /* \"#utility.yul\":7475:7510   */\n      eq\n        /* \"#utility.yul\":7465:7528   */\n      tag_421\n      jumpi\n        /* \"#utility.yul\":7524:7525   */\n      0x00\n        /* \"#utility.yul\":7521:7522   */\n      dup1\n        /* \"#utility.yul\":7514:7526   */\n      revert\n        /* \"#utility.yul\":7465:7528   */\n    tag_421:\n        /* \"#utility.yul\":7412:7534   */\n      pop\n      jump\t// out\n        /* \"#utility.yul\":7540:7679   */\n    tag_297:\n        /* \"#utility.yul\":7586:7591   */\n      0x00\n        /* \"#utility.yul\":7624:7630   */\n      dup2\n        /* \"#utility.yul\":7611:7631   */\n      calldataload\n        /* \"#utility.yul\":7602:7631   */\n      swap1\n      pop\n        /* \"#utility.yul\":7640:7673   */\n      tag_423\n        /* \"#utility.yul\":7667:7672   */\n      dup2\n        /* \"#utility.yul\":7640:7673   */\n      tag_296\n      jump\t// in\n    tag_423:\n        /* \"#utility.yul\":7540:7679   */\n      swap3\n      swap2\n      pop\n      pop\n      jump\t// out\n        /* \"#utility.yul\":7685:7802   */\n    tag_298:\n        /* \"#utility.yul\":7794:7795   */\n      0x00\n        /* \"#utility.yul\":7791:7792   */\n      dup1\n        /* \"#utility.yul\":7784:7796   */\n      revert\n        /* \"#utility.yul\":7808:7925   */\n    tag_299:\n        /* \"#utility.yul\":7917:7918   */\n      0x00\n        /* \"#utility.yul\":7914:7915   */\n      dup1\n        /* \"#utility.yul\":7907:7919   */\n      revert\n        /* \"#utility.yul\":7931:8111   */\n    tag_300:\n        /* \"#utility.yul\":7979:8056   */\n      0x4e487b7100000000000000000000000000000000000000000000000000000000\n        /* \"#utility.yul\":7976:7977   */\n      0x00\n        /* \"#utility.yul\":7969:8057   */\n      mstore\n        /* \"#utility.yul\":8076:8080   */\n      0x41\n        /* \"#utility.yul\":8073:8074   */\n      0x04\n        /* \"#utility.yul\":8066:8081   */\n      mstore\n        /* \"#utility.yul\":8100:8104   */\n      0x24\n        /* \"#utility.yul\":8097:8098   */\n      0x00\n        /* \"#utility.yul\":8090:8105   */\n      revert\n        /* \"#utility.yul\":8117:8398   */\n    tag_301:\n        /* \"#utility.yul\":8200:8227   */\n      tag_428\n        /* \"#utility.yul\":8222:8226   */\n      dup3\n        /* \"#utility.yul\":8200:8227   */\n      tag_283\n      jump\t// in\n    tag_428:\n        /* \"#utility.yul\":8192:8198   */\n      dup2\n        /* \"#utility.yul\":8188:8228   */\n      add\n        /* \"#utility.yul\":8330:8336   */\n      dup2\n        /* \"#utility.yul\":8318:8328   */\n      dup2\n        /* \"#utility.yul\":8315:8337   */\n      lt\n        /* \"#utility.yul\":8294:8312   */\n      0xffffffffffffffff\n        /* \"#utility.yul\":8282:8292   */\n      dup3\n        /* \"#utility.yul\":8279:8313   */\n      gt\n        /* \"#utility.yul\":8276:8338   */\n      or\n        /* \"#utility.yul\":8273:8361   */\n      iszero\n      tag_429\n      jumpi\n        /* \"#utility.yul\":8341:8359   */\n      tag_430\n      tag_300\n      jump\t// in\n    tag_430:\n        /* \"#utility.yul\":8273:8361   */\n    tag_429:\n        /* \"#utility.yul\":8381:8391   */\n      dup1\n        /* \"#utility.yul\":8377:8379   */\n      0x40\n        /* \"#utility.yul\":8370:8392   */\n      mstore\n        /* \"#utility.yul\":8160:8398   */\n      pop\n        /* \"#utility.yul\":8117:8398   */\n      pop\n      pop\n      jump\t// out\n        /* \"#utility.yul\":8404:8533   */\n    tag_302:\n        /* \"#utility.yul\":8438:8444   */\n      0x00\n        /* \"#utility.yul\":8465:8485   */\n      tag_432\n      tag_270\n      jump\t// in\n    tag_432:\n        /* \"#utility.yul\":8455:8485   */\n      swap1\n      pop\n        /* \"#utility.yul\":8494:8527   */\n      tag_433\n        /* \"#utility.yul\":8522:8526   */\n      dup3\n        /* \"#utility.yul\":8514:8520   */\n      dup3\n        /* \"#utility.yul\":8494:8527   */\n      tag_301\n      jump\t// in\n    tag_433:\n        /* \"#utility.yul\":8404:8533   */\n      swap2\n      swap1\n      pop\n      jump\t// out\n        /* \"#utility.yul\":8539:8847   */\n    tag_303:\n        /* \"#utility.yul\":8601:8605   */\n      0x00\n        /* \"#utility.yul\":8691:8709   */\n      0xffffffffffffffff\n        /* \"#utility.yul\":8683:8689   */\n      dup3\n        /* \"#utility.yul\":8680:8710   */\n      gt\n        /* \"#utility.yul\":8677:8733   */\n      iszero\n      tag_435\n      jumpi\n        /* \"#utility.yul\":8713:8731   */\n      tag_436\n      tag_300\n      jump\t// in\n    tag_436:\n        /* \"#utility.yul\":8677:8733   */\n    tag_435:\n        /* \"#utility.yul\":8751:8780   */\n      tag_437\n        /* \"#utility.yul\":8773:8779   */\n      dup3\n        /* \"#utility.yul\":8751:8780   */\n      tag_283\n      jump\t// in\n    tag_437:\n        /* \"#utility.yul\":8743:8780   */\n      swap1\n      pop\n        /* \"#utility.yul\":8835:8839   */\n      0x20\n        /* \"#utility.yul\":8829:8833   */\n      dup2\n        /* \"#utility.yul\":8825:8840   */\n      add\n        /* \"#utility.yul\":8817:8840   */\n      swap1\n      pop\n        /* \"#utility.yul\":8539:8847   */\n      swap2\n      swap1\n      pop\n      jump\t// out\n        /* \"#utility.yul\":8853:9007   */\n    tag_304:\n        /* \"#utility.yul\":8937:8943   */\n      dup3\n        /* \"#utility.yul\":8932:8935   */\n      dup2\n        /* \"#utility.yul\":8927:8930   */\n      dup4\n        /* \"#utility.yul\":8914:8944   */\n      calldatacopy\n        /* \"#utility.yul\":8999:9000   */\n      0x00\n        /* \"#utility.yul\":8990:8996   */\n      dup4\n        /* \"#utility.yul\":8985:8988   */\n      dup4\n        /* \"#utility.yul\":8981:8997   */\n      add\n        /* \"#utility.yul\":8974:9001   */\n      mstore\n        /* \"#utility.yul\":8853:9007   */\n      pop\n      pop\n      pop\n      jump\t// out\n        /* \"#utility.yul\":9013:9425   */\n    tag_305:\n        /* \"#utility.yul\":9091:9096   */\n      0x00\n        /* \"#utility.yul\":9116:9182   */\n      tag_440\n        /* \"#utility.yul\":9132:9181   */\n      tag_441\n        /* \"#utility.yul\":9174:9180   */\n      dup5\n        /* \"#utility.yul\":9132:9181   */\n      tag_303\n      jump\t// in\n    tag_441:\n        /* \"#utility.yul\":9116:9182   */\n      tag_302\n      jump\t// in\n    tag_440:\n        /* \"#utility.yul\":9107:9182   */\n      swap1\n      pop\n        /* \"#utility.yul\":9205:9211   */\n      dup3\n        /* \"#utility.yul\":9198:9203   */\n      dup2\n        /* \"#utility.yul\":9191:9212   */\n      mstore\n        /* \"#utility.yul\":9243:9247   */\n      0x20\n        /* \"#utility.yul\":9236:9241   */\n      dup2\n        /* \"#utility.yul\":9232:9248   */\n      add\n        /* \"#utility.yul\":9281:9284   */\n      dup5\n        /* \"#utility.yul\":9272:9278   */\n      dup5\n        /* \"#utility.yul\":9267:9270   */\n      dup5\n        /* \"#utility.yul\":9263:9279   */\n      add\n        /* \"#utility.yul\":9260:9285   */\n      gt\n        /* \"#utility.yul\":9257:9369   */\n      iszero\n      tag_442\n      jumpi\n        /* \"#utility.yul\":9288:9367   */\n      tag_443\n      tag_299\n      jump\t// in\n    tag_443:\n        /* \"#utility.yul\":9257:9369   */\n    tag_442:\n        /* \"#utility.yul\":9378:9419   */\n      tag_444\n        /* \"#utility.yul\":9412:9418   */\n      dup5\n        /* \"#utility.yul\":9407:9410   */\n      dup3\n        /* \"#utility.yul\":9402:9405   */\n      dup6\n        /* \"#utility.yul\":9378:9419   */\n      tag_304\n      jump\t// in\n    tag_444:\n        /* \"#utility.yul\":9097:9425   */\n      pop\n        /* \"#utility.yul\":9013:9425   */\n      swap4\n      swap3\n      pop\n      pop\n      pop\n      jump\t// out\n        /* \"#utility.yul\":9445:9785   */\n    tag_306:\n        /* \"#utility.yul\":9501:9506   */\n      0x00\n        /* \"#utility.yul\":9550:9553   */\n      dup3\n        /* \"#utility.yul\":9543:9547   */\n      0x1f\n        /* \"#utility.yul\":9535:9541   */\n      dup4\n        /* \"#utility.yul\":9531:9548   */\n      add\n        /* \"#utility.yul\":9527:9554   */\n      slt\n        /* \"#utility.yul\":9517:9639   */\n      tag_446\n      jumpi\n        /* \"#utility.yul\":9558:9637   */\n      tag_447\n      tag_298\n      jump\t// in\n    tag_447:\n        /* \"#utility.yul\":9517:9639   */\n    tag_446:\n        /* \"#utility.yul\":9675:9681   */\n      dup2\n        /* \"#utility.yul\":9662:9682   */\n      calldataload\n        /* \"#utility.yul\":9700:9779   */\n      tag_448\n        /* \"#utility.yul\":9775:9778   */\n      dup5\n        /* \"#utility.yul\":9767:9773   */\n      dup3\n        /* \"#utility.yul\":9760:9764   */\n      0x20\n        /* \"#utility.yul\":9752:9758   */\n      dup7\n        /* \"#utility.yul\":9748:9765   */\n      add\n        /* \"#utility.yul\":9700:9779   */\n      tag_305\n      jump\t// in\n    tag_448:\n        /* \"#utility.yul\":9691:9779   */\n      swap2\n      pop\n        /* \"#utility.yul\":9507:9785   */\n      pop\n        /* \"#utility.yul\":9445:9785   */\n      swap3\n      swap2\n      pop\n      pop\n      jump\t// out\n        /* \"#utility.yul\":9791:10445   */\n    tag_41:\n        /* \"#utility.yul\":9869:9875   */\n      0x00\n        /* \"#utility.yul\":9877:9883   */\n      dup1\n        /* \"#utility.yul\":9926:9928   */\n      0x40\n        /* \"#utility.yul\":9914:9923   */\n      dup4\n        /* \"#utility.yul\":9905:9912   */\n      dup6\n        /* \"#utility.yul\":9901:9924   */\n      sub\n        /* \"#utility.yul\":9897:9929   */\n      slt\n        /* \"#utility.yul\":9894:10013   */\n      iszero\n      tag_450\n      jumpi\n        /* \"#utility.yul\":9932:10011   */\n      tag_451\n      tag_271\n      jump\t// in\n    tag_451:\n        /* \"#utility.yul\":9894:10013   */\n    tag_450:\n        /* \"#utility.yul\":10052:10053   */\n      0x00\n        /* \"#utility.yul\":10077:10130   */\n      tag_452\n        /* \"#utility.yul\":10122:10129   */\n      dup6\n        /* \"#utility.yul\":10113:10119   */\n      dup3\n        /* \"#utility.yul\":10102:10111   */\n      dup7\n        /* \"#utility.yul\":10098:10120   */\n      add\n        /* \"#utility.yul\":10077:10130   */\n      tag_297\n      jump\t// in\n    tag_452:\n        /* \"#utility.yul\":10067:10130   */\n      swap3\n      pop\n        /* \"#utility.yul\":10023:10140   */\n      pop\n        /* \"#utility.yul\":10207:10209   */\n      0x20\n        /* \"#utility.yul\":10196:10205   */\n      dup4\n        /* \"#utility.yul\":10192:10210   */\n      add\n        /* \"#utility.yul\":10179:10211   */\n      calldataload\n        /* \"#utility.yul\":10238:10256   */\n      0xffffffffffffffff\n        /* \"#utility.yul\":10230:10236   */\n      dup2\n        /* \"#utility.yul\":10227:10257   */\n      gt\n        /* \"#utility.yul\":10224:10341   */\n      iszero\n      tag_453\n      jumpi\n        /* \"#utility.yul\":10260:10339   */\n      tag_454\n      tag_272\n      jump\t// in\n    tag_454:\n        /* \"#utility.yul\":10224:10341   */\n    tag_453:\n        /* \"#utility.yul\":10365:10428   */\n      tag_455\n        /* \"#utility.yul\":10420:10427   */\n      dup6\n        /* \"#utility.yul\":10411:10417   */\n      dup3\n        /* \"#utility.yul\":10400:10409   */\n      dup7\n        /* \"#utility.yul\":10396:10418   */\n      add\n        /* \"#utility.yul\":10365:10428   */\n      tag_306\n      jump\t// in\n    tag_455:\n        /* \"#utility.yul\":10355:10428   */\n      swap2\n      pop\n        /* \"#utility.yul\":10150:10438   */\n      pop\n        /* \"#utility.yul\":9791:10445   */\n      swap3\n      pop\n      swap3\n      swap1\n      pop\n      jump\t// out\n        /* \"#utility.yul\":10451:10780   */\n    tag_45:\n        /* \"#utility.yul\":10510:10516   */\n      0x00\n        /* \"#utility.yul\":10559:10561   */\n      0x20\n        /* \"#utility.yul\":10547:10556   */\n      dup3\n        /* \"#utility.yul\":10538:10545   */\n      dup5\n        /* \"#utility.yul\":10534:10557   */\n      sub\n        /* \"#utility.yul\":10530:10562   */\n      slt\n        /* \"#utility.yul\":10527:10646   */\n      iszero\n      tag_457\n      jumpi\n        /* \"#utility.yul\":10565:10644   */\n      tag_458\n      tag_271\n      jump\t// in\n    tag_458:\n        /* \"#utility.yul\":10527:10646   */\n    tag_457:\n        /* \"#utility.yul\":10685:10686   */\n      0x00\n        /* \"#utility.yul\":10710:10763   */\n      tag_459\n        /* \"#utility.yul\":10755:10762   */\n      dup5\n        /* \"#utility.yul\":10746:10752   */\n      dup3\n        /* \"#utility.yul\":10735:10744   */\n      dup6\n        /* \"#utility.yul\":10731:10753   */\n      add\n        /* \"#utility.yul\":10710:10763   */\n      tag_297\n      jump\t// in\n    tag_459:\n        /* \"#utility.yul\":10700:10763   */\n      swap2\n      pop\n        /* \"#utility.yul\":10656:10773   */\n      pop\n        /* \"#utility.yul\":10451:10780   */\n      swap3\n      swap2\n      pop\n      pop\n      jump\t// out\n        /* \"#utility.yul\":10786:11300   */\n    tag_48:\n        /* \"#utility.yul\":10947:10951   */\n      0x00\n        /* \"#utility.yul\":10985:10987   */\n      0x40\n        /* \"#utility.yul\":10974:10983   */\n      dup3\n        /* \"#utility.yul\":10970:10988   */\n      add\n        /* \"#utility.yul\":10962:10988   */\n      swap1\n      pop\n        /* \"#utility.yul\":11034:11043   */\n      dup2\n        /* \"#utility.yul\":11028:11032   */\n      dup2\n        /* \"#utility.yul\":11024:11044   */\n      sub\n        /* \"#utility.yul\":11020:11021   */\n      0x00\n        /* \"#utility.yul\":11009:11018   */\n      dup4\n        /* \"#utility.yul\":11005:11022   */\n      add\n        /* \"#utility.yul\":10998:11045   */\n      mstore\n        /* \"#utility.yul\":11062:11140   */\n      tag_461\n        /* \"#utility.yul\":11135:11139   */\n      dup2\n        /* \"#utility.yul\":11126:11132   */\n      dup6\n        /* \"#utility.yul\":11062:11140   */\n      tag_295\n      jump\t// in\n    tag_461:\n        /* \"#utility.yul\":11054:11140   */\n      swap1\n      pop\n        /* \"#utility.yul\":11187:11196   */\n      dup2\n        /* \"#utility.yul\":11181:11185   */\n      dup2\n        /* \"#utility.yul\":11177:11197   */\n      sub\n        /* \"#utility.yul\":11172:11174   */\n      0x20\n        /* \"#utility.yul\":11161:11170   */\n      dup4\n        /* \"#utility.yul\":11157:11175   */\n      add\n        /* \"#utility.yul\":11150:11198   */\n      mstore\n        /* \"#utility.yul\":11215:11293   */\n      tag_462\n        /* \"#utility.yul\":11288:11292   */\n      dup2\n        /* \"#utility.yul\":11279:11285   */\n      dup5\n        /* \"#utility.yul\":11215:11293   */\n      tag_295\n      jump\t// in\n    tag_462:\n        /* \"#utility.yul\":11207:11293   */\n      swap1\n      pop\n        /* \"#utility.yul\":10786:11300   */\n      swap4\n      swap3\n      pop\n      pop\n      pop\n      jump\t// out\n        /* \"#utility.yul\":11306:12431   */\n    tag_51:\n        /* \"#utility.yul\":11412:11418   */\n      0x00\n        /* \"#utility.yul\":11420:11426   */\n      dup1\n        /* \"#utility.yul\":11428:11434   */\n      0x00\n        /* \"#utility.yul\":11436:11442   */\n      dup1\n        /* \"#utility.yul\":11485:11488   */\n      0x80\n        /* \"#utility.yul\":11473:11482   */\n      dup6\n        /* \"#utility.yul\":11464:11471   */\n      dup8\n        /* \"#utility.yul\":11460:11483   */\n      sub\n        /* \"#utility.yul\":11456:11489   */\n      slt\n        /* \"#utility.yul\":11453:11573   */\n      iszero\n      tag_464\n      jumpi\n        /* \"#utility.yul\":11492:11571   */\n      tag_465\n      tag_271\n      jump\t// in\n    tag_465:\n        /* \"#utility.yul\":11453:11573   */\n    tag_464:\n        /* \"#utility.yul\":11612:11613   */\n      0x00\n        /* \"#utility.yul\":11637:11690   */\n      tag_466\n        /* \"#utility.yul\":11682:11689   */\n      dup8\n        /* \"#utility.yul\":11673:11679   */\n      dup3\n        /* \"#utility.yul\":11662:11671   */\n      dup9\n        /* \"#utility.yul\":11658:11680   */\n      add\n        /* \"#utility.yul\":11637:11690   */\n      tag_297\n      jump\t// in\n    tag_466:\n        /* \"#utility.yul\":11627:11690   */\n      swap5\n      pop\n        /* \"#utility.yul\":11583:11700   */\n      pop\n        /* \"#utility.yul\":11767:11769   */\n      0x20\n        /* \"#utility.yul\":11756:11765   */\n      dup6\n        /* \"#utility.yul\":11752:11770   */\n      add\n        /* \"#utility.yul\":11739:11771   */\n      calldataload\n        /* \"#utility.yul\":11798:11816   */\n      0xffffffffffffffff\n        /* \"#utility.yul\":11790:11796   */\n      dup2\n        /* \"#utility.yul\":11787:11817   */\n      gt\n        /* \"#utility.yul\":11784:11901   */\n      iszero\n      tag_467\n      jumpi\n        /* \"#utility.yul\":11820:11899   */\n      tag_468\n      tag_272\n      jump\t// in\n    tag_468:\n        /* \"#utility.yul\":11784:11901   */\n    tag_467:\n        /* \"#utility.yul\":11925:11988   */\n      tag_469\n        /* \"#utility.yul\":11980:11987   */\n      dup8\n        /* \"#utility.yul\":11971:11977   */\n      dup3\n        /* \"#utility.yul\":11960:11969   */\n      dup9\n        /* \"#utility.yul\":11956:11978   */\n      add\n        /* \"#utility.yul\":11925:11988   */\n      tag_306\n      jump\t// in\n    tag_469:\n        /* \"#utility.yul\":11915:11988   */\n      swap4\n      pop\n        /* \"#utility.yul\":11710:11998   */\n      pop\n        /* \"#utility.yul\":12065:12067   */\n      0x40\n        /* \"#utility.yul\":12054:12063   */\n      dup6\n        /* \"#utility.yul\":12050:12068   */\n      add\n        /* \"#utility.yul\":12037:12069   */\n      calldataload\n        /* \"#utility.yul\":12096:12114   */\n      0xffffffffffffffff\n        /* \"#utility.yul\":12088:12094   */\n      dup2\n        /* \"#utility.yul\":12085:12115   */\n      gt\n        /* \"#utility.yul\":12082:12199   */\n      iszero\n      tag_470\n      jumpi\n        /* \"#utility.yul\":12118:12197   */\n      tag_471\n      tag_272\n      jump\t// in\n    tag_471:\n        /* \"#utility.yul\":12082:12199   */\n    tag_470:\n        /* \"#utility.yul\":12223:12286   */\n      tag_472\n        /* \"#utility.yul\":12278:12285   */\n      dup8\n        /* \"#utility.yul\":12269:12275   */\n      dup3\n        /* \"#utility.yul\":12258:12267   */\n      dup9\n        /* \"#utility.yul\":12254:12276   */\n      add\n        /* \"#utility.yul\":12223:12286   */\n      tag_306\n      jump\t// in\n    tag_472:\n        /* \"#utility.yul\":12213:12286   */\n      swap3\n      pop\n        /* \"#utility.yul\":12008:12296   */\n      pop\n        /* \"#utility.yul\":12335:12337   */\n      0x60\n        /* \"#utility.yul\":12361:12414   */\n      tag_473\n        /* \"#utility.yul\":12406:12413   */\n      dup8\n        /* \"#utility.yul\":12397:12403   */\n      dup3\n        /* \"#utility.yul\":12386:12395   */\n      dup9\n        /* \"#utility.yul\":12382:12404   */\n      add\n        /* \"#utility.yul\":12361:12414   */\n      tag_275\n      jump\t// in\n    tag_473:\n        /* \"#utility.yul\":12351:12414   */\n      swap2\n      pop\n        /* \"#utility.yul\":12306:12424   */\n      pop\n        /* \"#utility.yul\":11306:12431   */\n      swap3\n      swap6\n      swap2\n      swap5\n      pop\n      swap3\n      pop\n      jump\t// out\n        /* \"#utility.yul\":12437:13416   */\n    tag_55:\n        /* \"#utility.yul\":12534:12540   */\n      0x00\n        /* \"#utility.yul\":12542:12548   */\n      dup1\n        /* \"#utility.yul\":12550:12556   */\n      0x00\n        /* \"#utility.yul\":12599:12601   */\n      0x60\n        /* \"#utility.yul\":12587:12596   */\n      dup5\n        /* \"#utility.yul\":12578:12585   */\n      dup7\n        /* \"#utility.yul\":12574:12597   */\n      sub\n        /* \"#utility.yul\":12570:12602   */\n      slt\n        /* \"#utility.yul\":12567:12686   */\n      iszero\n      tag_475\n      jumpi\n        /* \"#utility.yul\":12605:12684   */\n      tag_476\n      tag_271\n      jump\t// in\n    tag_476:\n        /* \"#utility.yul\":12567:12686   */\n    tag_475:\n        /* \"#utility.yul\":12725:12726   */\n      0x00\n        /* \"#utility.yul\":12750:12803   */\n      tag_477\n        /* \"#utility.yul\":12795:12802   */\n      dup7\n        /* \"#utility.yul\":12786:12792   */\n      dup3\n        /* \"#utility.yul\":12775:12784   */\n      dup8\n        /* \"#utility.yul\":12771:12793   */\n      add\n        /* \"#utility.yul\":12750:12803   */\n      tag_297\n      jump\t// in\n    tag_477:\n        /* \"#utility.yul\":12740:12803   */\n      swap4\n      pop\n        /* \"#utility.yul\":12696:12813   */\n      pop\n        /* \"#utility.yul\":12880:12882   */\n      0x20\n        /* \"#utility.yul\":12869:12878   */\n      dup5\n        /* \"#utility.yul\":12865:12883   */\n      add\n        /* \"#utility.yul\":12852:12884   */\n      calldataload\n        /* \"#utility.yul\":12911:12929   */\n      0xffffffffffffffff\n        /* \"#utility.yul\":12903:12909   */\n      dup2\n        /* \"#utility.yul\":12900:12930   */\n      gt\n        /* \"#utility.yul\":12897:13014   */\n      iszero\n      tag_478\n      jumpi\n        /* \"#utility.yul\":12933:13012   */\n      tag_479\n      tag_272\n      jump\t// in\n    tag_479:\n        /* \"#utility.yul\":12897:13014   */\n    tag_478:\n        /* \"#utility.yul\":13038:13101   */\n      tag_480\n        /* \"#utility.yul\":13093:13100   */\n      dup7\n        /* \"#utility.yul\":13084:13090   */\n      dup3\n        /* \"#utility.yul\":13073:13082   */\n      dup8\n        /* \"#utility.yul\":13069:13091   */\n      add\n        /* \"#utility.yul\":13038:13101   */\n      tag_306\n      jump\t// in\n    tag_480:\n        /* \"#utility.yul\":13028:13101   */\n      swap3\n      pop\n        /* \"#utility.yul\":12823:13111   */\n      pop\n        /* \"#utility.yul\":13178:13180   */\n      0x40\n        /* \"#utility.yul\":13167:13176   */\n      dup5\n        /* \"#utility.yul\":13163:13181   */\n      add\n        /* \"#utility.yul\":13150:13182   */\n      calldataload\n        /* \"#utility.yul\":13209:13227   */\n      0xffffffffffffffff\n        /* \"#utility.yul\":13201:13207   */\n      dup2\n        /* \"#utility.yul\":13198:13228   */\n      gt\n        /* \"#utility.yul\":13195:13312   */\n      iszero\n      tag_481\n      jumpi\n        /* \"#utility.yul\":13231:13310   */\n      tag_482\n      tag_272\n      jump\t// in\n    tag_482:\n        /* \"#utility.yul\":13195:13312   */\n    tag_481:\n        /* \"#utility.yul\":13336:13399   */\n      tag_483\n        /* \"#utility.yul\":13391:13398   */\n      dup7\n        /* \"#utility.yul\":13382:13388   */\n      dup3\n        /* \"#utility.yul\":13371:13380   */\n      dup8\n        /* \"#utility.yul\":13367:13389   */\n      add\n        /* \"#utility.yul\":13336:13399   */\n      tag_306\n      jump\t// in\n    tag_483:\n        /* \"#utility.yul\":13326:13399   */\n      swap2\n      pop\n        /* \"#utility.yul\":13121:13409   */\n      pop\n        /* \"#utility.yul\":12437:13416   */\n      swap3\n      pop\n      swap3\n      pop\n      swap3\n      jump\t// out\n        /* \"#utility.yul\":13422:13512   */\n    tag_307:\n        /* \"#utility.yul\":13456:13463   */\n      0x00\n        /* \"#utility.yul\":13499:13504   */\n      dup2\n        /* \"#utility.yul\":13492:13505   */\n      iszero\n        /* \"#utility.yul\":13485:13506   */\n      iszero\n        /* \"#utility.yul\":13474:13506   */\n      swap1\n      pop\n        /* \"#utility.yul\":13422:13512   */\n      swap2\n      swap1\n      pop\n      jump\t// out\n        /* \"#utility.yul\":13518:13627   */\n    tag_308:\n        /* \"#utility.yul\":13599:13620   */\n      tag_486\n        /* \"#utility.yul\":13614:13619   */\n      dup2\n        /* \"#utility.yul\":13599:13620   */\n      tag_307\n      jump\t// in\n    tag_486:\n        /* \"#utility.yul\":13594:13597   */\n      dup3\n        /* \"#utility.yul\":13587:13621   */\n      mstore\n        /* \"#utility.yul\":13518:13627   */\n      pop\n      pop\n      jump\t// out\n        /* \"#utility.yul\":13633:13843   */\n    tag_64:\n        /* \"#utility.yul\":13720:13724   */\n      0x00\n        /* \"#utility.yul\":13758:13760   */\n      0x20\n        /* \"#utility.yul\":13747:13756   */\n      dup3\n        /* \"#utility.yul\":13743:13761   */\n      add\n        /* \"#utility.yul\":13735:13761   */\n      swap1\n      pop\n        /* \"#utility.yul\":13771:13836   */\n      tag_488\n        /* \"#utility.yul\":13833:13834   */\n      0x00\n        /* \"#utility.yul\":13822:13831   */\n      dup4\n        /* \"#utility.yul\":13818:13835   */\n      add\n        /* \"#utility.yul\":13809:13815   */\n      dup5\n        /* \"#utility.yul\":13771:13836   */\n      tag_308\n      jump\t// in\n    tag_488:\n        /* \"#utility.yul\":13633:13843   */\n      swap3\n      swap2\n      pop\n      pop\n      jump\t// out\n        /* \"#utility.yul\":13849:14071   */\n    tag_69:\n        /* \"#utility.yul\":13942:13946   */\n      0x00\n        /* \"#utility.yul\":13980:13982   */\n      0x20\n        /* \"#utility.yul\":13969:13978   */\n      dup3\n        /* \"#utility.yul\":13965:13983   */\n      add\n        /* \"#utility.yul\":13957:13983   */\n      swap1\n      pop\n        /* \"#utility.yul\":13993:14064   */\n      tag_490\n        /* \"#utility.yul\":14061:14062   */\n      0x00\n        /* \"#utility.yul\":14050:14059   */\n      dup4\n        /* \"#utility.yul\":14046:14063   */\n      add\n        /* \"#utility.yul\":14037:14043   */\n      dup5\n        /* \"#utility.yul\":13993:14064   */\n      tag_293\n      jump\t// in\n    tag_490:\n        /* \"#utility.yul\":13849:14071   */\n      swap3\n      swap2\n      pop\n      pop\n      jump\t// out\n        /* \"#utility.yul\":14077:14551   */\n    tag_76:\n        /* \"#utility.yul\":14145:14151   */\n      0x00\n        /* \"#utility.yul\":14153:14159   */\n      dup1\n        /* \"#utility.yul\":14202:14204   */\n      0x40\n        /* \"#utility.yul\":14190:14199   */\n      dup4\n        /* \"#utility.yul\":14181:14188   */\n      dup6\n        /* \"#utility.yul\":14177:14200   */\n      sub\n        /* \"#utility.yul\":14173:14205   */\n      slt\n        /* \"#utility.yul\":14170:14289   */\n      iszero\n      tag_492\n      jumpi\n        /* \"#utility.yul\":14208:14287   */\n      tag_493\n      tag_271\n      jump\t// in\n    tag_493:\n        /* \"#utility.yul\":14170:14289   */\n    tag_492:\n        /* \"#utility.yul\":14328:14329   */\n      0x00\n        /* \"#utility.yul\":14353:14406   */\n      tag_494\n        /* \"#utility.yul\":14398:14405   */\n      dup6\n        /* \"#utility.yul\":14389:14395   */\n      dup3\n        /* \"#utility.yul\":14378:14387   */\n      dup7\n        /* \"#utility.yul\":14374:14396   */\n      add\n        /* \"#utility.yul\":14353:14406   */\n      tag_297\n      jump\t// in\n    tag_494:\n        /* \"#utility.yul\":14343:14406   */\n      swap3\n      pop\n        /* \"#utility.yul\":14299:14416   */\n      pop\n        /* \"#utility.yul\":14455:14457   */\n      0x20\n        /* \"#utility.yul\":14481:14534   */\n      tag_495\n        /* \"#utility.yul\":14526:14533   */\n      dup6\n        /* \"#utility.yul\":14517:14523   */\n      dup3\n        /* \"#utility.yul\":14506:14515   */\n      dup7\n        /* \"#utility.yul\":14502:14524   */\n      add\n        /* \"#utility.yul\":14481:14534   */\n      tag_297\n      jump\t// in\n    tag_495:\n        /* \"#utility.yul\":14471:14534   */\n      swap2\n      pop\n        /* \"#utility.yul\":14426:14544   */\n      pop\n        /* \"#utility.yul\":14077:14551   */\n      swap3\n      pop\n      swap3\n      swap1\n      pop\n      jump\t// out\n        /* \"#utility.yul\":14557:14671   */\n    tag_309:\n        /* \"#utility.yul\":14624:14630   */\n      0x00\n        /* \"#utility.yul\":14658:14663   */\n      dup2\n        /* \"#utility.yul\":14652:14664   */\n      mload\n        /* \"#utility.yul\":14642:14664   */\n      swap1\n      pop\n        /* \"#utility.yul\":14557:14671   */\n      swap2\n      swap1\n      pop\n      jump\t// out\n        /* \"#utility.yul\":14677:14861   */\n    tag_310:\n        /* \"#utility.yul\":14776:14787   */\n      0x00\n        /* \"#utility.yul\":14810:14816   */\n      dup3\n        /* \"#utility.yul\":14805:14808   */\n      dup3\n        /* \"#utility.yul\":14798:14817   */\n      mstore\n        /* \"#utility.yul\":14850:14854   */\n      0x20\n        /* \"#utility.yul\":14845:14848   */\n      dup3\n        /* \"#utility.yul\":14841:14855   */\n      add\n        /* \"#utility.yul\":14826:14855   */\n      swap1\n      pop\n        /* \"#utility.yul\":14677:14861   */\n      swap3\n      swap2\n      pop\n      pop\n      jump\t// out\n        /* \"#utility.yul\":14867:14999   */\n    tag_311:\n        /* \"#utility.yul\":14934:14938   */\n      0x00\n        /* \"#utility.yul\":14957:14960   */\n      dup2\n        /* \"#utility.yul\":14949:14960   */\n      swap1\n      pop\n        /* \"#utility.yul\":14987:14991   */\n      0x20\n        /* \"#utility.yul\":14982:14985   */\n      dup3\n        /* \"#utility.yul\":14978:14992   */\n      add\n        /* \"#utility.yul\":14970:14992   */\n      swap1\n      pop\n        /* \"#utility.yul\":14867:14999   */\n      swap2\n      swap1\n      pop\n      jump\t// out\n        /* \"#utility.yul\":15005:15184   */\n    tag_312:\n        /* \"#utility.yul\":15074:15084   */\n      0x00\n        /* \"#utility.yul\":15095:15141   */\n      tag_500\n        /* \"#utility.yul\":15137:15140   */\n      dup4\n        /* \"#utility.yul\":15129:15135   */\n      dup4\n        /* \"#utility.yul\":15095:15141   */\n      tag_279\n      jump\t// in\n    tag_500:\n        /* \"#utility.yul\":15173:15177   */\n      0x20\n        /* \"#utility.yul\":15168:15171   */\n      dup4\n        /* \"#utility.yul\":15164:15178   */\n      add\n        /* \"#utility.yul\":15150:15178   */\n      swap1\n      pop\n        /* \"#utility.yul\":15005:15184   */\n      swap3\n      swap2\n      pop\n      pop\n      jump\t// out\n        /* \"#utility.yul\":15190:15303   */\n    tag_313:\n        /* \"#utility.yul\":15260:15264   */\n      0x00\n        /* \"#utility.yul\":15292:15296   */\n      0x20\n        /* \"#utility.yul\":15287:15290   */\n      dup3\n        /* \"#utility.yul\":15283:15297   */\n      add\n        /* \"#utility.yul\":15275:15297   */\n      swap1\n      pop\n        /* \"#utility.yul\":15190:15303   */\n      swap2\n      swap1\n      pop\n      jump\t// out\n        /* \"#utility.yul\":15339:16071   */\n    tag_314:\n        /* \"#utility.yul\":15458:15461   */\n      0x00\n        /* \"#utility.yul\":15487:15541   */\n      tag_503\n        /* \"#utility.yul\":15535:15540   */\n      dup3\n        /* \"#utility.yul\":15487:15541   */\n      tag_309\n      jump\t// in\n    tag_503:\n        /* \"#utility.yul\":15557:15643   */\n      tag_504\n        /* \"#utility.yul\":15636:15642   */\n      dup2\n        /* \"#utility.yul\":15631:15634   */\n      dup6\n        /* \"#utility.yul\":15557:15643   */\n      tag_310\n      jump\t// in\n    tag_504:\n        /* \"#utility.yul\":15550:15643   */\n      swap4\n      pop\n        /* \"#utility.yul\":15667:15723   */\n      tag_505\n        /* \"#utility.yul\":15717:15722   */\n      dup4\n        /* \"#utility.yul\":15667:15723   */\n      tag_311\n      jump\t// in\n    tag_505:\n        /* \"#utility.yul\":15746:15753   */\n      dup1\n        /* \"#utility.yul\":15777:15778   */\n      0x00\n        /* \"#utility.yul\":15762:16046   */\n    tag_506:\n        /* \"#utility.yul\":15787:15793   */\n      dup4\n        /* \"#utility.yul\":15784:15785   */\n      dup2\n        /* \"#utility.yul\":15781:15794   */\n      lt\n        /* \"#utility.yul\":15762:16046   */\n      iszero\n      tag_508\n      jumpi\n        /* \"#utility.yul\":15863:15869   */\n      dup2\n        /* \"#utility.yul\":15857:15870   */\n      mload\n        /* \"#utility.yul\":15890:15953   */\n      tag_509\n        /* \"#utility.yul\":15949:15952   */\n      dup9\n        /* \"#utility.yul\":15934:15947   */\n      dup3\n        /* \"#utility.yul\":15890:15953   */\n      tag_312\n      jump\t// in\n    tag_509:\n        /* \"#utility.yul\":15883:15953   */\n      swap8\n      pop\n        /* \"#utility.yul\":15976:16036   */\n      tag_510\n        /* \"#utility.yul\":16029:16035   */\n      dup4\n        /* \"#utility.yul\":15976:16036   */\n      tag_313\n      jump\t// in\n    tag_510:\n        /* \"#utility.yul\":15966:16036   */\n      swap3\n      pop\n        /* \"#utility.yul\":15822:16046   */\n      pop\n        /* \"#utility.yul\":15809:15810   */\n      0x01\n        /* \"#utility.yul\":15806:15807   */\n      dup2\n        /* \"#utility.yul\":15802:15811   */\n      add\n        /* \"#utility.yul\":15797:15811   */\n      swap1\n      pop\n        /* \"#utility.yul\":15762:16046   */\n      jump(tag_506)\n    tag_508:\n        /* \"#utility.yul\":15766:15780   */\n      pop\n        /* \"#utility.yul\":16062:16065   */\n      dup6\n        /* \"#utility.yul\":16055:16065   */\n      swap4\n      pop\n        /* \"#utility.yul\":15463:16071   */\n      pop\n      pop\n      pop\n        /* \"#utility.yul\":15339:16071   */\n      swap3\n      swap2\n      pop\n      pop\n      jump\t// out\n        /* \"#utility.yul\":16077:16450   */\n    tag_85:\n        /* \"#utility.yul\":16220:16224   */\n      0x00\n        /* \"#utility.yul\":16258:16260   */\n      0x20\n        /* \"#utility.yul\":16247:16256   */\n      dup3\n        /* \"#utility.yul\":16243:16261   */\n      add\n        /* \"#utility.yul\":16235:16261   */\n      swap1\n      pop\n        /* \"#utility.yul\":16307:16316   */\n      dup2\n        /* \"#utility.yul\":16301:16305   */\n      dup2\n        /* \"#utility.yul\":16297:16317   */\n      sub\n        /* \"#utility.yul\":16293:16294   */\n      0x00\n        /* \"#utility.yul\":16282:16291   */\n      dup4\n        /* \"#utility.yul\":16278:16295   */\n      add\n        /* \"#utility.yul\":16271:16318   */\n      mstore\n        /* \"#utility.yul\":16335:16443   */\n      tag_512\n        /* \"#utility.yul\":16438:16442   */\n      dup2\n        /* \"#utility.yul\":16429:16435   */\n      dup5\n        /* \"#utility.yul\":16335:16443   */\n      tag_314\n      jump\t// in\n    tag_512:\n        /* \"#utility.yul\":16327:16443   */\n      swap1\n      pop\n        /* \"#utility.yul\":16077:16450   */\n      swap3\n      swap2\n      pop\n      pop\n      jump\t// out\n        /* \"#utility.yul\":16456:16640   */\n    tag_315:\n        /* \"#utility.yul\":16555:16566   */\n      0x00\n        /* \"#utility.yul\":16589:16595   */\n      dup3\n        /* \"#utility.yul\":16584:16587   */\n      dup3\n        /* \"#utility.yul\":16577:16596   */\n      mstore\n        /* \"#utility.yul\":16629:16633   */\n      0x20\n        /* \"#utility.yul\":16624:16627   */\n      dup3\n        /* \"#utility.yul\":16620:16634   */\n      add\n        /* \"#utility.yul\":16605:16634   */\n      swap1\n      pop\n        /* \"#utility.yul\":16456:16640   */\n      swap3\n      swap2\n      pop\n      pop\n      jump\t// out\n        /* \"#utility.yul\":16676:17408   */\n    tag_316:\n        /* \"#utility.yul\":16795:16798   */\n      0x00\n        /* \"#utility.yul\":16824:16878   */\n      tag_515\n        /* \"#utility.yul\":16872:16877   */\n      dup3\n        /* \"#utility.yul\":16824:16878   */\n      tag_285\n      jump\t// in\n    tag_515:\n        /* \"#utility.yul\":16894:16980   */\n      tag_516\n        /* \"#utility.yul\":16973:16979   */\n      dup2\n        /* \"#utility.yul\":16968:16971   */\n      dup6\n        /* \"#utility.yul\":16894:16980   */\n      tag_315\n      jump\t// in\n    tag_516:\n        /* \"#utility.yul\":16887:16980   */\n      swap4\n      pop\n        /* \"#utility.yul\":17004:17060   */\n      tag_517\n        /* \"#utility.yul\":17054:17059   */\n      dup4\n        /* \"#utility.yul\":17004:17060   */\n      tag_287\n      jump\t// in\n    tag_517:\n        /* \"#utility.yul\":17083:17090   */\n      dup1\n        /* \"#utility.yul\":17114:17115   */\n      0x00\n        /* \"#utility.yul\":17099:17383   */\n    tag_518:\n        /* \"#utility.yul\":17124:17130   */\n      dup4\n        /* \"#utility.yul\":17121:17122   */\n      dup2\n        /* \"#utility.yul\":17118:17131   */\n      lt\n        /* \"#utility.yul\":17099:17383   */\n      iszero\n      tag_520\n      jumpi\n        /* \"#utility.yul\":17200:17206   */\n      dup2\n        /* \"#utility.yul\":17194:17207   */\n      mload\n        /* \"#utility.yul\":17227:17290   */\n      tag_521\n        /* \"#utility.yul\":17286:17289   */\n      dup9\n        /* \"#utility.yul\":17271:17284   */\n      dup3\n        /* \"#utility.yul\":17227:17290   */\n      tag_288\n      jump\t// in\n    tag_521:\n        /* \"#utility.yul\":17220:17290   */\n      swap8\n      pop\n        /* \"#utility.yul\":17313:17373   */\n      tag_522\n        /* \"#utility.yul\":17366:17372   */\n      dup4\n        /* \"#utility.yul\":17313:17373   */\n      tag_289\n      jump\t// in\n    tag_522:\n        /* \"#utility.yul\":17303:17373   */\n      swap3\n      pop\n        /* \"#utility.yul\":17159:17383   */\n      pop\n        /* \"#utility.yul\":17146:17147   */\n      0x01\n        /* \"#utility.yul\":17143:17144   */\n      dup2\n        /* \"#utility.yul\":17139:17148   */\n      add\n        /* \"#utility.yul\":17134:17148   */\n      swap1\n      pop\n        /* \"#utility.yul\":17099:17383   */\n      jump(tag_518)\n    tag_520:\n        /* \"#utility.yul\":17103:17117   */\n      pop\n        /* \"#utility.yul\":17399:17402   */\n      dup6\n        /* \"#utility.yul\":17392:17402   */\n      swap4\n      pop\n        /* \"#utility.yul\":16800:17408   */\n      pop\n      pop\n      pop\n        /* \"#utility.yul\":16676:17408   */\n      swap3\n      swap2\n      pop\n      pop\n      jump\t// out\n        /* \"#utility.yul\":17414:17787   */\n    tag_90:\n        /* \"#utility.yul\":17557:17561   */\n      0x00\n        /* \"#utility.yul\":17595:17597   */\n      0x20\n        /* \"#utility.yul\":17584:17593   */\n      dup3\n        /* \"#utility.yul\":17580:17598   */\n      add\n        /* \"#utility.yul\":17572:17598   */\n      swap1\n      pop\n        /* \"#utility.yul\":17644:17653   */\n      dup2\n        /* \"#utility.yul\":17638:17642   */\n      dup2\n        /* \"#utility.yul\":17634:17654   */\n      sub\n        /* \"#utility.yul\":17630:17631   */\n      0x00\n        /* \"#utility.yul\":17619:17628   */\n      dup4\n        /* \"#utility.yul\":17615:17632   */\n      add\n        /* \"#utility.yul\":17608:17655   */\n      mstore\n        /* \"#utility.yul\":17672:17780   */\n      tag_524\n        /* \"#utility.yul\":17775:17779   */\n      dup2\n        /* \"#utility.yul\":17766:17772   */\n      dup5\n        /* \"#utility.yul\":17672:17780   */\n      tag_316\n      jump\t// in\n    tag_524:\n        /* \"#utility.yul\":17664:17780   */\n      swap1\n      pop\n        /* \"#utility.yul\":17414:17787   */\n      swap3\n      swap2\n      pop\n      pop\n      jump\t// out\n        /* \"#utility.yul\":17793:17973   */\n    tag_104:\n        /* \"#utility.yul\":17841:17918   */\n      0x4e487b7100000000000000000000000000000000000000000000000000000000\n        /* \"#utility.yul\":17838:17839   */\n      0x00\n        /* \"#utility.yul\":17831:17919   */\n      mstore\n        /* \"#utility.yul\":17938:17942   */\n      0x32\n        /* \"#utility.yul\":17935:17936   */\n      0x04\n        /* \"#utility.yul\":17928:17943   */\n      mstore\n        /* \"#utility.yul\":17962:17966   */\n      0x24\n        /* \"#utility.yul\":17959:17960   */\n      0x00\n        /* \"#utility.yul\":17952:17967   */\n      revert\n        /* \"#utility.yul\":17979:18159   */\n    tag_317:\n        /* \"#utility.yul\":18027:18104   */\n      0x4e487b7100000000000000000000000000000000000000000000000000000000\n        /* \"#utility.yul\":18024:18025   */\n      0x00\n        /* \"#utility.yul\":18017:18105   */\n      mstore\n        /* \"#utility.yul\":18124:18128   */\n      0x22\n        /* \"#utility.yul\":18121:18122   */\n      0x04\n        /* \"#utility.yul\":18114:18129   */\n      mstore\n        /* \"#utility.yul\":18148:18152   */\n      0x24\n        /* \"#utility.yul\":18145:18146   */\n      0x00\n        /* \"#utility.yul\":18138:18153   */\n      revert\n        /* \"#utility.yul\":18165:18485   */\n    tag_107:\n        /* \"#utility.yul\":18209:18215   */\n      0x00\n        /* \"#utility.yul\":18246:18247   */\n      0x02\n        /* \"#utility.yul\":18240:18244   */\n      dup3\n        /* \"#utility.yul\":18236:18248   */\n      div\n        /* \"#utility.yul\":18226:18248   */\n      swap1\n      pop\n        /* \"#utility.yul\":18293:18294   */\n      0x01\n        /* \"#utility.yul\":18287:18291   */\n      dup3\n        /* \"#utility.yul\":18283:18295   */\n      and\n        /* \"#utility.yul\":18314:18332   */\n      dup1\n        /* \"#utility.yul\":18304:18385   */\n      tag_528\n      jumpi\n        /* \"#utility.yul\":18370:18374   */\n      0x7f\n        /* \"#utility.yul\":18362:18368   */\n      dup3\n        /* \"#utility.yul\":18358:18375   */\n      and\n        /* \"#utility.yul\":18348:18375   */\n      swap2\n      pop\n        /* \"#utility.yul\":18304:18385   */\n    tag_528:\n        /* \"#utility.yul\":18432:18434   */\n      0x20\n        /* \"#utility.yul\":18424:18430   */\n      dup3\n        /* \"#utility.yul\":18421:18435   */\n      lt\n        /* \"#utility.yul\":18401:18419   */\n      dup2\n        /* \"#utility.yul\":18398:18436   */\n      sub\n        /* \"#utility.yul\":18395:18479   */\n      tag_529\n      jumpi\n        /* \"#utility.yul\":18451:18469   */\n      tag_530\n      tag_317\n      jump\t// in\n    tag_530:\n        /* \"#utility.yul\":18395:18479   */\n    tag_529:\n        /* \"#utility.yul\":18216:18485   */\n      pop\n        /* \"#utility.yul\":18165:18485   */\n      swap2\n      swap1\n      pop\n      jump\t// out\n        /* \"#utility.yul\":18491:18652   */\n    tag_318:\n        /* \"#utility.yul\":18631:18644   */\n      0x446f63746f72206f6e6c79000000000000000000000000000000000000000000\n        /* \"#utility.yul\":18627:18628   */\n      0x00\n        /* \"#utility.yul\":18619:18625   */\n      dup3\n        /* \"#utility.yul\":18615:18629   */\n      add\n        /* \"#utility.yul\":18608:18645   */\n      mstore\n        /* \"#utility.yul\":18491:18652   */\n      pop\n      jump\t// out\n        /* \"#utility.yul\":18658:19024   */\n    tag_319:\n        /* \"#utility.yul\":18800:18803   */\n      0x00\n        /* \"#utility.yul\":18821:18888   */\n      tag_533\n        /* \"#utility.yul\":18885:18887   */\n      0x0b\n        /* \"#utility.yul\":18880:18883   */\n      dup4\n        /* \"#utility.yul\":18821:18888   */\n      tag_294\n      jump\t// in\n    tag_533:\n        /* \"#utility.yul\":18814:18888   */\n      swap2\n      pop\n        /* \"#utility.yul\":18897:18990   */\n      tag_534\n        /* \"#utility.yul\":18986:18989   */\n      dup3\n        /* \"#utility.yul\":18897:18990   */\n      tag_318\n      jump\t// in\n    tag_534:\n        /* \"#utility.yul\":19015:19017   */\n      0x20\n        /* \"#utility.yul\":19010:19013   */\n      dup3\n        /* \"#utility.yul\":19006:19018   */\n      add\n        /* \"#utility.yul\":18999:19018   */\n      swap1\n      pop\n        /* \"#utility.yul\":18658:19024   */\n      swap2\n      swap1\n      pop\n      jump\t// out\n        /* \"#utility.yul\":19030:19449   */\n    tag_130:\n        /* \"#utility.yul\":19196:19200   */\n      0x00\n        /* \"#utility.yul\":19234:19236   */\n      0x20\n        /* \"#utility.yul\":19223:19232   */\n      dup3\n        /* \"#utility.yul\":19219:19237   */\n      add\n        /* \"#utility.yul\":19211:19237   */\n      swap1\n      pop\n        /* \"#utility.yul\":19283:19292   */\n      dup2\n        /* \"#utility.yul\":19277:19281   */\n      dup2\n        /* \"#utility.yul\":19273:19293   */\n      sub\n        /* \"#utility.yul\":19269:19270   */\n      0x00\n        /* \"#utility.yul\":19258:19267   */\n      dup4\n        /* \"#utility.yul\":19254:19271   */\n      add\n        /* \"#utility.yul\":19247:19294   */\n      mstore\n        /* \"#utility.yul\":19311:19442   */\n      tag_536\n        /* \"#utility.yul\":19437:19441   */\n      dup2\n        /* \"#utility.yul\":19311:19442   */\n      tag_319\n      jump\t// in\n    tag_536:\n        /* \"#utility.yul\":19303:19442   */\n      swap1\n      pop\n        /* \"#utility.yul\":19030:19449   */\n      swap2\n      swap1\n      pop\n      jump\t// out\n        /* \"#utility.yul\":19455:19680   */\n    tag_320:\n        /* \"#utility.yul\":19595:19629   */\n      0x596f7520686176656e2774206265656e2061737369676e656420746869732070\n        /* \"#utility.yul\":19591:19592   */\n      0x00\n        /* \"#utility.yul\":19583:19589   */\n      dup3\n        /* \"#utility.yul\":19579:19593   */\n      add\n        /* \"#utility.yul\":19572:19630   */\n      mstore\n        /* \"#utility.yul\":19664:19672   */\n      0x617469656e740000000000000000000000000000000000000000000000000000\n        /* \"#utility.yul\":19659:19661   */\n      0x20\n        /* \"#utility.yul\":19651:19657   */\n      dup3\n        /* \"#utility.yul\":19647:19662   */\n      add\n        /* \"#utility.yul\":19640:19673   */\n      mstore\n        /* \"#utility.yul\":19455:19680   */\n      pop\n      jump\t// out\n        /* \"#utility.yul\":19686:20052   */\n    tag_321:\n        /* \"#utility.yul\":19828:19831   */\n      0x00\n        /* \"#utility.yul\":19849:19916   */\n      tag_539\n        /* \"#utility.yul\":19913:19915   */\n      0x26\n        /* \"#utility.yul\":19908:19911   */\n      dup4\n        /* \"#utility.yul\":19849:19916   */\n      tag_294\n      jump\t// in\n    tag_539:\n        /* \"#utility.yul\":19842:19916   */\n      swap2\n      pop\n        /* \"#utility.yul\":19925:20018   */\n      tag_540\n        /* \"#utility.yul\":20014:20017   */\n      dup3\n        /* \"#utility.yul\":19925:20018   */\n      tag_320\n      jump\t// in\n    tag_540:\n        /* \"#utility.yul\":20043:20045   */\n      0x40\n        /* \"#utility.yul\":20038:20041   */\n      dup3\n        /* \"#utility.yul\":20034:20046   */\n      add\n        /* \"#utility.yul\":20027:20046   */\n      swap1\n      pop\n        /* \"#utility.yul\":19686:20052   */\n      swap2\n      swap1\n      pop\n      jump\t// out\n        /* \"#utility.yul\":20058:20477   */\n    tag_134:\n        /* \"#utility.yul\":20224:20228   */\n      0x00\n        /* \"#utility.yul\":20262:20264   */\n      0x20\n        /* \"#utility.yul\":20251:20260   */\n      dup3\n        /* \"#utility.yul\":20247:20265   */\n      add\n        /* \"#utility.yul\":20239:20265   */\n      swap1\n      pop\n        /* \"#utility.yul\":20311:20320   */\n      dup2\n        /* \"#utility.yul\":20305:20309   */\n      dup2\n        /* \"#utility.yul\":20301:20321   */\n      sub\n        /* \"#utility.yul\":20297:20298   */\n      0x00\n        /* \"#utility.yul\":20286:20295   */\n      dup4\n        /* \"#utility.yul\":20282:20299   */\n      add\n        /* \"#utility.yul\":20275:20322   */\n      mstore\n        /* \"#utility.yul\":20339:20470   */\n      tag_542\n        /* \"#utility.yul\":20465:20469   */\n      dup2\n        /* \"#utility.yul\":20339:20470   */\n      tag_321\n      jump\t// in\n    tag_542:\n        /* \"#utility.yul\":20331:20470   */\n      swap1\n      pop\n        /* \"#utility.yul\":20058:20477   */\n      swap2\n      swap1\n      pop\n      jump\t// out\n        /* \"#utility.yul\":20483:20646   */\n    tag_322:\n        /* \"#utility.yul\":20623:20638   */\n      0x4e6f7420666f722061646d696e00000000000000000000000000000000000000\n        /* \"#utility.yul\":20619:20620   */\n      0x00\n        /* \"#utility.yul\":20611:20617   */\n      dup3\n        /* \"#utility.yul\":20607:20621   */\n      add\n        /* \"#utility.yul\":20600:20639   */\n      mstore\n        /* \"#utility.yul\":20483:20646   */\n      pop\n      jump\t// out\n        /* \"#utility.yul\":20652:21018   */\n    tag_323:\n        /* \"#utility.yul\":20794:20797   */\n      0x00\n        /* \"#utility.yul\":20815:20882   */\n      tag_545\n        /* \"#utility.yul\":20879:20881   */\n      0x0d\n        /* \"#utility.yul\":20874:20877   */\n      dup4\n        /* \"#utility.yul\":20815:20882   */\n      tag_294\n      jump\t// in\n    tag_545:\n        /* \"#utility.yul\":20808:20882   */\n      swap2\n      pop\n        /* \"#utility.yul\":20891:20984   */\n      tag_546\n        /* \"#utility.yul\":20980:20983   */\n      dup3\n        /* \"#utility.yul\":20891:20984   */\n      tag_322\n      jump\t// in\n    tag_546:\n        /* \"#utility.yul\":21009:21011   */\n      0x20\n        /* \"#utility.yul\":21004:21007   */\n      dup3\n        /* \"#utility.yul\":21000:21012   */\n      add\n        /* \"#utility.yul\":20993:21012   */\n      swap1\n      pop\n        /* \"#utility.yul\":20652:21018   */\n      swap2\n      swap1\n      pop\n      jump\t// out\n        /* \"#utility.yul\":21024:21443   */\n    tag_139:\n        /* \"#utility.yul\":21190:21194   */\n      0x00\n        /* \"#utility.yul\":21228:21230   */\n      0x20\n        /* \"#utility.yul\":21217:21226   */\n      dup3\n        /* \"#utility.yul\":21213:21231   */\n      add\n        /* \"#utility.yul\":21205:21231   */\n      swap1\n      pop\n        /* \"#utility.yul\":21277:21286   */\n      dup2\n        /* \"#utility.yul\":21271:21275   */\n      dup2\n        /* \"#utility.yul\":21267:21287   */\n      sub\n        /* \"#utility.yul\":21263:21264   */\n      0x00\n        /* \"#utility.yul\":21252:21261   */\n      dup4\n        /* \"#utility.yul\":21248:21265   */\n      add\n        /* \"#utility.yul\":21241:21288   */\n      mstore\n        /* \"#utility.yul\":21305:21436   */\n      tag_548\n        /* \"#utility.yul\":21431:21435   */\n      dup2\n        /* \"#utility.yul\":21305:21436   */\n      tag_323\n      jump\t// in\n    tag_548:\n        /* \"#utility.yul\":21297:21436   */\n      swap1\n      pop\n        /* \"#utility.yul\":21024:21443   */\n      swap2\n      swap1\n      pop\n      jump\t// out\n        /* \"#utility.yul\":21449:21590   */\n    tag_324:\n        /* \"#utility.yul\":21498:21502   */\n      0x00\n        /* \"#utility.yul\":21521:21524   */\n      dup2\n        /* \"#utility.yul\":21513:21524   */\n      swap1\n      pop\n        /* \"#utility.yul\":21544:21547   */\n      dup2\n        /* \"#utility.yul\":21541:21542   */\n      0x00\n        /* \"#utility.yul\":21534:21548   */\n      mstore\n        /* \"#utility.yul\":21578:21582   */\n      0x20\n        /* \"#utility.yul\":21575:21576   */\n      0x00\n        /* \"#utility.yul\":21565:21583   */\n      keccak256\n        /* \"#utility.yul\":21557:21583   */\n      swap1\n      pop\n        /* \"#utility.yul\":21449:21590   */\n      swap2\n      swap1\n      pop\n      jump\t// out\n        /* \"#utility.yul\":21596:21689   */\n    tag_325:\n        /* \"#utility.yul\":21633:21639   */\n      0x00\n        /* \"#utility.yul\":21680:21682   */\n      0x20\n        /* \"#utility.yul\":21675:21677   */\n      0x1f\n        /* \"#utility.yul\":21668:21673   */\n      dup4\n        /* \"#utility.yul\":21664:21678   */\n      add\n        /* \"#utility.yul\":21660:21683   */\n      div\n        /* \"#utility.yul\":21650:21683   */\n      swap1\n      pop\n        /* \"#utility.yul\":21596:21689   */\n      swap2\n      swap1\n      pop\n      jump\t// out\n        /* \"#utility.yul\":21695:21802   */\n    tag_326:\n        /* \"#utility.yul\":21739:21747   */\n      0x00\n        /* \"#utility.yul\":21789:21794   */\n      dup3\n        /* \"#utility.yul\":21783:21787   */\n      dup3\n        /* \"#utility.yul\":21779:21795   */\n      shl\n        /* \"#utility.yul\":21758:21795   */\n      swap1\n      pop\n        /* \"#utility.yul\":21695:21802   */\n      swap3\n      swap2\n      pop\n      pop\n      jump\t// out\n        /* \"#utility.yul\":21808:22201   */\n    tag_327:\n        /* \"#utility.yul\":21877:21883   */\n      0x00\n        /* \"#utility.yul\":21927:21928   */\n      0x08\n        /* \"#utility.yul\":21915:21925   */\n      dup4\n        /* \"#utility.yul\":21911:21929   */\n      mul\n        /* \"#utility.yul\":21950:22047   */\n      tag_553\n        /* \"#utility.yul\":21980:22046   */\n      0xffffffffffffffffffffffffffffffffffffffffffffffffffffffffffffffff\n        /* \"#utility.yul\":21969:21978   */\n      dup3\n        /* \"#utility.yul\":21950:22047   */\n      tag_326\n      jump\t// in\n    tag_553:\n        /* \"#utility.yul\":22068:22107   */\n      tag_554\n        /* \"#utility.yul\":22098:22106   */\n      dup7\n        /* \"#utility.yul\":22087:22096   */\n      dup4\n        /* \"#utility.yul\":22068:22107   */\n      tag_326\n      jump\t// in\n    tag_554:\n        /* \"#utility.yul\":22056:22107   */\n      swap6\n      pop\n        /* \"#utility.yul\":22140:22144   */\n      dup1\n        /* \"#utility.yul\":22136:22145   */\n      not\n        /* \"#utility.yul\":22129:22134   */\n      dup5\n        /* \"#utility.yul\":22125:22146   */\n      and\n        /* \"#utility.yul\":22116:22146   */\n      swap4\n      pop\n        /* \"#utility.yul\":22189:22193   */\n      dup1\n        /* \"#utility.yul\":22179:22187   */\n      dup7\n        /* \"#utility.yul\":22175:22194   */\n      and\n        /* \"#utility.yul\":22168:22173   */\n      dup5\n        /* \"#utility.yul\":22165:22195   */\n      or\n        /* \"#utility.yul\":22155:22195   */\n      swap3\n      pop\n        /* \"#utility.yul\":21884:22201   */\n      pop\n      pop\n        /* \"#utility.yul\":21808:22201   */\n      swap4\n      swap3\n      pop\n      pop\n      pop\n      jump\t// out\n        /* \"#utility.yul\":22207:22267   */\n    tag_328:\n        /* \"#utility.yul\":22235:22238   */\n      0x00\n        /* \"#utility.yul\":22256:22261   */\n      dup2\n        /* \"#utility.yul\":22249:22261   */\n      swap1\n      pop\n        /* \"#utility.yul\":22207:22267   */\n      swap2\n      swap1\n      pop\n      jump\t// out\n        /* \"#utility.yul\":22273:22415   */\n    tag_329:\n        /* \"#utility.yul\":22323:22332   */\n      0x00\n        /* \"#utility.yul\":22356:22409   */\n      tag_557\n        /* \"#utility.yul\":22374:22408   */\n      tag_558\n        /* \"#utility.yul\":22383:22407   */\n      tag_559\n        /* \"#utility.yul\":22401:22406   */\n      dup5\n        /* \"#utility.yul\":22383:22407   */\n      tag_273\n      jump\t// in\n    tag_559:\n        /* \"#utility.yul\":22374:22408   */\n      tag_328\n      jump\t// in\n    tag_558:\n        /* \"#utility.yul\":22356:22409   */\n      tag_273\n      jump\t// in\n    tag_557:\n        /* \"#utility.yul\":22343:22409   */\n      swap1\n      pop\n        /* \"#utility.yul\":22273:22415   */\n      swap2\n      swap1\n      pop\n      jump\t// out\n        /* \"#utility.yul\":22421:22496   */\n    tag_330:\n        /* \"#utility.yul\":22464:22467   */\n      0x00\n        /* \"#utility.yul\":22485:22490   */\n      dup2\n        /* \"#utility.yul\":22478:22490   */\n      swap1\n      pop\n        /* \"#utility.yul\":22421:22496   */\n      swap2\n      swap1\n      pop\n      jump\t// out\n        /* \"#utility.yul\":22502:22771   */\n    tag_331:\n        /* \"#utility.yul\":22612:22651   */\n      tag_562\n        /* \"#utility.yul\":22643:22650   */\n      dup4\n        /* \"#utility.yul\":22612:22651   */\n      tag_329\n      jump\t// in\n    tag_562:\n        /* \"#utility.yul\":22673:22764   */\n      tag_563\n        /* \"#utility.yul\":22722:22763   */\n      tag_564\n        /* \"#utility.yul\":22746:22762   */\n      dup3\n        /* \"#utility.yul\":22722:22763   */\n      tag_330\n      jump\t// in\n    tag_564:\n        /* \"#utility.yul\":22714:22720   */\n      dup5\n        /* \"#utility.yul\":22707:22711   */\n      dup5\n        /* \"#utility.yul\":22701:22712   */\n      sload\n        /* \"#utility.yul\":22673:22764   */\n      tag_327\n      jump\t// in\n    tag_563:\n        /* \"#utility.yul\":22667:22671   */\n      dup3\n        /* \"#utility.yul\":22660:22765   */\n      sstore\n        /* \"#utility.yul\":22578:22771   */\n      pop\n        /* \"#utility.yul\":22502:22771   */\n      pop\n      pop\n      pop\n      jump\t// out\n        /* \"#utility.yul\":22777:22850   */\n    tag_332:\n        /* \"#utility.yul\":22822:22825   */\n      0x00\n        /* \"#utility.yul\":22777:22850   */\n      swap1\n      jump\t// out\n        /* \"#utility.yul\":22856:23045   */\n    tag_333:\n        /* \"#utility.yul\":22933:22965   */\n      tag_567\n      tag_332\n      jump\t// in\n    tag_567:\n        /* \"#utility.yul\":22974:23039   */\n      tag_568\n        /* \"#utility.yul\":23032:23038   */\n      dup2\n        /* \"#utility.yul\":23024:23030   */\n      dup5\n        /* \"#utility.yul\":23018:23022   */\n      dup5\n        /* \"#utility.yul\":22974:23039   */\n      tag_331\n      jump\t// in\n    tag_568:\n        /* \"#utility.yul\":22909:23045   */\n      pop\n        /* \"#utility.yul\":22856:23045   */\n      pop\n      pop\n      jump\t// out\n        /* \"#utility.yul\":23051:23237   */\n    tag_334:\n        /* \"#utility.yul\":23111:23231   */\n    tag_570:\n        /* \"#utility.yul\":23128:23131   */\n      dup2\n        /* \"#utility.yul\":23121:23126   */\n      dup2\n        /* \"#utility.yul\":23118:23132   */\n      lt\n        /* \"#utility.yul\":23111:23231   */\n      iszero\n      tag_572\n      jumpi\n        /* \"#utility.yul\":23182:23221   */\n      tag_573\n        /* \"#utility.yul\":23219:23220   */\n      0x00\n        /* \"#utility.yul\":23212:23217   */\n      dup3\n        /* \"#utility.yul\":23182:23221   */\n      tag_333\n      jump\t// in\n    tag_573:\n        /* \"#utility.yul\":23155:23156   */\n      0x01\n        /* \"#utility.yul\":23148:23153   */\n      dup2\n        /* \"#utility.yul\":23144:23157   */\n      add\n        /* \"#utility.yul\":23135:23157   */\n      swap1\n      pop\n        /* \"#utility.yul\":23111:23231   */\n      jump(tag_570)\n    tag_572:\n        /* \"#utility.yul\":23051:23237   */\n      pop\n      pop\n      jump\t// out\n        /* \"#utility.yul\":23243:23786   */\n    tag_335:\n        /* \"#utility.yul\":23344:23346   */\n      0x1f\n        /* \"#utility.yul\":23339:23342   */\n      dup3\n        /* \"#utility.yul\":23336:23347   */\n      gt\n        /* \"#utility.yul\":23333:23779   */\n      iszero\n      tag_575\n      jumpi\n        /* \"#utility.yul\":23378:23416   */\n      tag_576\n        /* \"#utility.yul\":23410:23415   */\n      dup2\n        /* \"#utility.yul\":23378:23416   */\n      tag_324\n      jump\t// in\n    tag_576:\n        /* \"#utility.yul\":23462:23491   */\n      tag_577\n        /* \"#utility.yul\":23480:23490   */\n      dup5\n        /* \"#utility.yul\":23462:23491   */\n      tag_325\n      jump\t// in\n    tag_577:\n        /* \"#utility.yul\":23452:23460   */\n      dup2\n        /* \"#utility.yul\":23448:23492   */\n      add\n        /* \"#utility.yul\":23645:23647   */\n      0x20\n        /* \"#utility.yul\":23633:23643   */\n      dup6\n        /* \"#utility.yul\":23630:23648   */\n      lt\n        /* \"#utility.yul\":23627:23676   */\n      iszero\n      tag_578\n      jumpi\n        /* \"#utility.yul\":23666:23674   */\n      dup2\n        /* \"#utility.yul\":23651:23674   */\n      swap1\n      pop\n        /* \"#utility.yul\":23627:23676   */\n    tag_578:\n        /* \"#utility.yul\":23689:23769   */\n      tag_579\n        /* \"#utility.yul\":23745:23767   */\n      tag_580\n        /* \"#utility.yul\":23763:23766   */\n      dup6\n        /* \"#utility.yul\":23745:23767   */\n      tag_325\n      jump\t// in\n    tag_580:\n        /* \"#utility.yul\":23735:23743   */\n      dup4\n        /* \"#utility.yul\":23731:23768   */\n      add\n        /* \"#utility.yul\":23718:23729   */\n      dup3\n        /* \"#utility.yul\":23689:23769   */\n      tag_334\n      jump\t// in\n    tag_579:\n        /* \"#utility.yul\":23348:23779   */\n      pop\n      pop\n        /* \"#utility.yul\":23333:23779   */\n    tag_575:\n        /* \"#utility.yul\":23243:23786   */\n      pop\n      pop\n      pop\n      jump\t// out\n        /* \"#utility.yul\":23792:23909   */\n    tag_336:\n        /* \"#utility.yul\":23846:23854   */\n      0x00\n        /* \"#utility.yul\":23896:23901   */\n      dup3\n        /* \"#utility.yul\":23890:23894   */\n      dup3\n        /* \"#utility.yul\":23886:23902   */\n      shr\n        /* \"#utility.yul\":23865:23902   */\n      swap1\n      pop\n        /* \"#utility.yul\":23792:23909   */\n      swap3\n      swap2\n      pop\n      pop\n      jump\t// out\n        /* \"#utility.yul\":23915:24084   */\n    tag_337:\n        /* \"#utility.yul\":23959:23965   */\n      0x00\n        /* \"#utility.yul\":23992:24043   */\n      tag_583\n        /* \"#utility.yul\":24040:24041   */\n      0x00\n        /* \"#utility.yul\":24036:24042   */\n      not\n        /* \"#utility.yul\":24028:24033   */\n      dup5\n        /* \"#utility.yul\":24025:24026   */\n      0x08\n        /* \"#utility.yul\":24021:24034   */\n      mul\n        /* \"#utility.yul\":23992:24043   */\n      tag_336\n      jump\t// in\n    tag_583:\n        /* \"#utility.yul\":23988:24044   */\n      not\n        /* \"#utility.yul\":24073:24077   */\n      dup1\n        /* \"#utility.yul\":24067:24071   */\n      dup4\n        /* \"#utility.yul\":24063:24078   */\n      and\n        /* \"#utility.yul\":24053:24078   */\n      swap2\n      pop\n        /* \"#utility.yul\":23966:24084   */\n      pop\n        /* \"#utility.yul\":23915:24084   */\n      swap3\n      swap2\n      pop\n      pop\n      jump\t// out\n        /* \"#utility.yul\":24089:24384   */\n    tag_338:\n        /* \"#utility.yul\":24165:24169   */\n      0x00\n        /* \"#utility.yul\":24311:24340   */\n      tag_585\n        /* \"#utility.yul\":24336:24339   */\n      dup4\n        /* \"#utility.yul\":24330:24334   */\n      dup4\n        /* \"#utility.yul\":24311:24340   */\n      tag_337\n      jump\t// in\n    tag_585:\n        /* \"#utility.yul\":24303:24340   */\n      swap2\n      pop\n        /* \"#utility.yul\":24373:24376   */\n      dup3\n        /* \"#utility.yul\":24370:24371   */\n      0x02\n        /* \"#utility.yul\":24366:24377   */\n      mul\n        /* \"#utility.yul\":24360:24364   */\n      dup3\n        /* \"#utility.yul\":24357:24378   */\n      or\n        /* \"#utility.yul\":24349:24378   */\n      swap1\n      pop\n        /* \"#utility.yul\":24089:24384   */\n      swap3\n      swap2\n      pop\n      pop\n      jump\t// out\n        /* \"#utility.yul\":24389:25784   */\n    tag_146:\n        /* \"#utility.yul\":24506:24543   */\n      tag_587\n        /* \"#utility.yul\":24539:24542   */\n      dup3\n        /* \"#utility.yul\":24506:24543   */\n      tag_280\n      jump\t// in\n    tag_587:\n        /* \"#utility.yul\":24608:24626   */\n      0xffffffffffffffff\n        /* \"#utility.yul\":24600:24606   */\n      dup2\n        /* \"#utility.yul\":24597:24627   */\n      gt\n        /* \"#utility.yul\":24594:24650   */\n      iszero\n      tag_588\n      jumpi\n        /* \"#utility.yul\":24630:24648   */\n      tag_589\n      tag_300\n      jump\t// in\n    tag_589:\n        /* \"#utility.yul\":24594:24650   */\n    tag_588:\n        /* \"#utility.yul\":24674:24712   */\n      tag_590\n        /* \"#utility.yul\":24706:24710   */\n      dup3\n        /* \"#utility.yul\":24700:24711   */\n      sload\n        /* \"#utility.yul\":24674:24712   */\n      tag_107\n      jump\t// in\n    tag_590:\n        /* \"#utility.yul\":24759:24826   */\n      tag_591\n        /* \"#utility.yul\":24819:24825   */\n      dup3\n        /* \"#utility.yul\":24811:24817   */\n      dup3\n        /* \"#utility.yul\":24805:24809   */\n      dup6\n        /* \"#utility.yul\":24759:24826   */\n      tag_335\n      jump\t// in\n    tag_591:\n        /* \"#utility.yul\":24853:24854   */\n      0x00\n        /* \"#utility.yul\":24877:24881   */\n      0x20\n        /* \"#utility.yul\":24864:24881   */\n      swap1\n      pop\n        /* \"#utility.yul\":24909:24911   */\n      0x1f\n        /* \"#utility.yul\":24901:24907   */\n      dup4\n        /* \"#utility.yul\":24898:24912   */\n      gt\n        /* \"#utility.yul\":24926:24927   */\n      0x01\n        /* \"#utility.yul\":24921:25539   */\n      dup2\n      eq\n      tag_593\n      jumpi\n        /* \"#utility.yul\":25583:25584   */\n      0x00\n        /* \"#utility.yul\":25600:25606   */\n      dup5\n        /* \"#utility.yul\":25597:25674   */\n      iszero\n      tag_594\n      jumpi\n        /* \"#utility.yul\":25649:25658   */\n      dup3\n        /* \"#utility.yul\":25644:25647   */\n      dup8\n        /* \"#utility.yul\":25640:25659   */\n      add\n        /* \"#utility.yul\":25634:25660   */\n      mload\n        /* \"#utility.yul\":25625:25660   */\n      swap1\n      pop\n        /* \"#utility.yul\":25597:25674   */\n    tag_594:\n        /* \"#utility.yul\":25700:25767   */\n      tag_595\n        /* \"#utility.yul\":25760:25766   */\n      dup6\n        /* \"#utility.yul\":25753:25758   */\n      dup3\n        /* \"#utility.yul\":25700:25767   */\n      tag_338\n      jump\t// in\n    tag_595:\n        /* \"#utility.yul\":25694:25698   */\n      dup7\n        /* \"#utility.yul\":25687:25768   */\n      sstore\n        /* \"#utility.yul\":25556:25778   */\n      pop\n        /* \"#utility.yul\":24891:25778   */\n      jump(tag_592)\n        /* \"#utility.yul\":24921:25539   */\n    tag_593:\n        /* \"#utility.yul\":24973:24977   */\n      0x1f\n        /* \"#utility.yul\":24969:24978   */\n      not\n        /* \"#utility.yul\":24961:24967   */\n      dup5\n        /* \"#utility.yul\":24957:24979   */\n      and\n        /* \"#utility.yul\":25007:25044   */\n      tag_596\n        /* \"#utility.yul\":25039:25043   */\n      dup7\n        /* \"#utility.yul\":25007:25044   */\n      tag_324\n      jump\t// in\n    tag_596:\n        /* \"#utility.yul\":25066:25067   */\n      0x00\n        /* \"#utility.yul\":25080:25288   */\n    tag_597:\n        /* \"#utility.yul\":25094:25101   */\n      dup3\n        /* \"#utility.yul\":25091:25092   */\n      dup2\n        /* \"#utility.yul\":25088:25102   */\n      lt\n        /* \"#utility.yul\":25080:25288   */\n      iszero\n      tag_599\n      jumpi\n        /* \"#utility.yul\":25173:25182   */\n      dup5\n        /* \"#utility.yul\":25168:25171   */\n      dup10\n        /* \"#utility.yul\":25164:25183   */\n      add\n        /* \"#utility.yul\":25158:25184   */\n      mload\n        /* \"#utility.yul\":25150:25156   */\n      dup3\n        /* \"#utility.yul\":25143:25185   */\n      sstore\n        /* \"#utility.yul\":25224:25225   */\n      0x01\n        /* \"#utility.yul\":25216:25222   */\n      dup3\n        /* \"#utility.yul\":25212:25226   */\n      add\n        /* \"#utility.yul\":25202:25226   */\n      swap2\n      pop\n        /* \"#utility.yul\":25271:25273   */\n      0x20\n        /* \"#utility.yul\":25260:25269   */\n      dup6\n        /* \"#utility.yul\":25256:25274   */\n      add\n        /* \"#utility.yul\":25243:25274   */\n      swap5\n      pop\n        /* \"#utility.yul\":25117:25121   */\n      0x20\n        /* \"#utility.yul\":25114:25115   */\n      dup2\n        /* \"#utility.yul\":25110:25122   */\n      add\n        /* \"#utility.yul\":25105:25122   */\n      swap1\n      pop\n        /* \"#utility.yul\":25080:25288   */\n      jump(tag_597)\n    tag_599:\n        /* \"#utility.yul\":25316:25322   */\n      dup7\n        /* \"#utility.yul\":25307:25314   */\n      dup4\n        /* \"#utility.yul\":25304:25323   */\n      lt\n        /* \"#utility.yul\":25301:25480   */\n      iszero\n      tag_600\n      jumpi\n        /* \"#utility.yul\":25374:25383   */\n      dup5\n        /* \"#utility.yul\":25369:25372   */\n      dup10\n        /* \"#utility.yul\":25365:25384   */\n      add\n        /* \"#utility.yul\":25359:25385   */\n      mload\n        /* \"#utility.yul\":25417:25465   */\n      tag_601\n        /* \"#utility.yul\":25459:25463   */\n      0x1f\n        /* \"#utility.yul\":25451:25457   */\n      dup10\n        /* \"#utility.yul\":25447:25464   */\n      and\n        /* \"#utility.yul\":25436:25445   */\n      dup3\n        /* \"#utility.yul\":25417:25465   */\n      tag_337\n      jump\t// in\n    tag_601:\n        /* \"#utility.yul\":25409:25415   */\n      dup4\n        /* \"#utility.yul\":25402:25466   */\n      sstore\n        /* \"#utility.yul\":25324:25480   */\n      pop\n        /* \"#utility.yul\":25301:25480   */\n    tag_600:\n        /* \"#utility.yul\":25526:25527   */\n      0x01\n        /* \"#utility.yul\":25522:25523   */\n      0x02\n        /* \"#utility.yul\":25514:25520   */\n      dup9\n        /* \"#utility.yul\":25510:25524   */\n      mul\n        /* \"#utility.yul\":25506:25528   */\n      add\n        /* \"#utility.yul\":25500:25504   */\n      dup9\n        /* \"#utility.yul\":25493:25529   */\n      sstore\n        /* \"#utility.yul\":24928:25539   */\n      pop\n      pop\n      pop\n        /* \"#utility.yul\":24891:25778   */\n    tag_592:\n      pop\n        /* \"#utility.yul\":24481:25784   */\n      pop\n      pop\n      pop\n        /* \"#utility.yul\":24389:25784   */\n      pop\n      pop\n      jump\t// out\n        /* \"#utility.yul\":25790:25950   */\n    tag_339:\n        /* \"#utility.yul\":25930:25942   */\n      0x41646d696e206f6e6c7900000000000000000000000000000000000000000000\n        /* \"#utility.yul\":25926:25927   */\n      0x00\n        /* \"#utility.yul\":25918:25924   */\n      dup3\n        /* \"#utility.yul\":25914:25928   */\n      add\n        /* \"#utility.yul\":25907:25943   */\n      mstore\n        /* \"#utility.yul\":25790:25950   */\n      pop\n      jump\t// out\n        /* \"#utility.yul\":25956:26322   */\n    tag_340:\n        /* \"#utility.yul\":26098:26101   */\n      0x00\n        /* \"#utility.yul\":26119:26186   */\n      tag_604\n        /* \"#utility.yul\":26183:26185   */\n      0x0a\n        /* \"#utility.yul\":26178:26181   */\n      dup4\n        /* \"#utility.yul\":26119:26186   */\n      tag_294\n      jump\t// in\n    tag_604:\n        /* \"#utility.yul\":26112:26186   */\n      swap2\n      pop\n        /* \"#utility.yul\":26195:26288   */\n      tag_605\n        /* \"#utility.yul\":26284:26287   */\n      dup3\n        /* \"#utility.yul\":26195:26288   */\n      tag_339\n      jump\t// in\n    tag_605:\n        /* \"#utility.yul\":26313:26315   */\n      0x20\n        /* \"#utility.yul\":26308:26311   */\n      dup3\n        /* \"#utility.yul\":26304:26316   */\n      add\n        /* \"#utility.yul\":26297:26316   */\n      swap1\n      pop\n        /* \"#utility.yul\":25956:26322   */\n      swap2\n      swap1\n      pop\n      jump\t// out\n        /* \"#utility.yul\":26328:26747   */\n    tag_185:\n        /* \"#utility.yul\":26494:26498   */\n      0x00\n        /* \"#utility.yul\":26532:26534   */\n      0x20\n        /* \"#utility.yul\":26521:26530   */\n      dup3\n        /* \"#utility.yul\":26517:26535   */\n      add\n        /* \"#utility.yul\":26509:26535   */\n      swap1\n      pop\n        /* \"#utility.yul\":26581:26590   */\n      dup2\n        /* \"#utility.yul\":26575:26579   */\n      dup2\n        /* \"#utility.yul\":26571:26591   */\n      sub\n        /* \"#utility.yul\":26567:26568   */\n      0x00\n        /* \"#utility.yul\":26556:26565   */\n      dup4\n        /* \"#utility.yul\":26552:26569   */\n      add\n        /* \"#utility.yul\":26545:26592   */\n      mstore\n        /* \"#utility.yul\":26609:26740   */\n      tag_607\n        /* \"#utility.yul\":26735:26739   */\n      dup2\n        /* \"#utility.yul\":26609:26740   */\n      tag_340\n      jump\t// in\n    tag_607:\n        /* \"#utility.yul\":26601:26740   */\n      swap1\n      pop\n        /* \"#utility.yul\":26328:26747   */\n      swap2\n      swap1\n      pop\n      jump\t// out\n        /* \"#utility.yul\":26753:26974   */\n    tag_341:\n        /* \"#utility.yul\":26893:26927   */\n      0x596f7520617265206e6f7420656c696769626c6520666f72207468697320726f\n        /* \"#utility.yul\":26889:26890   */\n      0x00\n        /* \"#utility.yul\":26881:26887   */\n      dup3\n        /* \"#utility.yul\":26877:26891   */\n      add\n        /* \"#utility.yul\":26870:26928   */\n      mstore\n        /* \"#utility.yul\":26962:26966   */\n      0x6c65000000000000000000000000000000000000000000000000000000000000\n        /* \"#utility.yul\":26957:26959   */\n      0x20\n        /* \"#utility.yul\":26949:26955   */\n      dup3\n        /* \"#utility.yul\":26945:26960   */\n      add\n        /* \"#utility.yul\":26938:26967   */\n      mstore\n        /* \"#utility.yul\":26753:26974   */\n      pop\n      jump\t// out\n        /* \"#utility.yul\":26980:27346   */\n    tag_342:\n        /* \"#utility.yul\":27122:27125   */\n      0x00\n        /* \"#utility.yul\":27143:27210   */\n      tag_610\n        /* \"#utility.yul\":27207:27209   */\n      0x22\n        /* \"#utility.yul\":27202:27205   */\n      dup4\n        /* \"#utility.yul\":27143:27210   */\n      tag_294\n      jump\t// in\n    tag_610:\n        /* \"#utility.yul\":27136:27210   */\n      swap2\n      pop\n        /* \"#utility.yul\":27219:27312   */\n      tag_611\n        /* \"#utility.yul\":27308:27311   */\n      dup3\n        /* \"#utility.yul\":27219:27312   */\n      tag_341\n      jump\t// in\n    tag_611:\n        /* \"#utility.yul\":27337:27339   */\n      0x40\n        /* \"#utility.yul\":27332:27335   */\n      dup3\n        /* \"#utility.yul\":27328:27340   */\n      add\n        /* \"#utility.yul\":27321:27340   */\n      swap1\n      pop\n        /* \"#utility.yul\":26980:27346   */\n      swap2\n      swap1\n      pop\n      jump\t// out\n        /* \"#utility.yul\":27352:27771   */\n    tag_189:\n        /* \"#utility.yul\":27518:27522   */\n      0x00\n        /* \"#utility.yul\":27556:27558   */\n      0x20\n        /* \"#utility.yul\":27545:27554   */\n      dup3\n        /* \"#utility.yul\":27541:27559   */\n      add\n        /* \"#utility.yul\":27533:27559   */\n      swap1\n      pop\n        /* \"#utility.yul\":27605:27614   */\n      dup2\n        /* \"#utility.yul\":27599:27603   */\n      dup2\n        /* \"#utility.yul\":27595:27615   */\n      sub\n        /* \"#utility.yul\":27591:27592   */\n      0x00\n        /* \"#utility.yul\":27580:27589   */\n      dup4\n        /* \"#utility.yul\":27576:27593   */\n      add\n        /* \"#utility.yul\":27569:27616   */\n      mstore\n        /* \"#utility.yul\":27633:27764   */\n      tag_613\n        /* \"#utility.yul\":27759:27763   */\n      dup2\n        /* \"#utility.yul\":27633:27764   */\n      tag_342\n      jump\t// in\n    tag_613:\n        /* \"#utility.yul\":27625:27764   */\n      swap1\n      pop\n        /* \"#utility.yul\":27352:27771   */\n      swap2\n      swap1\n      pop\n      jump\t// out\n        /* \"#utility.yul\":27777:27958   */\n    tag_343:\n        /* \"#utility.yul\":27917:27950   */\n      0x526f6c65733a206163636f756e7420616c72656164792068617320726f6c6500\n        /* \"#utility.yul\":27913:27914   */\n      0x00\n        /* \"#utility.yul\":27905:27911   */\n      dup3\n        /* \"#utility.yul\":27901:27915   */\n      add\n        /* \"#utility.yul\":27894:27951   */\n      mstore\n        /* \"#utility.yul\":27777:27958   */\n      pop\n      jump\t// out\n        /* \"#utility.yul\":27964:28330   */\n    tag_344:\n        /* \"#utility.yul\":28106:28109   */\n      0x00\n        /* \"#utility.yul\":28127:28194   */\n      tag_616\n        /* \"#utility.yul\":28191:28193   */\n      0x1f\n        /* \"#utility.yul\":28186:28189   */\n      dup4\n        /* \"#utility.yul\":28127:28194   */\n      tag_294\n      jump\t// in\n    tag_616:\n        /* \"#utility.yul\":28120:28194   */\n      swap2\n      pop\n        /* \"#utility.yul\":28203:28296   */\n      tag_617\n        /* \"#utility.yul\":28292:28295   */\n      dup3\n        /* \"#utility.yul\":28203:28296   */\n      tag_343\n      jump\t// in\n    tag_617:\n        /* \"#utility.yul\":28321:28323   */\n      0x20\n        /* \"#utility.yul\":28316:28319   */\n      dup3\n        /* \"#utility.yul\":28312:28324   */\n      add\n        /* \"#utility.yul\":28305:28324   */\n      swap1\n      pop\n        /* \"#utility.yul\":27964:28330   */\n      swap2\n      swap1\n      pop\n      jump\t// out\n        /* \"#utility.yul\":28336:28755   */\n    tag_256:\n        /* \"#utility.yul\":28502:28506   */\n      0x00\n        /* \"#utility.yul\":28540:28542   */\n      0x20\n        /* \"#utility.yul\":28529:28538   */\n      dup3\n        /* \"#utility.yul\":28525:28543   */\n      add\n        /* \"#utility.yul\":28517:28543   */\n      swap1\n      pop\n        /* \"#utility.yul\":28589:28598   */\n      dup2\n        /* \"#utility.yul\":28583:28587   */\n      dup2\n        /* \"#utility.yul\":28579:28599   */\n      sub\n        /* \"#utility.yul\":28575:28576   */\n      0x00\n        /* \"#utility.yul\":28564:28573   */\n      dup4\n        /* \"#utility.yul\":28560:28577   */\n      add\n        /* \"#utility.yul\":28553:28600   */\n      mstore\n        /* \"#utility.yul\":28617:28748   */\n      tag_619\n        /* \"#utility.yul\":28743:28747   */\n      dup2\n        /* \"#utility.yul\":28617:28748   */\n      tag_344\n      jump\t// in\n    tag_619:\n        /* \"#utility.yul\":28609:28748   */\n      swap1\n      pop\n        /* \"#utility.yul\":28336:28755   */\n      swap2\n      swap1\n      pop\n      jump\t// out\n\n    auxdata: 0xa26469706673582212205584f649003e9743d8edda12c5a25ea27436b21b7d91374cbe2f266d5e23115064736f6c634300080f0033\n}\n","bytecode":{"linkReferences":{},"object":"60806040523480156200001157600080fd5b5033600a60006101000a81548173ffffffffffffffffffffffffffffffffffffffff021916908373ffffffffffffffffffffffffffffffffffffffff16021790555062000090600a60009054906101000a900473ffffffffffffffffffffffffffffffffffffffff1660006200009660201b620019de1790919060201c565b62000225565b620000a882826200014960201b60201c565b15620000eb576040517f08c379a0000000000000000000000000000000000000000000000000000000008152600401620000e29062000203565b60405180910390fd5b60018260000160008373ffffffffffffffffffffffffffffffffffffffff1673ffffffffffffffffffffffffffffffffffffffff16815260200190815260200160002060006101000a81548160ff0219169083151502179055505050565b60008260000160008373ffffffffffffffffffffffffffffffffffffffff1673ffffffffffffffffffffffffffffffffffffffff16815260200190815260200160002060009054906101000a900460ff16905092915050565b600082825260208201905092915050565b7f526f6c65733a206163636f756e7420616c72656164792068617320726f6c6500600082015250565b6000620001eb601f83620001a2565b9150620001f882620001b3565b602082019050919050565b600060208201905081810360008301526200021e81620001dc565b9050919050565b612b7780620002356000396000f3fe608060405234801561001057600080fd5b506004361061010b5760003560e01c8063400d288f116100a2578063996440c611610071578063996440c6146102f0578063a71aefc914610320578063b105e22e1461033e578063babb1d411461036e578063f851a4401461039e5761010b565b8063400d288f1461024457806358214308146102745780638f9c79ed146102a45780639429e171146102d45761010b565b80632f04e064116100de5780632f04e064146101bf57806334b3e4f1146101f057806334b789981461020c57806337b16b50146102285761010b565b80630c38872214610110578063127ca4b41461014057806319da83a8146101705780631f21a79d146101a3575b600080fd5b61012a60048036038101906101259190611cef565b6103bc565b6040516101379190611f31565b60405180910390f35b61015a60048036038101906101559190611cef565b610614565b6040516101679190611f62565b60405180910390f35b61018a60048036038101906101859190611cef565b610653565b60405161019a9493929190611fd6565b60405180910390f35b6101bd60048036038101906101b89190612183565b61075b565b005b6101d960048036038101906101d491906121df565b610b6c565b6040516101e792919061220c565b60405180910390f35b61020a60048036038101906102059190612243565b610d57565b005b610226600480360381019061022191906122e2565b611074565b005b610242600480360381019061023d91906122e2565b611274565b005b61025e600480360381019061025991906121df565b611474565b60405161026b9190612388565b60405180910390f35b61028e600480360381019061028991906121df565b611565565b60405161029b91906123a3565b60405180910390f35b6102be60048036038101906102b991906121df565b61164f565b6040516102cb9190612388565b60405180910390f35b6102ee60048036038101906102e991906123be565b61166c565b005b61030a600480360381019061030591906121df565b611748565b6040516103179190612388565b60405180910390f35b610328611765565b60405161033591906124ad565b60405180910390f35b610358600480360381019061035391906121df565b6117f3565b604051610365919061253e565b60405180910390f35b61038860048036038101906103839190611cef565b611979565b6040516103959190611f62565b60405180910390f35b6103a66119b8565b6040516103b39190611f62565b60405180910390f35b6103c4611b35565b6000600783815481106103da576103d9612560565b5b90600052602060002090600502016040518060a0016040529081600082015481526020016001820160009054906101000a900473ffffffffffffffffffffffffffffffffffffffff1673ffffffffffffffffffffffffffffffffffffffff1673ffffffffffffffffffffffffffffffffffffffff1681526020016002820160009054906101000a900473ffffffffffffffffffffffffffffffffffffffff1673ffffffffffffffffffffffffffffffffffffffff1673ffffffffffffffffffffffffffffffffffffffff1681526020016003820180546104b9906125be565b80601f01602080910402602001604051908101604052809291908181526020018280546104e5906125be565b80156105325780601f1061050757610100808354040283529160200191610532565b820191906000526020600020905b81548152906001019060200180831161051557829003601f168201915b505050505081526020016004820180548060200260200160405190810160405280929190818152602001828054801561058a57602002820191906000526020600020905b815481526020019060010190808311610576575b50505050508152505090503373ffffffffffffffffffffffffffffffffffffffff16816040015173ffffffffffffffffffffffffffffffffffffffff16148061060257503373ffffffffffffffffffffffffffffffffffffffff16816020015173ffffffffffffffffffffffffffffffffffffffff16145b61060b57600080fd5b80915050919050565b6008818154811061062457600080fd5b906000526020600020016000915054906101000a900473ffffffffffffffffffffffffffffffffffffffff1681565b6007818154811061066357600080fd5b90600052602060002090600502016000915090508060000154908060010160009054906101000a900473ffffffffffffffffffffffffffffffffffffffff16908060020160009054906101000a900473ffffffffffffffffffffffffffffffffffffffff16908060030180546106d8906125be565b80601f0160208091040260200160405190810160405280929190818152602001828054610704906125be565b80156107515780601f1061072657610100808354040283529160200191610751565b820191906000526020600020905b81548152906001019060200180831161073457829003601f168201915b5050505050905084565b60011515610773336001611a8690919063ffffffff16565b1515146107b5576040517f08c379a00000000000000000000000000000000000000000000000000000000081526004016107ac9061263b565b60405180910390fd5b813373ffffffffffffffffffffffffffffffffffffffff16600560008373ffffffffffffffffffffffffffffffffffffffff1673ffffffffffffffffffffffffffffffffffffffff16815260200190815260200160002060009054906101000a900473ffffffffffffffffffffffffffffffffffffffff1673ffffffffffffffffffffffffffffffffffffffff1614610883576040517f08c379a000000000000000000000000000000000000000000000000000000000815260040161087a906126cd565b60405180910390fd5b610897336000611a8690919063ffffffff16565b156108d7576040517f08c379a00000000000000000000000000000000000000000000000000000000081526004016108ce90612739565b60405180910390fd5b6108df611b35565b60078054905081600001818152505033816020019073ffffffffffffffffffffffffffffffffffffffff16908173ffffffffffffffffffffffffffffffffffffffff168152505083816040019073ffffffffffffffffffffffffffffffffffffffff16908173ffffffffffffffffffffffffffffffffffffffff16815250508281606001819052506000600360003373ffffffffffffffffffffffffffffffffffffffff1673ffffffffffffffffffffffffffffffffffffffff16815260200190815260200160002090506000600460008773ffffffffffffffffffffffffffffffffffffffff1673ffffffffffffffffffffffffffffffffffffffff168152602001908152602001600020905081600201836000015190806001815401808255809150506001900390600052602060002001600090919091909150558160020180549050826003018190555080600201836000015190806001815401808255809150506001900390600052602060002001600090919091909150558060020180549050816003018190555060078390806001815401808255809150506001900390600052602060002090600502016000909190919091506000820151816000015560208201518160010160006101000a81548173ffffffffffffffffffffffffffffffffffffffff021916908373ffffffffffffffffffffffffffffffffffffffff16021790555060408201518160020160006101000a81548173ffffffffffffffffffffffffffffffffffffffff021916908373ffffffffffffffffffffffffffffffffffffffff1602179055506060820151816003019081610b449190612905565b506080820151816004019080519060200190610b61929190611b90565b505050505050505050565b6060806000600360008573ffffffffffffffffffffffffffffffffffffffff1673ffffffffffffffffffffffffffffffffffffffff168152602001908152602001600020604051806080016040529081600082018054610bcb906125be565b80601f0160208091040260200160405190810160405280929190818152602001828054610bf7906125be565b8015610c445780601f10610c1957610100808354040283529160200191610c44565b820191906000526020600020905b815481529060010190602001808311610c2757829003601f168201915b50505050508152602001600182018054610c5d906125be565b80601f0160208091040260200160405190810160405280929190818152602001828054610c89906125be565b8015610cd65780601f10610cab57610100808354040283529160200191610cd6565b820191906000526020600020905b815481529060010190602001808311610cb957829003601f168201915b5050505050815260200160028201805480602002602001604051908101604052809291908181526020018280548015610d2e57602002820191906000526020600020905b815481526020019060010190808311610d1a575b505050505081526020016003820154815250509050806000015181602001519250925050915091565b60011515610d6f336001611a8690919063ffffffff16565b151514610db1576040517f08c379a0000000000000000000000000000000000000000000000000000000008152600401610da89061263b565b60405180910390fd5b833373ffffffffffffffffffffffffffffffffffffffff16600560008373ffffffffffffffffffffffffffffffffffffffff1673ffffffffffffffffffffffffffffffffffffffff16815260200190815260200160002060009054906101000a900473ffffffffffffffffffffffffffffffffffffffff1673ffffffffffffffffffffffffffffffffffffffff1614610e7f576040517f08c379a0000000000000000000000000000000000000000000000000000000008152600401610e76906126cd565b60405180910390fd5b610e93336000611a8690919063ffffffff16565b15610ed3576040517f08c379a0000000000000000000000000000000000000000000000000000000008152600401610eca90612739565b60405180910390fd5b610edb611bdd565b60068054905081600001818152505085816020019073ffffffffffffffffffffffffffffffffffffffff16908173ffffffffffffffffffffffffffffffffffffffff168152505033816040019073ffffffffffffffffffffffffffffffffffffffff16908173ffffffffffffffffffffffffffffffffffffffff168152505084816060018190525083816080018190525060068190806001815401808255809150506001900390600052602060002090600502016000909190919091506000820151816000015560208201518160010160006101000a81548173ffffffffffffffffffffffffffffffffffffffff021916908373ffffffffffffffffffffffffffffffffffffffff16021790555060408201518160020160006101000a81548173ffffffffffffffffffffffffffffffffffffffff021916908373ffffffffffffffffffffffffffffffffffffffff16021790555060608201518160030190816110459190612905565b50608082015181600401908161105b9190612905565b50505061106c838260000151611adf565b505050505050565b6001151561108c336000611a8690919063ffffffff16565b1515146110ce576040517f08c379a00000000000000000000000000000000000000000000000000000000081526004016110c590612a23565b60405180910390fd5b3373ffffffffffffffffffffffffffffffffffffffff168373ffffffffffffffffffffffffffffffffffffffff160361113c576040517f08c379a000000000000000000000000000000000000000000000000000000000815260040161113390612ab5565b60405180910390fd5b6111508360016119de90919063ffffffff16565b611158611c38565b82816000018190525081816020018190525060008160600181815250506008849080600181540180825580915050600190039060005260206000200160009091909190916101000a81548173ffffffffffffffffffffffffffffffffffffffff021916908373ffffffffffffffffffffffffffffffffffffffff16021790555080600360008673ffffffffffffffffffffffffffffffffffffffff1673ffffffffffffffffffffffffffffffffffffffff168152602001908152602001600020600082015181600001908161122d9190612905565b5060208201518160010190816112439190612905565b506040820151816002019080519060200190611260929190611b90565b506060820151816003015590505050505050565b6001151561128c336000611a8690919063ffffffff16565b1515146112ce576040517f08c379a00000000000000000000000000000000000000000000000000000000081526004016112c590612a23565b60405180910390fd5b3373ffffffffffffffffffffffffffffffffffffffff168373ffffffffffffffffffffffffffffffffffffffff160361133c576040517f08c379a000000000000000000000000000000000000000000000000000000000815260040161133390612ab5565b60405180910390fd5b6113508360026119de90919063ffffffff16565b611358611c60565b828160000181905250818160200181905250600081606001818152505080600460008673ffffffffffffffffffffffffffffffffffffffff1673ffffffffffffffffffffffffffffffffffffffff16815260200190815260200160002060008201518160000190816113ca9190612905565b5060208201518160010190816113e09190612905565b5060408201518160020190805190602001906113fd929190611b90565b50606082015181600301559050506009849080600181540180825580915050600190039060005260206000200160009091909190916101000a81548173ffffffffffffffffffffffffffffffffffffffff021916908373ffffffffffffffffffffffffffffffffffffffff16021790555050505050565b60006001151561148e336001611a8690919063ffffffff16565b1515146114d0576040517f08c379a00000000000000000000000000000000000000000000000000000000081526004016114c79061263b565b60405180910390fd5b3373ffffffffffffffffffffffffffffffffffffffff16600560008473ffffffffffffffffffffffffffffffffffffffff1673ffffffffffffffffffffffffffffffffffffffff16815260200190815260200160002060009054906101000a900473ffffffffffffffffffffffffffffffffffffffff1673ffffffffffffffffffffffffffffffffffffffff16149050919050565b60008161157c816001611a8690919063ffffffff16565b806115975750611596816002611a8690919063ffffffff16565b5b6115a057600080fd5b6115b4336001611a8690919063ffffffff16565b1561160357600360003373ffffffffffffffffffffffffffffffffffffffff1673ffffffffffffffffffffffffffffffffffffffff168152602001908152602001600020600301549150611649565b600460003373ffffffffffffffffffffffffffffffffffffffff1673ffffffffffffffffffffffffffffffffffffffff1681526020019081526020016000206003015491505b50919050565b6000611665826002611a8690919063ffffffff16565b9050919050565b60011515611684336000611a8690919063ffffffff16565b1515146116c6576040517f08c379a00000000000000000000000000000000000000000000000000000000081526004016116bd90612a23565b60405180910390fd5b80600560008473ffffffffffffffffffffffffffffffffffffffff1673ffffffffffffffffffffffffffffffffffffffff16815260200190815260200160002060006101000a81548173ffffffffffffffffffffffffffffffffffffffff021916908373ffffffffffffffffffffffffffffffffffffffff1602179055505050565b600061175e826001611a8690919063ffffffff16565b9050919050565b606060088054806020026020016040519081016040528092919081815260200182805480156117e957602002820191906000526020600020905b8160009054906101000a900473ffffffffffffffffffffffffffffffffffffffff1673ffffffffffffffffffffffffffffffffffffffff168152602001906001019080831161179f575b5050505050905090565b60608161180a816001611a8690919063ffffffff16565b806118255750611824816002611a8690919063ffffffff16565b5b61182e57600080fd5b611842336001611a8690919063ffffffff16565b156118df57600360003373ffffffffffffffffffffffffffffffffffffffff1673ffffffffffffffffffffffffffffffffffffffff1681526020019081526020016000206002018054806020026020016040519081016040528092919081815260200182805480156118d357602002820191906000526020600020905b8154815260200190600101908083116118bf575b50505050509150611973565b600460003373ffffffffffffffffffffffffffffffffffffffff1673ffffffffffffffffffffffffffffffffffffffff16815260200190815260200160002060020180548060200260200160405190810160405280929190818152602001828054801561196b57602002820191906000526020600020905b815481526020019060010190808311611957575b505050505091505b50919050565b6009818154811061198957600080fd5b906000526020600020016000915054906101000a900473ffffffffffffffffffffffffffffffffffffffff1681565b600a60009054906101000a900473ffffffffffffffffffffffffffffffffffffffff1681565b6119e88282611a86565b15611a28576040517f08c379a0000000000000000000000000000000000000000000000000000000008152600401611a1f90612b21565b60405180910390fd5b60018260000160008373ffffffffffffffffffffffffffffffffffffffff1673ffffffffffffffffffffffffffffffffffffffff16815260200190815260200160002060006101000a81548160ff0219169083151502179055505050565b60008260000160008373ffffffffffffffffffffffffffffffffffffffff1673ffffffffffffffffffffffffffffffffffffffff16815260200190815260200160002060009054906101000a900460ff16905092915050565b600060078381548110611af557611af4612560565b5b9060005260206000209060050201905080600401829080600181540180825580915050600190039060005260206000200160009091909190915055505050565b6040518060a0016040528060008152602001600073ffffffffffffffffffffffffffffffffffffffff168152602001600073ffffffffffffffffffffffffffffffffffffffff16815260200160608152602001606081525090565b828054828255906000526020600020908101928215611bcc579160200282015b82811115611bcb578251825591602001919060010190611bb0565b5b509050611bd99190611c88565b5090565b6040518060a0016040528060008152602001600073ffffffffffffffffffffffffffffffffffffffff168152602001600073ffffffffffffffffffffffffffffffffffffffff16815260200160608152602001606081525090565b6040518060800160405280606081526020016060815260200160608152602001600081525090565b6040518060800160405280606081526020016060815260200160608152602001600081525090565b5b80821115611ca1576000816000905550600101611c89565b5090565b6000604051905090565b600080fd5b600080fd5b6000819050919050565b611ccc81611cb9565b8114611cd757600080fd5b50565b600081359050611ce981611cc3565b92915050565b600060208284031215611d0557611d04611caf565b5b6000611d1384828501611cda565b91505092915050565b611d2581611cb9565b82525050565b600073ffffffffffffffffffffffffffffffffffffffff82169050919050565b6000611d5682611d2b565b9050919050565b611d6681611d4b565b82525050565b600081519050919050565b600082825260208201905092915050565b60005b83811015611da6578082015181840152602081019050611d8b565b83811115611db5576000848401525b50505050565b6000601f19601f8301169050919050565b6000611dd782611d6c565b611de18185611d77565b9350611df1818560208601611d88565b611dfa81611dbb565b840191505092915050565b600081519050919050565b600082825260208201905092915050565b6000819050602082019050919050565b6000611e3d8383611d1c565b60208301905092915050565b6000602082019050919050565b6000611e6182611e05565b611e6b8185611e10565b9350611e7683611e21565b8060005b83811015611ea7578151611e8e8882611e31565b9750611e9983611e49565b925050600181019050611e7a565b5085935050505092915050565b600060a083016000830151611ecc6000860182611d1c565b506020830151611edf6020860182611d5d565b506040830151611ef26040860182611d5d565b5060608301518482036060860152611f0a8282611dcc565b91505060808301518482036080860152611f248282611e56565b9150508091505092915050565b60006020820190508181036000830152611f4b8184611eb4565b905092915050565b611f5c81611d4b565b82525050565b6000602082019050611f776000830184611f53565b92915050565b611f8681611cb9565b82525050565b600082825260208201905092915050565b6000611fa882611d6c565b611fb28185611f8c565b9350611fc2818560208601611d88565b611fcb81611dbb565b840191505092915050565b6000608082019050611feb6000830187611f7d565b611ff86020830186611f53565b6120056040830185611f53565b81810360608301526120178184611f9d565b905095945050505050565b61202b81611d4b565b811461203657600080fd5b50565b60008135905061204881612022565b92915050565b600080fd5b600080fd5b7f4e487b7100000000000000000000000000000000000000000000000000000000600052604160045260246000fd5b61209082611dbb565b810181811067ffffffffffffffff821117156120af576120ae612058565b5b80604052505050565b60006120c2611ca5565b90506120ce8282612087565b919050565b600067ffffffffffffffff8211156120ee576120ed612058565b5b6120f782611dbb565b9050602081019050919050565b82818337600083830152505050565b6000612126612121846120d3565b6120b8565b90508281526020810184848401111561214257612141612053565b5b61214d848285612104565b509392505050565b600082601f83011261216a5761216961204e565b5b813561217a848260208601612113565b91505092915050565b6000806040838503121561219a57612199611caf565b5b60006121a885828601612039565b925050602083013567ffffffffffffffff8111156121c9576121c8611cb4565b5b6121d585828601612155565b9150509250929050565b6000602082840312156121f5576121f4611caf565b5b600061220384828501612039565b91505092915050565b600060408201905081810360008301526122268185611f9d565b9050818103602083015261223a8184611f9d565b90509392505050565b6000806000806080858703121561225d5761225c611caf565b5b600061226b87828801612039565b945050602085013567ffffffffffffffff81111561228c5761228b611cb4565b5b61229887828801612155565b935050604085013567ffffffffffffffff8111156122b9576122b8611cb4565b5b6122c587828801612155565b92505060606122d687828801611cda565b91505092959194509250565b6000806000606084860312156122fb576122fa611caf565b5b600061230986828701612039565b935050602084013567ffffffffffffffff81111561232a57612329611cb4565b5b61233686828701612155565b925050604084013567ffffffffffffffff81111561235757612356611cb4565b5b61236386828701612155565b9150509250925092565b60008115159050919050565b6123828161236d565b82525050565b600060208201905061239d6000830184612379565b92915050565b60006020820190506123b86000830184611f7d565b92915050565b600080604083850312156123d5576123d4611caf565b5b60006123e385828601612039565b92505060206123f485828601612039565b9150509250929050565b600081519050919050565b600082825260208201905092915050565b6000819050602082019050919050565b60006124368383611d5d565b60208301905092915050565b6000602082019050919050565b600061245a826123fe565b6124648185612409565b935061246f8361241a565b8060005b838110156124a0578151612487888261242a565b975061249283612442565b925050600181019050612473565b5085935050505092915050565b600060208201905081810360008301526124c7818461244f565b905092915050565b600082825260208201905092915050565b60006124eb82611e05565b6124f581856124cf565b935061250083611e21565b8060005b838110156125315781516125188882611e31565b975061252383611e49565b925050600181019050612504565b5085935050505092915050565b6000602082019050818103600083015261255881846124e0565b905092915050565b7f4e487b7100000000000000000000000000000000000000000000000000000000600052603260045260246000fd5b7f4e487b7100000000000000000000000000000000000000000000000000000000600052602260045260246000fd5b600060028204905060018216806125d657607f821691505b6020821081036125e9576125e861258f565b5b50919050565b7f446f63746f72206f6e6c79000000000000000000000000000000000000000000600082015250565b6000612625600b83611f8c565b9150612630826125ef565b602082019050919050565b6000602082019050818103600083015261265481612618565b9050919050565b7f596f7520686176656e2774206265656e2061737369676e65642074686973207060008201527f617469656e740000000000000000000000000000000000000000000000000000602082015250565b60006126b7602683611f8c565b91506126c28261265b565b604082019050919050565b600060208201905081810360008301526126e6816126aa565b9050919050565b7f4e6f7420666f722061646d696e00000000000000000000000000000000000000600082015250565b6000612723600d83611f8c565b915061272e826126ed565b602082019050919050565b6000602082019050818103600083015261275281612716565b9050919050565b60008190508160005260206000209050919050565b60006020601f8301049050919050565b600082821b905092915050565b6000600883026127bb7fffffffffffffffffffffffffffffffffffffffffffffffffffffffffffffffff8261277e565b6127c5868361277e565b95508019841693508086168417925050509392505050565b6000819050919050565b60006128026127fd6127f884611cb9565b6127dd565b611cb9565b9050919050565b6000819050919050565b61281c836127e7565b61283061282882612809565b84845461278b565b825550505050565b600090565b612845612838565b612850818484612813565b505050565b5b818110156128745761286960008261283d565b600181019050612856565b5050565b601f8211156128b95761288a81612759565b6128938461276e565b810160208510156128a2578190505b6128b66128ae8561276e565b830182612855565b50505b505050565b600082821c905092915050565b60006128dc600019846008026128be565b1980831691505092915050565b60006128f583836128cb565b9150826002028217905092915050565b61290e82611d6c565b67ffffffffffffffff81111561292757612926612058565b5b61293182546125be565b61293c828285612878565b600060209050601f83116001811461296f576000841561295d578287015190505b61296785826128e9565b8655506129cf565b601f19841661297d86612759565b60005b828110156129a557848901518255600182019150602085019450602081019050612980565b868310156129c257848901516129be601f8916826128cb565b8355505b6001600288020188555050505b505050505050565b7f41646d696e206f6e6c7900000000000000000000000000000000000000000000600082015250565b6000612a0d600a83611f8c565b9150612a18826129d7565b602082019050919050565b60006020820190508181036000830152612a3c81612a00565b9050919050565b7f596f7520617265206e6f7420656c696769626c6520666f72207468697320726f60008201527f6c65000000000000000000000000000000000000000000000000000000000000602082015250565b6000612a9f602283611f8c565b9150612aaa82612a43565b604082019050919050565b60006020820190508181036000830152612ace81612a92565b9050919050565b7f526f6c65733a206163636f756e7420616c72656164792068617320726f6c6500600082015250565b6000612b0b601f83611f8c565b9150612b1682612ad5565b602082019050919050565b60006020820190508181036000830152612b3a81612afe565b905091905056fea26469706673582212205584f649003e9743d8edda12c5a25ea27436b21b7d91374cbe2f266d5e23115064736f6c634300080f0033","opcodes":"PUSH1 0x80 PUSH1 0x40 MSTORE CALLVALUE DUP1 ISZERO PUSH3 0x11 JUMPI PUSH1 0x0 DUP1 REVERT JUMPDEST POP CALLER PUSH1 0xA PUSH1 0x0 PUSH2 0x100 EXP DUP2 SLOAD DUP2 PUSH20 0xFFFFFFFFFFFFFFFFFFFFFFFFFFFFFFFFFFFFFFFF MUL NOT AND SWAP1 DUP4 PUSH20 0xFFFFFFFFFFFFFFFFFFFFFFFFFFFFFFFFFFFFFFFF AND MUL OR SWAP1 SSTORE POP PUSH3 0x90 PUSH1 0xA PUSH1 0x0 SWAP1 SLOAD SWAP1 PUSH2 0x100 EXP SWAP1 DIV PUSH20 0xFFFFFFFFFFFFFFFFFFFFFFFFFFFFFFFFFFFFFFFF AND PUSH1 0x0 PUSH3 0x96 PUSH1 0x20 SHL PUSH3 0x19DE OR SWAP1 SWAP2 SWAP1 PUSH1 0x20 SHR JUMP JUMPDEST PUSH3 0x225 JUMP JUMPDEST PUSH3 0xA8 DUP3 DUP3 PUSH3 0x149 PUSH1 0x20 SHL PUSH1 0x20 SHR JUMP JUMPDEST ISZERO PUSH3 0xEB JUMPI PUSH1 0x40 MLOAD PUSH32 0x8C379A000000000000000000000000000000000000000000000000000000000 DUP2 MSTORE PUSH1 0x4 ADD PUSH3 0xE2 SWAP1 PUSH3 0x203 JUMP JUMPDEST PUSH1 0x40 MLOAD DUP1 SWAP2 SUB SWAP1 REVERT JUMPDEST PUSH1 0x1 DUP3 PUSH1 0x0 ADD PUSH1 0x0 DUP4 PUSH20 0xFFFFFFFFFFFFFFFFFFFFFFFFFFFFFFFFFFFFFFFF AND PUSH20 0xFFFFFFFFFFFFFFFFFFFFFFFFFFFFFFFFFFFFFFFF AND DUP2 MSTORE PUSH1 0x20 ADD SWAP1 DUP2 MSTORE PUSH1 0x20 ADD PUSH1 0x0 KECCAK256 PUSH1 0x0 PUSH2 0x100 EXP DUP2 SLOAD DUP2 PUSH1 0xFF MUL NOT AND SWAP1 DUP4 ISZERO ISZERO MUL OR SWAP1 SSTORE POP POP POP JUMP JUMPDEST PUSH1 0x0 DUP3 PUSH1 0x0 ADD PUSH1 0x0 DUP4 PUSH20 0xFFFFFFFFFFFFFFFFFFFFFFFFFFFFFFFFFFFFFFFF AND PUSH20 0xFFFFFFFFFFFFFFFFFFFFFFFFFFFFFFFFFFFFFFFF AND DUP2 MSTORE PUSH1 0x20 ADD SWAP1 DUP2 MSTORE PUSH1 0x20 ADD PUSH1 0x0 KECCAK256 PUSH1 0x0 SWAP1 SLOAD SWAP1 PUSH2 0x100 EXP SWAP1 DIV PUSH1 0xFF AND SWAP1 POP SWAP3 SWAP2 POP POP JUMP JUMPDEST PUSH1 0x0 DUP3 DUP3 MSTORE PUSH1 0x20 DUP3 ADD SWAP1 POP SWAP3 SWAP2 POP POP JUMP JUMPDEST PUSH32 0x526F6C65733A206163636F756E7420616C72656164792068617320726F6C6500 PUSH1 0x0 DUP3 ADD MSTORE POP JUMP JUMPDEST PUSH1 0x0 PUSH3 0x1EB PUSH1 0x1F DUP4 PUSH3 0x1A2 JUMP JUMPDEST SWAP2 POP PUSH3 0x1F8 DUP3 PUSH3 0x1B3 JUMP JUMPDEST PUSH1 0x20 DUP3 ADD SWAP1 POP SWAP2 SWAP1 POP JUMP JUMPDEST PUSH1 0x0 PUSH1 0x20 DUP3 ADD SWAP1 POP DUP2 DUP2 SUB PUSH1 0x0 DUP4 ADD MSTORE PUSH3 0x21E DUP2 PUSH3 0x1DC JUMP JUMPDEST SWAP1 POP SWAP2 SWAP1 POP JUMP JUMPDEST PUSH2 0x2B77 DUP1 PUSH3 0x235 PUSH1 0x0 CODECOPY PUSH1 0x0 RETURN INVALID PUSH1 0x80 PUSH1 0x40 MSTORE CALLVALUE DUP1 ISZERO PUSH2 0x10 JUMPI PUSH1 0x0 DUP1 REVERT JUMPDEST POP PUSH1 0x4 CALLDATASIZE LT PUSH2 0x10B JUMPI PUSH1 0x0 CALLDATALOAD PUSH1 0xE0 SHR DUP1 PUSH4 0x400D288F GT PUSH2 0xA2 JUMPI DUP1 PUSH4 0x996440C6 GT PUSH2 0x71 JUMPI DUP1 PUSH4 0x996440C6 EQ PUSH2 0x2F0 JUMPI DUP1 PUSH4 0xA71AEFC9 EQ PUSH2 0x320 JUMPI DUP1 PUSH4 0xB105E22E EQ PUSH2 0x33E JUMPI DUP1 PUSH4 0xBABB1D41 EQ PUSH2 0x36E JUMPI DUP1 PUSH4 0xF851A440 EQ PUSH2 0x39E JUMPI PUSH2 0x10B JUMP JUMPDEST DUP1 PUSH4 0x400D288F EQ PUSH2 0x244 JUMPI DUP1 PUSH4 0x58214308 EQ PUSH2 0x274 JUMPI DUP1 PUSH4 0x8F9C79ED EQ PUSH2 0x2A4 JUMPI DUP1 PUSH4 0x9429E171 EQ PUSH2 0x2D4 JUMPI PUSH2 0x10B JUMP JUMPDEST DUP1 PUSH4 0x2F04E064 GT PUSH2 0xDE JUMPI DUP1 PUSH4 0x2F04E064 EQ PUSH2 0x1BF JUMPI DUP1 PUSH4 0x34B3E4F1 EQ PUSH2 0x1F0 JUMPI DUP1 PUSH4 0x34B78998 EQ PUSH2 0x20C JUMPI DUP1 PUSH4 0x37B16B50 EQ PUSH2 0x228 JUMPI PUSH2 0x10B JUMP JUMPDEST DUP1 PUSH4 0xC388722 EQ PUSH2 0x110 JUMPI DUP1 PUSH4 0x127CA4B4 EQ PUSH2 0x140 JUMPI DUP1 PUSH4 0x19DA83A8 EQ PUSH2 0x170 JUMPI DUP1 PUSH4 0x1F21A79D EQ PUSH2 0x1A3 JUMPI JUMPDEST PUSH1 0x0 DUP1 REVERT JUMPDEST PUSH2 0x12A PUSH1 0x4 DUP1 CALLDATASIZE SUB DUP2 ADD SWAP1 PUSH2 0x125 SWAP2 SWAP1 PUSH2 0x1CEF JUMP JUMPDEST PUSH2 0x3BC JUMP JUMPDEST PUSH1 0x40 MLOAD PUSH2 0x137 SWAP2 SWAP1 PUSH2 0x1F31 JUMP JUMPDEST PUSH1 0x40 MLOAD DUP1 SWAP2 SUB SWAP1 RETURN JUMPDEST PUSH2 0x15A PUSH1 0x4 DUP1 CALLDATASIZE SUB DUP2 ADD SWAP1 PUSH2 0x155 SWAP2 SWAP1 PUSH2 0x1CEF JUMP JUMPDEST PUSH2 0x614 JUMP JUMPDEST PUSH1 0x40 MLOAD PUSH2 0x167 SWAP2 SWAP1 PUSH2 0x1F62 JUMP JUMPDEST PUSH1 0x40 MLOAD DUP1 SWAP2 SUB SWAP1 RETURN JUMPDEST PUSH2 0x18A PUSH1 0x4 DUP1 CALLDATASIZE SUB DUP2 ADD SWAP1 PUSH2 0x185 SWAP2 SWAP1 PUSH2 0x1CEF JUMP JUMPDEST PUSH2 0x653 JUMP JUMPDEST PUSH1 0x40 MLOAD PUSH2 0x19A SWAP5 SWAP4 SWAP3 SWAP2 SWAP1 PUSH2 0x1FD6 JUMP JUMPDEST PUSH1 0x40 MLOAD DUP1 SWAP2 SUB SWAP1 RETURN JUMPDEST PUSH2 0x1BD PUSH1 0x4 DUP1 CALLDATASIZE SUB DUP2 ADD SWAP1 PUSH2 0x1B8 SWAP2 SWAP1 PUSH2 0x2183 JUMP JUMPDEST PUSH2 0x75B JUMP JUMPDEST STOP JUMPDEST PUSH2 0x1D9 PUSH1 0x4 DUP1 CALLDATASIZE SUB DUP2 ADD SWAP1 PUSH2 0x1D4 SWAP2 SWAP1 PUSH2 0x21DF JUMP JUMPDEST PUSH2 0xB6C JUMP JUMPDEST PUSH1 0x40 MLOAD PUSH2 0x1E7 SWAP3 SWAP2 SWAP1 PUSH2 0x220C JUMP JUMPDEST PUSH1 0x40 MLOAD DUP1 SWAP2 SUB SWAP1 RETURN JUMPDEST PUSH2 0x20A PUSH1 0x4 DUP1 CALLDATASIZE SUB DUP2 ADD SWAP1 PUSH2 0x205 SWAP2 SWAP1 PUSH2 0x2243 JUMP JUMPDEST PUSH2 0xD57 JUMP JUMPDEST STOP JUMPDEST PUSH2 0x226 PUSH1 0x4 DUP1 CALLDATASIZE SUB DUP2 ADD SWAP1 PUSH2 0x221 SWAP2 SWAP1 PUSH2 0x22E2 JUMP JUMPDEST PUSH2 0x1074 JUMP JUMPDEST STOP JUMPDEST PUSH2 0x242 PUSH1 0x4 DUP1 CALLDATASIZE SUB DUP2 ADD SWAP1 PUSH2 0x23D SWAP2 SWAP1 PUSH2 0x22E2 JUMP JUMPDEST PUSH2 0x1274 JUMP JUMPDEST STOP JUMPDEST PUSH2 0x25E PUSH1 0x4 DUP1 CALLDATASIZE SUB DUP2 ADD SWAP1 PUSH2 0x259 SWAP2 SWAP1 PUSH2 0x21DF JUMP JUMPDEST PUSH2 0x1474 JUMP JUMPDEST PUSH1 0x40 MLOAD PUSH2 0x26B SWAP2 SWAP1 PUSH2 0x2388 JUMP JUMPDEST PUSH1 0x40 MLOAD DUP1 SWAP2 SUB SWAP1 RETURN JUMPDEST PUSH2 0x28E PUSH1 0x4 DUP1 CALLDATASIZE SUB DUP2 ADD SWAP1 PUSH2 0x289 SWAP2 SWAP1 PUSH2 0x21DF JUMP JUMPDEST PUSH2 0x1565 JUMP JUMPDEST PUSH1 0x40 MLOAD PUSH2 0x29B SWAP2 SWAP1 PUSH2 0x23A3 JUMP JUMPDEST PUSH1 0x40 MLOAD DUP1 SWAP2 SUB SWAP1 RETURN JUMPDEST PUSH2 0x2BE PUSH1 0x4 DUP1 CALLDATASIZE SUB DUP2 ADD SWAP1 PUSH2 0x2B9 SWAP2 SWAP1 PUSH2 0x21DF JUMP JUMPDEST PUSH2 0x164F JUMP JUMPDEST PUSH1 0x40 MLOAD PUSH2 0x2CB SWAP2 SWAP1 PUSH2 0x2388 JUMP JUMPDEST PUSH1 0x40 MLOAD DUP1 SWAP2 SUB SWAP1 RETURN JUMPDEST PUSH2 0x2EE PUSH1 0x4 DUP1 CALLDATASIZE SUB DUP2 ADD SWAP1 PUSH2 0x2E9 SWAP2 SWAP1 PUSH2 0x23BE JUMP JUMPDEST PUSH2 0x166C JUMP JUMPDEST STOP JUMPDEST PUSH2 0x30A PUSH1 0x4 DUP1 CALLDATASIZE SUB DUP2 ADD SWAP1 PUSH2 0x305 SWAP2 SWAP1 PUSH2 0x21DF JUMP JUMPDEST PUSH2 0x1748 JUMP JUMPDEST PUSH1 0x40 MLOAD PUSH2 0x317 SWAP2 SWAP1 PUSH2 0x2388 JUMP JUMPDEST PUSH1 0x40 MLOAD DUP1 SWAP2 SUB SWAP1 RETURN JUMPDEST PUSH2 0x328 PUSH2 0x1765 JUMP JUMPDEST PUSH1 0x40 MLOAD PUSH2 0x335 SWAP2 SWAP1 PUSH2 0x24AD JUMP JUMPDEST PUSH1 0x40 MLOAD DUP1 SWAP2 SUB SWAP1 RETURN JUMPDEST PUSH2 0x358 PUSH1 0x4 DUP1 CALLDATASIZE SUB DUP2 ADD SWAP1 PUSH2 0x353 SWAP2 SWAP1 PUSH2 0x21DF JUMP JUMPDEST PUSH2 0x17F3 JUMP JUMPDEST PUSH1 0x40 MLOAD PUSH2 0x365 SWAP2 SWAP1 PUSH2 0x253E JUMP JUMPDEST PUSH1 0x40 MLOAD DUP1 SWAP2 SUB SWAP1 RETURN JUMPDEST PUSH2 0x388 PUSH1 0x4 DUP1 CALLDATASIZE SUB DUP2 ADD SWAP1 PUSH2 0x383 SWAP2 SWAP1 PUSH2 0x1CEF JUMP JUMPDEST PUSH2 0x1979 JUMP JUMPDEST PUSH1 0x40 MLOAD PUSH2 0x395 SWAP2 SWAP1 PUSH2 0x1F62 JUMP JUMPDEST PUSH1 0x40 MLOAD DUP1 SWAP2 SUB SWAP1 RETURN JUMPDEST PUSH2 0x3A6 PUSH2 0x19B8 JUMP JUMPDEST PUSH1 0x40 MLOAD PUSH2 0x3B3 SWAP2 SWAP1 PUSH2 0x1F62 JUMP JUMPDEST PUSH1 0x40 MLOAD DUP1 SWAP2 SUB SWAP1 RETURN JUMPDEST PUSH2 0x3C4 PUSH2 0x1B35 JUMP JUMPDEST PUSH1 0x0 PUSH1 0x7 DUP4 DUP2 SLOAD DUP2 LT PUSH2 0x3DA JUMPI PUSH2 0x3D9 PUSH2 0x2560 JUMP JUMPDEST JUMPDEST SWAP1 PUSH1 0x0 MSTORE PUSH1 0x20 PUSH1 0x0 KECCAK256 SWAP1 PUSH1 0x5 MUL ADD PUSH1 0x40 MLOAD DUP1 PUSH1 0xA0 ADD PUSH1 0x40 MSTORE SWAP1 DUP2 PUSH1 0x0 DUP3 ADD SLOAD DUP2 MSTORE PUSH1 0x20 ADD PUSH1 0x1 DUP3 ADD PUSH1 0x0 SWAP1 SLOAD SWAP1 PUSH2 0x100 EXP SWAP1 DIV PUSH20 0xFFFFFFFFFFFFFFFFFFFFFFFFFFFFFFFFFFFFFFFF AND PUSH20 0xFFFFFFFFFFFFFFFFFFFFFFFFFFFFFFFFFFFFFFFF AND PUSH20 0xFFFFFFFFFFFFFFFFFFFFFFFFFFFFFFFFFFFFFFFF AND DUP2 MSTORE PUSH1 0x20 ADD PUSH1 0x2 DUP3 ADD PUSH1 0x0 SWAP1 SLOAD SWAP1 PUSH2 0x100 EXP SWAP1 DIV PUSH20 0xFFFFFFFFFFFFFFFFFFFFFFFFFFFFFFFFFFFFFFFF AND PUSH20 0xFFFFFFFFFFFFFFFFFFFFFFFFFFFFFFFFFFFFFFFF AND PUSH20 0xFFFFFFFFFFFFFFFFFFFFFFFFFFFFFFFFFFFFFFFF AND DUP2 MSTORE PUSH1 0x20 ADD PUSH1 0x3 DUP3 ADD DUP1 SLOAD PUSH2 0x4B9 SWAP1 PUSH2 0x25BE JUMP JUMPDEST DUP1 PUSH1 0x1F ADD PUSH1 0x20 DUP1 SWAP2 DIV MUL PUSH1 0x20 ADD PUSH1 0x40 MLOAD SWAP1 DUP2 ADD PUSH1 0x40 MSTORE DUP1 SWAP3 SWAP2 SWAP1 DUP2 DUP2 MSTORE PUSH1 0x20 ADD DUP3 DUP1 SLOAD PUSH2 0x4E5 SWAP1 PUSH2 0x25BE JUMP JUMPDEST DUP1 ISZERO PUSH2 0x532 JUMPI DUP1 PUSH1 0x1F LT PUSH2 0x507 JUMPI PUSH2 0x100 DUP1 DUP4 SLOAD DIV MUL DUP4 MSTORE SWAP2 PUSH1 0x20 ADD SWAP2 PUSH2 0x532 JUMP JUMPDEST DUP3 ADD SWAP2 SWAP1 PUSH1 0x0 MSTORE PUSH1 0x20 PUSH1 0x0 KECCAK256 SWAP1 JUMPDEST DUP2 SLOAD DUP2 MSTORE SWAP1 PUSH1 0x1 ADD SWAP1 PUSH1 0x20 ADD DUP1 DUP4 GT PUSH2 0x515 JUMPI DUP3 SWAP1 SUB PUSH1 0x1F AND DUP3 ADD SWAP2 JUMPDEST POP POP POP POP POP DUP2 MSTORE PUSH1 0x20 ADD PUSH1 0x4 DUP3 ADD DUP1 SLOAD DUP1 PUSH1 0x20 MUL PUSH1 0x20 ADD PUSH1 0x40 MLOAD SWAP1 DUP2 ADD PUSH1 0x40 MSTORE DUP1 SWAP3 SWAP2 SWAP1 DUP2 DUP2 MSTORE PUSH1 0x20 ADD DUP3 DUP1 SLOAD DUP1 ISZERO PUSH2 0x58A JUMPI PUSH1 0x20 MUL DUP3 ADD SWAP2 SWAP1 PUSH1 0x0 MSTORE PUSH1 0x20 PUSH1 0x0 KECCAK256 SWAP1 JUMPDEST DUP2 SLOAD DUP2 MSTORE PUSH1 0x20 ADD SWAP1 PUSH1 0x1 ADD SWAP1 DUP1 DUP4 GT PUSH2 0x576 JUMPI JUMPDEST POP POP POP POP POP DUP2 MSTORE POP POP SWAP1 POP CALLER PUSH20 0xFFFFFFFFFFFFFFFFFFFFFFFFFFFFFFFFFFFFFFFF AND DUP2 PUSH1 0x40 ADD MLOAD PUSH20 0xFFFFFFFFFFFFFFFFFFFFFFFFFFFFFFFFFFFFFFFF AND EQ DUP1 PUSH2 0x602 JUMPI POP CALLER PUSH20 0xFFFFFFFFFFFFFFFFFFFFFFFFFFFFFFFFFFFFFFFF AND DUP2 PUSH1 0x20 ADD MLOAD PUSH20 0xFFFFFFFFFFFFFFFFFFFFFFFFFFFFFFFFFFFFFFFF AND EQ JUMPDEST PUSH2 0x60B JUMPI PUSH1 0x0 DUP1 REVERT JUMPDEST DUP1 SWAP2 POP POP SWAP2 SWAP1 POP JUMP JUMPDEST PUSH1 0x8 DUP2 DUP2 SLOAD DUP2 LT PUSH2 0x624 JUMPI PUSH1 0x0 DUP1 REVERT JUMPDEST SWAP1 PUSH1 0x0 MSTORE PUSH1 0x20 PUSH1 0x0 KECCAK256 ADD PUSH1 0x0 SWAP2 POP SLOAD SWAP1 PUSH2 0x100 EXP SWAP1 DIV PUSH20 0xFFFFFFFFFFFFFFFFFFFFFFFFFFFFFFFFFFFFFFFF AND DUP2 JUMP JUMPDEST PUSH1 0x7 DUP2 DUP2 SLOAD DUP2 LT PUSH2 0x663 JUMPI PUSH1 0x0 DUP1 REVERT JUMPDEST SWAP1 PUSH1 0x0 MSTORE PUSH1 0x20 PUSH1 0x0 KECCAK256 SWAP1 PUSH1 0x5 MUL ADD PUSH1 0x0 SWAP2 POP SWAP1 POP DUP1 PUSH1 0x0 ADD SLOAD SWAP1 DUP1 PUSH1 0x1 ADD PUSH1 0x0 SWAP1 SLOAD SWAP1 PUSH2 0x100 EXP SWAP1 DIV PUSH20 0xFFFFFFFFFFFFFFFFFFFFFFFFFFFFFFFFFFFFFFFF AND SWAP1 DUP1 PUSH1 0x2 ADD PUSH1 0x0 SWAP1 SLOAD SWAP1 PUSH2 0x100 EXP SWAP1 DIV PUSH20 0xFFFFFFFFFFFFFFFFFFFFFFFFFFFFFFFFFFFFFFFF AND SWAP1 DUP1 PUSH1 0x3 ADD DUP1 SLOAD PUSH2 0x6D8 SWAP1 PUSH2 0x25BE JUMP JUMPDEST DUP1 PUSH1 0x1F ADD PUSH1 0x20 DUP1 SWAP2 DIV MUL PUSH1 0x20 ADD PUSH1 0x40 MLOAD SWAP1 DUP2 ADD PUSH1 0x40 MSTORE DUP1 SWAP3 SWAP2 SWAP1 DUP2 DUP2 MSTORE PUSH1 0x20 ADD DUP3 DUP1 SLOAD PUSH2 0x704 SWAP1 PUSH2 0x25BE JUMP JUMPDEST DUP1 ISZERO PUSH2 0x751 JUMPI DUP1 PUSH1 0x1F LT PUSH2 0x726 JUMPI PUSH2 0x100 DUP1 DUP4 SLOAD DIV MUL DUP4 MSTORE SWAP2 PUSH1 0x20 ADD SWAP2 PUSH2 0x751 JUMP JUMPDEST DUP3 ADD SWAP2 SWAP1 PUSH1 0x0 MSTORE PUSH1 0x20 PUSH1 0x0 KECCAK256 SWAP1 JUMPDEST DUP2 SLOAD DUP2 MSTORE SWAP1 PUSH1 0x1 ADD SWAP1 PUSH1 0x20 ADD DUP1 DUP4 GT PUSH2 0x734 JUMPI DUP3 SWAP1 SUB PUSH1 0x1F AND DUP3 ADD SWAP2 JUMPDEST POP POP POP POP POP SWAP1 POP DUP5 JUMP JUMPDEST PUSH1 0x1 ISZERO ISZERO PUSH2 0x773 CALLER PUSH1 0x1 PUSH2 0x1A86 SWAP1 SWAP2 SWAP1 PUSH4 0xFFFFFFFF AND JUMP JUMPDEST ISZERO ISZERO EQ PUSH2 0x7B5 JUMPI PUSH1 0x40 MLOAD PUSH32 0x8C379A000000000000000000000000000000000000000000000000000000000 DUP2 MSTORE PUSH1 0x4 ADD PUSH2 0x7AC SWAP1 PUSH2 0x263B JUMP JUMPDEST PUSH1 0x40 MLOAD DUP1 SWAP2 SUB SWAP1 REVERT JUMPDEST DUP2 CALLER PUSH20 0xFFFFFFFFFFFFFFFFFFFFFFFFFFFFFFFFFFFFFFFF AND PUSH1 0x5 PUSH1 0x0 DUP4 PUSH20 0xFFFFFFFFFFFFFFFFFFFFFFFFFFFFFFFFFFFFFFFF AND PUSH20 0xFFFFFFFFFFFFFFFFFFFFFFFFFFFFFFFFFFFFFFFF AND DUP2 MSTORE PUSH1 0x20 ADD SWAP1 DUP2 MSTORE PUSH1 0x20 ADD PUSH1 0x0 KECCAK256 PUSH1 0x0 SWAP1 SLOAD SWAP1 PUSH2 0x100 EXP SWAP1 DIV PUSH20 0xFFFFFFFFFFFFFFFFFFFFFFFFFFFFFFFFFFFFFFFF AND PUSH20 0xFFFFFFFFFFFFFFFFFFFFFFFFFFFFFFFFFFFFFFFF AND EQ PUSH2 0x883 JUMPI PUSH1 0x40 MLOAD PUSH32 0x8C379A000000000000000000000000000000000000000000000000000000000 DUP2 MSTORE PUSH1 0x4 ADD PUSH2 0x87A SWAP1 PUSH2 0x26CD JUMP JUMPDEST PUSH1 0x40 MLOAD DUP1 SWAP2 SUB SWAP1 REVERT JUMPDEST PUSH2 0x897 CALLER PUSH1 0x0 PUSH2 0x1A86 SWAP1 SWAP2 SWAP1 PUSH4 0xFFFFFFFF AND JUMP JUMPDEST ISZERO PUSH2 0x8D7 JUMPI PUSH1 0x40 MLOAD PUSH32 0x8C379A000000000000000000000000000000000000000000000000000000000 DUP2 MSTORE PUSH1 0x4 ADD PUSH2 0x8CE SWAP1 PUSH2 0x2739 JUMP JUMPDEST PUSH1 0x40 MLOAD DUP1 SWAP2 SUB SWAP1 REVERT JUMPDEST PUSH2 0x8DF PUSH2 0x1B35 JUMP JUMPDEST PUSH1 0x7 DUP1 SLOAD SWAP1 POP DUP2 PUSH1 0x0 ADD DUP2 DUP2 MSTORE POP POP CALLER DUP2 PUSH1 0x20 ADD SWAP1 PUSH20 0xFFFFFFFFFFFFFFFFFFFFFFFFFFFFFFFFFFFFFFFF AND SWAP1 DUP2 PUSH20 0xFFFFFFFFFFFFFFFFFFFFFFFFFFFFFFFFFFFFFFFF AND DUP2 MSTORE POP POP DUP4 DUP2 PUSH1 0x40 ADD SWAP1 PUSH20 0xFFFFFFFFFFFFFFFFFFFFFFFFFFFFFFFFFFFFFFFF AND SWAP1 DUP2 PUSH20 0xFFFFFFFFFFFFFFFFFFFFFFFFFFFFFFFFFFFFFFFF AND DUP2 MSTORE POP POP DUP3 DUP2 PUSH1 0x60 ADD DUP2 SWAP1 MSTORE POP PUSH1 0x0 PUSH1 0x3 PUSH1 0x0 CALLER PUSH20 0xFFFFFFFFFFFFFFFFFFFFFFFFFFFFFFFFFFFFFFFF AND PUSH20 0xFFFFFFFFFFFFFFFFFFFFFFFFFFFFFFFFFFFFFFFF AND DUP2 MSTORE PUSH1 0x20 ADD SWAP1 DUP2 MSTORE PUSH1 0x20 ADD PUSH1 0x0 KECCAK256 SWAP1 POP PUSH1 0x0 PUSH1 0x4 PUSH1 0x0 DUP8 PUSH20 0xFFFFFFFFFFFFFFFFFFFFFFFFFFFFFFFFFFFFFFFF AND PUSH20 0xFFFFFFFFFFFFFFFFFFFFFFFFFFFFFFFFFFFFFFFF AND DUP2 MSTORE PUSH1 0x20 ADD SWAP1 DUP2 MSTORE PUSH1 0x20 ADD PUSH1 0x0 KECCAK256 SWAP1 POP DUP2 PUSH1 0x2 ADD DUP4 PUSH1 0x0 ADD MLOAD SWAP1 DUP1 PUSH1 0x1 DUP2 SLOAD ADD DUP1 DUP3 SSTORE DUP1 SWAP2 POP POP PUSH1 0x1 SWAP1 SUB SWAP1 PUSH1 0x0 MSTORE PUSH1 0x20 PUSH1 0x0 KECCAK256 ADD PUSH1 0x0 SWAP1 SWAP2 SWAP1 SWAP2 SWAP1 SWAP2 POP SSTORE DUP2 PUSH1 0x2 ADD DUP1 SLOAD SWAP1 POP DUP3 PUSH1 0x3 ADD DUP2 SWAP1 SSTORE POP DUP1 PUSH1 0x2 ADD DUP4 PUSH1 0x0 ADD MLOAD SWAP1 DUP1 PUSH1 0x1 DUP2 SLOAD ADD DUP1 DUP3 SSTORE DUP1 SWAP2 POP POP PUSH1 0x1 SWAP1 SUB SWAP1 PUSH1 0x0 MSTORE PUSH1 0x20 PUSH1 0x0 KECCAK256 ADD PUSH1 0x0 SWAP1 SWAP2 SWAP1 SWAP2 SWAP1 SWAP2 POP SSTORE DUP1 PUSH1 0x2 ADD DUP1 SLOAD SWAP1 POP DUP2 PUSH1 0x3 ADD DUP2 SWAP1 SSTORE POP PUSH1 0x7 DUP4 SWAP1 DUP1 PUSH1 0x1 DUP2 SLOAD ADD DUP1 DUP3 SSTORE DUP1 SWAP2 POP POP PUSH1 0x1 SWAP1 SUB SWAP1 PUSH1 0x0 MSTORE PUSH1 0x20 PUSH1 0x0 KECCAK256 SWAP1 PUSH1 0x5 MUL ADD PUSH1 0x0 SWAP1 SWAP2 SWAP1 SWAP2 SWAP1 SWAP2 POP PUSH1 0x0 DUP3 ADD MLOAD DUP2 PUSH1 0x0 ADD SSTORE PUSH1 0x20 DUP3 ADD MLOAD DUP2 PUSH1 0x1 ADD PUSH1 0x0 PUSH2 0x100 EXP DUP2 SLOAD DUP2 PUSH20 0xFFFFFFFFFFFFFFFFFFFFFFFFFFFFFFFFFFFFFFFF MUL NOT AND SWAP1 DUP4 PUSH20 0xFFFFFFFFFFFFFFFFFFFFFFFFFFFFFFFFFFFFFFFF AND MUL OR SWAP1 SSTORE POP PUSH1 0x40 DUP3 ADD MLOAD DUP2 PUSH1 0x2 ADD PUSH1 0x0 PUSH2 0x100 EXP DUP2 SLOAD DUP2 PUSH20 0xFFFFFFFFFFFFFFFFFFFFFFFFFFFFFFFFFFFFFFFF MUL NOT AND SWAP1 DUP4 PUSH20 0xFFFFFFFFFFFFFFFFFFFFFFFFFFFFFFFFFFFFFFFF AND MUL OR SWAP1 SSTORE POP PUSH1 0x60 DUP3 ADD MLOAD DUP2 PUSH1 0x3 ADD SWAP1 DUP2 PUSH2 0xB44 SWAP2 SWAP1 PUSH2 0x2905 JUMP JUMPDEST POP PUSH1 0x80 DUP3 ADD MLOAD DUP2 PUSH1 0x4 ADD SWAP1 DUP1 MLOAD SWAP1 PUSH1 0x20 ADD SWAP1 PUSH2 0xB61 SWAP3 SWAP2 SWAP1 PUSH2 0x1B90 JUMP JUMPDEST POP POP POP POP POP POP POP POP POP JUMP JUMPDEST PUSH1 0x60 DUP1 PUSH1 0x0 PUSH1 0x3 PUSH1 0x0 DUP6 PUSH20 0xFFFFFFFFFFFFFFFFFFFFFFFFFFFFFFFFFFFFFFFF AND PUSH20 0xFFFFFFFFFFFFFFFFFFFFFFFFFFFFFFFFFFFFFFFF AND DUP2 MSTORE PUSH1 0x20 ADD SWAP1 DUP2 MSTORE PUSH1 0x20 ADD PUSH1 0x0 KECCAK256 PUSH1 0x40 MLOAD DUP1 PUSH1 0x80 ADD PUSH1 0x40 MSTORE SWAP1 DUP2 PUSH1 0x0 DUP3 ADD DUP1 SLOAD PUSH2 0xBCB SWAP1 PUSH2 0x25BE JUMP JUMPDEST DUP1 PUSH1 0x1F ADD PUSH1 0x20 DUP1 SWAP2 DIV MUL PUSH1 0x20 ADD PUSH1 0x40 MLOAD SWAP1 DUP2 ADD PUSH1 0x40 MSTORE DUP1 SWAP3 SWAP2 SWAP1 DUP2 DUP2 MSTORE PUSH1 0x20 ADD DUP3 DUP1 SLOAD PUSH2 0xBF7 SWAP1 PUSH2 0x25BE JUMP JUMPDEST DUP1 ISZERO PUSH2 0xC44 JUMPI DUP1 PUSH1 0x1F LT PUSH2 0xC19 JUMPI PUSH2 0x100 DUP1 DUP4 SLOAD DIV MUL DUP4 MSTORE SWAP2 PUSH1 0x20 ADD SWAP2 PUSH2 0xC44 JUMP JUMPDEST DUP3 ADD SWAP2 SWAP1 PUSH1 0x0 MSTORE PUSH1 0x20 PUSH1 0x0 KECCAK256 SWAP1 JUMPDEST DUP2 SLOAD DUP2 MSTORE SWAP1 PUSH1 0x1 ADD SWAP1 PUSH1 0x20 ADD DUP1 DUP4 GT PUSH2 0xC27 JUMPI DUP3 SWAP1 SUB PUSH1 0x1F AND DUP3 ADD SWAP2 JUMPDEST POP POP POP POP POP DUP2 MSTORE PUSH1 0x20 ADD PUSH1 0x1 DUP3 ADD DUP1 SLOAD PUSH2 0xC5D SWAP1 PUSH2 0x25BE JUMP JUMPDEST DUP1 PUSH1 0x1F ADD PUSH1 0x20 DUP1 SWAP2 DIV MUL PUSH1 0x20 ADD PUSH1 0x40 MLOAD SWAP1 DUP2 ADD PUSH1 0x40 MSTORE DUP1 SWAP3 SWAP2 SWAP1 DUP2 DUP2 MSTORE PUSH1 0x20 ADD DUP3 DUP1 SLOAD PUSH2 0xC89 SWAP1 PUSH2 0x25BE JUMP JUMPDEST DUP1 ISZERO PUSH2 0xCD6 JUMPI DUP1 PUSH1 0x1F LT PUSH2 0xCAB JUMPI PUSH2 0x100 DUP1 DUP4 SLOAD DIV MUL DUP4 MSTORE SWAP2 PUSH1 0x20 ADD SWAP2 PUSH2 0xCD6 JUMP JUMPDEST DUP3 ADD SWAP2 SWAP1 PUSH1 0x0 MSTORE PUSH1 0x20 PUSH1 0x0 KECCAK256 SWAP1 JUMPDEST DUP2 SLOAD DUP2 MSTORE SWAP1 PUSH1 0x1 ADD SWAP1 PUSH1 0x20 ADD DUP1 DUP4 GT PUSH2 0xCB9 JUMPI DUP3 SWAP1 SUB PUSH1 0x1F AND DUP3 ADD SWAP2 JUMPDEST POP POP POP POP POP DUP2 MSTORE PUSH1 0x20 ADD PUSH1 0x2 DUP3 ADD DUP1 SLOAD DUP1 PUSH1 0x20 MUL PUSH1 0x20 ADD PUSH1 0x40 MLOAD SWAP1 DUP2 ADD PUSH1 0x40 MSTORE DUP1 SWAP3 SWAP2 SWAP1 DUP2 DUP2 MSTORE PUSH1 0x20 ADD DUP3 DUP1 SLOAD DUP1 ISZERO PUSH2 0xD2E JUMPI PUSH1 0x20 MUL DUP3 ADD SWAP2 SWAP1 PUSH1 0x0 MSTORE PUSH1 0x20 PUSH1 0x0 KECCAK256 SWAP1 JUMPDEST DUP2 SLOAD DUP2 MSTORE PUSH1 0x20 ADD SWAP1 PUSH1 0x1 ADD SWAP1 DUP1 DUP4 GT PUSH2 0xD1A JUMPI JUMPDEST POP POP POP POP POP DUP2 MSTORE PUSH1 0x20 ADD PUSH1 0x3 DUP3 ADD SLOAD DUP2 MSTORE POP POP SWAP1 POP DUP1 PUSH1 0x0 ADD MLOAD DUP2 PUSH1 0x20 ADD MLOAD SWAP3 POP SWAP3 POP POP SWAP2 POP SWAP2 JUMP JUMPDEST PUSH1 0x1 ISZERO ISZERO PUSH2 0xD6F CALLER PUSH1 0x1 PUSH2 0x1A86 SWAP1 SWAP2 SWAP1 PUSH4 0xFFFFFFFF AND JUMP JUMPDEST ISZERO ISZERO EQ PUSH2 0xDB1 JUMPI PUSH1 0x40 MLOAD PUSH32 0x8C379A000000000000000000000000000000000000000000000000000000000 DUP2 MSTORE PUSH1 0x4 ADD PUSH2 0xDA8 SWAP1 PUSH2 0x263B JUMP JUMPDEST PUSH1 0x40 MLOAD DUP1 SWAP2 SUB SWAP1 REVERT JUMPDEST DUP4 CALLER PUSH20 0xFFFFFFFFFFFFFFFFFFFFFFFFFFFFFFFFFFFFFFFF AND PUSH1 0x5 PUSH1 0x0 DUP4 PUSH20 0xFFFFFFFFFFFFFFFFFFFFFFFFFFFFFFFFFFFFFFFF AND PUSH20 0xFFFFFFFFFFFFFFFFFFFFFFFFFFFFFFFFFFFFFFFF AND DUP2 MSTORE PUSH1 0x20 ADD SWAP1 DUP2 MSTORE PUSH1 0x20 ADD PUSH1 0x0 KECCAK256 PUSH1 0x0 SWAP1 SLOAD SWAP1 PUSH2 0x100 EXP SWAP1 DIV PUSH20 0xFFFFFFFFFFFFFFFFFFFFFFFFFFFFFFFFFFFFFFFF AND PUSH20 0xFFFFFFFFFFFFFFFFFFFFFFFFFFFFFFFFFFFFFFFF AND EQ PUSH2 0xE7F JUMPI PUSH1 0x40 MLOAD PUSH32 0x8C379A000000000000000000000000000000000000000000000000000000000 DUP2 MSTORE PUSH1 0x4 ADD PUSH2 0xE76 SWAP1 PUSH2 0x26CD JUMP JUMPDEST PUSH1 0x40 MLOAD DUP1 SWAP2 SUB SWAP1 REVERT JUMPDEST PUSH2 0xE93 CALLER PUSH1 0x0 PUSH2 0x1A86 SWAP1 SWAP2 SWAP1 PUSH4 0xFFFFFFFF AND JUMP JUMPDEST ISZERO PUSH2 0xED3 JUMPI PUSH1 0x40 MLOAD PUSH32 0x8C379A000000000000000000000000000000000000000000000000000000000 DUP2 MSTORE PUSH1 0x4 ADD PUSH2 0xECA SWAP1 PUSH2 0x2739 JUMP JUMPDEST PUSH1 0x40 MLOAD DUP1 SWAP2 SUB SWAP1 REVERT JUMPDEST PUSH2 0xEDB PUSH2 0x1BDD JUMP JUMPDEST PUSH1 0x6 DUP1 SLOAD SWAP1 POP DUP2 PUSH1 0x0 ADD DUP2 DUP2 MSTORE POP POP DUP6 DUP2 PUSH1 0x20 ADD SWAP1 PUSH20 0xFFFFFFFFFFFFFFFFFFFFFFFFFFFFFFFFFFFFFFFF AND SWAP1 DUP2 PUSH20 0xFFFFFFFFFFFFFFFFFFFFFFFFFFFFFFFFFFFFFFFF AND DUP2 MSTORE POP POP CALLER DUP2 PUSH1 0x40 ADD SWAP1 PUSH20 0xFFFFFFFFFFFFFFFFFFFFFFFFFFFFFFFFFFFFFFFF AND SWAP1 DUP2 PUSH20 0xFFFFFFFFFFFFFFFFFFFFFFFFFFFFFFFFFFFFFFFF AND DUP2 MSTORE POP POP DUP5 DUP2 PUSH1 0x60 ADD DUP2 SWAP1 MSTORE POP DUP4 DUP2 PUSH1 0x80 ADD DUP2 SWAP1 MSTORE POP PUSH1 0x6 DUP2 SWAP1 DUP1 PUSH1 0x1 DUP2 SLOAD ADD DUP1 DUP3 SSTORE DUP1 SWAP2 POP POP PUSH1 0x1 SWAP1 SUB SWAP1 PUSH1 0x0 MSTORE PUSH1 0x20 PUSH1 0x0 KECCAK256 SWAP1 PUSH1 0x5 MUL ADD PUSH1 0x0 SWAP1 SWAP2 SWAP1 SWAP2 SWAP1 SWAP2 POP PUSH1 0x0 DUP3 ADD MLOAD DUP2 PUSH1 0x0 ADD SSTORE PUSH1 0x20 DUP3 ADD MLOAD DUP2 PUSH1 0x1 ADD PUSH1 0x0 PUSH2 0x100 EXP DUP2 SLOAD DUP2 PUSH20 0xFFFFFFFFFFFFFFFFFFFFFFFFFFFFFFFFFFFFFFFF MUL NOT AND SWAP1 DUP4 PUSH20 0xFFFFFFFFFFFFFFFFFFFFFFFFFFFFFFFFFFFFFFFF AND MUL OR SWAP1 SSTORE POP PUSH1 0x40 DUP3 ADD MLOAD DUP2 PUSH1 0x2 ADD PUSH1 0x0 PUSH2 0x100 EXP DUP2 SLOAD DUP2 PUSH20 0xFFFFFFFFFFFFFFFFFFFFFFFFFFFFFFFFFFFFFFFF MUL NOT AND SWAP1 DUP4 PUSH20 0xFFFFFFFFFFFFFFFFFFFFFFFFFFFFFFFFFFFFFFFF AND MUL OR SWAP1 SSTORE POP PUSH1 0x60 DUP3 ADD MLOAD DUP2 PUSH1 0x3 ADD SWAP1 DUP2 PUSH2 0x1045 SWAP2 SWAP1 PUSH2 0x2905 JUMP JUMPDEST POP PUSH1 0x80 DUP3 ADD MLOAD DUP2 PUSH1 0x4 ADD SWAP1 DUP2 PUSH2 0x105B SWAP2 SWAP1 PUSH2 0x2905 JUMP JUMPDEST POP POP POP PUSH2 0x106C DUP4 DUP3 PUSH1 0x0 ADD MLOAD PUSH2 0x1ADF JUMP JUMPDEST POP POP POP POP POP POP JUMP JUMPDEST PUSH1 0x1 ISZERO ISZERO PUSH2 0x108C CALLER PUSH1 0x0 PUSH2 0x1A86 SWAP1 SWAP2 SWAP1 PUSH4 0xFFFFFFFF AND JUMP JUMPDEST ISZERO ISZERO EQ PUSH2 0x10CE JUMPI PUSH1 0x40 MLOAD PUSH32 0x8C379A000000000000000000000000000000000000000000000000000000000 DUP2 MSTORE PUSH1 0x4 ADD PUSH2 0x10C5 SWAP1 PUSH2 0x2A23 JUMP JUMPDEST PUSH1 0x40 MLOAD DUP1 SWAP2 SUB SWAP1 REVERT JUMPDEST CALLER PUSH20 0xFFFFFFFFFFFFFFFFFFFFFFFFFFFFFFFFFFFFFFFF AND DUP4 PUSH20 0xFFFFFFFFFFFFFFFFFFFFFFFFFFFFFFFFFFFFFFFF AND SUB PUSH2 0x113C JUMPI PUSH1 0x40 MLOAD PUSH32 0x8C379A000000000000000000000000000000000000000000000000000000000 DUP2 MSTORE PUSH1 0x4 ADD PUSH2 0x1133 SWAP1 PUSH2 0x2AB5 JUMP JUMPDEST PUSH1 0x40 MLOAD DUP1 SWAP2 SUB SWAP1 REVERT JUMPDEST PUSH2 0x1150 DUP4 PUSH1 0x1 PUSH2 0x19DE SWAP1 SWAP2 SWAP1 PUSH4 0xFFFFFFFF AND JUMP JUMPDEST PUSH2 0x1158 PUSH2 0x1C38 JUMP JUMPDEST DUP3 DUP2 PUSH1 0x0 ADD DUP2 SWAP1 MSTORE POP DUP2 DUP2 PUSH1 0x20 ADD DUP2 SWAP1 MSTORE POP PUSH1 0x0 DUP2 PUSH1 0x60 ADD DUP2 DUP2 MSTORE POP POP PUSH1 0x8 DUP5 SWAP1 DUP1 PUSH1 0x1 DUP2 SLOAD ADD DUP1 DUP3 SSTORE DUP1 SWAP2 POP POP PUSH1 0x1 SWAP1 SUB SWAP1 PUSH1 0x0 MSTORE PUSH1 0x20 PUSH1 0x0 KECCAK256 ADD PUSH1 0x0 SWAP1 SWAP2 SWAP1 SWAP2 SWAP1 SWAP2 PUSH2 0x100 EXP DUP2 SLOAD DUP2 PUSH20 0xFFFFFFFFFFFFFFFFFFFFFFFFFFFFFFFFFFFFFFFF MUL NOT AND SWAP1 DUP4 PUSH20 0xFFFFFFFFFFFFFFFFFFFFFFFFFFFFFFFFFFFFFFFF AND MUL OR SWAP1 SSTORE POP DUP1 PUSH1 0x3 PUSH1 0x0 DUP7 PUSH20 0xFFFFFFFFFFFFFFFFFFFFFFFFFFFFFFFFFFFFFFFF AND PUSH20 0xFFFFFFFFFFFFFFFFFFFFFFFFFFFFFFFFFFFFFFFF AND DUP2 MSTORE PUSH1 0x20 ADD SWAP1 DUP2 MSTORE PUSH1 0x20 ADD PUSH1 0x0 KECCAK256 PUSH1 0x0 DUP3 ADD MLOAD DUP2 PUSH1 0x0 ADD SWAP1 DUP2 PUSH2 0x122D SWAP2 SWAP1 PUSH2 0x2905 JUMP JUMPDEST POP PUSH1 0x20 DUP3 ADD MLOAD DUP2 PUSH1 0x1 ADD SWAP1 DUP2 PUSH2 0x1243 SWAP2 SWAP1 PUSH2 0x2905 JUMP JUMPDEST POP PUSH1 0x40 DUP3 ADD MLOAD DUP2 PUSH1 0x2 ADD SWAP1 DUP1 MLOAD SWAP1 PUSH1 0x20 ADD SWAP1 PUSH2 0x1260 SWAP3 SWAP2 SWAP1 PUSH2 0x1B90 JUMP JUMPDEST POP PUSH1 0x60 DUP3 ADD MLOAD DUP2 PUSH1 0x3 ADD SSTORE SWAP1 POP POP POP POP POP POP JUMP JUMPDEST PUSH1 0x1 ISZERO ISZERO PUSH2 0x128C CALLER PUSH1 0x0 PUSH2 0x1A86 SWAP1 SWAP2 SWAP1 PUSH4 0xFFFFFFFF AND JUMP JUMPDEST ISZERO ISZERO EQ PUSH2 0x12CE JUMPI PUSH1 0x40 MLOAD PUSH32 0x8C379A000000000000000000000000000000000000000000000000000000000 DUP2 MSTORE PUSH1 0x4 ADD PUSH2 0x12C5 SWAP1 PUSH2 0x2A23 JUMP JUMPDEST PUSH1 0x40 MLOAD DUP1 SWAP2 SUB SWAP1 REVERT JUMPDEST CALLER PUSH20 0xFFFFFFFFFFFFFFFFFFFFFFFFFFFFFFFFFFFFFFFF AND DUP4 PUSH20 0xFFFFFFFFFFFFFFFFFFFFFFFFFFFFFFFFFFFFFFFF AND SUB PUSH2 0x133C JUMPI PUSH1 0x40 MLOAD PUSH32 0x8C379A000000000000000000000000000000000000000000000000000000000 DUP2 MSTORE PUSH1 0x4 ADD PUSH2 0x1333 SWAP1 PUSH2 0x2AB5 JUMP JUMPDEST PUSH1 0x40 MLOAD DUP1 SWAP2 SUB SWAP1 REVERT JUMPDEST PUSH2 0x1350 DUP4 PUSH1 0x2 PUSH2 0x19DE SWAP1 SWAP2 SWAP1 PUSH4 0xFFFFFFFF AND JUMP JUMPDEST PUSH2 0x1358 PUSH2 0x1C60 JUMP JUMPDEST DUP3 DUP2 PUSH1 0x0 ADD DUP2 SWAP1 MSTORE POP DUP2 DUP2 PUSH1 0x20 ADD DUP2 SWAP1 MSTORE POP PUSH1 0x0 DUP2 PUSH1 0x60 ADD DUP2 DUP2 MSTORE POP POP DUP1 PUSH1 0x4 PUSH1 0x0 DUP7 PUSH20 0xFFFFFFFFFFFFFFFFFFFFFFFFFFFFFFFFFFFFFFFF AND PUSH20 0xFFFFFFFFFFFFFFFFFFFFFFFFFFFFFFFFFFFFFFFF AND DUP2 MSTORE PUSH1 0x20 ADD SWAP1 DUP2 MSTORE PUSH1 0x20 ADD PUSH1 0x0 KECCAK256 PUSH1 0x0 DUP3 ADD MLOAD DUP2 PUSH1 0x0 ADD SWAP1 DUP2 PUSH2 0x13CA SWAP2 SWAP1 PUSH2 0x2905 JUMP JUMPDEST POP PUSH1 0x20 DUP3 ADD MLOAD DUP2 PUSH1 0x1 ADD SWAP1 DUP2 PUSH2 0x13E0 SWAP2 SWAP1 PUSH2 0x2905 JUMP JUMPDEST POP PUSH1 0x40 DUP3 ADD MLOAD DUP2 PUSH1 0x2 ADD SWAP1 DUP1 MLOAD SWAP1 PUSH1 0x20 ADD SWAP1 PUSH2 0x13FD SWAP3 SWAP2 SWAP1 PUSH2 0x1B90 JUMP JUMPDEST POP PUSH1 0x60 DUP3 ADD MLOAD DUP2 PUSH1 0x3 ADD SSTORE SWAP1 POP POP PUSH1 0x9 DUP5 SWAP1 DUP1 PUSH1 0x1 DUP2 SLOAD ADD DUP1 DUP3 SSTORE DUP1 SWAP2 POP POP PUSH1 0x1 SWAP1 SUB SWAP1 PUSH1 0x0 MSTORE PUSH1 0x20 PUSH1 0x0 KECCAK256 ADD PUSH1 0x0 SWAP1 SWAP2 SWAP1 SWAP2 SWAP1 SWAP2 PUSH2 0x100 EXP DUP2 SLOAD DUP2 PUSH20 0xFFFFFFFFFFFFFFFFFFFFFFFFFFFFFFFFFFFFFFFF MUL NOT AND SWAP1 DUP4 PUSH20 0xFFFFFFFFFFFFFFFFFFFFFFFFFFFFFFFFFFFFFFFF AND MUL OR SWAP1 SSTORE POP POP POP POP POP JUMP JUMPDEST PUSH1 0x0 PUSH1 0x1 ISZERO ISZERO PUSH2 0x148E CALLER PUSH1 0x1 PUSH2 0x1A86 SWAP1 SWAP2 SWAP1 PUSH4 0xFFFFFFFF AND JUMP JUMPDEST ISZERO ISZERO EQ PUSH2 0x14D0 JUMPI PUSH1 0x40 MLOAD PUSH32 0x8C379A000000000000000000000000000000000000000000000000000000000 DUP2 MSTORE PUSH1 0x4 ADD PUSH2 0x14C7 SWAP1 PUSH2 0x263B JUMP JUMPDEST PUSH1 0x40 MLOAD DUP1 SWAP2 SUB SWAP1 REVERT JUMPDEST CALLER PUSH20 0xFFFFFFFFFFFFFFFFFFFFFFFFFFFFFFFFFFFFFFFF AND PUSH1 0x5 PUSH1 0x0 DUP5 PUSH20 0xFFFFFFFFFFFFFFFFFFFFFFFFFFFFFFFFFFFFFFFF AND PUSH20 0xFFFFFFFFFFFFFFFFFFFFFFFFFFFFFFFFFFFFFFFF AND DUP2 MSTORE PUSH1 0x20 ADD SWAP1 DUP2 MSTORE PUSH1 0x20 ADD PUSH1 0x0 KECCAK256 PUSH1 0x0 SWAP1 SLOAD SWAP1 PUSH2 0x100 EXP SWAP1 DIV PUSH20 0xFFFFFFFFFFFFFFFFFFFFFFFFFFFFFFFFFFFFFFFF AND PUSH20 0xFFFFFFFFFFFFFFFFFFFFFFFFFFFFFFFFFFFFFFFF AND EQ SWAP1 POP SWAP2 SWAP1 POP JUMP JUMPDEST PUSH1 0x0 DUP2 PUSH2 0x157C DUP2 PUSH1 0x1 PUSH2 0x1A86 SWAP1 SWAP2 SWAP1 PUSH4 0xFFFFFFFF AND JUMP JUMPDEST DUP1 PUSH2 0x1597 JUMPI POP PUSH2 0x1596 DUP2 PUSH1 0x2 PUSH2 0x1A86 SWAP1 SWAP2 SWAP1 PUSH4 0xFFFFFFFF AND JUMP JUMPDEST JUMPDEST PUSH2 0x15A0 JUMPI PUSH1 0x0 DUP1 REVERT JUMPDEST PUSH2 0x15B4 CALLER PUSH1 0x1 PUSH2 0x1A86 SWAP1 SWAP2 SWAP1 PUSH4 0xFFFFFFFF AND JUMP JUMPDEST ISZERO PUSH2 0x1603 JUMPI PUSH1 0x3 PUSH1 0x0 CALLER PUSH20 0xFFFFFFFFFFFFFFFFFFFFFFFFFFFFFFFFFFFFFFFF AND PUSH20 0xFFFFFFFFFFFFFFFFFFFFFFFFFFFFFFFFFFFFFFFF AND DUP2 MSTORE PUSH1 0x20 ADD SWAP1 DUP2 MSTORE PUSH1 0x20 ADD PUSH1 0x0 KECCAK256 PUSH1 0x3 ADD SLOAD SWAP2 POP PUSH2 0x1649 JUMP JUMPDEST PUSH1 0x4 PUSH1 0x0 CALLER PUSH20 0xFFFFFFFFFFFFFFFFFFFFFFFFFFFFFFFFFFFFFFFF AND PUSH20 0xFFFFFFFFFFFFFFFFFFFFFFFFFFFFFFFFFFFFFFFF AND DUP2 MSTORE PUSH1 0x20 ADD SWAP1 DUP2 MSTORE PUSH1 0x20 ADD PUSH1 0x0 KECCAK256 PUSH1 0x3 ADD SLOAD SWAP2 POP JUMPDEST POP SWAP2 SWAP1 POP JUMP JUMPDEST PUSH1 0x0 PUSH2 0x1665 DUP3 PUSH1 0x2 PUSH2 0x1A86 SWAP1 SWAP2 SWAP1 PUSH4 0xFFFFFFFF AND JUMP JUMPDEST SWAP1 POP SWAP2 SWAP1 POP JUMP JUMPDEST PUSH1 0x1 ISZERO ISZERO PUSH2 0x1684 CALLER PUSH1 0x0 PUSH2 0x1A86 SWAP1 SWAP2 SWAP1 PUSH4 0xFFFFFFFF AND JUMP JUMPDEST ISZERO ISZERO EQ PUSH2 0x16C6 JUMPI PUSH1 0x40 MLOAD PUSH32 0x8C379A000000000000000000000000000000000000000000000000000000000 DUP2 MSTORE PUSH1 0x4 ADD PUSH2 0x16BD SWAP1 PUSH2 0x2A23 JUMP JUMPDEST PUSH1 0x40 MLOAD DUP1 SWAP2 SUB SWAP1 REVERT JUMPDEST DUP1 PUSH1 0x5 PUSH1 0x0 DUP5 PUSH20 0xFFFFFFFFFFFFFFFFFFFFFFFFFFFFFFFFFFFFFFFF AND PUSH20 0xFFFFFFFFFFFFFFFFFFFFFFFFFFFFFFFFFFFFFFFF AND DUP2 MSTORE PUSH1 0x20 ADD SWAP1 DUP2 MSTORE PUSH1 0x20 ADD PUSH1 0x0 KECCAK256 PUSH1 0x0 PUSH2 0x100 EXP DUP2 SLOAD DUP2 PUSH20 0xFFFFFFFFFFFFFFFFFFFFFFFFFFFFFFFFFFFFFFFF MUL NOT AND SWAP1 DUP4 PUSH20 0xFFFFFFFFFFFFFFFFFFFFFFFFFFFFFFFFFFFFFFFF AND MUL OR SWAP1 SSTORE POP POP POP JUMP JUMPDEST PUSH1 0x0 PUSH2 0x175E DUP3 PUSH1 0x1 PUSH2 0x1A86 SWAP1 SWAP2 SWAP1 PUSH4 0xFFFFFFFF AND JUMP JUMPDEST SWAP1 POP SWAP2 SWAP1 POP JUMP JUMPDEST PUSH1 0x60 PUSH1 0x8 DUP1 SLOAD DUP1 PUSH1 0x20 MUL PUSH1 0x20 ADD PUSH1 0x40 MLOAD SWAP1 DUP2 ADD PUSH1 0x40 MSTORE DUP1 SWAP3 SWAP2 SWAP1 DUP2 DUP2 MSTORE PUSH1 0x20 ADD DUP3 DUP1 SLOAD DUP1 ISZERO PUSH2 0x17E9 JUMPI PUSH1 0x20 MUL DUP3 ADD SWAP2 SWAP1 PUSH1 0x0 MSTORE PUSH1 0x20 PUSH1 0x0 KECCAK256 SWAP1 JUMPDEST DUP2 PUSH1 0x0 SWAP1 SLOAD SWAP1 PUSH2 0x100 EXP SWAP1 DIV PUSH20 0xFFFFFFFFFFFFFFFFFFFFFFFFFFFFFFFFFFFFFFFF AND PUSH20 0xFFFFFFFFFFFFFFFFFFFFFFFFFFFFFFFFFFFFFFFF AND DUP2 MSTORE PUSH1 0x20 ADD SWAP1 PUSH1 0x1 ADD SWAP1 DUP1 DUP4 GT PUSH2 0x179F JUMPI JUMPDEST POP POP POP POP POP SWAP1 POP SWAP1 JUMP JUMPDEST PUSH1 0x60 DUP2 PUSH2 0x180A DUP2 PUSH1 0x1 PUSH2 0x1A86 SWAP1 SWAP2 SWAP1 PUSH4 0xFFFFFFFF AND JUMP JUMPDEST DUP1 PUSH2 0x1825 JUMPI POP PUSH2 0x1824 DUP2 PUSH1 0x2 PUSH2 0x1A86 SWAP1 SWAP2 SWAP1 PUSH4 0xFFFFFFFF AND JUMP JUMPDEST JUMPDEST PUSH2 0x182E JUMPI PUSH1 0x0 DUP1 REVERT JUMPDEST PUSH2 0x1842 CALLER PUSH1 0x1 PUSH2 0x1A86 SWAP1 SWAP2 SWAP1 PUSH4 0xFFFFFFFF AND JUMP JUMPDEST ISZERO PUSH2 0x18DF JUMPI PUSH1 0x3 PUSH1 0x0 CALLER PUSH20 0xFFFFFFFFFFFFFFFFFFFFFFFFFFFFFFFFFFFFFFFF AND PUSH20 0xFFFFFFFFFFFFFFFFFFFFFFFFFFFFFFFFFFFFFFFF AND DUP2 MSTORE PUSH1 0x20 ADD SWAP1 DUP2 MSTORE PUSH1 0x20 ADD PUSH1 0x0 KECCAK256 PUSH1 0x2 ADD DUP1 SLOAD DUP1 PUSH1 0x20 MUL PUSH1 0x20 ADD PUSH1 0x40 MLOAD SWAP1 DUP2 ADD PUSH1 0x40 MSTORE DUP1 SWAP3 SWAP2 SWAP1 DUP2 DUP2 MSTORE PUSH1 0x20 ADD DUP3 DUP1 SLOAD DUP1 ISZERO PUSH2 0x18D3 JUMPI PUSH1 0x20 MUL DUP3 ADD SWAP2 SWAP1 PUSH1 0x0 MSTORE PUSH1 0x20 PUSH1 0x0 KECCAK256 SWAP1 JUMPDEST DUP2 SLOAD DUP2 MSTORE PUSH1 0x20 ADD SWAP1 PUSH1 0x1 ADD SWAP1 DUP1 DUP4 GT PUSH2 0x18BF JUMPI JUMPDEST POP POP POP POP POP SWAP2 POP PUSH2 0x1973 JUMP JUMPDEST PUSH1 0x4 PUSH1 0x0 CALLER PUSH20 0xFFFFFFFFFFFFFFFFFFFFFFFFFFFFFFFFFFFFFFFF AND PUSH20 0xFFFFFFFFFFFFFFFFFFFFFFFFFFFFFFFFFFFFFFFF AND DUP2 MSTORE PUSH1 0x20 ADD SWAP1 DUP2 MSTORE PUSH1 0x20 ADD PUSH1 0x0 KECCAK256 PUSH1 0x2 ADD DUP1 SLOAD DUP1 PUSH1 0x20 MUL PUSH1 0x20 ADD PUSH1 0x40 MLOAD SWAP1 DUP2 ADD PUSH1 0x40 MSTORE DUP1 SWAP3 SWAP2 SWAP1 DUP2 DUP2 MSTORE PUSH1 0x20 ADD DUP3 DUP1 SLOAD DUP1 ISZERO PUSH2 0x196B JUMPI PUSH1 0x20 MUL DUP3 ADD SWAP2 SWAP1 PUSH1 0x0 MSTORE PUSH1 0x20 PUSH1 0x0 KECCAK256 SWAP1 JUMPDEST DUP2 SLOAD DUP2 MSTORE PUSH1 0x20 ADD SWAP1 PUSH1 0x1 ADD SWAP1 DUP1 DUP4 GT PUSH2 0x1957 JUMPI JUMPDEST POP POP POP POP POP SWAP2 POP JUMPDEST POP SWAP2 SWAP1 POP JUMP JUMPDEST PUSH1 0x9 DUP2 DUP2 SLOAD DUP2 LT PUSH2 0x1989 JUMPI PUSH1 0x0 DUP1 REVERT JUMPDEST SWAP1 PUSH1 0x0 MSTORE PUSH1 0x20 PUSH1 0x0 KECCAK256 ADD PUSH1 0x0 SWAP2 POP SLOAD SWAP1 PUSH2 0x100 EXP SWAP1 DIV PUSH20 0xFFFFFFFFFFFFFFFFFFFFFFFFFFFFFFFFFFFFFFFF AND DUP2 JUMP JUMPDEST PUSH1 0xA PUSH1 0x0 SWAP1 SLOAD SWAP1 PUSH2 0x100 EXP SWAP1 DIV PUSH20 0xFFFFFFFFFFFFFFFFFFFFFFFFFFFFFFFFFFFFFFFF AND DUP2 JUMP JUMPDEST PUSH2 0x19E8 DUP3 DUP3 PUSH2 0x1A86 JUMP JUMPDEST ISZERO PUSH2 0x1A28 JUMPI PUSH1 0x40 MLOAD PUSH32 0x8C379A000000000000000000000000000000000000000000000000000000000 DUP2 MSTORE PUSH1 0x4 ADD PUSH2 0x1A1F SWAP1 PUSH2 0x2B21 JUMP JUMPDEST PUSH1 0x40 MLOAD DUP1 SWAP2 SUB SWAP1 REVERT JUMPDEST PUSH1 0x1 DUP3 PUSH1 0x0 ADD PUSH1 0x0 DUP4 PUSH20 0xFFFFFFFFFFFFFFFFFFFFFFFFFFFFFFFFFFFFFFFF AND PUSH20 0xFFFFFFFFFFFFFFFFFFFFFFFFFFFFFFFFFFFFFFFF AND DUP2 MSTORE PUSH1 0x20 ADD SWAP1 DUP2 MSTORE PUSH1 0x20 ADD PUSH1 0x0 KECCAK256 PUSH1 0x0 PUSH2 0x100 EXP DUP2 SLOAD DUP2 PUSH1 0xFF MUL NOT AND SWAP1 DUP4 ISZERO ISZERO MUL OR SWAP1 SSTORE POP POP POP JUMP JUMPDEST PUSH1 0x0 DUP3 PUSH1 0x0 ADD PUSH1 0x0 DUP4 PUSH20 0xFFFFFFFFFFFFFFFFFFFFFFFFFFFFFFFFFFFFFFFF AND PUSH20 0xFFFFFFFFFFFFFFFFFFFFFFFFFFFFFFFFFFFFFFFF AND DUP2 MSTORE PUSH1 0x20 ADD SWAP1 DUP2 MSTORE PUSH1 0x20 ADD PUSH1 0x0 KECCAK256 PUSH1 0x0 SWAP1 SLOAD SWAP1 PUSH2 0x100 EXP SWAP1 DIV PUSH1 0xFF AND SWAP1 POP SWAP3 SWAP2 POP POP JUMP JUMPDEST PUSH1 0x0 PUSH1 0x7 DUP4 DUP2 SLOAD DUP2 LT PUSH2 0x1AF5 JUMPI PUSH2 0x1AF4 PUSH2 0x2560 JUMP JUMPDEST JUMPDEST SWAP1 PUSH1 0x0 MSTORE PUSH1 0x20 PUSH1 0x0 KECCAK256 SWAP1 PUSH1 0x5 MUL ADD SWAP1 POP DUP1 PUSH1 0x4 ADD DUP3 SWAP1 DUP1 PUSH1 0x1 DUP2 SLOAD ADD DUP1 DUP3 SSTORE DUP1 SWAP2 POP POP PUSH1 0x1 SWAP1 SUB SWAP1 PUSH1 0x0 MSTORE PUSH1 0x20 PUSH1 0x0 KECCAK256 ADD PUSH1 0x0 SWAP1 SWAP2 SWAP1 SWAP2 SWAP1 SWAP2 POP SSTORE POP POP POP JUMP JUMPDEST PUSH1 0x40 MLOAD DUP1 PUSH1 0xA0 ADD PUSH1 0x40 MSTORE DUP1 PUSH1 0x0 DUP2 MSTORE PUSH1 0x20 ADD PUSH1 0x0 PUSH20 0xFFFFFFFFFFFFFFFFFFFFFFFFFFFFFFFFFFFFFFFF AND DUP2 MSTORE PUSH1 0x20 ADD PUSH1 0x0 PUSH20 0xFFFFFFFFFFFFFFFFFFFFFFFFFFFFFFFFFFFFFFFF AND DUP2 MSTORE PUSH1 0x20 ADD PUSH1 0x60 DUP2 MSTORE PUSH1 0x20 ADD PUSH1 0x60 DUP2 MSTORE POP SWAP1 JUMP JUMPDEST DUP3 DUP1 SLOAD DUP3 DUP3 SSTORE SWAP1 PUSH1 0x0 MSTORE PUSH1 0x20 PUSH1 0x0 KECCAK256 SWAP1 DUP2 ADD SWAP3 DUP3 ISZERO PUSH2 0x1BCC JUMPI SWAP2 PUSH1 0x20 MUL DUP3 ADD JUMPDEST DUP3 DUP2 GT ISZERO PUSH2 0x1BCB JUMPI DUP3 MLOAD DUP3 SSTORE SWAP2 PUSH1 0x20 ADD SWAP2 SWAP1 PUSH1 0x1 ADD SWAP1 PUSH2 0x1BB0 JUMP JUMPDEST JUMPDEST POP SWAP1 POP PUSH2 0x1BD9 SWAP2 SWAP1 PUSH2 0x1C88 JUMP JUMPDEST POP SWAP1 JUMP JUMPDEST PUSH1 0x40 MLOAD DUP1 PUSH1 0xA0 ADD PUSH1 0x40 MSTORE DUP1 PUSH1 0x0 DUP2 MSTORE PUSH1 0x20 ADD PUSH1 0x0 PUSH20 0xFFFFFFFFFFFFFFFFFFFFFFFFFFFFFFFFFFFFFFFF AND DUP2 MSTORE PUSH1 0x20 ADD PUSH1 0x0 PUSH20 0xFFFFFFFFFFFFFFFFFFFFFFFFFFFFFFFFFFFFFFFF AND DUP2 MSTORE PUSH1 0x20 ADD PUSH1 0x60 DUP2 MSTORE PUSH1 0x20 ADD PUSH1 0x60 DUP2 MSTORE POP SWAP1 JUMP JUMPDEST PUSH1 0x40 MLOAD DUP1 PUSH1 0x80 ADD PUSH1 0x40 MSTORE DUP1 PUSH1 0x60 DUP2 MSTORE PUSH1 0x20 ADD PUSH1 0x60 DUP2 MSTORE PUSH1 0x20 ADD PUSH1 0x60 DUP2 MSTORE PUSH1 0x20 ADD PUSH1 0x0 DUP2 MSTORE POP SWAP1 JUMP JUMPDEST PUSH1 0x40 MLOAD DUP1 PUSH1 0x80 ADD PUSH1 0x40 MSTORE DUP1 PUSH1 0x60 DUP2 MSTORE PUSH1 0x20 ADD PUSH1 0x60 DUP2 MSTORE PUSH1 0x20 ADD PUSH1 0x60 DUP2 MSTORE PUSH1 0x20 ADD PUSH1 0x0 DUP2 MSTORE POP SWAP1 JUMP JUMPDEST JUMPDEST DUP1 DUP3 GT ISZERO PUSH2 0x1CA1 JUMPI PUSH1 0x0 DUP2 PUSH1 0x0 SWAP1 SSTORE POP PUSH1 0x1 ADD PUSH2 0x1C89 JUMP JUMPDEST POP SWAP1 JUMP JUMPDEST PUSH1 0x0 PUSH1 0x40 MLOAD SWAP1 POP SWAP1 JUMP JUMPDEST PUSH1 0x0 DUP1 REVERT JUMPDEST PUSH1 0x0 DUP1 REVERT JUMPDEST PUSH1 0x0 DUP2 SWAP1 POP SWAP2 SWAP1 POP JUMP JUMPDEST PUSH2 0x1CCC DUP2 PUSH2 0x1CB9 JUMP JUMPDEST DUP2 EQ PUSH2 0x1CD7 JUMPI PUSH1 0x0 DUP1 REVERT JUMPDEST POP JUMP JUMPDEST PUSH1 0x0 DUP2 CALLDATALOAD SWAP1 POP PUSH2 0x1CE9 DUP2 PUSH2 0x1CC3 JUMP JUMPDEST SWAP3 SWAP2 POP POP JUMP JUMPDEST PUSH1 0x0 PUSH1 0x20 DUP3 DUP5 SUB SLT ISZERO PUSH2 0x1D05 JUMPI PUSH2 0x1D04 PUSH2 0x1CAF JUMP JUMPDEST JUMPDEST PUSH1 0x0 PUSH2 0x1D13 DUP5 DUP3 DUP6 ADD PUSH2 0x1CDA JUMP JUMPDEST SWAP2 POP POP SWAP3 SWAP2 POP POP JUMP JUMPDEST PUSH2 0x1D25 DUP2 PUSH2 0x1CB9 JUMP JUMPDEST DUP3 MSTORE POP POP JUMP JUMPDEST PUSH1 0x0 PUSH20 0xFFFFFFFFFFFFFFFFFFFFFFFFFFFFFFFFFFFFFFFF DUP3 AND SWAP1 POP SWAP2 SWAP1 POP JUMP JUMPDEST PUSH1 0x0 PUSH2 0x1D56 DUP3 PUSH2 0x1D2B JUMP JUMPDEST SWAP1 POP SWAP2 SWAP1 POP JUMP JUMPDEST PUSH2 0x1D66 DUP2 PUSH2 0x1D4B JUMP JUMPDEST DUP3 MSTORE POP POP JUMP JUMPDEST PUSH1 0x0 DUP2 MLOAD SWAP1 POP SWAP2 SWAP1 POP JUMP JUMPDEST PUSH1 0x0 DUP3 DUP3 MSTORE PUSH1 0x20 DUP3 ADD SWAP1 POP SWAP3 SWAP2 POP POP JUMP JUMPDEST PUSH1 0x0 JUMPDEST DUP4 DUP2 LT ISZERO PUSH2 0x1DA6 JUMPI DUP1 DUP3 ADD MLOAD DUP2 DUP5 ADD MSTORE PUSH1 0x20 DUP2 ADD SWAP1 POP PUSH2 0x1D8B JUMP JUMPDEST DUP4 DUP2 GT ISZERO PUSH2 0x1DB5 JUMPI PUSH1 0x0 DUP5 DUP5 ADD MSTORE JUMPDEST POP POP POP POP JUMP JUMPDEST PUSH1 0x0 PUSH1 0x1F NOT PUSH1 0x1F DUP4 ADD AND SWAP1 POP SWAP2 SWAP1 POP JUMP JUMPDEST PUSH1 0x0 PUSH2 0x1DD7 DUP3 PUSH2 0x1D6C JUMP JUMPDEST PUSH2 0x1DE1 DUP2 DUP6 PUSH2 0x1D77 JUMP JUMPDEST SWAP4 POP PUSH2 0x1DF1 DUP2 DUP6 PUSH1 0x20 DUP7 ADD PUSH2 0x1D88 JUMP JUMPDEST PUSH2 0x1DFA DUP2 PUSH2 0x1DBB JUMP JUMPDEST DUP5 ADD SWAP2 POP POP SWAP3 SWAP2 POP POP JUMP JUMPDEST PUSH1 0x0 DUP2 MLOAD SWAP1 POP SWAP2 SWAP1 POP JUMP JUMPDEST PUSH1 0x0 DUP3 DUP3 MSTORE PUSH1 0x20 DUP3 ADD SWAP1 POP SWAP3 SWAP2 POP POP JUMP JUMPDEST PUSH1 0x0 DUP2 SWAP1 POP PUSH1 0x20 DUP3 ADD SWAP1 POP SWAP2 SWAP1 POP JUMP JUMPDEST PUSH1 0x0 PUSH2 0x1E3D DUP4 DUP4 PUSH2 0x1D1C JUMP JUMPDEST PUSH1 0x20 DUP4 ADD SWAP1 POP SWAP3 SWAP2 POP POP JUMP JUMPDEST PUSH1 0x0 PUSH1 0x20 DUP3 ADD SWAP1 POP SWAP2 SWAP1 POP JUMP JUMPDEST PUSH1 0x0 PUSH2 0x1E61 DUP3 PUSH2 0x1E05 JUMP JUMPDEST PUSH2 0x1E6B DUP2 DUP6 PUSH2 0x1E10 JUMP JUMPDEST SWAP4 POP PUSH2 0x1E76 DUP4 PUSH2 0x1E21 JUMP JUMPDEST DUP1 PUSH1 0x0 JUMPDEST DUP4 DUP2 LT ISZERO PUSH2 0x1EA7 JUMPI DUP2 MLOAD PUSH2 0x1E8E DUP9 DUP3 PUSH2 0x1E31 JUMP JUMPDEST SWAP8 POP PUSH2 0x1E99 DUP4 PUSH2 0x1E49 JUMP JUMPDEST SWAP3 POP POP PUSH1 0x1 DUP2 ADD SWAP1 POP PUSH2 0x1E7A JUMP JUMPDEST POP DUP6 SWAP4 POP POP POP POP SWAP3 SWAP2 POP POP JUMP JUMPDEST PUSH1 0x0 PUSH1 0xA0 DUP4 ADD PUSH1 0x0 DUP4 ADD MLOAD PUSH2 0x1ECC PUSH1 0x0 DUP7 ADD DUP3 PUSH2 0x1D1C JUMP JUMPDEST POP PUSH1 0x20 DUP4 ADD MLOAD PUSH2 0x1EDF PUSH1 0x20 DUP7 ADD DUP3 PUSH2 0x1D5D JUMP JUMPDEST POP PUSH1 0x40 DUP4 ADD MLOAD PUSH2 0x1EF2 PUSH1 0x40 DUP7 ADD DUP3 PUSH2 0x1D5D JUMP JUMPDEST POP PUSH1 0x60 DUP4 ADD MLOAD DUP5 DUP3 SUB PUSH1 0x60 DUP7 ADD MSTORE PUSH2 0x1F0A DUP3 DUP3 PUSH2 0x1DCC JUMP JUMPDEST SWAP2 POP POP PUSH1 0x80 DUP4 ADD MLOAD DUP5 DUP3 SUB PUSH1 0x80 DUP7 ADD MSTORE PUSH2 0x1F24 DUP3 DUP3 PUSH2 0x1E56 JUMP JUMPDEST SWAP2 POP POP DUP1 SWAP2 POP POP SWAP3 SWAP2 POP POP JUMP JUMPDEST PUSH1 0x0 PUSH1 0x20 DUP3 ADD SWAP1 POP DUP2 DUP2 SUB PUSH1 0x0 DUP4 ADD MSTORE PUSH2 0x1F4B DUP2 DUP5 PUSH2 0x1EB4 JUMP JUMPDEST SWAP1 POP SWAP3 SWAP2 POP POP JUMP JUMPDEST PUSH2 0x1F5C DUP2 PUSH2 0x1D4B JUMP JUMPDEST DUP3 MSTORE POP POP JUMP JUMPDEST PUSH1 0x0 PUSH1 0x20 DUP3 ADD SWAP1 POP PUSH2 0x1F77 PUSH1 0x0 DUP4 ADD DUP5 PUSH2 0x1F53 JUMP JUMPDEST SWAP3 SWAP2 POP POP JUMP JUMPDEST PUSH2 0x1F86 DUP2 PUSH2 0x1CB9 JUMP JUMPDEST DUP3 MSTORE POP POP JUMP JUMPDEST PUSH1 0x0 DUP3 DUP3 MSTORE PUSH1 0x20 DUP3 ADD SWAP1 POP SWAP3 SWAP2 POP POP JUMP JUMPDEST PUSH1 0x0 PUSH2 0x1FA8 DUP3 PUSH2 0x1D6C JUMP JUMPDEST PUSH2 0x1FB2 DUP2 DUP6 PUSH2 0x1F8C JUMP JUMPDEST SWAP4 POP PUSH2 0x1FC2 DUP2 DUP6 PUSH1 0x20 DUP7 ADD PUSH2 0x1D88 JUMP JUMPDEST PUSH2 0x1FCB DUP2 PUSH2 0x1DBB JUMP JUMPDEST DUP5 ADD SWAP2 POP POP SWAP3 SWAP2 POP POP JUMP JUMPDEST PUSH1 0x0 PUSH1 0x80 DUP3 ADD SWAP1 POP PUSH2 0x1FEB PUSH1 0x0 DUP4 ADD DUP8 PUSH2 0x1F7D JUMP JUMPDEST PUSH2 0x1FF8 PUSH1 0x20 DUP4 ADD DUP7 PUSH2 0x1F53 JUMP JUMPDEST PUSH2 0x2005 PUSH1 0x40 DUP4 ADD DUP6 PUSH2 0x1F53 JUMP JUMPDEST DUP2 DUP2 SUB PUSH1 0x60 DUP4 ADD MSTORE PUSH2 0x2017 DUP2 DUP5 PUSH2 0x1F9D JUMP JUMPDEST SWAP1 POP SWAP6 SWAP5 POP POP POP POP POP JUMP JUMPDEST PUSH2 0x202B DUP2 PUSH2 0x1D4B JUMP JUMPDEST DUP2 EQ PUSH2 0x2036 JUMPI PUSH1 0x0 DUP1 REVERT JUMPDEST POP JUMP JUMPDEST PUSH1 0x0 DUP2 CALLDATALOAD SWAP1 POP PUSH2 0x2048 DUP2 PUSH2 0x2022 JUMP JUMPDEST SWAP3 SWAP2 POP POP JUMP JUMPDEST PUSH1 0x0 DUP1 REVERT JUMPDEST PUSH1 0x0 DUP1 REVERT JUMPDEST PUSH32 0x4E487B7100000000000000000000000000000000000000000000000000000000 PUSH1 0x0 MSTORE PUSH1 0x41 PUSH1 0x4 MSTORE PUSH1 0x24 PUSH1 0x0 REVERT JUMPDEST PUSH2 0x2090 DUP3 PUSH2 0x1DBB JUMP JUMPDEST DUP2 ADD DUP2 DUP2 LT PUSH8 0xFFFFFFFFFFFFFFFF DUP3 GT OR ISZERO PUSH2 0x20AF JUMPI PUSH2 0x20AE PUSH2 0x2058 JUMP JUMPDEST JUMPDEST DUP1 PUSH1 0x40 MSTORE POP POP POP JUMP JUMPDEST PUSH1 0x0 PUSH2 0x20C2 PUSH2 0x1CA5 JUMP JUMPDEST SWAP1 POP PUSH2 0x20CE DUP3 DUP3 PUSH2 0x2087 JUMP JUMPDEST SWAP2 SWAP1 POP JUMP JUMPDEST PUSH1 0x0 PUSH8 0xFFFFFFFFFFFFFFFF DUP3 GT ISZERO PUSH2 0x20EE JUMPI PUSH2 0x20ED PUSH2 0x2058 JUMP JUMPDEST JUMPDEST PUSH2 0x20F7 DUP3 PUSH2 0x1DBB JUMP JUMPDEST SWAP1 POP PUSH1 0x20 DUP2 ADD SWAP1 POP SWAP2 SWAP1 POP JUMP JUMPDEST DUP3 DUP2 DUP4 CALLDATACOPY PUSH1 0x0 DUP4 DUP4 ADD MSTORE POP POP POP JUMP JUMPDEST PUSH1 0x0 PUSH2 0x2126 PUSH2 0x2121 DUP5 PUSH2 0x20D3 JUMP JUMPDEST PUSH2 0x20B8 JUMP JUMPDEST SWAP1 POP DUP3 DUP2 MSTORE PUSH1 0x20 DUP2 ADD DUP5 DUP5 DUP5 ADD GT ISZERO PUSH2 0x2142 JUMPI PUSH2 0x2141 PUSH2 0x2053 JUMP JUMPDEST JUMPDEST PUSH2 0x214D DUP5 DUP3 DUP6 PUSH2 0x2104 JUMP JUMPDEST POP SWAP4 SWAP3 POP POP POP JUMP JUMPDEST PUSH1 0x0 DUP3 PUSH1 0x1F DUP4 ADD SLT PUSH2 0x216A JUMPI PUSH2 0x2169 PUSH2 0x204E JUMP JUMPDEST JUMPDEST DUP2 CALLDATALOAD PUSH2 0x217A DUP5 DUP3 PUSH1 0x20 DUP7 ADD PUSH2 0x2113 JUMP JUMPDEST SWAP2 POP POP SWAP3 SWAP2 POP POP JUMP JUMPDEST PUSH1 0x0 DUP1 PUSH1 0x40 DUP4 DUP6 SUB SLT ISZERO PUSH2 0x219A JUMPI PUSH2 0x2199 PUSH2 0x1CAF JUMP JUMPDEST JUMPDEST PUSH1 0x0 PUSH2 0x21A8 DUP6 DUP3 DUP7 ADD PUSH2 0x2039 JUMP JUMPDEST SWAP3 POP POP PUSH1 0x20 DUP4 ADD CALLDATALOAD PUSH8 0xFFFFFFFFFFFFFFFF DUP2 GT ISZERO PUSH2 0x21C9 JUMPI PUSH2 0x21C8 PUSH2 0x1CB4 JUMP JUMPDEST JUMPDEST PUSH2 0x21D5 DUP6 DUP3 DUP7 ADD PUSH2 0x2155 JUMP JUMPDEST SWAP2 POP POP SWAP3 POP SWAP3 SWAP1 POP JUMP JUMPDEST PUSH1 0x0 PUSH1 0x20 DUP3 DUP5 SUB SLT ISZERO PUSH2 0x21F5 JUMPI PUSH2 0x21F4 PUSH2 0x1CAF JUMP JUMPDEST JUMPDEST PUSH1 0x0 PUSH2 0x2203 DUP5 DUP3 DUP6 ADD PUSH2 0x2039 JUMP JUMPDEST SWAP2 POP POP SWAP3 SWAP2 POP POP JUMP JUMPDEST PUSH1 0x0 PUSH1 0x40 DUP3 ADD SWAP1 POP DUP2 DUP2 SUB PUSH1 0x0 DUP4 ADD MSTORE PUSH2 0x2226 DUP2 DUP6 PUSH2 0x1F9D JUMP JUMPDEST SWAP1 POP DUP2 DUP2 SUB PUSH1 0x20 DUP4 ADD MSTORE PUSH2 0x223A DUP2 DUP5 PUSH2 0x1F9D JUMP JUMPDEST SWAP1 POP SWAP4 SWAP3 POP POP POP JUMP JUMPDEST PUSH1 0x0 DUP1 PUSH1 0x0 DUP1 PUSH1 0x80 DUP6 DUP8 SUB SLT ISZERO PUSH2 0x225D JUMPI PUSH2 0x225C PUSH2 0x1CAF JUMP JUMPDEST JUMPDEST PUSH1 0x0 PUSH2 0x226B DUP8 DUP3 DUP9 ADD PUSH2 0x2039 JUMP JUMPDEST SWAP5 POP POP PUSH1 0x20 DUP6 ADD CALLDATALOAD PUSH8 0xFFFFFFFFFFFFFFFF DUP2 GT ISZERO PUSH2 0x228C JUMPI PUSH2 0x228B PUSH2 0x1CB4 JUMP JUMPDEST JUMPDEST PUSH2 0x2298 DUP8 DUP3 DUP9 ADD PUSH2 0x2155 JUMP JUMPDEST SWAP4 POP POP PUSH1 0x40 DUP6 ADD CALLDATALOAD PUSH8 0xFFFFFFFFFFFFFFFF DUP2 GT ISZERO PUSH2 0x22B9 JUMPI PUSH2 0x22B8 PUSH2 0x1CB4 JUMP JUMPDEST JUMPDEST PUSH2 0x22C5 DUP8 DUP3 DUP9 ADD PUSH2 0x2155 JUMP JUMPDEST SWAP3 POP POP PUSH1 0x60 PUSH2 0x22D6 DUP8 DUP3 DUP9 ADD PUSH2 0x1CDA JUMP JUMPDEST SWAP2 POP POP SWAP3 SWAP6 SWAP2 SWAP5 POP SWAP3 POP JUMP JUMPDEST PUSH1 0x0 DUP1 PUSH1 0x0 PUSH1 0x60 DUP5 DUP7 SUB SLT ISZERO PUSH2 0x22FB JUMPI PUSH2 0x22FA PUSH2 0x1CAF JUMP JUMPDEST JUMPDEST PUSH1 0x0 PUSH2 0x2309 DUP7 DUP3 DUP8 ADD PUSH2 0x2039 JUMP JUMPDEST SWAP4 POP POP PUSH1 0x20 DUP5 ADD CALLDATALOAD PUSH8 0xFFFFFFFFFFFFFFFF DUP2 GT ISZERO PUSH2 0x232A JUMPI PUSH2 0x2329 PUSH2 0x1CB4 JUMP JUMPDEST JUMPDEST PUSH2 0x2336 DUP7 DUP3 DUP8 ADD PUSH2 0x2155 JUMP JUMPDEST SWAP3 POP POP PUSH1 0x40 DUP5 ADD CALLDATALOAD PUSH8 0xFFFFFFFFFFFFFFFF DUP2 GT ISZERO PUSH2 0x2357 JUMPI PUSH2 0x2356 PUSH2 0x1CB4 JUMP JUMPDEST JUMPDEST PUSH2 0x2363 DUP7 DUP3 DUP8 ADD PUSH2 0x2155 JUMP JUMPDEST SWAP2 POP POP SWAP3 POP SWAP3 POP SWAP3 JUMP JUMPDEST PUSH1 0x0 DUP2 ISZERO ISZERO SWAP1 POP SWAP2 SWAP1 POP JUMP JUMPDEST PUSH2 0x2382 DUP2 PUSH2 0x236D JUMP JUMPDEST DUP3 MSTORE POP POP JUMP JUMPDEST PUSH1 0x0 PUSH1 0x20 DUP3 ADD SWAP1 POP PUSH2 0x239D PUSH1 0x0 DUP4 ADD DUP5 PUSH2 0x2379 JUMP JUMPDEST SWAP3 SWAP2 POP POP JUMP JUMPDEST PUSH1 0x0 PUSH1 0x20 DUP3 ADD SWAP1 POP PUSH2 0x23B8 PUSH1 0x0 DUP4 ADD DUP5 PUSH2 0x1F7D JUMP JUMPDEST SWAP3 SWAP2 POP POP JUMP JUMPDEST PUSH1 0x0 DUP1 PUSH1 0x40 DUP4 DUP6 SUB SLT ISZERO PUSH2 0x23D5 JUMPI PUSH2 0x23D4 PUSH2 0x1CAF JUMP JUMPDEST JUMPDEST PUSH1 0x0 PUSH2 0x23E3 DUP6 DUP3 DUP7 ADD PUSH2 0x2039 JUMP JUMPDEST SWAP3 POP POP PUSH1 0x20 PUSH2 0x23F4 DUP6 DUP3 DUP7 ADD PUSH2 0x2039 JUMP JUMPDEST SWAP2 POP POP SWAP3 POP SWAP3 SWAP1 POP JUMP JUMPDEST PUSH1 0x0 DUP2 MLOAD SWAP1 POP SWAP2 SWAP1 POP JUMP JUMPDEST PUSH1 0x0 DUP3 DUP3 MSTORE PUSH1 0x20 DUP3 ADD SWAP1 POP SWAP3 SWAP2 POP POP JUMP JUMPDEST PUSH1 0x0 DUP2 SWAP1 POP PUSH1 0x20 DUP3 ADD SWAP1 POP SWAP2 SWAP1 POP JUMP JUMPDEST PUSH1 0x0 PUSH2 0x2436 DUP4 DUP4 PUSH2 0x1D5D JUMP JUMPDEST PUSH1 0x20 DUP4 ADD SWAP1 POP SWAP3 SWAP2 POP POP JUMP JUMPDEST PUSH1 0x0 PUSH1 0x20 DUP3 ADD SWAP1 POP SWAP2 SWAP1 POP JUMP JUMPDEST PUSH1 0x0 PUSH2 0x245A DUP3 PUSH2 0x23FE JUMP JUMPDEST PUSH2 0x2464 DUP2 DUP6 PUSH2 0x2409 JUMP JUMPDEST SWAP4 POP PUSH2 0x246F DUP4 PUSH2 0x241A JUMP JUMPDEST DUP1 PUSH1 0x0 JUMPDEST DUP4 DUP2 LT ISZERO PUSH2 0x24A0 JUMPI DUP2 MLOAD PUSH2 0x2487 DUP9 DUP3 PUSH2 0x242A JUMP JUMPDEST SWAP8 POP PUSH2 0x2492 DUP4 PUSH2 0x2442 JUMP JUMPDEST SWAP3 POP POP PUSH1 0x1 DUP2 ADD SWAP1 POP PUSH2 0x2473 JUMP JUMPDEST POP DUP6 SWAP4 POP POP POP POP SWAP3 SWAP2 POP POP JUMP JUMPDEST PUSH1 0x0 PUSH1 0x20 DUP3 ADD SWAP1 POP DUP2 DUP2 SUB PUSH1 0x0 DUP4 ADD MSTORE PUSH2 0x24C7 DUP2 DUP5 PUSH2 0x244F JUMP JUMPDEST SWAP1 POP SWAP3 SWAP2 POP POP JUMP JUMPDEST PUSH1 0x0 DUP3 DUP3 MSTORE PUSH1 0x20 DUP3 ADD SWAP1 POP SWAP3 SWAP2 POP POP JUMP JUMPDEST PUSH1 0x0 PUSH2 0x24EB DUP3 PUSH2 0x1E05 JUMP JUMPDEST PUSH2 0x24F5 DUP2 DUP6 PUSH2 0x24CF JUMP JUMPDEST SWAP4 POP PUSH2 0x2500 DUP4 PUSH2 0x1E21 JUMP JUMPDEST DUP1 PUSH1 0x0 JUMPDEST DUP4 DUP2 LT ISZERO PUSH2 0x2531 JUMPI DUP2 MLOAD PUSH2 0x2518 DUP9 DUP3 PUSH2 0x1E31 JUMP JUMPDEST SWAP8 POP PUSH2 0x2523 DUP4 PUSH2 0x1E49 JUMP JUMPDEST SWAP3 POP POP PUSH1 0x1 DUP2 ADD SWAP1 POP PUSH2 0x2504 JUMP JUMPDEST POP DUP6 SWAP4 POP POP POP POP SWAP3 SWAP2 POP POP JUMP JUMPDEST PUSH1 0x0 PUSH1 0x20 DUP3 ADD SWAP1 POP DUP2 DUP2 SUB PUSH1 0x0 DUP4 ADD MSTORE PUSH2 0x2558 DUP2 DUP5 PUSH2 0x24E0 JUMP JUMPDEST SWAP1 POP SWAP3 SWAP2 POP POP JUMP JUMPDEST PUSH32 0x4E487B7100000000000000000000000000000000000000000000000000000000 PUSH1 0x0 MSTORE PUSH1 0x32 PUSH1 0x4 MSTORE PUSH1 0x24 PUSH1 0x0 REVERT JUMPDEST PUSH32 0x4E487B7100000000000000000000000000000000000000000000000000000000 PUSH1 0x0 MSTORE PUSH1 0x22 PUSH1 0x4 MSTORE PUSH1 0x24 PUSH1 0x0 REVERT JUMPDEST PUSH1 0x0 PUSH1 0x2 DUP3 DIV SWAP1 POP PUSH1 0x1 DUP3 AND DUP1 PUSH2 0x25D6 JUMPI PUSH1 0x7F DUP3 AND SWAP2 POP JUMPDEST PUSH1 0x20 DUP3 LT DUP2 SUB PUSH2 0x25E9 JUMPI PUSH2 0x25E8 PUSH2 0x258F JUMP JUMPDEST JUMPDEST POP SWAP2 SWAP1 POP JUMP JUMPDEST PUSH32 0x446F63746F72206F6E6C79000000000000000000000000000000000000000000 PUSH1 0x0 DUP3 ADD MSTORE POP JUMP JUMPDEST PUSH1 0x0 PUSH2 0x2625 PUSH1 0xB DUP4 PUSH2 0x1F8C JUMP JUMPDEST SWAP2 POP PUSH2 0x2630 DUP3 PUSH2 0x25EF JUMP JUMPDEST PUSH1 0x20 DUP3 ADD SWAP1 POP SWAP2 SWAP1 POP JUMP JUMPDEST PUSH1 0x0 PUSH1 0x20 DUP3 ADD SWAP1 POP DUP2 DUP2 SUB PUSH1 0x0 DUP4 ADD MSTORE PUSH2 0x2654 DUP2 PUSH2 0x2618 JUMP JUMPDEST SWAP1 POP SWAP2 SWAP1 POP JUMP JUMPDEST PUSH32 0x596F7520686176656E2774206265656E2061737369676E656420746869732070 PUSH1 0x0 DUP3 ADD MSTORE PUSH32 0x617469656E740000000000000000000000000000000000000000000000000000 PUSH1 0x20 DUP3 ADD MSTORE POP JUMP JUMPDEST PUSH1 0x0 PUSH2 0x26B7 PUSH1 0x26 DUP4 PUSH2 0x1F8C JUMP JUMPDEST SWAP2 POP PUSH2 0x26C2 DUP3 PUSH2 0x265B JUMP JUMPDEST PUSH1 0x40 DUP3 ADD SWAP1 POP SWAP2 SWAP1 POP JUMP JUMPDEST PUSH1 0x0 PUSH1 0x20 DUP3 ADD SWAP1 POP DUP2 DUP2 SUB PUSH1 0x0 DUP4 ADD MSTORE PUSH2 0x26E6 DUP2 PUSH2 0x26AA JUMP JUMPDEST SWAP1 POP SWAP2 SWAP1 POP JUMP JUMPDEST PUSH32 0x4E6F7420666F722061646D696E00000000000000000000000000000000000000 PUSH1 0x0 DUP3 ADD MSTORE POP JUMP JUMPDEST PUSH1 0x0 PUSH2 0x2723 PUSH1 0xD DUP4 PUSH2 0x1F8C JUMP JUMPDEST SWAP2 POP PUSH2 0x272E DUP3 PUSH2 0x26ED JUMP JUMPDEST PUSH1 0x20 DUP3 ADD SWAP1 POP SWAP2 SWAP1 POP JUMP JUMPDEST PUSH1 0x0 PUSH1 0x20 DUP3 ADD SWAP1 POP DUP2 DUP2 SUB PUSH1 0x0 DUP4 ADD MSTORE PUSH2 0x2752 DUP2 PUSH2 0x2716 JUMP JUMPDEST SWAP1 POP SWAP2 SWAP1 POP JUMP JUMPDEST PUSH1 0x0 DUP2 SWAP1 POP DUP2 PUSH1 0x0 MSTORE PUSH1 0x20 PUSH1 0x0 KECCAK256 SWAP1 POP SWAP2 SWAP1 POP JUMP JUMPDEST PUSH1 0x0 PUSH1 0x20 PUSH1 0x1F DUP4 ADD DIV SWAP1 POP SWAP2 SWAP1 POP JUMP JUMPDEST PUSH1 0x0 DUP3 DUP3 SHL SWAP1 POP SWAP3 SWAP2 POP POP JUMP JUMPDEST PUSH1 0x0 PUSH1 0x8 DUP4 MUL PUSH2 0x27BB PUSH32 0xFFFFFFFFFFFFFFFFFFFFFFFFFFFFFFFFFFFFFFFFFFFFFFFFFFFFFFFFFFFFFFFF DUP3 PUSH2 0x277E JUMP JUMPDEST PUSH2 0x27C5 DUP7 DUP4 PUSH2 0x277E JUMP JUMPDEST SWAP6 POP DUP1 NOT DUP5 AND SWAP4 POP DUP1 DUP7 AND DUP5 OR SWAP3 POP POP POP SWAP4 SWAP3 POP POP POP JUMP JUMPDEST PUSH1 0x0 DUP2 SWAP1 POP SWAP2 SWAP1 POP JUMP JUMPDEST PUSH1 0x0 PUSH2 0x2802 PUSH2 0x27FD PUSH2 0x27F8 DUP5 PUSH2 0x1CB9 JUMP JUMPDEST PUSH2 0x27DD JUMP JUMPDEST PUSH2 0x1CB9 JUMP JUMPDEST SWAP1 POP SWAP2 SWAP1 POP JUMP JUMPDEST PUSH1 0x0 DUP2 SWAP1 POP SWAP2 SWAP1 POP JUMP JUMPDEST PUSH2 0x281C DUP4 PUSH2 0x27E7 JUMP JUMPDEST PUSH2 0x2830 PUSH2 0x2828 DUP3 PUSH2 0x2809 JUMP JUMPDEST DUP5 DUP5 SLOAD PUSH2 0x278B JUMP JUMPDEST DUP3 SSTORE POP POP POP POP JUMP JUMPDEST PUSH1 0x0 SWAP1 JUMP JUMPDEST PUSH2 0x2845 PUSH2 0x2838 JUMP JUMPDEST PUSH2 0x2850 DUP2 DUP5 DUP5 PUSH2 0x2813 JUMP JUMPDEST POP POP POP JUMP JUMPDEST JUMPDEST DUP2 DUP2 LT ISZERO PUSH2 0x2874 JUMPI PUSH2 0x2869 PUSH1 0x0 DUP3 PUSH2 0x283D JUMP JUMPDEST PUSH1 0x1 DUP2 ADD SWAP1 POP PUSH2 0x2856 JUMP JUMPDEST POP POP JUMP JUMPDEST PUSH1 0x1F DUP3 GT ISZERO PUSH2 0x28B9 JUMPI PUSH2 0x288A DUP2 PUSH2 0x2759 JUMP JUMPDEST PUSH2 0x2893 DUP5 PUSH2 0x276E JUMP JUMPDEST DUP2 ADD PUSH1 0x20 DUP6 LT ISZERO PUSH2 0x28A2 JUMPI DUP2 SWAP1 POP JUMPDEST PUSH2 0x28B6 PUSH2 0x28AE DUP6 PUSH2 0x276E JUMP JUMPDEST DUP4 ADD DUP3 PUSH2 0x2855 JUMP JUMPDEST POP POP JUMPDEST POP POP POP JUMP JUMPDEST PUSH1 0x0 DUP3 DUP3 SHR SWAP1 POP SWAP3 SWAP2 POP POP JUMP JUMPDEST PUSH1 0x0 PUSH2 0x28DC PUSH1 0x0 NOT DUP5 PUSH1 0x8 MUL PUSH2 0x28BE JUMP JUMPDEST NOT DUP1 DUP4 AND SWAP2 POP POP SWAP3 SWAP2 POP POP JUMP JUMPDEST PUSH1 0x0 PUSH2 0x28F5 DUP4 DUP4 PUSH2 0x28CB JUMP JUMPDEST SWAP2 POP DUP3 PUSH1 0x2 MUL DUP3 OR SWAP1 POP SWAP3 SWAP2 POP POP JUMP JUMPDEST PUSH2 0x290E DUP3 PUSH2 0x1D6C JUMP JUMPDEST PUSH8 0xFFFFFFFFFFFFFFFF DUP2 GT ISZERO PUSH2 0x2927 JUMPI PUSH2 0x2926 PUSH2 0x2058 JUMP JUMPDEST JUMPDEST PUSH2 0x2931 DUP3 SLOAD PUSH2 0x25BE JUMP JUMPDEST PUSH2 0x293C DUP3 DUP3 DUP6 PUSH2 0x2878 JUMP JUMPDEST PUSH1 0x0 PUSH1 0x20 SWAP1 POP PUSH1 0x1F DUP4 GT PUSH1 0x1 DUP2 EQ PUSH2 0x296F JUMPI PUSH1 0x0 DUP5 ISZERO PUSH2 0x295D JUMPI DUP3 DUP8 ADD MLOAD SWAP1 POP JUMPDEST PUSH2 0x2967 DUP6 DUP3 PUSH2 0x28E9 JUMP JUMPDEST DUP7 SSTORE POP PUSH2 0x29CF JUMP JUMPDEST PUSH1 0x1F NOT DUP5 AND PUSH2 0x297D DUP7 PUSH2 0x2759 JUMP JUMPDEST PUSH1 0x0 JUMPDEST DUP3 DUP2 LT ISZERO PUSH2 0x29A5 JUMPI DUP5 DUP10 ADD MLOAD DUP3 SSTORE PUSH1 0x1 DUP3 ADD SWAP2 POP PUSH1 0x20 DUP6 ADD SWAP5 POP PUSH1 0x20 DUP2 ADD SWAP1 POP PUSH2 0x2980 JUMP JUMPDEST DUP7 DUP4 LT ISZERO PUSH2 0x29C2 JUMPI DUP5 DUP10 ADD MLOAD PUSH2 0x29BE PUSH1 0x1F DUP10 AND DUP3 PUSH2 0x28CB JUMP JUMPDEST DUP4 SSTORE POP JUMPDEST PUSH1 0x1 PUSH1 0x2 DUP9 MUL ADD DUP9 SSTORE POP POP POP JUMPDEST POP POP POP POP POP POP JUMP JUMPDEST PUSH32 0x41646D696E206F6E6C7900000000000000000000000000000000000000000000 PUSH1 0x0 DUP3 ADD MSTORE POP JUMP JUMPDEST PUSH1 0x0 PUSH2 0x2A0D PUSH1 0xA DUP4 PUSH2 0x1F8C JUMP JUMPDEST SWAP2 POP PUSH2 0x2A18 DUP3 PUSH2 0x29D7 JUMP JUMPDEST PUSH1 0x20 DUP3 ADD SWAP1 POP SWAP2 SWAP1 POP JUMP JUMPDEST PUSH1 0x0 PUSH1 0x20 DUP3 ADD SWAP1 POP DUP2 DUP2 SUB PUSH1 0x0 DUP4 ADD MSTORE PUSH2 0x2A3C DUP2 PUSH2 0x2A00 JUMP JUMPDEST SWAP1 POP SWAP2 SWAP1 POP JUMP JUMPDEST PUSH32 0x596F7520617265206E6F7420656C696769626C6520666F72207468697320726F PUSH1 0x0 DUP3 ADD MSTORE PUSH32 0x6C65000000000000000000000000000000000000000000000000000000000000 PUSH1 0x20 DUP3 ADD MSTORE POP JUMP JUMPDEST PUSH1 0x0 PUSH2 0x2A9F PUSH1 0x22 DUP4 PUSH2 0x1F8C JUMP JUMPDEST SWAP2 POP PUSH2 0x2AAA DUP3 PUSH2 0x2A43 JUMP JUMPDEST PUSH1 0x40 DUP3 ADD SWAP1 POP SWAP2 SWAP1 POP JUMP JUMPDEST PUSH1 0x0 PUSH1 0x20 DUP3 ADD SWAP1 POP DUP2 DUP2 SUB PUSH1 0x0 DUP4 ADD MSTORE PUSH2 0x2ACE DUP2 PUSH2 0x2A92 JUMP JUMPDEST SWAP1 POP SWAP2 SWAP1 POP JUMP JUMPDEST PUSH32 0x526F6C65733A206163636F756E7420616C72656164792068617320726F6C6500 PUSH1 0x0 DUP3 ADD MSTORE POP JUMP JUMPDEST PUSH1 0x0 PUSH2 0x2B0B PUSH1 0x1F DUP4 PUSH2 0x1F8C JUMP JUMPDEST SWAP2 POP PUSH2 0x2B16 DUP3 PUSH2 0x2AD5 JUMP JUMPDEST PUSH1 0x20 DUP3 ADD SWAP1 POP SWAP2 SWAP1 POP JUMP JUMPDEST PUSH1 0x0 PUSH1 0x20 DUP3 ADD SWAP1 POP DUP2 DUP2 SUB PUSH1 0x0 DUP4 ADD MSTORE PUSH2 0x2B3A DUP2 PUSH2 0x2AFE JUMP JUMPDEST SWAP1 POP SWAP2 SWAP1 POP JUMP INVALID LOG2 PUSH5 0x6970667358 0x22 SLT KECCAK256 SSTORE DUP5 0xF6 0x49 STOP RETURNDATACOPY SWAP8 NUMBER 0xD8 0xED 0xDA SLT 0xC5 LOG2 0x5E LOG2 PUSH21 0x36B21B7D91374CBE2F266D5E23115064736F6C6343 STOP ADDMOD 0xF STOP CALLER "},"gasEstimates":{"creation":{"codeDepositCost":"2225400","executionCost":"infinite","totalCost":"infinite"},"external":{"addDoctor(address,string,string)":"infinite","addPatient(address,string,string)":"infinite","admin()":"2624","assign(address,address)":"infinite","createAppointment(address,string,string,uint256)":"infinite","createRecord(address,string)":"infinite","doctorList(uint256)":"5002","getDoctor(address)":"infinite","getDoctorList()":"infinite","getMedicalRecord(uint256)":"infinite","getRecordCount(address)":"infinite","getRecordNumbers(address)":"infinite","isAssignedToDoctor(address)":"infinite","isDoctor(address)":"infinite","isPatient(address)":"infinite","patientList(uint256)":"5044","recordList(uint256)":"infinite"},"internal":{"addAppointmentToRecord(uint256,uint256)":"48649"}},"methodIdentifiers":{"addDoctor(address,string,string)":"34b78998","addPatient(address,string,string)":"37b16b50","admin()":"f851a440","assign(address,address)":"9429e171","createAppointment(address,string,string,uint256)":"34b3e4f1","createRecord(address,string)":"1f21a79d","doctorList(uint256)":"127ca4b4","getDoctor(address)":"2f04e064","getDoctorList()":"a71aefc9","getMedicalRecord(uint256)":"0c388722","getRecordCount(address)":"58214308","getRecordNumbers(address)":"b105e22e","isAssignedToDoctor(address)":"400d288f","isDoctor(address)":"996440c6","isPatient(address)":"8f9c79ed","patientList(uint256)":"babb1d41","recordList(uint256)":"19da83a8"}},"storageLayout":{"storage":[{"astId":85,"contract":"Contract.sol:Contract","label":"adminRole","offset":0,"slot":"0","type":"t_struct(Role)7_storage"},{"astId":88,"contract":"Contract.sol:Contract","label":"doctorRole","offset":0,"slot":"1","type":"t_struct(Role)7_storage"},{"astId":91,"contract":"Contract.sol:Contract","label":"patientRole","offset":0,"slot":"2","type":"t_struct(Role)7_storage"},{"astId":139,"contract":"Contract.sol:Contract","label":"addressToDoctorMapping","offset":0,"slot":"3","type":"t_mapping(t_address,t_struct(Doctor)101_storage)"},{"astId":144,"contract":"Contract.sol:Contract","label":"addressToPatientMapping","offset":0,"slot":"4","type":"t_mapping(t_address,t_struct(Patient)111_storage)"},{"astId":148,"contract":"Contract.sol:Contract","label":"patientToDoctorMapping","offset":0,"slot":"5","type":"t_mapping(t_address,t_address)"},{"astId":152,"contract":"Contract.sol:Contract","label":"appointmentList","offset":0,"slot":"6","type":"t_array(t_struct(Appointment)134_storage)dyn_storage"},{"astId":156,"contract":"Contract.sol:Contract","label":"recordList","offset":0,"slot":"7","type":"t_array(t_struct(Record)123_storage)dyn_storage"},{"astId":159,"contract":"Contract.sol:Contract","label":"doctorList","offset":0,"slot":"8","type":"t_array(t_address)dyn_storage"},{"astId":162,"contract":"Contract.sol:Contract","label":"patientList","offset":0,"slot":"9","type":"t_array(t_address)dyn_storage"},{"astId":164,"contract":"Contract.sol:Contract","label":"admin","offset":0,"slot":"10","type":"t_address"}],"types":{"t_address":{"encoding":"inplace","label":"address","numberOfBytes":"20"},"t_array(t_address)dyn_storage":{"base":"t_address","encoding":"dynamic_array","label":"address[]","numberOfBytes":"32"},"t_array(t_struct(Appointment)134_storage)dyn_storage":{"base":"t_struct(Appointment)134_storage","encoding":"dynamic_array","label":"struct Contract.Appointment[]","numberOfBytes":"32"},"t_array(t_struct(Record)123_storage)dyn_storage":{"base":"t_struct(Record)123_storage","encoding":"dynamic_array","label":"struct Contract.Record[]","numberOfBytes":"32"},"t_array(t_uint256)dyn_storage":{"base":"t_uint256","encoding":"dynamic_array","label":"uint256[]","numberOfBytes":"32"},"t_bool":{"encoding":"inplace","label":"bool","numberOfBytes":"1"},"t_mapping(t_address,t_address)":{"encoding":"mapping","key":"t_address","label":"mapping(address => address)","numberOfBytes":"32","value":"t_address"},"t_mapping(t_address,t_bool)":{"encoding":"mapping","key":"t_address","label":"mapping(address => bool)","numberOfBytes":"32","value":"t_bool"},"t_mapping(t_address,t_struct(Doctor)101_storage)":{"encoding":"mapping","key":"t_address","label":"mapping(address => struct Contract.Doctor)","numberOfBytes":"32","value":"t_struct(Doctor)101_storage"},"t_mapping(t_address,t_struct(Patient)111_storage)":{"encoding":"mapping","key":"t_address","label":"mapping(address => struct Contract.Patient)","numberOfBytes":"32","value":"t_struct(Patient)111_storage"},"t_string_storage":{"encoding":"bytes","label":"string","numberOfBytes":"32"},"t_struct(Appointment)134_storage":{"encoding":"inplace","label":"struct Contract.Appointment","members":[{"astId":125,"contract":"Contract.sol:Contract","label":"number","offset":0,"slot":"0","type":"t_uint256"},{"astId":127,"contract":"Contract.sol:Contract","label":"patientAddress","offset":0,"slot":"1","type":"t_address"},{"astId":129,"contract":"Contract.sol:Contract","label":"doctorAddress","offset":0,"slot":"2","type":"t_address"},{"astId":131,"contract":"Contract.sol:Contract","label":"diagnosis","offset":0,"slot":"3","type":"t_string_storage"},{"astId":133,"contract":"Contract.sol:Contract","label":"treatmentPrescribed","offset":0,"slot":"4","type":"t_string_storage"}],"numberOfBytes":"160"},"t_struct(Doctor)101_storage":{"encoding":"inplace","label":"struct Contract.Doctor","members":[{"astId":93,"contract":"Contract.sol:Contract","label":"name","offset":0,"slot":"0","type":"t_string_storage"},{"astId":95,"contract":"Contract.sol:Contract","label":"phoneNumber","offset":0,"slot":"1","type":"t_string_storage"},{"astId":98,"contract":"Contract.sol:Contract","label":"recordNumberList","offset":0,"slot":"2","type":"t_array(t_uint256)dyn_storage"},{"astId":100,"contract":"Contract.sol:Contract","label":"recordCount","offset":0,"slot":"3","type":"t_uint256"}],"numberOfBytes":"128"},"t_struct(Patient)111_storage":{"encoding":"inplace","label":"struct Contract.Patient","members":[{"astId":103,"contract":"Contract.sol:Contract","label":"name","offset":0,"slot":"0","type":"t_string_storage"},{"astId":105,"contract":"Contract.sol:Contract","label":"phoneNumber","offset":0,"slot":"1","type":"t_string_storage"},{"astId":108,"contract":"Contract.sol:Contract","label":"recordNumberList","offset":0,"slot":"2","type":"t_array(t_uint256)dyn_storage"},{"astId":110,"contract":"Contract.sol:Contract","label":"recordCount","offset":0,"slot":"3","type":"t_uint256"}],"numberOfBytes":"128"},"t_struct(Record)123_storage":{"encoding":"inplace","label":"struct Contract.Record","members":[{"astId":113,"contract":"Contract.sol:Contract","label":"recordNumber","offset":0,"slot":"0","type":"t_uint256"},{"astId":115,"contract":"Contract.sol:Contract","label":"doctorAddress","offset":0,"slot":"1","type":"t_address"},{"astId":117,"contract":"Contract.sol:Contract","label":"patientAddress","offset":0,"slot":"2","type":"t_address"},{"astId":119,"contract":"Contract.sol:Contract","label":"patientHistoryDescription","offset":0,"slot":"3","type":"t_string_storage"},{"astId":122,"contract":"Contract.sol:Contract","label":"appointmentNumberList","offset":0,"slot":"4","type":"t_array(t_uint256)dyn_storage"}],"numberOfBytes":"160"},"t_struct(Role)7_storage":{"encoding":"inplace","label":"struct Roles.Role","members":[{"astId":6,"contract":"Contract.sol:Contract","label":"bearer","offset":0,"slot":"0","type":"t_mapping(t_address,t_bool)"}],"numberOfBytes":"32"},"t_uint256":{"encoding":"inplace","label":"uint256","numberOfBytes":"32"}}},"userdoc":{"kind":"user","methods":{},"version":1}}